{"contracts/MicrogridRegistry.sol":{"MicrogridRegistry":{"abi":[{"inputs":[{"internalType":"address","name":"_owner","type":"address"}],"stateMutability":"nonpayable","type":"constructor"},{"inputs":[{"internalType":"address","name":"owner","type":"address"}],"name":"OwnableInvalidOwner","type":"error"},{"inputs":[{"internalType":"address","name":"account","type":"address"}],"name":"OwnableUnauthorizedAccount","type":"error"},{"anonymous":false,"inputs":[{"indexed":true,"internalType":"uint256","name":"id","type":"uint256"},{"indexed":true,"internalType":"address","name":"owner","type":"address"},{"indexed":false,"internalType":"string","name":"name","type":"string"},{"indexed":false,"internalType":"uint256","name":"latitude","type":"uint256"},{"indexed":false,"internalType":"uint256","name":"longitude","type":"uint256"}],"name":"MicrogridRegistered","type":"event"},{"anonymous":false,"inputs":[{"indexed":true,"internalType":"address","name":"previousOwner","type":"address"},{"indexed":true,"internalType":"address","name":"newOwner","type":"address"}],"name":"OwnershipTransferred","type":"event"},{"anonymous":false,"inputs":[{"indexed":true,"internalType":"uint256","name":"id","type":"uint256"},{"indexed":false,"internalType":"uint256","name":"reservedEnergy","type":"uint256"}],"name":"ReservedEnergyUpdated","type":"event"},{"anonymous":false,"inputs":[{"indexed":true,"internalType":"uint256","name":"id","type":"uint256"},{"indexed":false,"internalType":"uint256","name":"energyGenerated","type":"uint256"},{"indexed":false,"internalType":"uint256","name":"energyDemand","type":"uint256"},{"indexed":false,"internalType":"uint256","name":"batteryLevel","type":"uint256"},{"indexed":false,"internalType":"uint256","name":"lastUpdated","type":"uint256"}],"name":"StatusUpdated","type":"event"},{"inputs":[{"internalType":"uint256","name":"_id","type":"uint256"},{"internalType":"uint256","name":"_amount","type":"uint256"}],"name":"decreaseReservedEnergy","outputs":[],"stateMutability":"nonpayable","type":"function"},{"inputs":[{"internalType":"uint256","name":"_id","type":"uint256"}],"name":"getAvailableEnergy","outputs":[{"internalType":"uint256","name":"","type":"uint256"}],"stateMutability":"view","type":"function"},{"inputs":[{"internalType":"uint256","name":"_id","type":"uint256"}],"name":"getMicrogrid","outputs":[{"components":[{"internalType":"uint256","name":"id","type":"uint256"},{"internalType":"string","name":"name","type":"string"},{"internalType":"address","name":"owner","type":"address"},{"internalType":"uint256","name":"latitude","type":"uint256"},{"internalType":"uint256","name":"longitude","type":"uint256"},{"internalType":"uint256","name":"energyGenerated","type":"uint256"},{"internalType":"uint256","name":"energyDemand","type":"uint256"},{"internalType":"uint256","name":"batteryLevel","type":"uint256"},{"internalType":"uint256","name":"maxCapacity","type":"uint256"},{"internalType":"uint256","name":"reservedEnergy","type":"uint256"},{"internalType":"bool","name":"isActive","type":"bool"},{"internalType":"uint256","name":"lastUpdated","type":"uint256"}],"internalType":"struct MicrogridRegistry.Microgrid","name":"","type":"tuple"}],"stateMutability":"view","type":"function"},{"inputs":[{"internalType":"uint256","name":"_id","type":"uint256"}],"name":"getOwner","outputs":[{"internalType":"address","name":"","type":"address"}],"stateMutability":"view","type":"function"},{"inputs":[{"internalType":"uint256","name":"_id","type":"uint256"}],"name":"getPricingData","outputs":[{"internalType":"uint256","name":"generation","type":"uint256"},{"internalType":"uint256","name":"demand","type":"uint256"},{"internalType":"uint256","name":"batteryLevel","type":"uint256"},{"internalType":"uint256","name":"maxCapacity","type":"uint256"},{"internalType":"uint256","name":"reservedEnergy","type":"uint256"}],"stateMutability":"view","type":"function"},{"inputs":[{"internalType":"uint256","name":"_id","type":"uint256"}],"name":"getSurplus","outputs":[{"internalType":"int256","name":"","type":"int256"}],"stateMutability":"view","type":"function"},{"inputs":[{"internalType":"uint256","name":"_id","type":"uint256"}],"name":"hasSurplus","outputs":[{"internalType":"bool","name":"","type":"bool"}],"stateMutability":"view","type":"function"},{"inputs":[{"internalType":"uint256","name":"_id","type":"uint256"},{"internalType":"uint256","name":"_amount","type":"uint256"}],"name":"increaseReservedEnergy","outputs":[],"stateMutability":"nonpayable","type":"function"},{"inputs":[{"internalType":"uint256","name":"_id","type":"uint256"}],"name":"isMicrogridActive","outputs":[{"internalType":"bool","name":"","type":"bool"}],"stateMutability":"view","type":"function"},{"inputs":[{"internalType":"address","name":"","type":"address"}],"name":"isRegistered","outputs":[{"internalType":"bool","name":"","type":"bool"}],"stateMutability":"view","type":"function"},{"inputs":[],"name":"marketplaceAddress","outputs":[{"internalType":"address","name":"","type":"address"}],"stateMutability":"view","type":"function"},{"inputs":[{"internalType":"uint256","name":"","type":"uint256"}],"name":"microgrids","outputs":[{"internalType":"uint256","name":"id","type":"uint256"},{"internalType":"string","name":"name","type":"string"},{"internalType":"address","name":"owner","type":"address"},{"internalType":"uint256","name":"latitude","type":"uint256"},{"internalType":"uint256","name":"longitude","type":"uint256"},{"internalType":"uint256","name":"energyGenerated","type":"uint256"},{"internalType":"uint256","name":"energyDemand","type":"uint256"},{"internalType":"uint256","name":"batteryLevel","type":"uint256"},{"internalType":"uint256","name":"maxCapacity","type":"uint256"},{"internalType":"uint256","name":"reservedEnergy","type":"uint256"},{"internalType":"bool","name":"isActive","type":"bool"},{"internalType":"uint256","name":"lastUpdated","type":"uint256"}],"stateMutability":"view","type":"function"},{"inputs":[],"name":"nextId","outputs":[{"internalType":"uint256","name":"","type":"uint256"}],"stateMutability":"view","type":"function"},{"inputs":[],"name":"owner","outputs":[{"internalType":"address","name":"","type":"address"}],"stateMutability":"view","type":"function"},{"inputs":[{"internalType":"string","name":"_name","type":"string"},{"internalType":"uint256","name":"_latitude","type":"uint256"},{"internalType":"uint256","name":"_longitude","type":"uint256"},{"internalType":"uint256","name":"_maxCapacity","type":"uint256"}],"name":"registerMicrogrid","outputs":[],"stateMutability":"nonpayable","type":"function"},{"inputs":[],"name":"renounceOwnership","outputs":[],"stateMutability":"nonpayable","type":"function"},{"inputs":[{"internalType":"address","name":"_marketplaceAddress","type":"address"}],"name":"setMarketplaceAddress","outputs":[],"stateMutability":"nonpayable","type":"function"},{"inputs":[{"internalType":"uint256","name":"_id","type":"uint256"},{"internalType":"bool","name":"_status","type":"bool"}],"name":"setMicrogridStatus","outputs":[],"stateMutability":"nonpayable","type":"function"},{"inputs":[{"internalType":"address","name":"newOwner","type":"address"}],"name":"transferOwnership","outputs":[],"stateMutability":"nonpayable","type":"function"},{"inputs":[{"internalType":"uint256","name":"_id","type":"uint256"},{"internalType":"uint256","name":"_energyGenerated","type":"uint256"},{"internalType":"uint256","name":"_energyDemand","type":"uint256"},{"internalType":"uint256","name":"_batteryLevel","type":"uint256"}],"name":"updateStatus","outputs":[],"stateMutability":"nonpayable","type":"function"}],"evm":{"bytecode":{"linkReferences":{},"object":"608060405234801561001057600080fd5b50604051613c25380380613c25833981810160405281019061003291906101ff565b80600073ffffffffffffffffffffffffffffffffffffffff168173ffffffffffffffffffffffffffffffffffffffff16036100a55760006040517f1e4fbdf700000000000000000000000000000000000000000000000000000000815260040161009c919061023b565b60405180910390fd5b6100b4816100d560201b60201c565b506100cf677498f59fdf49492360c01b61019960201b60201c565b50610256565b60008060009054906101000a900473ffffffffffffffffffffffffffffffffffffffff169050816000806101000a81548173ffffffffffffffffffffffffffffffffffffffff021916908373ffffffffffffffffffffffffffffffffffffffff1602179055508173ffffffffffffffffffffffffffffffffffffffff168173ffffffffffffffffffffffffffffffffffffffff167f8be0079c531659141344cd1fd0a4f28419497f9722a3daafe3b4186f6b6457e060405160405180910390a35050565b50565b600080fd5b600073ffffffffffffffffffffffffffffffffffffffff82169050919050565b60006101cc826101a1565b9050919050565b6101dc816101c1565b81146101e757600080fd5b50565b6000815190506101f9816101d3565b92915050565b6000602082840312156102155761021461019c565b5b6000610223848285016101ea565b91505092915050565b610235816101c1565b82525050565b6000602082019050610250600083018461022c565b92915050565b6139c0806102656000396000f3fe608060405234801561001057600080fd5b506004361061012c5760003560e01c80638da5cb5b116100ad578063c41a360a11610071578063c41a360a14610362578063d053189714610392578063d3e0bada146103c2578063daa17f49146103de578063f2fde38b146103fc5761012c565b80638da5cb5b146102a157806393e64b48146102bf578063955464ef146102fa578063b47cc55614610316578063c3c5a547146103325761012c565b80634fa4c02d116100f45780634fa4c02d1461020d57806361b8ce8c1461024157806361f2d09f1461025f578063715018a61461027b57806387d53231146102855761012c565b806312c6e696146101315780631b4ffccb146101615780631c334a7e1461017d5780634504b83a146101ad57806347846fd9146101dd575b600080fd5b61014b60048036038101906101469190612791565b610418565b60405161015891906127d9565b60405180910390f35b61017b60048036038101906101769190612820565b610600565b005b61019760048036038101906101929190612791565b610834565b6040516101a491906127d9565b60405180910390f35b6101c760048036038101906101c29190612791565b610931565b6040516101d49190612a53565b60405180910390f35b6101f760048036038101906101f29190612791565b610b8c565b6040516102049190612a84565b60405180910390f35b61022760048036038101906102229190612791565b610de6565b604051610238959493929190612a9f565b60405180910390f35b610249610f2a565b6040516102569190612a84565b60405180910390f35b61027960048036038101906102749190612af2565b610f30565b005b61028361126c565b005b61029f600480360381019061029a9190612b32565b611280565b005b6102a961182f565b6040516102b69190612ba8565b60405180910390f35b6102d960048036038101906102d49190612791565b611858565b6040516102f19c9b9a99989796959493929190612c0d565b60405180910390f35b610314600480360381019061030f9190612e03565b61196d565b005b610330600480360381019061032b9190612eb2565b611d96565b005b61034c60048036038101906103479190612eb2565b611f13565b60405161035991906127d9565b60405180910390f35b61037c60048036038101906103779190612791565b611f33565b6040516103899190612ba8565b60405180910390f35b6103ac60048036038101906103a79190612791565b612043565b6040516103b99190612ef8565b60405180910390f35b6103dc60048036038101906103d79190612af2565b612227565b005b6103e66124ba565b6040516103f39190612ba8565b60405180910390f35b61041660048036038101906104119190612eb2565b6124e0565b005b600061042e67b4dc3df9f2666ee260c01b612566565b61044267531ef668318c0faf60c01b612566565b610456672ca6757977889e6060c01b612566565b61046a677e58e82d96d2bb9b60c01b612566565b60015482106104ae576040517f08c379a00000000000000000000000000000000000000000000000000000000081526004016104a590612f5f565b60405180910390fd5b6104c267b6f5d2a5a44e05da60c01b612566565b6104d667c30e41633df9431360c01b612566565b6104ea67a143898764c0abb660c01b612566565b6104fe675c5ddd629d0cef5160c01b612566565b60026000838152602001908152602001600020600a0160009054906101000a900460ff16610561576040517f08c379a000000000000000000000000000000000000000000000000000000000815260040161055890612fcb565b60405180910390fd5b6105756734c98df10a0332dc60c01b612566565b61058967929245689b98c3e460c01b612566565b61059d67295343197ebf6e0460c01b612566565b60006002600084815260200190815260200160002060090154600260008581526020019081526020016000206006015460026000868152602001908152602001600020600501546105ee919061301a565b6105f8919061301a565b139050919050565b61061467f89f8a8ae5f82cea60c01b612566565b8161062967fa4f067ae74eab6560c01b612566565b61063d67afdec20e1d74114c60c01b612566565b61065167a4ace05e2d1d45cd60c01b612566565b610665671ac14c798361e87c60c01b612566565b3373ffffffffffffffffffffffffffffffffffffffff166002600083815260200190815260200160002060020160009054906101000a900473ffffffffffffffffffffffffffffffffffffffff1673ffffffffffffffffffffffffffffffffffffffff1614610709576040517f08c379a0000000000000000000000000000000000000000000000000000000008152600401610700906130a9565b60405180910390fd5b61071d6739813d068070cd7a60c01b612566565b61073167449830fb7314c1ea60c01b612566565b6107456794d9ceb1fbba2f1e60c01b612566565b61075967b8c3fb3d763a438060c01b612566565b61076d67d13272a7d29ea6a260c01b612566565b610781672b5e7cfca0079fdc60c01b612566565b61079567613569ec6cb4348460c01b612566565b60015483106107d9576040517f08c379a00000000000000000000000000000000000000000000000000000000081526004016107d090612f5f565b60405180910390fd5b6107ed67e2c262ce4260545b60c01b612566565b610801675d67d88a123e689160c01b612566565b8160026000858152602001908152602001600020600a0160006101000a81548160ff021916908315150217905550505050565b600061084a67d762fa7c6c37d50660c01b612566565b61085e671ea261b3736522d460c01b612566565b61087267459868f4d929983660c01b612566565b61088667f8ce72b5d3536b9a60c01b612566565b60015482106108ca576040517f08c379a00000000000000000000000000000000000000000000000000000000081526004016108c190612f5f565b60405180910390fd5b6108de675a286fdf257760b860c01b612566565b6108f26765e887ec27f560cd60c01b612566565b610906676568fbf0250a9a5760c01b612566565b60026000838152602001908152602001600020600a0160009054906101000a900460ff169050919050565b6109396126ce565b61094d67b04d39c5e6f69f5c60c01b612566565b6109616761ce6221a32f695560c01b612566565b61097567f6565571302ac30e60c01b612566565b610989672c20243c0f0e0a4f60c01b612566565b60015482106109cd576040517f08c379a00000000000000000000000000000000000000000000000000000000081526004016109c490612f5f565b60405180910390fd5b6109e16759ede53b87dfa0ca60c01b612566565b6109f567683101ddc02dc9e860c01b612566565b610a09678b878fc8e5e6fb2c60c01b612566565b600260008381526020019081526020016000206040518061018001604052908160008201548152602001600182018054610a42906130f8565b80601f0160208091040260200160405190810160405280929190818152602001828054610a6e906130f8565b8015610abb5780601f10610a9057610100808354040283529160200191610abb565b820191906000526020600020905b815481529060010190602001808311610a9e57829003601f168201915b505050505081526020016002820160009054906101000a900473ffffffffffffffffffffffffffffffffffffffff1673ffffffffffffffffffffffffffffffffffffffff1673ffffffffffffffffffffffffffffffffffffffff16815260200160038201548152602001600482015481526020016005820154815260200160068201548152602001600782015481526020016008820154815260200160098201548152602001600a820160009054906101000a900460ff16151515158152602001600b820154815250509050919050565b6000610ba2671324422a7873a3da60c01b612566565b610bb66715560b90cd50b01e60c01b612566565b610bca670305cd9cd539ac6e60c01b612566565b610bde677f0568aaeb0c33d460c01b612566565b6001548210610c22576040517f08c379a0000000000000000000000000000000000000000000000000000000008152600401610c1990612f5f565b60405180910390fd5b610c3667d6d4090f871de3f260c01b612566565b610c4a67652b47b1aec8166860c01b612566565b610c5e6743f8b25febfc9b8260c01b612566565b610c72679d83790bb39c9c7760c01b612566565b60026000838152602001908152602001600020600a0160009054906101000a900460ff16610cd5576040517f08c379a0000000000000000000000000000000000000000000000000000000008152600401610ccc90612fcb565b60405180910390fd5b610ce9670fc64cf6ca78858960c01b612566565b610cfd6748d9f12032d200e460c01b612566565b610d11671702f42fe677d51760c01b612566565b6000600260008481526020019081526020016000206009015460026000858152602001908152602001600020600601546002600086815260200190815260200160002060050154610d62919061301a565b610d6c919061301a565b9050610d8267171ccfe02a3cf0bd60c01b612566565b610d96677deb97982d0696d160c01b612566565b6000811380610db55750610db467defae39df701114360c01b612569565b5b8015610dd15750610dd067491c047f725869f060c01b612570565b5b610ddc576000610dde565b805b915050919050565b6000806000806000610e0267c2b20a8a4e3886a360c01b612566565b610e16674a8774d293726d3660c01b612566565b610e2a6739108c05650b717e60c01b612566565b610e3e67d83c483deb0a40e960c01b612566565b6001548610610e82576040517f08c379a0000000000000000000000000000000000000000000000000000000008152600401610e7990613175565b60405180910390fd5b610e9667e41559b9af7b936b60c01b612566565b610eaa67873b84cb6338c5f860c01b612566565b610ebe6770f2d806e916d2dd60c01b612566565b6000600260008881526020019081526020016000209050610ee967354fa5c916554a8560c01b612566565b610efd672c8d460486d470a360c01b612566565b80600501548160060154826007015483600801548460090154955095509550955095505091939590929450565b60015481565b610f44672f5d3c474838767260c01b612566565b610f58676a5ad04aae31d1b660c01b612566565b610f6c67d502a5ef9f2dfa4f60c01b612566565b610f806717bd4a9b088876e160c01b612566565b610f9467d642e18a857a8ef260c01b612566565b600460009054906101000a900473ffffffffffffffffffffffffffffffffffffffff1673ffffffffffffffffffffffffffffffffffffffff163373ffffffffffffffffffffffffffffffffffffffff1614611024576040517f08c379a000000000000000000000000000000000000000000000000000000000815260040161101b90613207565b60405180910390fd5b6110386786c22fa2488e768460c01b612566565b61104c670269a2df1273f38b60c01b612566565b611060679b525715386667ef60c01b612566565b61107467ca3a66c4410e85ad60c01b612566565b61108867ef8cfa6cf4dfe5ce60c01b612566565b61109c671a592f94464ee6b060c01b612566565b6110b067245012603618026760c01b612566565b60015482106110f4576040517f08c379a00000000000000000000000000000000000000000000000000000000081526004016110eb90612f5f565b60405180910390fd5b611108675de7c156eb33bd2960c01b612566565b61111c67c4e6ab9f2a9a0c9560c01b612566565b61113067571eb7ccd72f08f360c01b612566565b611144670e432b71c23fc0a260c01b612566565b806002600084815260200190815260200160002060090154101561119d576040517f08c379a000000000000000000000000000000000000000000000000000000000815260040161119490613273565b60405180910390fd5b6111b1678a6e80b00935cd0360c01b612566565b6111c567384344826201745460c01b612566565b806002600084815260200190815260200160002060090160008282546111eb9190613293565b92505081905550611206670f51323cd07aad7e60c01b612566565b61121a6779c99591e7e6304260c01b612566565b817fb289bc0a077dda72409091ecfd7217e89eec2e6c01bbb815eecf3599ccf31fcc60026000858152602001908152602001600020600901546040516112609190612a84565b60405180910390a25050565b61127461257b565b61127e6000612602565b565b61129467366ce72b9219a58460c01b612566565b836112a967fa4f067ae74eab6560c01b612566565b6112bd67afdec20e1d74114c60c01b612566565b6112d167a4ace05e2d1d45cd60c01b612566565b6112e5671ac14c798361e87c60c01b612566565b3373ffffffffffffffffffffffffffffffffffffffff166002600083815260200190815260200160002060020160009054906101000a900473ffffffffffffffffffffffffffffffffffffffff1673ffffffffffffffffffffffffffffffffffffffff1614611389576040517f08c379a0000000000000000000000000000000000000000000000000000000008152600401611380906130a9565b60405180910390fd5b61139d6739813d068070cd7a60c01b612566565b6113b167449830fb7314c1ea60c01b612566565b6113c5678d5858aae7daeca060c01b612566565b6113d967ac6288d1048056d360c01b612566565b6113ed67b967d2aaf4825e6160c01b612566565b61140167f5f214a9c628bad260c01b612566565b611415674cadd743f374d2ab60c01b612566565b6001548510611459576040517f08c379a000000000000000000000000000000000000000000000000000000000815260040161145090612f5f565b60405180910390fd5b61146d676788ec642f957ae760c01b612566565b61148167fa7b1fb2d7ff470660c01b612566565b6114956782d24609dd94249d60c01b612566565b6114a9672b9089367569a33660c01b612566565b60026000868152602001908152602001600020600a0160009054906101000a900460ff1661150c576040517f08c379a000000000000000000000000000000000000000000000000000000000815260040161150390612fcb565b60405180910390fd5b6115206739c283729373565060c01b612566565b61153467fe47287d8ecdc20f60c01b612566565b611548670b624af8296d7b2760c01b612566565b61155c676283f85f9c192eab60c01b612566565b60648211156115a0576040517f08c379a000000000000000000000000000000000000000000000000000000000815260040161159790613339565b60405180910390fd5b6115b467a41bba8c4159305160c01b612566565b6115c867ea464fd45ed8930e60c01b612566565b6115dc670f5e7e21303552ba60c01b612566565b6115f067b7be9008bfd83c9b60c01b612566565b6002600086815260200190815260200160002060080154841115611649576040517f08c379a0000000000000000000000000000000000000000000000000000000008152600401611640906133cb565b60405180910390fd5b61165d67d6daf06b072eaec460c01b612566565b6116716701d55785fc782d1960c01b612566565b611685670b9707ab0f3ee56760c01b612566565b611699675fffe45604df573360c01b612566565b60026000868152602001908152602001600020600801548311156116f2576040517f08c379a00000000000000000000000000000000000000000000000000000000081526004016116e99061345d565b60405180910390fd5b61170667df19ec54a283de1060c01b612566565b61171a67d3a9bf9fe28169e760c01b612566565b836002600087815260200190815260200160002060050181905550611749673b95be0ba4c515c160c01b612566565b8260026000878152602001908152602001600020600601819055506117786708d3e7b160c570aa60c01b612566565b8160026000878152602001908152602001600020600701819055506117a76721f60e690a46da7b60c01b612566565b4260026000878152602001908152602001600020600b01819055506117d66747daee6437abbdf260c01b612566565b6117ea67c065a7f1fd7bc0ec60c01b612566565b847f51dffc56f3ebef9bab005c12273259d1c794ecdac4bdb23f96c2d9553ab9410185858542604051611820949392919061347d565b60405180910390a25050505050565b60008060009054906101000a900473ffffffffffffffffffffffffffffffffffffffff16905090565b6002602052806000526040600020600091509050806000015490806001018054611881906130f8565b80601f01602080910402602001604051908101604052809291908181526020018280546118ad906130f8565b80156118fa5780601f106118cf576101008083540402835291602001916118fa565b820191906000526020600020905b8154815290600101906020018083116118dd57829003601f168201915b5050505050908060020160009054906101000a900473ffffffffffffffffffffffffffffffffffffffff169080600301549080600401549080600501549080600601549080600701549080600801549080600901549080600a0160009054906101000a900460ff169080600b015490508c565b61198167996bcc77b4dd022160c01b612566565b61199567d361145a6ecd39e260c01b612566565b6119a9679291de0b7230fe1e60c01b612566565b6119bd67adf31b09c471e45060c01b612566565b60008111611a00576040517f08c379a00000000000000000000000000000000000000000000000000000000081526004016119f790613534565b60405180910390fd5b611a14675f39edb0ea14ab4460c01b612566565b611a286785961d1be68ed07160c01b612566565b611a3c6727e72d98da31b7df60c01b612566565b611a50672e86007e8cce32b860c01b612566565b600360003373ffffffffffffffffffffffffffffffffffffffff1673ffffffffffffffffffffffffffffffffffffffff16815260200190815260200160002060009054906101000a900460ff1615611add576040517f08c379a0000000000000000000000000000000000000000000000000000000008152600401611ad4906135c6565b60405180910390fd5b611af16701819a4401d310b160c01b612566565b611b056713a957b9f7ec1dc360c01b612566565b611b1967891d80d03ac6a17f60c01b612566565b600060016000815480929190611b2e906135e6565b919050559050611b4867ccd2107b25c4bd7c60c01b612566565b6040518061018001604052808281526020018681526020013373ffffffffffffffffffffffffffffffffffffffff168152602001858152602001848152602001600081526020016000815260200160648152602001838152602001600081526020016001151581526020014281525060026000838152602001908152602001600020600082015181600001556020820151816001019081611be991906137da565b5060408201518160020160006101000a81548173ffffffffffffffffffffffffffffffffffffffff021916908373ffffffffffffffffffffffffffffffffffffffff160217905550606082015181600301556080820151816004015560a0820151816005015560c0820151816006015560e082015181600701556101008201518160080155610120820151816009015561014082015181600a0160006101000a81548160ff02191690831515021790555061016082015181600b0155905050611cbc67799a67e54c3f41b760c01b612566565b6001600360003373ffffffffffffffffffffffffffffffffffffffff1673ffffffffffffffffffffffffffffffffffffffff16815260200190815260200160002060006101000a81548160ff021916908315150217905550611d2867269be0f902554f2560c01b612566565b611d3c67d5d45cc58e54426b60c01b612566565b3373ffffffffffffffffffffffffffffffffffffffff16817f7b2068605e8ed71972e65749aa4b5d44adfa00427b5bde64876aeba6a4411a86878787604051611d87939291906138ac565b60405180910390a35050505050565b611daa671c61b3a5956e4cfc60c01b612566565b611db261257b565b611dc6674531e96e5c496f4460c01b612566565b611dda6756b573d7891c888e60c01b612566565b611dee67b49686be80667d3360c01b612566565b611e026752b3c6e66d76e7d660c01b612566565b611e1667bc8323eaea9afcb460c01b612566565b600073ffffffffffffffffffffffffffffffffffffffff16600460009054906101000a900473ffffffffffffffffffffffffffffffffffffffff1673ffffffffffffffffffffffffffffffffffffffff1614611ea7576040517f08c379a0000000000000000000000000000000000000000000000000000000008152600401611e9e90613936565b60405180910390fd5b611ebb672a599fec7ed0750360c01b612566565b611ecf67f74fbf3aead8a23f60c01b612566565b80600460006101000a81548173ffffffffffffffffffffffffffffffffffffffff021916908373ffffffffffffffffffffffffffffffffffffffff16021790555050565b60036020528060005260406000206000915054906101000a900460ff1681565b6000611f4967ca4bb878fb4ec9b860c01b612566565b611f5d67e12cb3328be2465d60c01b612566565b611f71675c34391cd8a117ee60c01b612566565b611f8567f95f8bbb565b53b560c01b612566565b6001548210611fc9576040517f08c379a0000000000000000000000000000000000000000000000000000000008152600401611fc090612f5f565b60405180910390fd5b611fdd67210f72b6dc17970260c01b612566565b611ff167d55c83df174856b960c01b612566565b6120056744d688c12effcb3260c01b612566565b6002600083815260200190815260200160002060020160009054906101000a900473ffffffffffffffffffffffffffffffffffffffff169050919050565b6000612059674c19e989d821af5860c01b612566565b61206d671cdcb680dd5ee62460c01b612566565b612081670e9da262b5b2c54660c01b612566565b6120956724e650501ca9cb1560c01b612566565b60015482106120d9576040517f08c379a00000000000000000000000000000000000000000000000000000000081526004016120d090612f5f565b60405180910390fd5b6120ec666313cff83a1d7160c01b612566565b61210067fc36b5df670d4aef60c01b612566565b61211467e390373532fa951e60c01b612566565b612128679cd94390c7b0b3f760c01b612566565b60026000838152602001908152602001600020600a0160009054906101000a900460ff1661218b576040517f08c379a000000000000000000000000000000000000000000000000000000000815260040161218290612fcb565b60405180910390fd5b61219f679f47add35597033460c01b612566565b6121b36780ce5745264ac26a60c01b612566565b6121c767f0a14cb56e33a28260c01b612566565b600260008381526020019081526020016000206009015460026000848152602001908152602001600020600601546002600085815260200190815260200160002060050154612216919061301a565b612220919061301a565b9050919050565b61223b67252ac259dda5b6af60c01b612566565b61224f676a5ad04aae31d1b660c01b612566565b61226367d502a5ef9f2dfa4f60c01b612566565b6122776717bd4a9b088876e160c01b612566565b61228b67d642e18a857a8ef260c01b612566565b600460009054906101000a900473ffffffffffffffffffffffffffffffffffffffff1673ffffffffffffffffffffffffffffffffffffffff163373ffffffffffffffffffffffffffffffffffffffff161461231b576040517f08c379a000000000000000000000000000000000000000000000000000000000815260040161231290613207565b60405180910390fd5b61232f6786c22fa2488e768460c01b612566565b612343670269a2df1273f38b60c01b612566565b6123576743b45f3873535c8560c01b612566565b61236b67959a014e8f200f4960c01b612566565b61237f674acfd88884345e6460c01b612566565b61239367b6c94fdca21c5f2160c01b612566565b6123a7672a196dff200f2f2460c01b612566565b60015482106123eb576040517f08c379a00000000000000000000000000000000000000000000000000000000081526004016123e290612f5f565b60405180910390fd5b6123ff6787ff27b23e47aee560c01b612566565b612413671a3ade033fc64fa960c01b612566565b806002600084815260200190815260200160002060090160008282546124399190613956565b9250508190555061245467e0ab9ee7266a059760c01b612566565b61246867ae90b112036f44c960c01b612566565b817fb289bc0a077dda72409091ecfd7217e89eec2e6c01bbb815eecf3599ccf31fcc60026000858152602001908152602001600020600901546040516124ae9190612a84565b60405180910390a25050565b600460009054906101000a900473ffffffffffffffffffffffffffffffffffffffff1681565b6124e861257b565b600073ffffffffffffffffffffffffffffffffffffffff168173ffffffffffffffffffffffffffffffffffffffff160361255a5760006040517f1e4fbdf70000000000000000000000000000000000000000000000000000000081526004016125519190612ba8565b60405180910390fd5b61256381612602565b50565b50565b6000919050565b600060019050919050565b6125836126c6565b73ffffffffffffffffffffffffffffffffffffffff166125a161182f565b73ffffffffffffffffffffffffffffffffffffffff1614612600576125c46126c6565b6040517f118cdaa70000000000000000000000000000000000000000000000000000000081526004016125f79190612ba8565b60405180910390fd5b565b60008060009054906101000a900473ffffffffffffffffffffffffffffffffffffffff169050816000806101000a81548173ffffffffffffffffffffffffffffffffffffffff021916908373ffffffffffffffffffffffffffffffffffffffff1602179055508173ffffffffffffffffffffffffffffffffffffffff168173ffffffffffffffffffffffffffffffffffffffff167f8be0079c531659141344cd1fd0a4f28419497f9722a3daafe3b4186f6b6457e060405160405180910390a35050565b600033905090565b6040518061018001604052806000815260200160608152602001600073ffffffffffffffffffffffffffffffffffffffff16815260200160008152602001600081526020016000815260200160008152602001600081526020016000815260200160008152602001600015158152602001600081525090565b6000604051905090565b600080fd5b600080fd5b6000819050919050565b61276e8161275b565b811461277957600080fd5b50565b60008135905061278b81612765565b92915050565b6000602082840312156127a7576127a6612751565b5b60006127b58482850161277c565b91505092915050565b60008115159050919050565b6127d3816127be565b82525050565b60006020820190506127ee60008301846127ca565b92915050565b6127fd816127be565b811461280857600080fd5b50565b60008135905061281a816127f4565b92915050565b6000806040838503121561283757612836612751565b5b60006128458582860161277c565b92505060206128568582860161280b565b9150509250929050565b6128698161275b565b82525050565b600081519050919050565b600082825260208201905092915050565b60005b838110156128a957808201518184015260208101905061288e565b60008484015250505050565b6000601f19601f8301169050919050565b60006128d18261286f565b6128db818561287a565b93506128eb81856020860161288b565b6128f4816128b5565b840191505092915050565b600073ffffffffffffffffffffffffffffffffffffffff82169050919050565b600061292a826128ff565b9050919050565b61293a8161291f565b82525050565b612949816127be565b82525050565b6000610180830160008301516129686000860182612860565b506020830151848203602086015261298082826128c6565b91505060408301516129956040860182612931565b5060608301516129a86060860182612860565b5060808301516129bb6080860182612860565b5060a08301516129ce60a0860182612860565b5060c08301516129e160c0860182612860565b5060e08301516129f460e0860182612860565b50610100830151612a09610100860182612860565b50610120830151612a1e610120860182612860565b50610140830151612a33610140860182612940565b50610160830151612a48610160860182612860565b508091505092915050565b60006020820190508181036000830152612a6d818461294f565b905092915050565b612a7e8161275b565b82525050565b6000602082019050612a996000830184612a75565b92915050565b600060a082019050612ab46000830188612a75565b612ac16020830187612a75565b612ace6040830186612a75565b612adb6060830185612a75565b612ae86080830184612a75565b9695505050505050565b60008060408385031215612b0957612b08612751565b5b6000612b178582860161277c565b9250506020612b288582860161277c565b9150509250929050565b60008060008060808587031215612b4c57612b4b612751565b5b6000612b5a8782880161277c565b9450506020612b6b8782880161277c565b9350506040612b7c8782880161277c565b9250506060612b8d8782880161277c565b91505092959194509250565b612ba28161291f565b82525050565b6000602082019050612bbd6000830184612b99565b92915050565b600082825260208201905092915050565b6000612bdf8261286f565b612be98185612bc3565b9350612bf981856020860161288b565b612c02816128b5565b840191505092915050565b600061018082019050612c23600083018f612a75565b8181036020830152612c35818e612bd4565b9050612c44604083018d612b99565b612c51606083018c612a75565b612c5e608083018b612a75565b612c6b60a083018a612a75565b612c7860c0830189612a75565b612c8560e0830188612a75565b612c93610100830187612a75565b612ca1610120830186612a75565b612caf6101408301856127ca565b612cbd610160830184612a75565b9d9c50505050505050505050505050565b600080fd5b600080fd5b7f4e487b7100000000000000000000000000000000000000000000000000000000600052604160045260246000fd5b612d10826128b5565b810181811067ffffffffffffffff82111715612d2f57612d2e612cd8565b5b80604052505050565b6000612d42612747565b9050612d4e8282612d07565b919050565b600067ffffffffffffffff821115612d6e57612d6d612cd8565b5b612d77826128b5565b9050602081019050919050565b82818337600083830152505050565b6000612da6612da184612d53565b612d38565b905082815260208101848484011115612dc257612dc1612cd3565b5b612dcd848285612d84565b509392505050565b600082601f830112612dea57612de9612cce565b5b8135612dfa848260208601612d93565b91505092915050565b60008060008060808587031215612e1d57612e1c612751565b5b600085013567ffffffffffffffff811115612e3b57612e3a612756565b5b612e4787828801612dd5565b9450506020612e588782880161277c565b9350506040612e698782880161277c565b9250506060612e7a8782880161277c565b91505092959194509250565b612e8f8161291f565b8114612e9a57600080fd5b50565b600081359050612eac81612e86565b92915050565b600060208284031215612ec857612ec7612751565b5b6000612ed684828501612e9d565b91505092915050565b6000819050919050565b612ef281612edf565b82525050565b6000602082019050612f0d6000830184612ee9565b92915050565b7f4d6963726f6772696420646f6573206e6f742065786973740000000000000000600082015250565b6000612f49601883612bc3565b9150612f5482612f13565b602082019050919050565b60006020820190508181036000830152612f7881612f3c565b9050919050565b7f4d6963726f67726964206973206e6f7420616374697665000000000000000000600082015250565b6000612fb5601783612bc3565b9150612fc082612f7f565b602082019050919050565b60006020820190508181036000830152612fe481612fa8565b9050919050565b7f4e487b7100000000000000000000000000000000000000000000000000000000600052601160045260246000fd5b600061302582612edf565b915061303083612edf565b925082820390508181126000841216828213600085121516171561305757613056612feb565b5b92915050565b7f4e6f7420746865206f776e6572206f662074686973206d6963726f6772696400600082015250565b6000613093601f83612bc3565b915061309e8261305d565b602082019050919050565b600060208201905081810360008301526130c281613086565b9050919050565b7f4e487b7100000000000000000000000000000000000000000000000000000000600052602260045260246000fd5b6000600282049050600182168061311057607f821691505b602082108103613123576131226130c9565b5b50919050565b7f4d6963726f6772696420646f65736e2774206578697374000000000000000000600082015250565b600061315f601783612bc3565b915061316a82613129565b602082019050919050565b6000602082019050818103600083015261318e81613152565b9050919050565b7f4f6e6c7920746865206d61726b6574706c6163652063616e2063616c6c20746860008201527f69732066756e6374696f6e000000000000000000000000000000000000000000602082015250565b60006131f1602b83612bc3565b91506131fc82613195565b604082019050919050565b60006020820190508181036000830152613220816131e4565b9050919050565b7f496e73756666696369656e7420726573657276656420656e6572677900000000600082015250565b600061325d601c83612bc3565b915061326882613227565b602082019050919050565b6000602082019050818103600083015261328c81613250565b9050919050565b600061329e8261275b565b91506132a98361275b565b92508282039050818111156132c1576132c0612feb565b5b92915050565b7f42617474657279206c6576656c206d757374206265206265747765656e20302060008201527f616e642031303000000000000000000000000000000000000000000000000000602082015250565b6000613323602783612bc3565b915061332e826132c7565b604082019050919050565b6000602082019050818103600083015261335281613316565b9050919050565b7f456e657267792067656e6572617465642065786365656473206d61782063617060008201527f6163697479000000000000000000000000000000000000000000000000000000602082015250565b60006133b5602583612bc3565b91506133c082613359565b604082019050919050565b600060208201905081810360008301526133e4816133a8565b9050919050565b7f456e657267792064656d616e642065786365656473206d61782063617061636960008201527f7479000000000000000000000000000000000000000000000000000000000000602082015250565b6000613447602283612bc3565b9150613452826133eb565b604082019050919050565b600060208201905081810360008301526134768161343a565b9050919050565b60006080820190506134926000830187612a75565b61349f6020830186612a75565b6134ac6040830185612a75565b6134b96060830184612a75565b95945050505050565b7f4d6178206361706163697479206d75737420626520677265617465722074686160008201527f6e207a65726f0000000000000000000000000000000000000000000000000000602082015250565b600061351e602683612bc3565b9150613529826134c2565b604082019050919050565b6000602082019050818103600083015261354d81613511565b9050919050565b7f4d6963726f6772696420616c7265616479207265676973746572656420666f7260008201527f2074686973206f776e6572000000000000000000000000000000000000000000602082015250565b60006135b0602b83612bc3565b91506135bb82613554565b604082019050919050565b600060208201905081810360008301526135df816135a3565b9050919050565b60006135f18261275b565b91507fffffffffffffffffffffffffffffffffffffffffffffffffffffffffffffffff820361362357613622612feb565b5b600182019050919050565b60008190508160005260206000209050919050565b60006020601f8301049050919050565b600082821b905092915050565b6000600883026136907fffffffffffffffffffffffffffffffffffffffffffffffffffffffffffffffff82613653565b61369a8683613653565b95508019841693508086168417925050509392505050565b6000819050919050565b60006136d76136d26136cd8461275b565b6136b2565b61275b565b9050919050565b6000819050919050565b6136f1836136bc565b6137056136fd826136de565b848454613660565b825550505050565b600090565b61371a61370d565b6137258184846136e8565b505050565b5b818110156137495761373e600082613712565b60018101905061372b565b5050565b601f82111561378e5761375f8161362e565b61376884613643565b81016020851015613777578190505b61378b61378385613643565b83018261372a565b50505b505050565b600082821c905092915050565b60006137b160001984600802613793565b1980831691505092915050565b60006137ca83836137a0565b9150826002028217905092915050565b6137e38261286f565b67ffffffffffffffff8111156137fc576137fb612cd8565b5b61380682546130f8565b61381182828561374d565b600060209050601f8311600181146138445760008415613832578287015190505b61383c85826137be565b8655506138a4565b601f1984166138528661362e565b60005b8281101561387a57848901518255600182019150602085019450602081019050613855565b868310156138975784890151613893601f8916826137a0565b8355505b6001600288020188555050505b505050505050565b600060608201905081810360008301526138c68186612bd4565b90506138d56020830185612a75565b6138e26040830184612a75565b949350505050565b7f4d61726b6574706c616365206164647265737320616c72656164792073657400600082015250565b6000613920601f83612bc3565b915061392b826138ea565b602082019050919050565b6000602082019050818103600083015261394f81613913565b9050919050565b60006139618261275b565b915061396c8361275b565b925082820190508082111561398457613983612feb565b5b9291505056fea2646970667358221220681ac7cf65895ee1134a8d03c8494607876fe9e3e1c0640fc2896bd483c2826d64736f6c634300081c0033","opcodes":"PUSH1 0x80 PUSH1 0x40 MSTORE CALLVALUE DUP1 ISZERO PUSH2 0x10 JUMPI PUSH1 0x0 DUP1 REVERT JUMPDEST POP PUSH1 0x40 MLOAD PUSH2 0x3C25 CODESIZE SUB DUP1 PUSH2 0x3C25 DUP4 CODECOPY DUP2 DUP2 ADD PUSH1 0x40 MSTORE DUP2 ADD SWAP1 PUSH2 0x32 SWAP2 SWAP1 PUSH2 0x1FF JUMP JUMPDEST DUP1 PUSH1 0x0 PUSH20 0xFFFFFFFFFFFFFFFFFFFFFFFFFFFFFFFFFFFFFFFF AND DUP2 PUSH20 0xFFFFFFFFFFFFFFFFFFFFFFFFFFFFFFFFFFFFFFFF AND SUB PUSH2 0xA5 JUMPI PUSH1 0x0 PUSH1 0x40 MLOAD PUSH32 0x1E4FBDF700000000000000000000000000000000000000000000000000000000 DUP2 MSTORE PUSH1 0x4 ADD PUSH2 0x9C SWAP2 SWAP1 PUSH2 0x23B JUMP JUMPDEST PUSH1 0x40 MLOAD DUP1 SWAP2 SUB SWAP1 REVERT JUMPDEST PUSH2 0xB4 DUP2 PUSH2 0xD5 PUSH1 0x20 SHL PUSH1 0x20 SHR JUMP JUMPDEST POP PUSH2 0xCF PUSH8 0x7498F59FDF494923 PUSH1 0xC0 SHL PUSH2 0x199 PUSH1 0x20 SHL PUSH1 0x20 SHR JUMP JUMPDEST POP PUSH2 0x256 JUMP JUMPDEST PUSH1 0x0 DUP1 PUSH1 0x0 SWAP1 SLOAD SWAP1 PUSH2 0x100 EXP SWAP1 DIV PUSH20 0xFFFFFFFFFFFFFFFFFFFFFFFFFFFFFFFFFFFFFFFF AND SWAP1 POP DUP2 PUSH1 0x0 DUP1 PUSH2 0x100 EXP DUP2 SLOAD DUP2 PUSH20 0xFFFFFFFFFFFFFFFFFFFFFFFFFFFFFFFFFFFFFFFF MUL NOT AND SWAP1 DUP4 PUSH20 0xFFFFFFFFFFFFFFFFFFFFFFFFFFFFFFFFFFFFFFFF AND MUL OR SWAP1 SSTORE POP DUP2 PUSH20 0xFFFFFFFFFFFFFFFFFFFFFFFFFFFFFFFFFFFFFFFF AND DUP2 PUSH20 0xFFFFFFFFFFFFFFFFFFFFFFFFFFFFFFFFFFFFFFFF AND PUSH32 0x8BE0079C531659141344CD1FD0A4F28419497F9722A3DAAFE3B4186F6B6457E0 PUSH1 0x40 MLOAD PUSH1 0x40 MLOAD DUP1 SWAP2 SUB SWAP1 LOG3 POP POP JUMP JUMPDEST POP JUMP JUMPDEST PUSH1 0x0 DUP1 REVERT JUMPDEST PUSH1 0x0 PUSH20 0xFFFFFFFFFFFFFFFFFFFFFFFFFFFFFFFFFFFFFFFF DUP3 AND SWAP1 POP SWAP2 SWAP1 POP JUMP JUMPDEST PUSH1 0x0 PUSH2 0x1CC DUP3 PUSH2 0x1A1 JUMP JUMPDEST SWAP1 POP SWAP2 SWAP1 POP JUMP JUMPDEST PUSH2 0x1DC DUP2 PUSH2 0x1C1 JUMP JUMPDEST DUP2 EQ PUSH2 0x1E7 JUMPI PUSH1 0x0 DUP1 REVERT JUMPDEST POP JUMP JUMPDEST PUSH1 0x0 DUP2 MLOAD SWAP1 POP PUSH2 0x1F9 DUP2 PUSH2 0x1D3 JUMP JUMPDEST SWAP3 SWAP2 POP POP JUMP JUMPDEST PUSH1 0x0 PUSH1 0x20 DUP3 DUP5 SUB SLT ISZERO PUSH2 0x215 JUMPI PUSH2 0x214 PUSH2 0x19C JUMP JUMPDEST JUMPDEST PUSH1 0x0 PUSH2 0x223 DUP5 DUP3 DUP6 ADD PUSH2 0x1EA JUMP JUMPDEST SWAP2 POP POP SWAP3 SWAP2 POP POP JUMP JUMPDEST PUSH2 0x235 DUP2 PUSH2 0x1C1 JUMP JUMPDEST DUP3 MSTORE POP POP JUMP JUMPDEST PUSH1 0x0 PUSH1 0x20 DUP3 ADD SWAP1 POP PUSH2 0x250 PUSH1 0x0 DUP4 ADD DUP5 PUSH2 0x22C JUMP JUMPDEST SWAP3 SWAP2 POP POP JUMP JUMPDEST PUSH2 0x39C0 DUP1 PUSH2 0x265 PUSH1 0x0 CODECOPY PUSH1 0x0 RETURN INVALID PUSH1 0x80 PUSH1 0x40 MSTORE CALLVALUE DUP1 ISZERO PUSH2 0x10 JUMPI PUSH1 0x0 DUP1 REVERT JUMPDEST POP PUSH1 0x4 CALLDATASIZE LT PUSH2 0x12C JUMPI PUSH1 0x0 CALLDATALOAD PUSH1 0xE0 SHR DUP1 PUSH4 0x8DA5CB5B GT PUSH2 0xAD JUMPI DUP1 PUSH4 0xC41A360A GT PUSH2 0x71 JUMPI DUP1 PUSH4 0xC41A360A EQ PUSH2 0x362 JUMPI DUP1 PUSH4 0xD0531897 EQ PUSH2 0x392 JUMPI DUP1 PUSH4 0xD3E0BADA EQ PUSH2 0x3C2 JUMPI DUP1 PUSH4 0xDAA17F49 EQ PUSH2 0x3DE JUMPI DUP1 PUSH4 0xF2FDE38B EQ PUSH2 0x3FC JUMPI PUSH2 0x12C JUMP JUMPDEST DUP1 PUSH4 0x8DA5CB5B EQ PUSH2 0x2A1 JUMPI DUP1 PUSH4 0x93E64B48 EQ PUSH2 0x2BF JUMPI DUP1 PUSH4 0x955464EF EQ PUSH2 0x2FA JUMPI DUP1 PUSH4 0xB47CC556 EQ PUSH2 0x316 JUMPI DUP1 PUSH4 0xC3C5A547 EQ PUSH2 0x332 JUMPI PUSH2 0x12C JUMP JUMPDEST DUP1 PUSH4 0x4FA4C02D GT PUSH2 0xF4 JUMPI DUP1 PUSH4 0x4FA4C02D EQ PUSH2 0x20D JUMPI DUP1 PUSH4 0x61B8CE8C EQ PUSH2 0x241 JUMPI DUP1 PUSH4 0x61F2D09F EQ PUSH2 0x25F JUMPI DUP1 PUSH4 0x715018A6 EQ PUSH2 0x27B JUMPI DUP1 PUSH4 0x87D53231 EQ PUSH2 0x285 JUMPI PUSH2 0x12C JUMP JUMPDEST DUP1 PUSH4 0x12C6E696 EQ PUSH2 0x131 JUMPI DUP1 PUSH4 0x1B4FFCCB EQ PUSH2 0x161 JUMPI DUP1 PUSH4 0x1C334A7E EQ PUSH2 0x17D JUMPI DUP1 PUSH4 0x4504B83A EQ PUSH2 0x1AD JUMPI DUP1 PUSH4 0x47846FD9 EQ PUSH2 0x1DD JUMPI JUMPDEST PUSH1 0x0 DUP1 REVERT JUMPDEST PUSH2 0x14B PUSH1 0x4 DUP1 CALLDATASIZE SUB DUP2 ADD SWAP1 PUSH2 0x146 SWAP2 SWAP1 PUSH2 0x2791 JUMP JUMPDEST PUSH2 0x418 JUMP JUMPDEST PUSH1 0x40 MLOAD PUSH2 0x158 SWAP2 SWAP1 PUSH2 0x27D9 JUMP JUMPDEST PUSH1 0x40 MLOAD DUP1 SWAP2 SUB SWAP1 RETURN JUMPDEST PUSH2 0x17B PUSH1 0x4 DUP1 CALLDATASIZE SUB DUP2 ADD SWAP1 PUSH2 0x176 SWAP2 SWAP1 PUSH2 0x2820 JUMP JUMPDEST PUSH2 0x600 JUMP JUMPDEST STOP JUMPDEST PUSH2 0x197 PUSH1 0x4 DUP1 CALLDATASIZE SUB DUP2 ADD SWAP1 PUSH2 0x192 SWAP2 SWAP1 PUSH2 0x2791 JUMP JUMPDEST PUSH2 0x834 JUMP JUMPDEST PUSH1 0x40 MLOAD PUSH2 0x1A4 SWAP2 SWAP1 PUSH2 0x27D9 JUMP JUMPDEST PUSH1 0x40 MLOAD DUP1 SWAP2 SUB SWAP1 RETURN JUMPDEST PUSH2 0x1C7 PUSH1 0x4 DUP1 CALLDATASIZE SUB DUP2 ADD SWAP1 PUSH2 0x1C2 SWAP2 SWAP1 PUSH2 0x2791 JUMP JUMPDEST PUSH2 0x931 JUMP JUMPDEST PUSH1 0x40 MLOAD PUSH2 0x1D4 SWAP2 SWAP1 PUSH2 0x2A53 JUMP JUMPDEST PUSH1 0x40 MLOAD DUP1 SWAP2 SUB SWAP1 RETURN JUMPDEST PUSH2 0x1F7 PUSH1 0x4 DUP1 CALLDATASIZE SUB DUP2 ADD SWAP1 PUSH2 0x1F2 SWAP2 SWAP1 PUSH2 0x2791 JUMP JUMPDEST PUSH2 0xB8C JUMP JUMPDEST PUSH1 0x40 MLOAD PUSH2 0x204 SWAP2 SWAP1 PUSH2 0x2A84 JUMP JUMPDEST PUSH1 0x40 MLOAD DUP1 SWAP2 SUB SWAP1 RETURN JUMPDEST PUSH2 0x227 PUSH1 0x4 DUP1 CALLDATASIZE SUB DUP2 ADD SWAP1 PUSH2 0x222 SWAP2 SWAP1 PUSH2 0x2791 JUMP JUMPDEST PUSH2 0xDE6 JUMP JUMPDEST PUSH1 0x40 MLOAD PUSH2 0x238 SWAP6 SWAP5 SWAP4 SWAP3 SWAP2 SWAP1 PUSH2 0x2A9F JUMP JUMPDEST PUSH1 0x40 MLOAD DUP1 SWAP2 SUB SWAP1 RETURN JUMPDEST PUSH2 0x249 PUSH2 0xF2A JUMP JUMPDEST PUSH1 0x40 MLOAD PUSH2 0x256 SWAP2 SWAP1 PUSH2 0x2A84 JUMP JUMPDEST PUSH1 0x40 MLOAD DUP1 SWAP2 SUB SWAP1 RETURN JUMPDEST PUSH2 0x279 PUSH1 0x4 DUP1 CALLDATASIZE SUB DUP2 ADD SWAP1 PUSH2 0x274 SWAP2 SWAP1 PUSH2 0x2AF2 JUMP JUMPDEST PUSH2 0xF30 JUMP JUMPDEST STOP JUMPDEST PUSH2 0x283 PUSH2 0x126C JUMP JUMPDEST STOP JUMPDEST PUSH2 0x29F PUSH1 0x4 DUP1 CALLDATASIZE SUB DUP2 ADD SWAP1 PUSH2 0x29A SWAP2 SWAP1 PUSH2 0x2B32 JUMP JUMPDEST PUSH2 0x1280 JUMP JUMPDEST STOP JUMPDEST PUSH2 0x2A9 PUSH2 0x182F JUMP JUMPDEST PUSH1 0x40 MLOAD PUSH2 0x2B6 SWAP2 SWAP1 PUSH2 0x2BA8 JUMP JUMPDEST PUSH1 0x40 MLOAD DUP1 SWAP2 SUB SWAP1 RETURN JUMPDEST PUSH2 0x2D9 PUSH1 0x4 DUP1 CALLDATASIZE SUB DUP2 ADD SWAP1 PUSH2 0x2D4 SWAP2 SWAP1 PUSH2 0x2791 JUMP JUMPDEST PUSH2 0x1858 JUMP JUMPDEST PUSH1 0x40 MLOAD PUSH2 0x2F1 SWAP13 SWAP12 SWAP11 SWAP10 SWAP9 SWAP8 SWAP7 SWAP6 SWAP5 SWAP4 SWAP3 SWAP2 SWAP1 PUSH2 0x2C0D JUMP JUMPDEST PUSH1 0x40 MLOAD DUP1 SWAP2 SUB SWAP1 RETURN JUMPDEST PUSH2 0x314 PUSH1 0x4 DUP1 CALLDATASIZE SUB DUP2 ADD SWAP1 PUSH2 0x30F SWAP2 SWAP1 PUSH2 0x2E03 JUMP JUMPDEST PUSH2 0x196D JUMP JUMPDEST STOP JUMPDEST PUSH2 0x330 PUSH1 0x4 DUP1 CALLDATASIZE SUB DUP2 ADD SWAP1 PUSH2 0x32B SWAP2 SWAP1 PUSH2 0x2EB2 JUMP JUMPDEST PUSH2 0x1D96 JUMP JUMPDEST STOP JUMPDEST PUSH2 0x34C PUSH1 0x4 DUP1 CALLDATASIZE SUB DUP2 ADD SWAP1 PUSH2 0x347 SWAP2 SWAP1 PUSH2 0x2EB2 JUMP JUMPDEST PUSH2 0x1F13 JUMP JUMPDEST PUSH1 0x40 MLOAD PUSH2 0x359 SWAP2 SWAP1 PUSH2 0x27D9 JUMP JUMPDEST PUSH1 0x40 MLOAD DUP1 SWAP2 SUB SWAP1 RETURN JUMPDEST PUSH2 0x37C PUSH1 0x4 DUP1 CALLDATASIZE SUB DUP2 ADD SWAP1 PUSH2 0x377 SWAP2 SWAP1 PUSH2 0x2791 JUMP JUMPDEST PUSH2 0x1F33 JUMP JUMPDEST PUSH1 0x40 MLOAD PUSH2 0x389 SWAP2 SWAP1 PUSH2 0x2BA8 JUMP JUMPDEST PUSH1 0x40 MLOAD DUP1 SWAP2 SUB SWAP1 RETURN JUMPDEST PUSH2 0x3AC PUSH1 0x4 DUP1 CALLDATASIZE SUB DUP2 ADD SWAP1 PUSH2 0x3A7 SWAP2 SWAP1 PUSH2 0x2791 JUMP JUMPDEST PUSH2 0x2043 JUMP JUMPDEST PUSH1 0x40 MLOAD PUSH2 0x3B9 SWAP2 SWAP1 PUSH2 0x2EF8 JUMP JUMPDEST PUSH1 0x40 MLOAD DUP1 SWAP2 SUB SWAP1 RETURN JUMPDEST PUSH2 0x3DC PUSH1 0x4 DUP1 CALLDATASIZE SUB DUP2 ADD SWAP1 PUSH2 0x3D7 SWAP2 SWAP1 PUSH2 0x2AF2 JUMP JUMPDEST PUSH2 0x2227 JUMP JUMPDEST STOP JUMPDEST PUSH2 0x3E6 PUSH2 0x24BA JUMP JUMPDEST PUSH1 0x40 MLOAD PUSH2 0x3F3 SWAP2 SWAP1 PUSH2 0x2BA8 JUMP JUMPDEST PUSH1 0x40 MLOAD DUP1 SWAP2 SUB SWAP1 RETURN JUMPDEST PUSH2 0x416 PUSH1 0x4 DUP1 CALLDATASIZE SUB DUP2 ADD SWAP1 PUSH2 0x411 SWAP2 SWAP1 PUSH2 0x2EB2 JUMP JUMPDEST PUSH2 0x24E0 JUMP JUMPDEST STOP JUMPDEST PUSH1 0x0 PUSH2 0x42E PUSH8 0xB4DC3DF9F2666EE2 PUSH1 0xC0 SHL PUSH2 0x2566 JUMP JUMPDEST PUSH2 0x442 PUSH8 0x531EF668318C0FAF PUSH1 0xC0 SHL PUSH2 0x2566 JUMP JUMPDEST PUSH2 0x456 PUSH8 0x2CA6757977889E60 PUSH1 0xC0 SHL PUSH2 0x2566 JUMP JUMPDEST PUSH2 0x46A PUSH8 0x7E58E82D96D2BB9B PUSH1 0xC0 SHL PUSH2 0x2566 JUMP JUMPDEST PUSH1 0x1 SLOAD DUP3 LT PUSH2 0x4AE JUMPI PUSH1 0x40 MLOAD PUSH32 0x8C379A000000000000000000000000000000000000000000000000000000000 DUP2 MSTORE PUSH1 0x4 ADD PUSH2 0x4A5 SWAP1 PUSH2 0x2F5F JUMP JUMPDEST PUSH1 0x40 MLOAD DUP1 SWAP2 SUB SWAP1 REVERT JUMPDEST PUSH2 0x4C2 PUSH8 0xB6F5D2A5A44E05DA PUSH1 0xC0 SHL PUSH2 0x2566 JUMP JUMPDEST PUSH2 0x4D6 PUSH8 0xC30E41633DF94313 PUSH1 0xC0 SHL PUSH2 0x2566 JUMP JUMPDEST PUSH2 0x4EA PUSH8 0xA143898764C0ABB6 PUSH1 0xC0 SHL PUSH2 0x2566 JUMP JUMPDEST PUSH2 0x4FE PUSH8 0x5C5DDD629D0CEF51 PUSH1 0xC0 SHL PUSH2 0x2566 JUMP JUMPDEST PUSH1 0x2 PUSH1 0x0 DUP4 DUP2 MSTORE PUSH1 0x20 ADD SWAP1 DUP2 MSTORE PUSH1 0x20 ADD PUSH1 0x0 KECCAK256 PUSH1 0xA ADD PUSH1 0x0 SWAP1 SLOAD SWAP1 PUSH2 0x100 EXP SWAP1 DIV PUSH1 0xFF AND PUSH2 0x561 JUMPI PUSH1 0x40 MLOAD PUSH32 0x8C379A000000000000000000000000000000000000000000000000000000000 DUP2 MSTORE PUSH1 0x4 ADD PUSH2 0x558 SWAP1 PUSH2 0x2FCB JUMP JUMPDEST PUSH1 0x40 MLOAD DUP1 SWAP2 SUB SWAP1 REVERT JUMPDEST PUSH2 0x575 PUSH8 0x34C98DF10A0332DC PUSH1 0xC0 SHL PUSH2 0x2566 JUMP JUMPDEST PUSH2 0x589 PUSH8 0x929245689B98C3E4 PUSH1 0xC0 SHL PUSH2 0x2566 JUMP JUMPDEST PUSH2 0x59D PUSH8 0x295343197EBF6E04 PUSH1 0xC0 SHL PUSH2 0x2566 JUMP JUMPDEST PUSH1 0x0 PUSH1 0x2 PUSH1 0x0 DUP5 DUP2 MSTORE PUSH1 0x20 ADD SWAP1 DUP2 MSTORE PUSH1 0x20 ADD PUSH1 0x0 KECCAK256 PUSH1 0x9 ADD SLOAD PUSH1 0x2 PUSH1 0x0 DUP6 DUP2 MSTORE PUSH1 0x20 ADD SWAP1 DUP2 MSTORE PUSH1 0x20 ADD PUSH1 0x0 KECCAK256 PUSH1 0x6 ADD SLOAD PUSH1 0x2 PUSH1 0x0 DUP7 DUP2 MSTORE PUSH1 0x20 ADD SWAP1 DUP2 MSTORE PUSH1 0x20 ADD PUSH1 0x0 KECCAK256 PUSH1 0x5 ADD SLOAD PUSH2 0x5EE SWAP2 SWAP1 PUSH2 0x301A JUMP JUMPDEST PUSH2 0x5F8 SWAP2 SWAP1 PUSH2 0x301A JUMP JUMPDEST SGT SWAP1 POP SWAP2 SWAP1 POP JUMP JUMPDEST PUSH2 0x614 PUSH8 0xF89F8A8AE5F82CEA PUSH1 0xC0 SHL PUSH2 0x2566 JUMP JUMPDEST DUP2 PUSH2 0x629 PUSH8 0xFA4F067AE74EAB65 PUSH1 0xC0 SHL PUSH2 0x2566 JUMP JUMPDEST PUSH2 0x63D PUSH8 0xAFDEC20E1D74114C PUSH1 0xC0 SHL PUSH2 0x2566 JUMP JUMPDEST PUSH2 0x651 PUSH8 0xA4ACE05E2D1D45CD PUSH1 0xC0 SHL PUSH2 0x2566 JUMP JUMPDEST PUSH2 0x665 PUSH8 0x1AC14C798361E87C PUSH1 0xC0 SHL PUSH2 0x2566 JUMP JUMPDEST CALLER PUSH20 0xFFFFFFFFFFFFFFFFFFFFFFFFFFFFFFFFFFFFFFFF AND PUSH1 0x2 PUSH1 0x0 DUP4 DUP2 MSTORE PUSH1 0x20 ADD SWAP1 DUP2 MSTORE PUSH1 0x20 ADD PUSH1 0x0 KECCAK256 PUSH1 0x2 ADD PUSH1 0x0 SWAP1 SLOAD SWAP1 PUSH2 0x100 EXP SWAP1 DIV PUSH20 0xFFFFFFFFFFFFFFFFFFFFFFFFFFFFFFFFFFFFFFFF AND PUSH20 0xFFFFFFFFFFFFFFFFFFFFFFFFFFFFFFFFFFFFFFFF AND EQ PUSH2 0x709 JUMPI PUSH1 0x40 MLOAD PUSH32 0x8C379A000000000000000000000000000000000000000000000000000000000 DUP2 MSTORE PUSH1 0x4 ADD PUSH2 0x700 SWAP1 PUSH2 0x30A9 JUMP JUMPDEST PUSH1 0x40 MLOAD DUP1 SWAP2 SUB SWAP1 REVERT JUMPDEST PUSH2 0x71D PUSH8 0x39813D068070CD7A PUSH1 0xC0 SHL PUSH2 0x2566 JUMP JUMPDEST PUSH2 0x731 PUSH8 0x449830FB7314C1EA PUSH1 0xC0 SHL PUSH2 0x2566 JUMP JUMPDEST PUSH2 0x745 PUSH8 0x94D9CEB1FBBA2F1E PUSH1 0xC0 SHL PUSH2 0x2566 JUMP JUMPDEST PUSH2 0x759 PUSH8 0xB8C3FB3D763A4380 PUSH1 0xC0 SHL PUSH2 0x2566 JUMP JUMPDEST PUSH2 0x76D PUSH8 0xD13272A7D29EA6A2 PUSH1 0xC0 SHL PUSH2 0x2566 JUMP JUMPDEST PUSH2 0x781 PUSH8 0x2B5E7CFCA0079FDC PUSH1 0xC0 SHL PUSH2 0x2566 JUMP JUMPDEST PUSH2 0x795 PUSH8 0x613569EC6CB43484 PUSH1 0xC0 SHL PUSH2 0x2566 JUMP JUMPDEST PUSH1 0x1 SLOAD DUP4 LT PUSH2 0x7D9 JUMPI PUSH1 0x40 MLOAD PUSH32 0x8C379A000000000000000000000000000000000000000000000000000000000 DUP2 MSTORE PUSH1 0x4 ADD PUSH2 0x7D0 SWAP1 PUSH2 0x2F5F JUMP JUMPDEST PUSH1 0x40 MLOAD DUP1 SWAP2 SUB SWAP1 REVERT JUMPDEST PUSH2 0x7ED PUSH8 0xE2C262CE4260545B PUSH1 0xC0 SHL PUSH2 0x2566 JUMP JUMPDEST PUSH2 0x801 PUSH8 0x5D67D88A123E6891 PUSH1 0xC0 SHL PUSH2 0x2566 JUMP JUMPDEST DUP2 PUSH1 0x2 PUSH1 0x0 DUP6 DUP2 MSTORE PUSH1 0x20 ADD SWAP1 DUP2 MSTORE PUSH1 0x20 ADD PUSH1 0x0 KECCAK256 PUSH1 0xA ADD PUSH1 0x0 PUSH2 0x100 EXP DUP2 SLOAD DUP2 PUSH1 0xFF MUL NOT AND SWAP1 DUP4 ISZERO ISZERO MUL OR SWAP1 SSTORE POP POP POP POP JUMP JUMPDEST PUSH1 0x0 PUSH2 0x84A PUSH8 0xD762FA7C6C37D506 PUSH1 0xC0 SHL PUSH2 0x2566 JUMP JUMPDEST PUSH2 0x85E PUSH8 0x1EA261B3736522D4 PUSH1 0xC0 SHL PUSH2 0x2566 JUMP JUMPDEST PUSH2 0x872 PUSH8 0x459868F4D9299836 PUSH1 0xC0 SHL PUSH2 0x2566 JUMP JUMPDEST PUSH2 0x886 PUSH8 0xF8CE72B5D3536B9A PUSH1 0xC0 SHL PUSH2 0x2566 JUMP JUMPDEST PUSH1 0x1 SLOAD DUP3 LT PUSH2 0x8CA JUMPI PUSH1 0x40 MLOAD PUSH32 0x8C379A000000000000000000000000000000000000000000000000000000000 DUP2 MSTORE PUSH1 0x4 ADD PUSH2 0x8C1 SWAP1 PUSH2 0x2F5F JUMP JUMPDEST PUSH1 0x40 MLOAD DUP1 SWAP2 SUB SWAP1 REVERT JUMPDEST PUSH2 0x8DE PUSH8 0x5A286FDF257760B8 PUSH1 0xC0 SHL PUSH2 0x2566 JUMP JUMPDEST PUSH2 0x8F2 PUSH8 0x65E887EC27F560CD PUSH1 0xC0 SHL PUSH2 0x2566 JUMP JUMPDEST PUSH2 0x906 PUSH8 0x6568FBF0250A9A57 PUSH1 0xC0 SHL PUSH2 0x2566 JUMP JUMPDEST PUSH1 0x2 PUSH1 0x0 DUP4 DUP2 MSTORE PUSH1 0x20 ADD SWAP1 DUP2 MSTORE PUSH1 0x20 ADD PUSH1 0x0 KECCAK256 PUSH1 0xA ADD PUSH1 0x0 SWAP1 SLOAD SWAP1 PUSH2 0x100 EXP SWAP1 DIV PUSH1 0xFF AND SWAP1 POP SWAP2 SWAP1 POP JUMP JUMPDEST PUSH2 0x939 PUSH2 0x26CE JUMP JUMPDEST PUSH2 0x94D PUSH8 0xB04D39C5E6F69F5C PUSH1 0xC0 SHL PUSH2 0x2566 JUMP JUMPDEST PUSH2 0x961 PUSH8 0x61CE6221A32F6955 PUSH1 0xC0 SHL PUSH2 0x2566 JUMP JUMPDEST PUSH2 0x975 PUSH8 0xF6565571302AC30E PUSH1 0xC0 SHL PUSH2 0x2566 JUMP JUMPDEST PUSH2 0x989 PUSH8 0x2C20243C0F0E0A4F PUSH1 0xC0 SHL PUSH2 0x2566 JUMP JUMPDEST PUSH1 0x1 SLOAD DUP3 LT PUSH2 0x9CD JUMPI PUSH1 0x40 MLOAD PUSH32 0x8C379A000000000000000000000000000000000000000000000000000000000 DUP2 MSTORE PUSH1 0x4 ADD PUSH2 0x9C4 SWAP1 PUSH2 0x2F5F JUMP JUMPDEST PUSH1 0x40 MLOAD DUP1 SWAP2 SUB SWAP1 REVERT JUMPDEST PUSH2 0x9E1 PUSH8 0x59EDE53B87DFA0CA PUSH1 0xC0 SHL PUSH2 0x2566 JUMP JUMPDEST PUSH2 0x9F5 PUSH8 0x683101DDC02DC9E8 PUSH1 0xC0 SHL PUSH2 0x2566 JUMP JUMPDEST PUSH2 0xA09 PUSH8 0x8B878FC8E5E6FB2C PUSH1 0xC0 SHL PUSH2 0x2566 JUMP JUMPDEST PUSH1 0x2 PUSH1 0x0 DUP4 DUP2 MSTORE PUSH1 0x20 ADD SWAP1 DUP2 MSTORE PUSH1 0x20 ADD PUSH1 0x0 KECCAK256 PUSH1 0x40 MLOAD DUP1 PUSH2 0x180 ADD PUSH1 0x40 MSTORE SWAP1 DUP2 PUSH1 0x0 DUP3 ADD SLOAD DUP2 MSTORE PUSH1 0x20 ADD PUSH1 0x1 DUP3 ADD DUP1 SLOAD PUSH2 0xA42 SWAP1 PUSH2 0x30F8 JUMP JUMPDEST DUP1 PUSH1 0x1F ADD PUSH1 0x20 DUP1 SWAP2 DIV MUL PUSH1 0x20 ADD PUSH1 0x40 MLOAD SWAP1 DUP2 ADD PUSH1 0x40 MSTORE DUP1 SWAP3 SWAP2 SWAP1 DUP2 DUP2 MSTORE PUSH1 0x20 ADD DUP3 DUP1 SLOAD PUSH2 0xA6E SWAP1 PUSH2 0x30F8 JUMP JUMPDEST DUP1 ISZERO PUSH2 0xABB JUMPI DUP1 PUSH1 0x1F LT PUSH2 0xA90 JUMPI PUSH2 0x100 DUP1 DUP4 SLOAD DIV MUL DUP4 MSTORE SWAP2 PUSH1 0x20 ADD SWAP2 PUSH2 0xABB JUMP JUMPDEST DUP3 ADD SWAP2 SWAP1 PUSH1 0x0 MSTORE PUSH1 0x20 PUSH1 0x0 KECCAK256 SWAP1 JUMPDEST DUP2 SLOAD DUP2 MSTORE SWAP1 PUSH1 0x1 ADD SWAP1 PUSH1 0x20 ADD DUP1 DUP4 GT PUSH2 0xA9E JUMPI DUP3 SWAP1 SUB PUSH1 0x1F AND DUP3 ADD SWAP2 JUMPDEST POP POP POP POP POP DUP2 MSTORE PUSH1 0x20 ADD PUSH1 0x2 DUP3 ADD PUSH1 0x0 SWAP1 SLOAD SWAP1 PUSH2 0x100 EXP SWAP1 DIV PUSH20 0xFFFFFFFFFFFFFFFFFFFFFFFFFFFFFFFFFFFFFFFF AND PUSH20 0xFFFFFFFFFFFFFFFFFFFFFFFFFFFFFFFFFFFFFFFF AND PUSH20 0xFFFFFFFFFFFFFFFFFFFFFFFFFFFFFFFFFFFFFFFF AND DUP2 MSTORE PUSH1 0x20 ADD PUSH1 0x3 DUP3 ADD SLOAD DUP2 MSTORE PUSH1 0x20 ADD PUSH1 0x4 DUP3 ADD SLOAD DUP2 MSTORE PUSH1 0x20 ADD PUSH1 0x5 DUP3 ADD SLOAD DUP2 MSTORE PUSH1 0x20 ADD PUSH1 0x6 DUP3 ADD SLOAD DUP2 MSTORE PUSH1 0x20 ADD PUSH1 0x7 DUP3 ADD SLOAD DUP2 MSTORE PUSH1 0x20 ADD PUSH1 0x8 DUP3 ADD SLOAD DUP2 MSTORE PUSH1 0x20 ADD PUSH1 0x9 DUP3 ADD SLOAD DUP2 MSTORE PUSH1 0x20 ADD PUSH1 0xA DUP3 ADD PUSH1 0x0 SWAP1 SLOAD SWAP1 PUSH2 0x100 EXP SWAP1 DIV PUSH1 0xFF AND ISZERO ISZERO ISZERO ISZERO DUP2 MSTORE PUSH1 0x20 ADD PUSH1 0xB DUP3 ADD SLOAD DUP2 MSTORE POP POP SWAP1 POP SWAP2 SWAP1 POP JUMP JUMPDEST PUSH1 0x0 PUSH2 0xBA2 PUSH8 0x1324422A7873A3DA PUSH1 0xC0 SHL PUSH2 0x2566 JUMP JUMPDEST PUSH2 0xBB6 PUSH8 0x15560B90CD50B01E PUSH1 0xC0 SHL PUSH2 0x2566 JUMP JUMPDEST PUSH2 0xBCA PUSH8 0x305CD9CD539AC6E PUSH1 0xC0 SHL PUSH2 0x2566 JUMP JUMPDEST PUSH2 0xBDE PUSH8 0x7F0568AAEB0C33D4 PUSH1 0xC0 SHL PUSH2 0x2566 JUMP JUMPDEST PUSH1 0x1 SLOAD DUP3 LT PUSH2 0xC22 JUMPI PUSH1 0x40 MLOAD PUSH32 0x8C379A000000000000000000000000000000000000000000000000000000000 DUP2 MSTORE PUSH1 0x4 ADD PUSH2 0xC19 SWAP1 PUSH2 0x2F5F JUMP JUMPDEST PUSH1 0x40 MLOAD DUP1 SWAP2 SUB SWAP1 REVERT JUMPDEST PUSH2 0xC36 PUSH8 0xD6D4090F871DE3F2 PUSH1 0xC0 SHL PUSH2 0x2566 JUMP JUMPDEST PUSH2 0xC4A PUSH8 0x652B47B1AEC81668 PUSH1 0xC0 SHL PUSH2 0x2566 JUMP JUMPDEST PUSH2 0xC5E PUSH8 0x43F8B25FEBFC9B82 PUSH1 0xC0 SHL PUSH2 0x2566 JUMP JUMPDEST PUSH2 0xC72 PUSH8 0x9D83790BB39C9C77 PUSH1 0xC0 SHL PUSH2 0x2566 JUMP JUMPDEST PUSH1 0x2 PUSH1 0x0 DUP4 DUP2 MSTORE PUSH1 0x20 ADD SWAP1 DUP2 MSTORE PUSH1 0x20 ADD PUSH1 0x0 KECCAK256 PUSH1 0xA ADD PUSH1 0x0 SWAP1 SLOAD SWAP1 PUSH2 0x100 EXP SWAP1 DIV PUSH1 0xFF AND PUSH2 0xCD5 JUMPI PUSH1 0x40 MLOAD PUSH32 0x8C379A000000000000000000000000000000000000000000000000000000000 DUP2 MSTORE PUSH1 0x4 ADD PUSH2 0xCCC SWAP1 PUSH2 0x2FCB JUMP JUMPDEST PUSH1 0x40 MLOAD DUP1 SWAP2 SUB SWAP1 REVERT JUMPDEST PUSH2 0xCE9 PUSH8 0xFC64CF6CA788589 PUSH1 0xC0 SHL PUSH2 0x2566 JUMP JUMPDEST PUSH2 0xCFD PUSH8 0x48D9F12032D200E4 PUSH1 0xC0 SHL PUSH2 0x2566 JUMP JUMPDEST PUSH2 0xD11 PUSH8 0x1702F42FE677D517 PUSH1 0xC0 SHL PUSH2 0x2566 JUMP JUMPDEST PUSH1 0x0 PUSH1 0x2 PUSH1 0x0 DUP5 DUP2 MSTORE PUSH1 0x20 ADD SWAP1 DUP2 MSTORE PUSH1 0x20 ADD PUSH1 0x0 KECCAK256 PUSH1 0x9 ADD SLOAD PUSH1 0x2 PUSH1 0x0 DUP6 DUP2 MSTORE PUSH1 0x20 ADD SWAP1 DUP2 MSTORE PUSH1 0x20 ADD PUSH1 0x0 KECCAK256 PUSH1 0x6 ADD SLOAD PUSH1 0x2 PUSH1 0x0 DUP7 DUP2 MSTORE PUSH1 0x20 ADD SWAP1 DUP2 MSTORE PUSH1 0x20 ADD PUSH1 0x0 KECCAK256 PUSH1 0x5 ADD SLOAD PUSH2 0xD62 SWAP2 SWAP1 PUSH2 0x301A JUMP JUMPDEST PUSH2 0xD6C SWAP2 SWAP1 PUSH2 0x301A JUMP JUMPDEST SWAP1 POP PUSH2 0xD82 PUSH8 0x171CCFE02A3CF0BD PUSH1 0xC0 SHL PUSH2 0x2566 JUMP JUMPDEST PUSH2 0xD96 PUSH8 0x7DEB97982D0696D1 PUSH1 0xC0 SHL PUSH2 0x2566 JUMP JUMPDEST PUSH1 0x0 DUP2 SGT DUP1 PUSH2 0xDB5 JUMPI POP PUSH2 0xDB4 PUSH8 0xDEFAE39DF7011143 PUSH1 0xC0 SHL PUSH2 0x2569 JUMP JUMPDEST JUMPDEST DUP1 ISZERO PUSH2 0xDD1 JUMPI POP PUSH2 0xDD0 PUSH8 0x491C047F725869F0 PUSH1 0xC0 SHL PUSH2 0x2570 JUMP JUMPDEST JUMPDEST PUSH2 0xDDC JUMPI PUSH1 0x0 PUSH2 0xDDE JUMP JUMPDEST DUP1 JUMPDEST SWAP2 POP POP SWAP2 SWAP1 POP JUMP JUMPDEST PUSH1 0x0 DUP1 PUSH1 0x0 DUP1 PUSH1 0x0 PUSH2 0xE02 PUSH8 0xC2B20A8A4E3886A3 PUSH1 0xC0 SHL PUSH2 0x2566 JUMP JUMPDEST PUSH2 0xE16 PUSH8 0x4A8774D293726D36 PUSH1 0xC0 SHL PUSH2 0x2566 JUMP JUMPDEST PUSH2 0xE2A PUSH8 0x39108C05650B717E PUSH1 0xC0 SHL PUSH2 0x2566 JUMP JUMPDEST PUSH2 0xE3E PUSH8 0xD83C483DEB0A40E9 PUSH1 0xC0 SHL PUSH2 0x2566 JUMP JUMPDEST PUSH1 0x1 SLOAD DUP7 LT PUSH2 0xE82 JUMPI PUSH1 0x40 MLOAD PUSH32 0x8C379A000000000000000000000000000000000000000000000000000000000 DUP2 MSTORE PUSH1 0x4 ADD PUSH2 0xE79 SWAP1 PUSH2 0x3175 JUMP JUMPDEST PUSH1 0x40 MLOAD DUP1 SWAP2 SUB SWAP1 REVERT JUMPDEST PUSH2 0xE96 PUSH8 0xE41559B9AF7B936B PUSH1 0xC0 SHL PUSH2 0x2566 JUMP JUMPDEST PUSH2 0xEAA PUSH8 0x873B84CB6338C5F8 PUSH1 0xC0 SHL PUSH2 0x2566 JUMP JUMPDEST PUSH2 0xEBE PUSH8 0x70F2D806E916D2DD PUSH1 0xC0 SHL PUSH2 0x2566 JUMP JUMPDEST PUSH1 0x0 PUSH1 0x2 PUSH1 0x0 DUP9 DUP2 MSTORE PUSH1 0x20 ADD SWAP1 DUP2 MSTORE PUSH1 0x20 ADD PUSH1 0x0 KECCAK256 SWAP1 POP PUSH2 0xEE9 PUSH8 0x354FA5C916554A85 PUSH1 0xC0 SHL PUSH2 0x2566 JUMP JUMPDEST PUSH2 0xEFD PUSH8 0x2C8D460486D470A3 PUSH1 0xC0 SHL PUSH2 0x2566 JUMP JUMPDEST DUP1 PUSH1 0x5 ADD SLOAD DUP2 PUSH1 0x6 ADD SLOAD DUP3 PUSH1 0x7 ADD SLOAD DUP4 PUSH1 0x8 ADD SLOAD DUP5 PUSH1 0x9 ADD SLOAD SWAP6 POP SWAP6 POP SWAP6 POP SWAP6 POP SWAP6 POP POP SWAP2 SWAP4 SWAP6 SWAP1 SWAP3 SWAP5 POP JUMP JUMPDEST PUSH1 0x1 SLOAD DUP2 JUMP JUMPDEST PUSH2 0xF44 PUSH8 0x2F5D3C4748387672 PUSH1 0xC0 SHL PUSH2 0x2566 JUMP JUMPDEST PUSH2 0xF58 PUSH8 0x6A5AD04AAE31D1B6 PUSH1 0xC0 SHL PUSH2 0x2566 JUMP JUMPDEST PUSH2 0xF6C PUSH8 0xD502A5EF9F2DFA4F PUSH1 0xC0 SHL PUSH2 0x2566 JUMP JUMPDEST PUSH2 0xF80 PUSH8 0x17BD4A9B088876E1 PUSH1 0xC0 SHL PUSH2 0x2566 JUMP JUMPDEST PUSH2 0xF94 PUSH8 0xD642E18A857A8EF2 PUSH1 0xC0 SHL PUSH2 0x2566 JUMP JUMPDEST PUSH1 0x4 PUSH1 0x0 SWAP1 SLOAD SWAP1 PUSH2 0x100 EXP SWAP1 DIV PUSH20 0xFFFFFFFFFFFFFFFFFFFFFFFFFFFFFFFFFFFFFFFF AND PUSH20 0xFFFFFFFFFFFFFFFFFFFFFFFFFFFFFFFFFFFFFFFF AND CALLER PUSH20 0xFFFFFFFFFFFFFFFFFFFFFFFFFFFFFFFFFFFFFFFF AND EQ PUSH2 0x1024 JUMPI PUSH1 0x40 MLOAD PUSH32 0x8C379A000000000000000000000000000000000000000000000000000000000 DUP2 MSTORE PUSH1 0x4 ADD PUSH2 0x101B SWAP1 PUSH2 0x3207 JUMP JUMPDEST PUSH1 0x40 MLOAD DUP1 SWAP2 SUB SWAP1 REVERT JUMPDEST PUSH2 0x1038 PUSH8 0x86C22FA2488E7684 PUSH1 0xC0 SHL PUSH2 0x2566 JUMP JUMPDEST PUSH2 0x104C PUSH8 0x269A2DF1273F38B PUSH1 0xC0 SHL PUSH2 0x2566 JUMP JUMPDEST PUSH2 0x1060 PUSH8 0x9B525715386667EF PUSH1 0xC0 SHL PUSH2 0x2566 JUMP JUMPDEST PUSH2 0x1074 PUSH8 0xCA3A66C4410E85AD PUSH1 0xC0 SHL PUSH2 0x2566 JUMP JUMPDEST PUSH2 0x1088 PUSH8 0xEF8CFA6CF4DFE5CE PUSH1 0xC0 SHL PUSH2 0x2566 JUMP JUMPDEST PUSH2 0x109C PUSH8 0x1A592F94464EE6B0 PUSH1 0xC0 SHL PUSH2 0x2566 JUMP JUMPDEST PUSH2 0x10B0 PUSH8 0x2450126036180267 PUSH1 0xC0 SHL PUSH2 0x2566 JUMP JUMPDEST PUSH1 0x1 SLOAD DUP3 LT PUSH2 0x10F4 JUMPI PUSH1 0x40 MLOAD PUSH32 0x8C379A000000000000000000000000000000000000000000000000000000000 DUP2 MSTORE PUSH1 0x4 ADD PUSH2 0x10EB SWAP1 PUSH2 0x2F5F JUMP JUMPDEST PUSH1 0x40 MLOAD DUP1 SWAP2 SUB SWAP1 REVERT JUMPDEST PUSH2 0x1108 PUSH8 0x5DE7C156EB33BD29 PUSH1 0xC0 SHL PUSH2 0x2566 JUMP JUMPDEST PUSH2 0x111C PUSH8 0xC4E6AB9F2A9A0C95 PUSH1 0xC0 SHL PUSH2 0x2566 JUMP JUMPDEST PUSH2 0x1130 PUSH8 0x571EB7CCD72F08F3 PUSH1 0xC0 SHL PUSH2 0x2566 JUMP JUMPDEST PUSH2 0x1144 PUSH8 0xE432B71C23FC0A2 PUSH1 0xC0 SHL PUSH2 0x2566 JUMP JUMPDEST DUP1 PUSH1 0x2 PUSH1 0x0 DUP5 DUP2 MSTORE PUSH1 0x20 ADD SWAP1 DUP2 MSTORE PUSH1 0x20 ADD PUSH1 0x0 KECCAK256 PUSH1 0x9 ADD SLOAD LT ISZERO PUSH2 0x119D JUMPI PUSH1 0x40 MLOAD PUSH32 0x8C379A000000000000000000000000000000000000000000000000000000000 DUP2 MSTORE PUSH1 0x4 ADD PUSH2 0x1194 SWAP1 PUSH2 0x3273 JUMP JUMPDEST PUSH1 0x40 MLOAD DUP1 SWAP2 SUB SWAP1 REVERT JUMPDEST PUSH2 0x11B1 PUSH8 0x8A6E80B00935CD03 PUSH1 0xC0 SHL PUSH2 0x2566 JUMP JUMPDEST PUSH2 0x11C5 PUSH8 0x3843448262017454 PUSH1 0xC0 SHL PUSH2 0x2566 JUMP JUMPDEST DUP1 PUSH1 0x2 PUSH1 0x0 DUP5 DUP2 MSTORE PUSH1 0x20 ADD SWAP1 DUP2 MSTORE PUSH1 0x20 ADD PUSH1 0x0 KECCAK256 PUSH1 0x9 ADD PUSH1 0x0 DUP3 DUP3 SLOAD PUSH2 0x11EB SWAP2 SWAP1 PUSH2 0x3293 JUMP JUMPDEST SWAP3 POP POP DUP2 SWAP1 SSTORE POP PUSH2 0x1206 PUSH8 0xF51323CD07AAD7E PUSH1 0xC0 SHL PUSH2 0x2566 JUMP JUMPDEST PUSH2 0x121A PUSH8 0x79C99591E7E63042 PUSH1 0xC0 SHL PUSH2 0x2566 JUMP JUMPDEST DUP2 PUSH32 0xB289BC0A077DDA72409091ECFD7217E89EEC2E6C01BBB815EECF3599CCF31FCC PUSH1 0x2 PUSH1 0x0 DUP6 DUP2 MSTORE PUSH1 0x20 ADD SWAP1 DUP2 MSTORE PUSH1 0x20 ADD PUSH1 0x0 KECCAK256 PUSH1 0x9 ADD SLOAD PUSH1 0x40 MLOAD PUSH2 0x1260 SWAP2 SWAP1 PUSH2 0x2A84 JUMP JUMPDEST PUSH1 0x40 MLOAD DUP1 SWAP2 SUB SWAP1 LOG2 POP POP JUMP JUMPDEST PUSH2 0x1274 PUSH2 0x257B JUMP JUMPDEST PUSH2 0x127E PUSH1 0x0 PUSH2 0x2602 JUMP JUMPDEST JUMP JUMPDEST PUSH2 0x1294 PUSH8 0x366CE72B9219A584 PUSH1 0xC0 SHL PUSH2 0x2566 JUMP JUMPDEST DUP4 PUSH2 0x12A9 PUSH8 0xFA4F067AE74EAB65 PUSH1 0xC0 SHL PUSH2 0x2566 JUMP JUMPDEST PUSH2 0x12BD PUSH8 0xAFDEC20E1D74114C PUSH1 0xC0 SHL PUSH2 0x2566 JUMP JUMPDEST PUSH2 0x12D1 PUSH8 0xA4ACE05E2D1D45CD PUSH1 0xC0 SHL PUSH2 0x2566 JUMP JUMPDEST PUSH2 0x12E5 PUSH8 0x1AC14C798361E87C PUSH1 0xC0 SHL PUSH2 0x2566 JUMP JUMPDEST CALLER PUSH20 0xFFFFFFFFFFFFFFFFFFFFFFFFFFFFFFFFFFFFFFFF AND PUSH1 0x2 PUSH1 0x0 DUP4 DUP2 MSTORE PUSH1 0x20 ADD SWAP1 DUP2 MSTORE PUSH1 0x20 ADD PUSH1 0x0 KECCAK256 PUSH1 0x2 ADD PUSH1 0x0 SWAP1 SLOAD SWAP1 PUSH2 0x100 EXP SWAP1 DIV PUSH20 0xFFFFFFFFFFFFFFFFFFFFFFFFFFFFFFFFFFFFFFFF AND PUSH20 0xFFFFFFFFFFFFFFFFFFFFFFFFFFFFFFFFFFFFFFFF AND EQ PUSH2 0x1389 JUMPI PUSH1 0x40 MLOAD PUSH32 0x8C379A000000000000000000000000000000000000000000000000000000000 DUP2 MSTORE PUSH1 0x4 ADD PUSH2 0x1380 SWAP1 PUSH2 0x30A9 JUMP JUMPDEST PUSH1 0x40 MLOAD DUP1 SWAP2 SUB SWAP1 REVERT JUMPDEST PUSH2 0x139D PUSH8 0x39813D068070CD7A PUSH1 0xC0 SHL PUSH2 0x2566 JUMP JUMPDEST PUSH2 0x13B1 PUSH8 0x449830FB7314C1EA PUSH1 0xC0 SHL PUSH2 0x2566 JUMP JUMPDEST PUSH2 0x13C5 PUSH8 0x8D5858AAE7DAECA0 PUSH1 0xC0 SHL PUSH2 0x2566 JUMP JUMPDEST PUSH2 0x13D9 PUSH8 0xAC6288D1048056D3 PUSH1 0xC0 SHL PUSH2 0x2566 JUMP JUMPDEST PUSH2 0x13ED PUSH8 0xB967D2AAF4825E61 PUSH1 0xC0 SHL PUSH2 0x2566 JUMP JUMPDEST PUSH2 0x1401 PUSH8 0xF5F214A9C628BAD2 PUSH1 0xC0 SHL PUSH2 0x2566 JUMP JUMPDEST PUSH2 0x1415 PUSH8 0x4CADD743F374D2AB PUSH1 0xC0 SHL PUSH2 0x2566 JUMP JUMPDEST PUSH1 0x1 SLOAD DUP6 LT PUSH2 0x1459 JUMPI PUSH1 0x40 MLOAD PUSH32 0x8C379A000000000000000000000000000000000000000000000000000000000 DUP2 MSTORE PUSH1 0x4 ADD PUSH2 0x1450 SWAP1 PUSH2 0x2F5F JUMP JUMPDEST PUSH1 0x40 MLOAD DUP1 SWAP2 SUB SWAP1 REVERT JUMPDEST PUSH2 0x146D PUSH8 0x6788EC642F957AE7 PUSH1 0xC0 SHL PUSH2 0x2566 JUMP JUMPDEST PUSH2 0x1481 PUSH8 0xFA7B1FB2D7FF4706 PUSH1 0xC0 SHL PUSH2 0x2566 JUMP JUMPDEST PUSH2 0x1495 PUSH8 0x82D24609DD94249D PUSH1 0xC0 SHL PUSH2 0x2566 JUMP JUMPDEST PUSH2 0x14A9 PUSH8 0x2B9089367569A336 PUSH1 0xC0 SHL PUSH2 0x2566 JUMP JUMPDEST PUSH1 0x2 PUSH1 0x0 DUP7 DUP2 MSTORE PUSH1 0x20 ADD SWAP1 DUP2 MSTORE PUSH1 0x20 ADD PUSH1 0x0 KECCAK256 PUSH1 0xA ADD PUSH1 0x0 SWAP1 SLOAD SWAP1 PUSH2 0x100 EXP SWAP1 DIV PUSH1 0xFF AND PUSH2 0x150C JUMPI PUSH1 0x40 MLOAD PUSH32 0x8C379A000000000000000000000000000000000000000000000000000000000 DUP2 MSTORE PUSH1 0x4 ADD PUSH2 0x1503 SWAP1 PUSH2 0x2FCB JUMP JUMPDEST PUSH1 0x40 MLOAD DUP1 SWAP2 SUB SWAP1 REVERT JUMPDEST PUSH2 0x1520 PUSH8 0x39C2837293735650 PUSH1 0xC0 SHL PUSH2 0x2566 JUMP JUMPDEST PUSH2 0x1534 PUSH8 0xFE47287D8ECDC20F PUSH1 0xC0 SHL PUSH2 0x2566 JUMP JUMPDEST PUSH2 0x1548 PUSH8 0xB624AF8296D7B27 PUSH1 0xC0 SHL PUSH2 0x2566 JUMP JUMPDEST PUSH2 0x155C PUSH8 0x6283F85F9C192EAB PUSH1 0xC0 SHL PUSH2 0x2566 JUMP JUMPDEST PUSH1 0x64 DUP3 GT ISZERO PUSH2 0x15A0 JUMPI PUSH1 0x40 MLOAD PUSH32 0x8C379A000000000000000000000000000000000000000000000000000000000 DUP2 MSTORE PUSH1 0x4 ADD PUSH2 0x1597 SWAP1 PUSH2 0x3339 JUMP JUMPDEST PUSH1 0x40 MLOAD DUP1 SWAP2 SUB SWAP1 REVERT JUMPDEST PUSH2 0x15B4 PUSH8 0xA41BBA8C41593051 PUSH1 0xC0 SHL PUSH2 0x2566 JUMP JUMPDEST PUSH2 0x15C8 PUSH8 0xEA464FD45ED8930E PUSH1 0xC0 SHL PUSH2 0x2566 JUMP JUMPDEST PUSH2 0x15DC PUSH8 0xF5E7E21303552BA PUSH1 0xC0 SHL PUSH2 0x2566 JUMP JUMPDEST PUSH2 0x15F0 PUSH8 0xB7BE9008BFD83C9B PUSH1 0xC0 SHL PUSH2 0x2566 JUMP JUMPDEST PUSH1 0x2 PUSH1 0x0 DUP7 DUP2 MSTORE PUSH1 0x20 ADD SWAP1 DUP2 MSTORE PUSH1 0x20 ADD PUSH1 0x0 KECCAK256 PUSH1 0x8 ADD SLOAD DUP5 GT ISZERO PUSH2 0x1649 JUMPI PUSH1 0x40 MLOAD PUSH32 0x8C379A000000000000000000000000000000000000000000000000000000000 DUP2 MSTORE PUSH1 0x4 ADD PUSH2 0x1640 SWAP1 PUSH2 0x33CB JUMP JUMPDEST PUSH1 0x40 MLOAD DUP1 SWAP2 SUB SWAP1 REVERT JUMPDEST PUSH2 0x165D PUSH8 0xD6DAF06B072EAEC4 PUSH1 0xC0 SHL PUSH2 0x2566 JUMP JUMPDEST PUSH2 0x1671 PUSH8 0x1D55785FC782D19 PUSH1 0xC0 SHL PUSH2 0x2566 JUMP JUMPDEST PUSH2 0x1685 PUSH8 0xB9707AB0F3EE567 PUSH1 0xC0 SHL PUSH2 0x2566 JUMP JUMPDEST PUSH2 0x1699 PUSH8 0x5FFFE45604DF5733 PUSH1 0xC0 SHL PUSH2 0x2566 JUMP JUMPDEST PUSH1 0x2 PUSH1 0x0 DUP7 DUP2 MSTORE PUSH1 0x20 ADD SWAP1 DUP2 MSTORE PUSH1 0x20 ADD PUSH1 0x0 KECCAK256 PUSH1 0x8 ADD SLOAD DUP4 GT ISZERO PUSH2 0x16F2 JUMPI PUSH1 0x40 MLOAD PUSH32 0x8C379A000000000000000000000000000000000000000000000000000000000 DUP2 MSTORE PUSH1 0x4 ADD PUSH2 0x16E9 SWAP1 PUSH2 0x345D JUMP JUMPDEST PUSH1 0x40 MLOAD DUP1 SWAP2 SUB SWAP1 REVERT JUMPDEST PUSH2 0x1706 PUSH8 0xDF19EC54A283DE10 PUSH1 0xC0 SHL PUSH2 0x2566 JUMP JUMPDEST PUSH2 0x171A PUSH8 0xD3A9BF9FE28169E7 PUSH1 0xC0 SHL PUSH2 0x2566 JUMP JUMPDEST DUP4 PUSH1 0x2 PUSH1 0x0 DUP8 DUP2 MSTORE PUSH1 0x20 ADD SWAP1 DUP2 MSTORE PUSH1 0x20 ADD PUSH1 0x0 KECCAK256 PUSH1 0x5 ADD DUP2 SWAP1 SSTORE POP PUSH2 0x1749 PUSH8 0x3B95BE0BA4C515C1 PUSH1 0xC0 SHL PUSH2 0x2566 JUMP JUMPDEST DUP3 PUSH1 0x2 PUSH1 0x0 DUP8 DUP2 MSTORE PUSH1 0x20 ADD SWAP1 DUP2 MSTORE PUSH1 0x20 ADD PUSH1 0x0 KECCAK256 PUSH1 0x6 ADD DUP2 SWAP1 SSTORE POP PUSH2 0x1778 PUSH8 0x8D3E7B160C570AA PUSH1 0xC0 SHL PUSH2 0x2566 JUMP JUMPDEST DUP2 PUSH1 0x2 PUSH1 0x0 DUP8 DUP2 MSTORE PUSH1 0x20 ADD SWAP1 DUP2 MSTORE PUSH1 0x20 ADD PUSH1 0x0 KECCAK256 PUSH1 0x7 ADD DUP2 SWAP1 SSTORE POP PUSH2 0x17A7 PUSH8 0x21F60E690A46DA7B PUSH1 0xC0 SHL PUSH2 0x2566 JUMP JUMPDEST TIMESTAMP PUSH1 0x2 PUSH1 0x0 DUP8 DUP2 MSTORE PUSH1 0x20 ADD SWAP1 DUP2 MSTORE PUSH1 0x20 ADD PUSH1 0x0 KECCAK256 PUSH1 0xB ADD DUP2 SWAP1 SSTORE POP PUSH2 0x17D6 PUSH8 0x47DAEE6437ABBDF2 PUSH1 0xC0 SHL PUSH2 0x2566 JUMP JUMPDEST PUSH2 0x17EA PUSH8 0xC065A7F1FD7BC0EC PUSH1 0xC0 SHL PUSH2 0x2566 JUMP JUMPDEST DUP5 PUSH32 0x51DFFC56F3EBEF9BAB005C12273259D1C794ECDAC4BDB23F96C2D9553AB94101 DUP6 DUP6 DUP6 TIMESTAMP PUSH1 0x40 MLOAD PUSH2 0x1820 SWAP5 SWAP4 SWAP3 SWAP2 SWAP1 PUSH2 0x347D JUMP JUMPDEST PUSH1 0x40 MLOAD DUP1 SWAP2 SUB SWAP1 LOG2 POP POP POP POP POP JUMP JUMPDEST PUSH1 0x0 DUP1 PUSH1 0x0 SWAP1 SLOAD SWAP1 PUSH2 0x100 EXP SWAP1 DIV PUSH20 0xFFFFFFFFFFFFFFFFFFFFFFFFFFFFFFFFFFFFFFFF AND SWAP1 POP SWAP1 JUMP JUMPDEST PUSH1 0x2 PUSH1 0x20 MSTORE DUP1 PUSH1 0x0 MSTORE PUSH1 0x40 PUSH1 0x0 KECCAK256 PUSH1 0x0 SWAP2 POP SWAP1 POP DUP1 PUSH1 0x0 ADD SLOAD SWAP1 DUP1 PUSH1 0x1 ADD DUP1 SLOAD PUSH2 0x1881 SWAP1 PUSH2 0x30F8 JUMP JUMPDEST DUP1 PUSH1 0x1F ADD PUSH1 0x20 DUP1 SWAP2 DIV MUL PUSH1 0x20 ADD PUSH1 0x40 MLOAD SWAP1 DUP2 ADD PUSH1 0x40 MSTORE DUP1 SWAP3 SWAP2 SWAP1 DUP2 DUP2 MSTORE PUSH1 0x20 ADD DUP3 DUP1 SLOAD PUSH2 0x18AD SWAP1 PUSH2 0x30F8 JUMP JUMPDEST DUP1 ISZERO PUSH2 0x18FA JUMPI DUP1 PUSH1 0x1F LT PUSH2 0x18CF JUMPI PUSH2 0x100 DUP1 DUP4 SLOAD DIV MUL DUP4 MSTORE SWAP2 PUSH1 0x20 ADD SWAP2 PUSH2 0x18FA JUMP JUMPDEST DUP3 ADD SWAP2 SWAP1 PUSH1 0x0 MSTORE PUSH1 0x20 PUSH1 0x0 KECCAK256 SWAP1 JUMPDEST DUP2 SLOAD DUP2 MSTORE SWAP1 PUSH1 0x1 ADD SWAP1 PUSH1 0x20 ADD DUP1 DUP4 GT PUSH2 0x18DD JUMPI DUP3 SWAP1 SUB PUSH1 0x1F AND DUP3 ADD SWAP2 JUMPDEST POP POP POP POP POP SWAP1 DUP1 PUSH1 0x2 ADD PUSH1 0x0 SWAP1 SLOAD SWAP1 PUSH2 0x100 EXP SWAP1 DIV PUSH20 0xFFFFFFFFFFFFFFFFFFFFFFFFFFFFFFFFFFFFFFFF AND SWAP1 DUP1 PUSH1 0x3 ADD SLOAD SWAP1 DUP1 PUSH1 0x4 ADD SLOAD SWAP1 DUP1 PUSH1 0x5 ADD SLOAD SWAP1 DUP1 PUSH1 0x6 ADD SLOAD SWAP1 DUP1 PUSH1 0x7 ADD SLOAD SWAP1 DUP1 PUSH1 0x8 ADD SLOAD SWAP1 DUP1 PUSH1 0x9 ADD SLOAD SWAP1 DUP1 PUSH1 0xA ADD PUSH1 0x0 SWAP1 SLOAD SWAP1 PUSH2 0x100 EXP SWAP1 DIV PUSH1 0xFF AND SWAP1 DUP1 PUSH1 0xB ADD SLOAD SWAP1 POP DUP13 JUMP JUMPDEST PUSH2 0x1981 PUSH8 0x996BCC77B4DD0221 PUSH1 0xC0 SHL PUSH2 0x2566 JUMP JUMPDEST PUSH2 0x1995 PUSH8 0xD361145A6ECD39E2 PUSH1 0xC0 SHL PUSH2 0x2566 JUMP JUMPDEST PUSH2 0x19A9 PUSH8 0x9291DE0B7230FE1E PUSH1 0xC0 SHL PUSH2 0x2566 JUMP JUMPDEST PUSH2 0x19BD PUSH8 0xADF31B09C471E450 PUSH1 0xC0 SHL PUSH2 0x2566 JUMP JUMPDEST PUSH1 0x0 DUP2 GT PUSH2 0x1A00 JUMPI PUSH1 0x40 MLOAD PUSH32 0x8C379A000000000000000000000000000000000000000000000000000000000 DUP2 MSTORE PUSH1 0x4 ADD PUSH2 0x19F7 SWAP1 PUSH2 0x3534 JUMP JUMPDEST PUSH1 0x40 MLOAD DUP1 SWAP2 SUB SWAP1 REVERT JUMPDEST PUSH2 0x1A14 PUSH8 0x5F39EDB0EA14AB44 PUSH1 0xC0 SHL PUSH2 0x2566 JUMP JUMPDEST PUSH2 0x1A28 PUSH8 0x85961D1BE68ED071 PUSH1 0xC0 SHL PUSH2 0x2566 JUMP JUMPDEST PUSH2 0x1A3C PUSH8 0x27E72D98DA31B7DF PUSH1 0xC0 SHL PUSH2 0x2566 JUMP JUMPDEST PUSH2 0x1A50 PUSH8 0x2E86007E8CCE32B8 PUSH1 0xC0 SHL PUSH2 0x2566 JUMP JUMPDEST PUSH1 0x3 PUSH1 0x0 CALLER PUSH20 0xFFFFFFFFFFFFFFFFFFFFFFFFFFFFFFFFFFFFFFFF AND PUSH20 0xFFFFFFFFFFFFFFFFFFFFFFFFFFFFFFFFFFFFFFFF AND DUP2 MSTORE PUSH1 0x20 ADD SWAP1 DUP2 MSTORE PUSH1 0x20 ADD PUSH1 0x0 KECCAK256 PUSH1 0x0 SWAP1 SLOAD SWAP1 PUSH2 0x100 EXP SWAP1 DIV PUSH1 0xFF AND ISZERO PUSH2 0x1ADD JUMPI PUSH1 0x40 MLOAD PUSH32 0x8C379A000000000000000000000000000000000000000000000000000000000 DUP2 MSTORE PUSH1 0x4 ADD PUSH2 0x1AD4 SWAP1 PUSH2 0x35C6 JUMP JUMPDEST PUSH1 0x40 MLOAD DUP1 SWAP2 SUB SWAP1 REVERT JUMPDEST PUSH2 0x1AF1 PUSH8 0x1819A4401D310B1 PUSH1 0xC0 SHL PUSH2 0x2566 JUMP JUMPDEST PUSH2 0x1B05 PUSH8 0x13A957B9F7EC1DC3 PUSH1 0xC0 SHL PUSH2 0x2566 JUMP JUMPDEST PUSH2 0x1B19 PUSH8 0x891D80D03AC6A17F PUSH1 0xC0 SHL PUSH2 0x2566 JUMP JUMPDEST PUSH1 0x0 PUSH1 0x1 PUSH1 0x0 DUP2 SLOAD DUP1 SWAP3 SWAP2 SWAP1 PUSH2 0x1B2E SWAP1 PUSH2 0x35E6 JUMP JUMPDEST SWAP2 SWAP1 POP SSTORE SWAP1 POP PUSH2 0x1B48 PUSH8 0xCCD2107B25C4BD7C PUSH1 0xC0 SHL PUSH2 0x2566 JUMP JUMPDEST PUSH1 0x40 MLOAD DUP1 PUSH2 0x180 ADD PUSH1 0x40 MSTORE DUP1 DUP3 DUP2 MSTORE PUSH1 0x20 ADD DUP7 DUP2 MSTORE PUSH1 0x20 ADD CALLER PUSH20 0xFFFFFFFFFFFFFFFFFFFFFFFFFFFFFFFFFFFFFFFF AND DUP2 MSTORE PUSH1 0x20 ADD DUP6 DUP2 MSTORE PUSH1 0x20 ADD DUP5 DUP2 MSTORE PUSH1 0x20 ADD PUSH1 0x0 DUP2 MSTORE PUSH1 0x20 ADD PUSH1 0x0 DUP2 MSTORE PUSH1 0x20 ADD PUSH1 0x64 DUP2 MSTORE PUSH1 0x20 ADD DUP4 DUP2 MSTORE PUSH1 0x20 ADD PUSH1 0x0 DUP2 MSTORE PUSH1 0x20 ADD PUSH1 0x1 ISZERO ISZERO DUP2 MSTORE PUSH1 0x20 ADD TIMESTAMP DUP2 MSTORE POP PUSH1 0x2 PUSH1 0x0 DUP4 DUP2 MSTORE PUSH1 0x20 ADD SWAP1 DUP2 MSTORE PUSH1 0x20 ADD PUSH1 0x0 KECCAK256 PUSH1 0x0 DUP3 ADD MLOAD DUP2 PUSH1 0x0 ADD SSTORE PUSH1 0x20 DUP3 ADD MLOAD DUP2 PUSH1 0x1 ADD SWAP1 DUP2 PUSH2 0x1BE9 SWAP2 SWAP1 PUSH2 0x37DA JUMP JUMPDEST POP PUSH1 0x40 DUP3 ADD MLOAD DUP2 PUSH1 0x2 ADD PUSH1 0x0 PUSH2 0x100 EXP DUP2 SLOAD DUP2 PUSH20 0xFFFFFFFFFFFFFFFFFFFFFFFFFFFFFFFFFFFFFFFF MUL NOT AND SWAP1 DUP4 PUSH20 0xFFFFFFFFFFFFFFFFFFFFFFFFFFFFFFFFFFFFFFFF AND MUL OR SWAP1 SSTORE POP PUSH1 0x60 DUP3 ADD MLOAD DUP2 PUSH1 0x3 ADD SSTORE PUSH1 0x80 DUP3 ADD MLOAD DUP2 PUSH1 0x4 ADD SSTORE PUSH1 0xA0 DUP3 ADD MLOAD DUP2 PUSH1 0x5 ADD SSTORE PUSH1 0xC0 DUP3 ADD MLOAD DUP2 PUSH1 0x6 ADD SSTORE PUSH1 0xE0 DUP3 ADD MLOAD DUP2 PUSH1 0x7 ADD SSTORE PUSH2 0x100 DUP3 ADD MLOAD DUP2 PUSH1 0x8 ADD SSTORE PUSH2 0x120 DUP3 ADD MLOAD DUP2 PUSH1 0x9 ADD SSTORE PUSH2 0x140 DUP3 ADD MLOAD DUP2 PUSH1 0xA ADD PUSH1 0x0 PUSH2 0x100 EXP DUP2 SLOAD DUP2 PUSH1 0xFF MUL NOT AND SWAP1 DUP4 ISZERO ISZERO MUL OR SWAP1 SSTORE POP PUSH2 0x160 DUP3 ADD MLOAD DUP2 PUSH1 0xB ADD SSTORE SWAP1 POP POP PUSH2 0x1CBC PUSH8 0x799A67E54C3F41B7 PUSH1 0xC0 SHL PUSH2 0x2566 JUMP JUMPDEST PUSH1 0x1 PUSH1 0x3 PUSH1 0x0 CALLER PUSH20 0xFFFFFFFFFFFFFFFFFFFFFFFFFFFFFFFFFFFFFFFF AND PUSH20 0xFFFFFFFFFFFFFFFFFFFFFFFFFFFFFFFFFFFFFFFF AND DUP2 MSTORE PUSH1 0x20 ADD SWAP1 DUP2 MSTORE PUSH1 0x20 ADD PUSH1 0x0 KECCAK256 PUSH1 0x0 PUSH2 0x100 EXP DUP2 SLOAD DUP2 PUSH1 0xFF MUL NOT AND SWAP1 DUP4 ISZERO ISZERO MUL OR SWAP1 SSTORE POP PUSH2 0x1D28 PUSH8 0x269BE0F902554F25 PUSH1 0xC0 SHL PUSH2 0x2566 JUMP JUMPDEST PUSH2 0x1D3C PUSH8 0xD5D45CC58E54426B PUSH1 0xC0 SHL PUSH2 0x2566 JUMP JUMPDEST CALLER PUSH20 0xFFFFFFFFFFFFFFFFFFFFFFFFFFFFFFFFFFFFFFFF AND DUP2 PUSH32 0x7B2068605E8ED71972E65749AA4B5D44ADFA00427B5BDE64876AEBA6A4411A86 DUP8 DUP8 DUP8 PUSH1 0x40 MLOAD PUSH2 0x1D87 SWAP4 SWAP3 SWAP2 SWAP1 PUSH2 0x38AC JUMP JUMPDEST PUSH1 0x40 MLOAD DUP1 SWAP2 SUB SWAP1 LOG3 POP POP POP POP POP JUMP JUMPDEST PUSH2 0x1DAA PUSH8 0x1C61B3A5956E4CFC PUSH1 0xC0 SHL PUSH2 0x2566 JUMP JUMPDEST PUSH2 0x1DB2 PUSH2 0x257B JUMP JUMPDEST PUSH2 0x1DC6 PUSH8 0x4531E96E5C496F44 PUSH1 0xC0 SHL PUSH2 0x2566 JUMP JUMPDEST PUSH2 0x1DDA PUSH8 0x56B573D7891C888E PUSH1 0xC0 SHL PUSH2 0x2566 JUMP JUMPDEST PUSH2 0x1DEE PUSH8 0xB49686BE80667D33 PUSH1 0xC0 SHL PUSH2 0x2566 JUMP JUMPDEST PUSH2 0x1E02 PUSH8 0x52B3C6E66D76E7D6 PUSH1 0xC0 SHL PUSH2 0x2566 JUMP JUMPDEST PUSH2 0x1E16 PUSH8 0xBC8323EAEA9AFCB4 PUSH1 0xC0 SHL PUSH2 0x2566 JUMP JUMPDEST PUSH1 0x0 PUSH20 0xFFFFFFFFFFFFFFFFFFFFFFFFFFFFFFFFFFFFFFFF AND PUSH1 0x4 PUSH1 0x0 SWAP1 SLOAD SWAP1 PUSH2 0x100 EXP SWAP1 DIV PUSH20 0xFFFFFFFFFFFFFFFFFFFFFFFFFFFFFFFFFFFFFFFF AND PUSH20 0xFFFFFFFFFFFFFFFFFFFFFFFFFFFFFFFFFFFFFFFF AND EQ PUSH2 0x1EA7 JUMPI PUSH1 0x40 MLOAD PUSH32 0x8C379A000000000000000000000000000000000000000000000000000000000 DUP2 MSTORE PUSH1 0x4 ADD PUSH2 0x1E9E SWAP1 PUSH2 0x3936 JUMP JUMPDEST PUSH1 0x40 MLOAD DUP1 SWAP2 SUB SWAP1 REVERT JUMPDEST PUSH2 0x1EBB PUSH8 0x2A599FEC7ED07503 PUSH1 0xC0 SHL PUSH2 0x2566 JUMP JUMPDEST PUSH2 0x1ECF PUSH8 0xF74FBF3AEAD8A23F PUSH1 0xC0 SHL PUSH2 0x2566 JUMP JUMPDEST DUP1 PUSH1 0x4 PUSH1 0x0 PUSH2 0x100 EXP DUP2 SLOAD DUP2 PUSH20 0xFFFFFFFFFFFFFFFFFFFFFFFFFFFFFFFFFFFFFFFF MUL NOT AND SWAP1 DUP4 PUSH20 0xFFFFFFFFFFFFFFFFFFFFFFFFFFFFFFFFFFFFFFFF AND MUL OR SWAP1 SSTORE POP POP JUMP JUMPDEST PUSH1 0x3 PUSH1 0x20 MSTORE DUP1 PUSH1 0x0 MSTORE PUSH1 0x40 PUSH1 0x0 KECCAK256 PUSH1 0x0 SWAP2 POP SLOAD SWAP1 PUSH2 0x100 EXP SWAP1 DIV PUSH1 0xFF AND DUP2 JUMP JUMPDEST PUSH1 0x0 PUSH2 0x1F49 PUSH8 0xCA4BB878FB4EC9B8 PUSH1 0xC0 SHL PUSH2 0x2566 JUMP JUMPDEST PUSH2 0x1F5D PUSH8 0xE12CB3328BE2465D PUSH1 0xC0 SHL PUSH2 0x2566 JUMP JUMPDEST PUSH2 0x1F71 PUSH8 0x5C34391CD8A117EE PUSH1 0xC0 SHL PUSH2 0x2566 JUMP JUMPDEST PUSH2 0x1F85 PUSH8 0xF95F8BBB565B53B5 PUSH1 0xC0 SHL PUSH2 0x2566 JUMP JUMPDEST PUSH1 0x1 SLOAD DUP3 LT PUSH2 0x1FC9 JUMPI PUSH1 0x40 MLOAD PUSH32 0x8C379A000000000000000000000000000000000000000000000000000000000 DUP2 MSTORE PUSH1 0x4 ADD PUSH2 0x1FC0 SWAP1 PUSH2 0x2F5F JUMP JUMPDEST PUSH1 0x40 MLOAD DUP1 SWAP2 SUB SWAP1 REVERT JUMPDEST PUSH2 0x1FDD PUSH8 0x210F72B6DC179702 PUSH1 0xC0 SHL PUSH2 0x2566 JUMP JUMPDEST PUSH2 0x1FF1 PUSH8 0xD55C83DF174856B9 PUSH1 0xC0 SHL PUSH2 0x2566 JUMP JUMPDEST PUSH2 0x2005 PUSH8 0x44D688C12EFFCB32 PUSH1 0xC0 SHL PUSH2 0x2566 JUMP JUMPDEST PUSH1 0x2 PUSH1 0x0 DUP4 DUP2 MSTORE PUSH1 0x20 ADD SWAP1 DUP2 MSTORE PUSH1 0x20 ADD PUSH1 0x0 KECCAK256 PUSH1 0x2 ADD PUSH1 0x0 SWAP1 SLOAD SWAP1 PUSH2 0x100 EXP SWAP1 DIV PUSH20 0xFFFFFFFFFFFFFFFFFFFFFFFFFFFFFFFFFFFFFFFF AND SWAP1 POP SWAP2 SWAP1 POP JUMP JUMPDEST PUSH1 0x0 PUSH2 0x2059 PUSH8 0x4C19E989D821AF58 PUSH1 0xC0 SHL PUSH2 0x2566 JUMP JUMPDEST PUSH2 0x206D PUSH8 0x1CDCB680DD5EE624 PUSH1 0xC0 SHL PUSH2 0x2566 JUMP JUMPDEST PUSH2 0x2081 PUSH8 0xE9DA262B5B2C546 PUSH1 0xC0 SHL PUSH2 0x2566 JUMP JUMPDEST PUSH2 0x2095 PUSH8 0x24E650501CA9CB15 PUSH1 0xC0 SHL PUSH2 0x2566 JUMP JUMPDEST PUSH1 0x1 SLOAD DUP3 LT PUSH2 0x20D9 JUMPI PUSH1 0x40 MLOAD PUSH32 0x8C379A000000000000000000000000000000000000000000000000000000000 DUP2 MSTORE PUSH1 0x4 ADD PUSH2 0x20D0 SWAP1 PUSH2 0x2F5F JUMP JUMPDEST PUSH1 0x40 MLOAD DUP1 SWAP2 SUB SWAP1 REVERT JUMPDEST PUSH2 0x20EC PUSH7 0x6313CFF83A1D71 PUSH1 0xC0 SHL PUSH2 0x2566 JUMP JUMPDEST PUSH2 0x2100 PUSH8 0xFC36B5DF670D4AEF PUSH1 0xC0 SHL PUSH2 0x2566 JUMP JUMPDEST PUSH2 0x2114 PUSH8 0xE390373532FA951E PUSH1 0xC0 SHL PUSH2 0x2566 JUMP JUMPDEST PUSH2 0x2128 PUSH8 0x9CD94390C7B0B3F7 PUSH1 0xC0 SHL PUSH2 0x2566 JUMP JUMPDEST PUSH1 0x2 PUSH1 0x0 DUP4 DUP2 MSTORE PUSH1 0x20 ADD SWAP1 DUP2 MSTORE PUSH1 0x20 ADD PUSH1 0x0 KECCAK256 PUSH1 0xA ADD PUSH1 0x0 SWAP1 SLOAD SWAP1 PUSH2 0x100 EXP SWAP1 DIV PUSH1 0xFF AND PUSH2 0x218B JUMPI PUSH1 0x40 MLOAD PUSH32 0x8C379A000000000000000000000000000000000000000000000000000000000 DUP2 MSTORE PUSH1 0x4 ADD PUSH2 0x2182 SWAP1 PUSH2 0x2FCB JUMP JUMPDEST PUSH1 0x40 MLOAD DUP1 SWAP2 SUB SWAP1 REVERT JUMPDEST PUSH2 0x219F PUSH8 0x9F47ADD355970334 PUSH1 0xC0 SHL PUSH2 0x2566 JUMP JUMPDEST PUSH2 0x21B3 PUSH8 0x80CE5745264AC26A PUSH1 0xC0 SHL PUSH2 0x2566 JUMP JUMPDEST PUSH2 0x21C7 PUSH8 0xF0A14CB56E33A282 PUSH1 0xC0 SHL PUSH2 0x2566 JUMP JUMPDEST PUSH1 0x2 PUSH1 0x0 DUP4 DUP2 MSTORE PUSH1 0x20 ADD SWAP1 DUP2 MSTORE PUSH1 0x20 ADD PUSH1 0x0 KECCAK256 PUSH1 0x9 ADD SLOAD PUSH1 0x2 PUSH1 0x0 DUP5 DUP2 MSTORE PUSH1 0x20 ADD SWAP1 DUP2 MSTORE PUSH1 0x20 ADD PUSH1 0x0 KECCAK256 PUSH1 0x6 ADD SLOAD PUSH1 0x2 PUSH1 0x0 DUP6 DUP2 MSTORE PUSH1 0x20 ADD SWAP1 DUP2 MSTORE PUSH1 0x20 ADD PUSH1 0x0 KECCAK256 PUSH1 0x5 ADD SLOAD PUSH2 0x2216 SWAP2 SWAP1 PUSH2 0x301A JUMP JUMPDEST PUSH2 0x2220 SWAP2 SWAP1 PUSH2 0x301A JUMP JUMPDEST SWAP1 POP SWAP2 SWAP1 POP JUMP JUMPDEST PUSH2 0x223B PUSH8 0x252AC259DDA5B6AF PUSH1 0xC0 SHL PUSH2 0x2566 JUMP JUMPDEST PUSH2 0x224F PUSH8 0x6A5AD04AAE31D1B6 PUSH1 0xC0 SHL PUSH2 0x2566 JUMP JUMPDEST PUSH2 0x2263 PUSH8 0xD502A5EF9F2DFA4F PUSH1 0xC0 SHL PUSH2 0x2566 JUMP JUMPDEST PUSH2 0x2277 PUSH8 0x17BD4A9B088876E1 PUSH1 0xC0 SHL PUSH2 0x2566 JUMP JUMPDEST PUSH2 0x228B PUSH8 0xD642E18A857A8EF2 PUSH1 0xC0 SHL PUSH2 0x2566 JUMP JUMPDEST PUSH1 0x4 PUSH1 0x0 SWAP1 SLOAD SWAP1 PUSH2 0x100 EXP SWAP1 DIV PUSH20 0xFFFFFFFFFFFFFFFFFFFFFFFFFFFFFFFFFFFFFFFF AND PUSH20 0xFFFFFFFFFFFFFFFFFFFFFFFFFFFFFFFFFFFFFFFF AND CALLER PUSH20 0xFFFFFFFFFFFFFFFFFFFFFFFFFFFFFFFFFFFFFFFF AND EQ PUSH2 0x231B JUMPI PUSH1 0x40 MLOAD PUSH32 0x8C379A000000000000000000000000000000000000000000000000000000000 DUP2 MSTORE PUSH1 0x4 ADD PUSH2 0x2312 SWAP1 PUSH2 0x3207 JUMP JUMPDEST PUSH1 0x40 MLOAD DUP1 SWAP2 SUB SWAP1 REVERT JUMPDEST PUSH2 0x232F PUSH8 0x86C22FA2488E7684 PUSH1 0xC0 SHL PUSH2 0x2566 JUMP JUMPDEST PUSH2 0x2343 PUSH8 0x269A2DF1273F38B PUSH1 0xC0 SHL PUSH2 0x2566 JUMP JUMPDEST PUSH2 0x2357 PUSH8 0x43B45F3873535C85 PUSH1 0xC0 SHL PUSH2 0x2566 JUMP JUMPDEST PUSH2 0x236B PUSH8 0x959A014E8F200F49 PUSH1 0xC0 SHL PUSH2 0x2566 JUMP JUMPDEST PUSH2 0x237F PUSH8 0x4ACFD88884345E64 PUSH1 0xC0 SHL PUSH2 0x2566 JUMP JUMPDEST PUSH2 0x2393 PUSH8 0xB6C94FDCA21C5F21 PUSH1 0xC0 SHL PUSH2 0x2566 JUMP JUMPDEST PUSH2 0x23A7 PUSH8 0x2A196DFF200F2F24 PUSH1 0xC0 SHL PUSH2 0x2566 JUMP JUMPDEST PUSH1 0x1 SLOAD DUP3 LT PUSH2 0x23EB JUMPI PUSH1 0x40 MLOAD PUSH32 0x8C379A000000000000000000000000000000000000000000000000000000000 DUP2 MSTORE PUSH1 0x4 ADD PUSH2 0x23E2 SWAP1 PUSH2 0x2F5F JUMP JUMPDEST PUSH1 0x40 MLOAD DUP1 SWAP2 SUB SWAP1 REVERT JUMPDEST PUSH2 0x23FF PUSH8 0x87FF27B23E47AEE5 PUSH1 0xC0 SHL PUSH2 0x2566 JUMP JUMPDEST PUSH2 0x2413 PUSH8 0x1A3ADE033FC64FA9 PUSH1 0xC0 SHL PUSH2 0x2566 JUMP JUMPDEST DUP1 PUSH1 0x2 PUSH1 0x0 DUP5 DUP2 MSTORE PUSH1 0x20 ADD SWAP1 DUP2 MSTORE PUSH1 0x20 ADD PUSH1 0x0 KECCAK256 PUSH1 0x9 ADD PUSH1 0x0 DUP3 DUP3 SLOAD PUSH2 0x2439 SWAP2 SWAP1 PUSH2 0x3956 JUMP JUMPDEST SWAP3 POP POP DUP2 SWAP1 SSTORE POP PUSH2 0x2454 PUSH8 0xE0AB9EE7266A0597 PUSH1 0xC0 SHL PUSH2 0x2566 JUMP JUMPDEST PUSH2 0x2468 PUSH8 0xAE90B112036F44C9 PUSH1 0xC0 SHL PUSH2 0x2566 JUMP JUMPDEST DUP2 PUSH32 0xB289BC0A077DDA72409091ECFD7217E89EEC2E6C01BBB815EECF3599CCF31FCC PUSH1 0x2 PUSH1 0x0 DUP6 DUP2 MSTORE PUSH1 0x20 ADD SWAP1 DUP2 MSTORE PUSH1 0x20 ADD PUSH1 0x0 KECCAK256 PUSH1 0x9 ADD SLOAD PUSH1 0x40 MLOAD PUSH2 0x24AE SWAP2 SWAP1 PUSH2 0x2A84 JUMP JUMPDEST PUSH1 0x40 MLOAD DUP1 SWAP2 SUB SWAP1 LOG2 POP POP JUMP JUMPDEST PUSH1 0x4 PUSH1 0x0 SWAP1 SLOAD SWAP1 PUSH2 0x100 EXP SWAP1 DIV PUSH20 0xFFFFFFFFFFFFFFFFFFFFFFFFFFFFFFFFFFFFFFFF AND DUP2 JUMP JUMPDEST PUSH2 0x24E8 PUSH2 0x257B JUMP JUMPDEST PUSH1 0x0 PUSH20 0xFFFFFFFFFFFFFFFFFFFFFFFFFFFFFFFFFFFFFFFF AND DUP2 PUSH20 0xFFFFFFFFFFFFFFFFFFFFFFFFFFFFFFFFFFFFFFFF AND SUB PUSH2 0x255A JUMPI PUSH1 0x0 PUSH1 0x40 MLOAD PUSH32 0x1E4FBDF700000000000000000000000000000000000000000000000000000000 DUP2 MSTORE PUSH1 0x4 ADD PUSH2 0x2551 SWAP2 SWAP1 PUSH2 0x2BA8 JUMP JUMPDEST PUSH1 0x40 MLOAD DUP1 SWAP2 SUB SWAP1 REVERT JUMPDEST PUSH2 0x2563 DUP2 PUSH2 0x2602 JUMP JUMPDEST POP JUMP JUMPDEST POP JUMP JUMPDEST PUSH1 0x0 SWAP2 SWAP1 POP JUMP JUMPDEST PUSH1 0x0 PUSH1 0x1 SWAP1 POP SWAP2 SWAP1 POP JUMP JUMPDEST PUSH2 0x2583 PUSH2 0x26C6 JUMP JUMPDEST PUSH20 0xFFFFFFFFFFFFFFFFFFFFFFFFFFFFFFFFFFFFFFFF AND PUSH2 0x25A1 PUSH2 0x182F JUMP JUMPDEST PUSH20 0xFFFFFFFFFFFFFFFFFFFFFFFFFFFFFFFFFFFFFFFF AND EQ PUSH2 0x2600 JUMPI PUSH2 0x25C4 PUSH2 0x26C6 JUMP JUMPDEST PUSH1 0x40 MLOAD PUSH32 0x118CDAA700000000000000000000000000000000000000000000000000000000 DUP2 MSTORE PUSH1 0x4 ADD PUSH2 0x25F7 SWAP2 SWAP1 PUSH2 0x2BA8 JUMP JUMPDEST PUSH1 0x40 MLOAD DUP1 SWAP2 SUB SWAP1 REVERT JUMPDEST JUMP JUMPDEST PUSH1 0x0 DUP1 PUSH1 0x0 SWAP1 SLOAD SWAP1 PUSH2 0x100 EXP SWAP1 DIV PUSH20 0xFFFFFFFFFFFFFFFFFFFFFFFFFFFFFFFFFFFFFFFF AND SWAP1 POP DUP2 PUSH1 0x0 DUP1 PUSH2 0x100 EXP DUP2 SLOAD DUP2 PUSH20 0xFFFFFFFFFFFFFFFFFFFFFFFFFFFFFFFFFFFFFFFF MUL NOT AND SWAP1 DUP4 PUSH20 0xFFFFFFFFFFFFFFFFFFFFFFFFFFFFFFFFFFFFFFFF AND MUL OR SWAP1 SSTORE POP DUP2 PUSH20 0xFFFFFFFFFFFFFFFFFFFFFFFFFFFFFFFFFFFFFFFF AND DUP2 PUSH20 0xFFFFFFFFFFFFFFFFFFFFFFFFFFFFFFFFFFFFFFFF AND PUSH32 0x8BE0079C531659141344CD1FD0A4F28419497F9722A3DAAFE3B4186F6B6457E0 PUSH1 0x40 MLOAD PUSH1 0x40 MLOAD DUP1 SWAP2 SUB SWAP1 LOG3 POP POP JUMP JUMPDEST PUSH1 0x0 CALLER SWAP1 POP SWAP1 JUMP JUMPDEST PUSH1 0x40 MLOAD DUP1 PUSH2 0x180 ADD PUSH1 0x40 MSTORE DUP1 PUSH1 0x0 DUP2 MSTORE PUSH1 0x20 ADD PUSH1 0x60 DUP2 MSTORE PUSH1 0x20 ADD PUSH1 0x0 PUSH20 0xFFFFFFFFFFFFFFFFFFFFFFFFFFFFFFFFFFFFFFFF AND DUP2 MSTORE PUSH1 0x20 ADD PUSH1 0x0 DUP2 MSTORE PUSH1 0x20 ADD PUSH1 0x0 DUP2 MSTORE PUSH1 0x20 ADD PUSH1 0x0 DUP2 MSTORE PUSH1 0x20 ADD PUSH1 0x0 DUP2 MSTORE PUSH1 0x20 ADD PUSH1 0x0 DUP2 MSTORE PUSH1 0x20 ADD PUSH1 0x0 DUP2 MSTORE PUSH1 0x20 ADD PUSH1 0x0 DUP2 MSTORE PUSH1 0x20 ADD PUSH1 0x0 ISZERO ISZERO DUP2 MSTORE PUSH1 0x20 ADD PUSH1 0x0 DUP2 MSTORE POP SWAP1 JUMP JUMPDEST PUSH1 0x0 PUSH1 0x40 MLOAD SWAP1 POP SWAP1 JUMP JUMPDEST PUSH1 0x0 DUP1 REVERT JUMPDEST PUSH1 0x0 DUP1 REVERT JUMPDEST PUSH1 0x0 DUP2 SWAP1 POP SWAP2 SWAP1 POP JUMP JUMPDEST PUSH2 0x276E DUP2 PUSH2 0x275B JUMP JUMPDEST DUP2 EQ PUSH2 0x2779 JUMPI PUSH1 0x0 DUP1 REVERT JUMPDEST POP JUMP JUMPDEST PUSH1 0x0 DUP2 CALLDATALOAD SWAP1 POP PUSH2 0x278B DUP2 PUSH2 0x2765 JUMP JUMPDEST SWAP3 SWAP2 POP POP JUMP JUMPDEST PUSH1 0x0 PUSH1 0x20 DUP3 DUP5 SUB SLT ISZERO PUSH2 0x27A7 JUMPI PUSH2 0x27A6 PUSH2 0x2751 JUMP JUMPDEST JUMPDEST PUSH1 0x0 PUSH2 0x27B5 DUP5 DUP3 DUP6 ADD PUSH2 0x277C JUMP JUMPDEST SWAP2 POP POP SWAP3 SWAP2 POP POP JUMP JUMPDEST PUSH1 0x0 DUP2 ISZERO ISZERO SWAP1 POP SWAP2 SWAP1 POP JUMP JUMPDEST PUSH2 0x27D3 DUP2 PUSH2 0x27BE JUMP JUMPDEST DUP3 MSTORE POP POP JUMP JUMPDEST PUSH1 0x0 PUSH1 0x20 DUP3 ADD SWAP1 POP PUSH2 0x27EE PUSH1 0x0 DUP4 ADD DUP5 PUSH2 0x27CA JUMP JUMPDEST SWAP3 SWAP2 POP POP JUMP JUMPDEST PUSH2 0x27FD DUP2 PUSH2 0x27BE JUMP JUMPDEST DUP2 EQ PUSH2 0x2808 JUMPI PUSH1 0x0 DUP1 REVERT JUMPDEST POP JUMP JUMPDEST PUSH1 0x0 DUP2 CALLDATALOAD SWAP1 POP PUSH2 0x281A DUP2 PUSH2 0x27F4 JUMP JUMPDEST SWAP3 SWAP2 POP POP JUMP JUMPDEST PUSH1 0x0 DUP1 PUSH1 0x40 DUP4 DUP6 SUB SLT ISZERO PUSH2 0x2837 JUMPI PUSH2 0x2836 PUSH2 0x2751 JUMP JUMPDEST JUMPDEST PUSH1 0x0 PUSH2 0x2845 DUP6 DUP3 DUP7 ADD PUSH2 0x277C JUMP JUMPDEST SWAP3 POP POP PUSH1 0x20 PUSH2 0x2856 DUP6 DUP3 DUP7 ADD PUSH2 0x280B JUMP JUMPDEST SWAP2 POP POP SWAP3 POP SWAP3 SWAP1 POP JUMP JUMPDEST PUSH2 0x2869 DUP2 PUSH2 0x275B JUMP JUMPDEST DUP3 MSTORE POP POP JUMP JUMPDEST PUSH1 0x0 DUP2 MLOAD SWAP1 POP SWAP2 SWAP1 POP JUMP JUMPDEST PUSH1 0x0 DUP3 DUP3 MSTORE PUSH1 0x20 DUP3 ADD SWAP1 POP SWAP3 SWAP2 POP POP JUMP JUMPDEST PUSH1 0x0 JUMPDEST DUP4 DUP2 LT ISZERO PUSH2 0x28A9 JUMPI DUP1 DUP3 ADD MLOAD DUP2 DUP5 ADD MSTORE PUSH1 0x20 DUP2 ADD SWAP1 POP PUSH2 0x288E JUMP JUMPDEST PUSH1 0x0 DUP5 DUP5 ADD MSTORE POP POP POP POP JUMP JUMPDEST PUSH1 0x0 PUSH1 0x1F NOT PUSH1 0x1F DUP4 ADD AND SWAP1 POP SWAP2 SWAP1 POP JUMP JUMPDEST PUSH1 0x0 PUSH2 0x28D1 DUP3 PUSH2 0x286F JUMP JUMPDEST PUSH2 0x28DB DUP2 DUP6 PUSH2 0x287A JUMP JUMPDEST SWAP4 POP PUSH2 0x28EB DUP2 DUP6 PUSH1 0x20 DUP7 ADD PUSH2 0x288B JUMP JUMPDEST PUSH2 0x28F4 DUP2 PUSH2 0x28B5 JUMP JUMPDEST DUP5 ADD SWAP2 POP POP SWAP3 SWAP2 POP POP JUMP JUMPDEST PUSH1 0x0 PUSH20 0xFFFFFFFFFFFFFFFFFFFFFFFFFFFFFFFFFFFFFFFF DUP3 AND SWAP1 POP SWAP2 SWAP1 POP JUMP JUMPDEST PUSH1 0x0 PUSH2 0x292A DUP3 PUSH2 0x28FF JUMP JUMPDEST SWAP1 POP SWAP2 SWAP1 POP JUMP JUMPDEST PUSH2 0x293A DUP2 PUSH2 0x291F JUMP JUMPDEST DUP3 MSTORE POP POP JUMP JUMPDEST PUSH2 0x2949 DUP2 PUSH2 0x27BE JUMP JUMPDEST DUP3 MSTORE POP POP JUMP JUMPDEST PUSH1 0x0 PUSH2 0x180 DUP4 ADD PUSH1 0x0 DUP4 ADD MLOAD PUSH2 0x2968 PUSH1 0x0 DUP7 ADD DUP3 PUSH2 0x2860 JUMP JUMPDEST POP PUSH1 0x20 DUP4 ADD MLOAD DUP5 DUP3 SUB PUSH1 0x20 DUP7 ADD MSTORE PUSH2 0x2980 DUP3 DUP3 PUSH2 0x28C6 JUMP JUMPDEST SWAP2 POP POP PUSH1 0x40 DUP4 ADD MLOAD PUSH2 0x2995 PUSH1 0x40 DUP7 ADD DUP3 PUSH2 0x2931 JUMP JUMPDEST POP PUSH1 0x60 DUP4 ADD MLOAD PUSH2 0x29A8 PUSH1 0x60 DUP7 ADD DUP3 PUSH2 0x2860 JUMP JUMPDEST POP PUSH1 0x80 DUP4 ADD MLOAD PUSH2 0x29BB PUSH1 0x80 DUP7 ADD DUP3 PUSH2 0x2860 JUMP JUMPDEST POP PUSH1 0xA0 DUP4 ADD MLOAD PUSH2 0x29CE PUSH1 0xA0 DUP7 ADD DUP3 PUSH2 0x2860 JUMP JUMPDEST POP PUSH1 0xC0 DUP4 ADD MLOAD PUSH2 0x29E1 PUSH1 0xC0 DUP7 ADD DUP3 PUSH2 0x2860 JUMP JUMPDEST POP PUSH1 0xE0 DUP4 ADD MLOAD PUSH2 0x29F4 PUSH1 0xE0 DUP7 ADD DUP3 PUSH2 0x2860 JUMP JUMPDEST POP PUSH2 0x100 DUP4 ADD MLOAD PUSH2 0x2A09 PUSH2 0x100 DUP7 ADD DUP3 PUSH2 0x2860 JUMP JUMPDEST POP PUSH2 0x120 DUP4 ADD MLOAD PUSH2 0x2A1E PUSH2 0x120 DUP7 ADD DUP3 PUSH2 0x2860 JUMP JUMPDEST POP PUSH2 0x140 DUP4 ADD MLOAD PUSH2 0x2A33 PUSH2 0x140 DUP7 ADD DUP3 PUSH2 0x2940 JUMP JUMPDEST POP PUSH2 0x160 DUP4 ADD MLOAD PUSH2 0x2A48 PUSH2 0x160 DUP7 ADD DUP3 PUSH2 0x2860 JUMP JUMPDEST POP DUP1 SWAP2 POP POP SWAP3 SWAP2 POP POP JUMP JUMPDEST PUSH1 0x0 PUSH1 0x20 DUP3 ADD SWAP1 POP DUP2 DUP2 SUB PUSH1 0x0 DUP4 ADD MSTORE PUSH2 0x2A6D DUP2 DUP5 PUSH2 0x294F JUMP JUMPDEST SWAP1 POP SWAP3 SWAP2 POP POP JUMP JUMPDEST PUSH2 0x2A7E DUP2 PUSH2 0x275B JUMP JUMPDEST DUP3 MSTORE POP POP JUMP JUMPDEST PUSH1 0x0 PUSH1 0x20 DUP3 ADD SWAP1 POP PUSH2 0x2A99 PUSH1 0x0 DUP4 ADD DUP5 PUSH2 0x2A75 JUMP JUMPDEST SWAP3 SWAP2 POP POP JUMP JUMPDEST PUSH1 0x0 PUSH1 0xA0 DUP3 ADD SWAP1 POP PUSH2 0x2AB4 PUSH1 0x0 DUP4 ADD DUP9 PUSH2 0x2A75 JUMP JUMPDEST PUSH2 0x2AC1 PUSH1 0x20 DUP4 ADD DUP8 PUSH2 0x2A75 JUMP JUMPDEST PUSH2 0x2ACE PUSH1 0x40 DUP4 ADD DUP7 PUSH2 0x2A75 JUMP JUMPDEST PUSH2 0x2ADB PUSH1 0x60 DUP4 ADD DUP6 PUSH2 0x2A75 JUMP JUMPDEST PUSH2 0x2AE8 PUSH1 0x80 DUP4 ADD DUP5 PUSH2 0x2A75 JUMP JUMPDEST SWAP7 SWAP6 POP POP POP POP POP POP JUMP JUMPDEST PUSH1 0x0 DUP1 PUSH1 0x40 DUP4 DUP6 SUB SLT ISZERO PUSH2 0x2B09 JUMPI PUSH2 0x2B08 PUSH2 0x2751 JUMP JUMPDEST JUMPDEST PUSH1 0x0 PUSH2 0x2B17 DUP6 DUP3 DUP7 ADD PUSH2 0x277C JUMP JUMPDEST SWAP3 POP POP PUSH1 0x20 PUSH2 0x2B28 DUP6 DUP3 DUP7 ADD PUSH2 0x277C JUMP JUMPDEST SWAP2 POP POP SWAP3 POP SWAP3 SWAP1 POP JUMP JUMPDEST PUSH1 0x0 DUP1 PUSH1 0x0 DUP1 PUSH1 0x80 DUP6 DUP8 SUB SLT ISZERO PUSH2 0x2B4C JUMPI PUSH2 0x2B4B PUSH2 0x2751 JUMP JUMPDEST JUMPDEST PUSH1 0x0 PUSH2 0x2B5A DUP8 DUP3 DUP9 ADD PUSH2 0x277C JUMP JUMPDEST SWAP5 POP POP PUSH1 0x20 PUSH2 0x2B6B DUP8 DUP3 DUP9 ADD PUSH2 0x277C JUMP JUMPDEST SWAP4 POP POP PUSH1 0x40 PUSH2 0x2B7C DUP8 DUP3 DUP9 ADD PUSH2 0x277C JUMP JUMPDEST SWAP3 POP POP PUSH1 0x60 PUSH2 0x2B8D DUP8 DUP3 DUP9 ADD PUSH2 0x277C JUMP JUMPDEST SWAP2 POP POP SWAP3 SWAP6 SWAP2 SWAP5 POP SWAP3 POP JUMP JUMPDEST PUSH2 0x2BA2 DUP2 PUSH2 0x291F JUMP JUMPDEST DUP3 MSTORE POP POP JUMP JUMPDEST PUSH1 0x0 PUSH1 0x20 DUP3 ADD SWAP1 POP PUSH2 0x2BBD PUSH1 0x0 DUP4 ADD DUP5 PUSH2 0x2B99 JUMP JUMPDEST SWAP3 SWAP2 POP POP JUMP JUMPDEST PUSH1 0x0 DUP3 DUP3 MSTORE PUSH1 0x20 DUP3 ADD SWAP1 POP SWAP3 SWAP2 POP POP JUMP JUMPDEST PUSH1 0x0 PUSH2 0x2BDF DUP3 PUSH2 0x286F JUMP JUMPDEST PUSH2 0x2BE9 DUP2 DUP6 PUSH2 0x2BC3 JUMP JUMPDEST SWAP4 POP PUSH2 0x2BF9 DUP2 DUP6 PUSH1 0x20 DUP7 ADD PUSH2 0x288B JUMP JUMPDEST PUSH2 0x2C02 DUP2 PUSH2 0x28B5 JUMP JUMPDEST DUP5 ADD SWAP2 POP POP SWAP3 SWAP2 POP POP JUMP JUMPDEST PUSH1 0x0 PUSH2 0x180 DUP3 ADD SWAP1 POP PUSH2 0x2C23 PUSH1 0x0 DUP4 ADD DUP16 PUSH2 0x2A75 JUMP JUMPDEST DUP2 DUP2 SUB PUSH1 0x20 DUP4 ADD MSTORE PUSH2 0x2C35 DUP2 DUP15 PUSH2 0x2BD4 JUMP JUMPDEST SWAP1 POP PUSH2 0x2C44 PUSH1 0x40 DUP4 ADD DUP14 PUSH2 0x2B99 JUMP JUMPDEST PUSH2 0x2C51 PUSH1 0x60 DUP4 ADD DUP13 PUSH2 0x2A75 JUMP JUMPDEST PUSH2 0x2C5E PUSH1 0x80 DUP4 ADD DUP12 PUSH2 0x2A75 JUMP JUMPDEST PUSH2 0x2C6B PUSH1 0xA0 DUP4 ADD DUP11 PUSH2 0x2A75 JUMP JUMPDEST PUSH2 0x2C78 PUSH1 0xC0 DUP4 ADD DUP10 PUSH2 0x2A75 JUMP JUMPDEST PUSH2 0x2C85 PUSH1 0xE0 DUP4 ADD DUP9 PUSH2 0x2A75 JUMP JUMPDEST PUSH2 0x2C93 PUSH2 0x100 DUP4 ADD DUP8 PUSH2 0x2A75 JUMP JUMPDEST PUSH2 0x2CA1 PUSH2 0x120 DUP4 ADD DUP7 PUSH2 0x2A75 JUMP JUMPDEST PUSH2 0x2CAF PUSH2 0x140 DUP4 ADD DUP6 PUSH2 0x27CA JUMP JUMPDEST PUSH2 0x2CBD PUSH2 0x160 DUP4 ADD DUP5 PUSH2 0x2A75 JUMP JUMPDEST SWAP14 SWAP13 POP POP POP POP POP POP POP POP POP POP POP POP POP JUMP JUMPDEST PUSH1 0x0 DUP1 REVERT JUMPDEST PUSH1 0x0 DUP1 REVERT JUMPDEST PUSH32 0x4E487B7100000000000000000000000000000000000000000000000000000000 PUSH1 0x0 MSTORE PUSH1 0x41 PUSH1 0x4 MSTORE PUSH1 0x24 PUSH1 0x0 REVERT JUMPDEST PUSH2 0x2D10 DUP3 PUSH2 0x28B5 JUMP JUMPDEST DUP2 ADD DUP2 DUP2 LT PUSH8 0xFFFFFFFFFFFFFFFF DUP3 GT OR ISZERO PUSH2 0x2D2F JUMPI PUSH2 0x2D2E PUSH2 0x2CD8 JUMP JUMPDEST JUMPDEST DUP1 PUSH1 0x40 MSTORE POP POP POP JUMP JUMPDEST PUSH1 0x0 PUSH2 0x2D42 PUSH2 0x2747 JUMP JUMPDEST SWAP1 POP PUSH2 0x2D4E DUP3 DUP3 PUSH2 0x2D07 JUMP JUMPDEST SWAP2 SWAP1 POP JUMP JUMPDEST PUSH1 0x0 PUSH8 0xFFFFFFFFFFFFFFFF DUP3 GT ISZERO PUSH2 0x2D6E JUMPI PUSH2 0x2D6D PUSH2 0x2CD8 JUMP JUMPDEST JUMPDEST PUSH2 0x2D77 DUP3 PUSH2 0x28B5 JUMP JUMPDEST SWAP1 POP PUSH1 0x20 DUP2 ADD SWAP1 POP SWAP2 SWAP1 POP JUMP JUMPDEST DUP3 DUP2 DUP4 CALLDATACOPY PUSH1 0x0 DUP4 DUP4 ADD MSTORE POP POP POP JUMP JUMPDEST PUSH1 0x0 PUSH2 0x2DA6 PUSH2 0x2DA1 DUP5 PUSH2 0x2D53 JUMP JUMPDEST PUSH2 0x2D38 JUMP JUMPDEST SWAP1 POP DUP3 DUP2 MSTORE PUSH1 0x20 DUP2 ADD DUP5 DUP5 DUP5 ADD GT ISZERO PUSH2 0x2DC2 JUMPI PUSH2 0x2DC1 PUSH2 0x2CD3 JUMP JUMPDEST JUMPDEST PUSH2 0x2DCD DUP5 DUP3 DUP6 PUSH2 0x2D84 JUMP JUMPDEST POP SWAP4 SWAP3 POP POP POP JUMP JUMPDEST PUSH1 0x0 DUP3 PUSH1 0x1F DUP4 ADD SLT PUSH2 0x2DEA JUMPI PUSH2 0x2DE9 PUSH2 0x2CCE JUMP JUMPDEST JUMPDEST DUP2 CALLDATALOAD PUSH2 0x2DFA DUP5 DUP3 PUSH1 0x20 DUP7 ADD PUSH2 0x2D93 JUMP JUMPDEST SWAP2 POP POP SWAP3 SWAP2 POP POP JUMP JUMPDEST PUSH1 0x0 DUP1 PUSH1 0x0 DUP1 PUSH1 0x80 DUP6 DUP8 SUB SLT ISZERO PUSH2 0x2E1D JUMPI PUSH2 0x2E1C PUSH2 0x2751 JUMP JUMPDEST JUMPDEST PUSH1 0x0 DUP6 ADD CALLDATALOAD PUSH8 0xFFFFFFFFFFFFFFFF DUP2 GT ISZERO PUSH2 0x2E3B JUMPI PUSH2 0x2E3A PUSH2 0x2756 JUMP JUMPDEST JUMPDEST PUSH2 0x2E47 DUP8 DUP3 DUP9 ADD PUSH2 0x2DD5 JUMP JUMPDEST SWAP5 POP POP PUSH1 0x20 PUSH2 0x2E58 DUP8 DUP3 DUP9 ADD PUSH2 0x277C JUMP JUMPDEST SWAP4 POP POP PUSH1 0x40 PUSH2 0x2E69 DUP8 DUP3 DUP9 ADD PUSH2 0x277C JUMP JUMPDEST SWAP3 POP POP PUSH1 0x60 PUSH2 0x2E7A DUP8 DUP3 DUP9 ADD PUSH2 0x277C JUMP JUMPDEST SWAP2 POP POP SWAP3 SWAP6 SWAP2 SWAP5 POP SWAP3 POP JUMP JUMPDEST PUSH2 0x2E8F DUP2 PUSH2 0x291F JUMP JUMPDEST DUP2 EQ PUSH2 0x2E9A JUMPI PUSH1 0x0 DUP1 REVERT JUMPDEST POP JUMP JUMPDEST PUSH1 0x0 DUP2 CALLDATALOAD SWAP1 POP PUSH2 0x2EAC DUP2 PUSH2 0x2E86 JUMP JUMPDEST SWAP3 SWAP2 POP POP JUMP JUMPDEST PUSH1 0x0 PUSH1 0x20 DUP3 DUP5 SUB SLT ISZERO PUSH2 0x2EC8 JUMPI PUSH2 0x2EC7 PUSH2 0x2751 JUMP JUMPDEST JUMPDEST PUSH1 0x0 PUSH2 0x2ED6 DUP5 DUP3 DUP6 ADD PUSH2 0x2E9D JUMP JUMPDEST SWAP2 POP POP SWAP3 SWAP2 POP POP JUMP JUMPDEST PUSH1 0x0 DUP2 SWAP1 POP SWAP2 SWAP1 POP JUMP JUMPDEST PUSH2 0x2EF2 DUP2 PUSH2 0x2EDF JUMP JUMPDEST DUP3 MSTORE POP POP JUMP JUMPDEST PUSH1 0x0 PUSH1 0x20 DUP3 ADD SWAP1 POP PUSH2 0x2F0D PUSH1 0x0 DUP4 ADD DUP5 PUSH2 0x2EE9 JUMP JUMPDEST SWAP3 SWAP2 POP POP JUMP JUMPDEST PUSH32 0x4D6963726F6772696420646F6573206E6F742065786973740000000000000000 PUSH1 0x0 DUP3 ADD MSTORE POP JUMP JUMPDEST PUSH1 0x0 PUSH2 0x2F49 PUSH1 0x18 DUP4 PUSH2 0x2BC3 JUMP JUMPDEST SWAP2 POP PUSH2 0x2F54 DUP3 PUSH2 0x2F13 JUMP JUMPDEST PUSH1 0x20 DUP3 ADD SWAP1 POP SWAP2 SWAP1 POP JUMP JUMPDEST PUSH1 0x0 PUSH1 0x20 DUP3 ADD SWAP1 POP DUP2 DUP2 SUB PUSH1 0x0 DUP4 ADD MSTORE PUSH2 0x2F78 DUP2 PUSH2 0x2F3C JUMP JUMPDEST SWAP1 POP SWAP2 SWAP1 POP JUMP JUMPDEST PUSH32 0x4D6963726F67726964206973206E6F7420616374697665000000000000000000 PUSH1 0x0 DUP3 ADD MSTORE POP JUMP JUMPDEST PUSH1 0x0 PUSH2 0x2FB5 PUSH1 0x17 DUP4 PUSH2 0x2BC3 JUMP JUMPDEST SWAP2 POP PUSH2 0x2FC0 DUP3 PUSH2 0x2F7F JUMP JUMPDEST PUSH1 0x20 DUP3 ADD SWAP1 POP SWAP2 SWAP1 POP JUMP JUMPDEST PUSH1 0x0 PUSH1 0x20 DUP3 ADD SWAP1 POP DUP2 DUP2 SUB PUSH1 0x0 DUP4 ADD MSTORE PUSH2 0x2FE4 DUP2 PUSH2 0x2FA8 JUMP JUMPDEST SWAP1 POP SWAP2 SWAP1 POP JUMP JUMPDEST PUSH32 0x4E487B7100000000000000000000000000000000000000000000000000000000 PUSH1 0x0 MSTORE PUSH1 0x11 PUSH1 0x4 MSTORE PUSH1 0x24 PUSH1 0x0 REVERT JUMPDEST PUSH1 0x0 PUSH2 0x3025 DUP3 PUSH2 0x2EDF JUMP JUMPDEST SWAP2 POP PUSH2 0x3030 DUP4 PUSH2 0x2EDF JUMP JUMPDEST SWAP3 POP DUP3 DUP3 SUB SWAP1 POP DUP2 DUP2 SLT PUSH1 0x0 DUP5 SLT AND DUP3 DUP3 SGT PUSH1 0x0 DUP6 SLT ISZERO AND OR ISZERO PUSH2 0x3057 JUMPI PUSH2 0x3056 PUSH2 0x2FEB JUMP JUMPDEST JUMPDEST SWAP3 SWAP2 POP POP JUMP JUMPDEST PUSH32 0x4E6F7420746865206F776E6572206F662074686973206D6963726F6772696400 PUSH1 0x0 DUP3 ADD MSTORE POP JUMP JUMPDEST PUSH1 0x0 PUSH2 0x3093 PUSH1 0x1F DUP4 PUSH2 0x2BC3 JUMP JUMPDEST SWAP2 POP PUSH2 0x309E DUP3 PUSH2 0x305D JUMP JUMPDEST PUSH1 0x20 DUP3 ADD SWAP1 POP SWAP2 SWAP1 POP JUMP JUMPDEST PUSH1 0x0 PUSH1 0x20 DUP3 ADD SWAP1 POP DUP2 DUP2 SUB PUSH1 0x0 DUP4 ADD MSTORE PUSH2 0x30C2 DUP2 PUSH2 0x3086 JUMP JUMPDEST SWAP1 POP SWAP2 SWAP1 POP JUMP JUMPDEST PUSH32 0x4E487B7100000000000000000000000000000000000000000000000000000000 PUSH1 0x0 MSTORE PUSH1 0x22 PUSH1 0x4 MSTORE PUSH1 0x24 PUSH1 0x0 REVERT JUMPDEST PUSH1 0x0 PUSH1 0x2 DUP3 DIV SWAP1 POP PUSH1 0x1 DUP3 AND DUP1 PUSH2 0x3110 JUMPI PUSH1 0x7F DUP3 AND SWAP2 POP JUMPDEST PUSH1 0x20 DUP3 LT DUP2 SUB PUSH2 0x3123 JUMPI PUSH2 0x3122 PUSH2 0x30C9 JUMP JUMPDEST JUMPDEST POP SWAP2 SWAP1 POP JUMP JUMPDEST PUSH32 0x4D6963726F6772696420646F65736E2774206578697374000000000000000000 PUSH1 0x0 DUP3 ADD MSTORE POP JUMP JUMPDEST PUSH1 0x0 PUSH2 0x315F PUSH1 0x17 DUP4 PUSH2 0x2BC3 JUMP JUMPDEST SWAP2 POP PUSH2 0x316A DUP3 PUSH2 0x3129 JUMP JUMPDEST PUSH1 0x20 DUP3 ADD SWAP1 POP SWAP2 SWAP1 POP JUMP JUMPDEST PUSH1 0x0 PUSH1 0x20 DUP3 ADD SWAP1 POP DUP2 DUP2 SUB PUSH1 0x0 DUP4 ADD MSTORE PUSH2 0x318E DUP2 PUSH2 0x3152 JUMP JUMPDEST SWAP1 POP SWAP2 SWAP1 POP JUMP JUMPDEST PUSH32 0x4F6E6C7920746865206D61726B6574706C6163652063616E2063616C6C207468 PUSH1 0x0 DUP3 ADD MSTORE PUSH32 0x69732066756E6374696F6E000000000000000000000000000000000000000000 PUSH1 0x20 DUP3 ADD MSTORE POP JUMP JUMPDEST PUSH1 0x0 PUSH2 0x31F1 PUSH1 0x2B DUP4 PUSH2 0x2BC3 JUMP JUMPDEST SWAP2 POP PUSH2 0x31FC DUP3 PUSH2 0x3195 JUMP JUMPDEST PUSH1 0x40 DUP3 ADD SWAP1 POP SWAP2 SWAP1 POP JUMP JUMPDEST PUSH1 0x0 PUSH1 0x20 DUP3 ADD SWAP1 POP DUP2 DUP2 SUB PUSH1 0x0 DUP4 ADD MSTORE PUSH2 0x3220 DUP2 PUSH2 0x31E4 JUMP JUMPDEST SWAP1 POP SWAP2 SWAP1 POP JUMP JUMPDEST PUSH32 0x496E73756666696369656E7420726573657276656420656E6572677900000000 PUSH1 0x0 DUP3 ADD MSTORE POP JUMP JUMPDEST PUSH1 0x0 PUSH2 0x325D PUSH1 0x1C DUP4 PUSH2 0x2BC3 JUMP JUMPDEST SWAP2 POP PUSH2 0x3268 DUP3 PUSH2 0x3227 JUMP JUMPDEST PUSH1 0x20 DUP3 ADD SWAP1 POP SWAP2 SWAP1 POP JUMP JUMPDEST PUSH1 0x0 PUSH1 0x20 DUP3 ADD SWAP1 POP DUP2 DUP2 SUB PUSH1 0x0 DUP4 ADD MSTORE PUSH2 0x328C DUP2 PUSH2 0x3250 JUMP JUMPDEST SWAP1 POP SWAP2 SWAP1 POP JUMP JUMPDEST PUSH1 0x0 PUSH2 0x329E DUP3 PUSH2 0x275B JUMP JUMPDEST SWAP2 POP PUSH2 0x32A9 DUP4 PUSH2 0x275B JUMP JUMPDEST SWAP3 POP DUP3 DUP3 SUB SWAP1 POP DUP2 DUP2 GT ISZERO PUSH2 0x32C1 JUMPI PUSH2 0x32C0 PUSH2 0x2FEB JUMP JUMPDEST JUMPDEST SWAP3 SWAP2 POP POP JUMP JUMPDEST PUSH32 0x42617474657279206C6576656C206D757374206265206265747765656E203020 PUSH1 0x0 DUP3 ADD MSTORE PUSH32 0x616E642031303000000000000000000000000000000000000000000000000000 PUSH1 0x20 DUP3 ADD MSTORE POP JUMP JUMPDEST PUSH1 0x0 PUSH2 0x3323 PUSH1 0x27 DUP4 PUSH2 0x2BC3 JUMP JUMPDEST SWAP2 POP PUSH2 0x332E DUP3 PUSH2 0x32C7 JUMP JUMPDEST PUSH1 0x40 DUP3 ADD SWAP1 POP SWAP2 SWAP1 POP JUMP JUMPDEST PUSH1 0x0 PUSH1 0x20 DUP3 ADD SWAP1 POP DUP2 DUP2 SUB PUSH1 0x0 DUP4 ADD MSTORE PUSH2 0x3352 DUP2 PUSH2 0x3316 JUMP JUMPDEST SWAP1 POP SWAP2 SWAP1 POP JUMP JUMPDEST PUSH32 0x456E657267792067656E6572617465642065786365656473206D617820636170 PUSH1 0x0 DUP3 ADD MSTORE PUSH32 0x6163697479000000000000000000000000000000000000000000000000000000 PUSH1 0x20 DUP3 ADD MSTORE POP JUMP JUMPDEST PUSH1 0x0 PUSH2 0x33B5 PUSH1 0x25 DUP4 PUSH2 0x2BC3 JUMP JUMPDEST SWAP2 POP PUSH2 0x33C0 DUP3 PUSH2 0x3359 JUMP JUMPDEST PUSH1 0x40 DUP3 ADD SWAP1 POP SWAP2 SWAP1 POP JUMP JUMPDEST PUSH1 0x0 PUSH1 0x20 DUP3 ADD SWAP1 POP DUP2 DUP2 SUB PUSH1 0x0 DUP4 ADD MSTORE PUSH2 0x33E4 DUP2 PUSH2 0x33A8 JUMP JUMPDEST SWAP1 POP SWAP2 SWAP1 POP JUMP JUMPDEST PUSH32 0x456E657267792064656D616E642065786365656473206D617820636170616369 PUSH1 0x0 DUP3 ADD MSTORE PUSH32 0x7479000000000000000000000000000000000000000000000000000000000000 PUSH1 0x20 DUP3 ADD MSTORE POP JUMP JUMPDEST PUSH1 0x0 PUSH2 0x3447 PUSH1 0x22 DUP4 PUSH2 0x2BC3 JUMP JUMPDEST SWAP2 POP PUSH2 0x3452 DUP3 PUSH2 0x33EB JUMP JUMPDEST PUSH1 0x40 DUP3 ADD SWAP1 POP SWAP2 SWAP1 POP JUMP JUMPDEST PUSH1 0x0 PUSH1 0x20 DUP3 ADD SWAP1 POP DUP2 DUP2 SUB PUSH1 0x0 DUP4 ADD MSTORE PUSH2 0x3476 DUP2 PUSH2 0x343A JUMP JUMPDEST SWAP1 POP SWAP2 SWAP1 POP JUMP JUMPDEST PUSH1 0x0 PUSH1 0x80 DUP3 ADD SWAP1 POP PUSH2 0x3492 PUSH1 0x0 DUP4 ADD DUP8 PUSH2 0x2A75 JUMP JUMPDEST PUSH2 0x349F PUSH1 0x20 DUP4 ADD DUP7 PUSH2 0x2A75 JUMP JUMPDEST PUSH2 0x34AC PUSH1 0x40 DUP4 ADD DUP6 PUSH2 0x2A75 JUMP JUMPDEST PUSH2 0x34B9 PUSH1 0x60 DUP4 ADD DUP5 PUSH2 0x2A75 JUMP JUMPDEST SWAP6 SWAP5 POP POP POP POP POP JUMP JUMPDEST PUSH32 0x4D6178206361706163697479206D757374206265206772656174657220746861 PUSH1 0x0 DUP3 ADD MSTORE PUSH32 0x6E207A65726F0000000000000000000000000000000000000000000000000000 PUSH1 0x20 DUP3 ADD MSTORE POP JUMP JUMPDEST PUSH1 0x0 PUSH2 0x351E PUSH1 0x26 DUP4 PUSH2 0x2BC3 JUMP JUMPDEST SWAP2 POP PUSH2 0x3529 DUP3 PUSH2 0x34C2 JUMP JUMPDEST PUSH1 0x40 DUP3 ADD SWAP1 POP SWAP2 SWAP1 POP JUMP JUMPDEST PUSH1 0x0 PUSH1 0x20 DUP3 ADD SWAP1 POP DUP2 DUP2 SUB PUSH1 0x0 DUP4 ADD MSTORE PUSH2 0x354D DUP2 PUSH2 0x3511 JUMP JUMPDEST SWAP1 POP SWAP2 SWAP1 POP JUMP JUMPDEST PUSH32 0x4D6963726F6772696420616C7265616479207265676973746572656420666F72 PUSH1 0x0 DUP3 ADD MSTORE PUSH32 0x2074686973206F776E6572000000000000000000000000000000000000000000 PUSH1 0x20 DUP3 ADD MSTORE POP JUMP JUMPDEST PUSH1 0x0 PUSH2 0x35B0 PUSH1 0x2B DUP4 PUSH2 0x2BC3 JUMP JUMPDEST SWAP2 POP PUSH2 0x35BB DUP3 PUSH2 0x3554 JUMP JUMPDEST PUSH1 0x40 DUP3 ADD SWAP1 POP SWAP2 SWAP1 POP JUMP JUMPDEST PUSH1 0x0 PUSH1 0x20 DUP3 ADD SWAP1 POP DUP2 DUP2 SUB PUSH1 0x0 DUP4 ADD MSTORE PUSH2 0x35DF DUP2 PUSH2 0x35A3 JUMP JUMPDEST SWAP1 POP SWAP2 SWAP1 POP JUMP JUMPDEST PUSH1 0x0 PUSH2 0x35F1 DUP3 PUSH2 0x275B JUMP JUMPDEST SWAP2 POP PUSH32 0xFFFFFFFFFFFFFFFFFFFFFFFFFFFFFFFFFFFFFFFFFFFFFFFFFFFFFFFFFFFFFFFF DUP3 SUB PUSH2 0x3623 JUMPI PUSH2 0x3622 PUSH2 0x2FEB JUMP JUMPDEST JUMPDEST PUSH1 0x1 DUP3 ADD SWAP1 POP SWAP2 SWAP1 POP JUMP JUMPDEST PUSH1 0x0 DUP2 SWAP1 POP DUP2 PUSH1 0x0 MSTORE PUSH1 0x20 PUSH1 0x0 KECCAK256 SWAP1 POP SWAP2 SWAP1 POP JUMP JUMPDEST PUSH1 0x0 PUSH1 0x20 PUSH1 0x1F DUP4 ADD DIV SWAP1 POP SWAP2 SWAP1 POP JUMP JUMPDEST PUSH1 0x0 DUP3 DUP3 SHL SWAP1 POP SWAP3 SWAP2 POP POP JUMP JUMPDEST PUSH1 0x0 PUSH1 0x8 DUP4 MUL PUSH2 0x3690 PUSH32 0xFFFFFFFFFFFFFFFFFFFFFFFFFFFFFFFFFFFFFFFFFFFFFFFFFFFFFFFFFFFFFFFF DUP3 PUSH2 0x3653 JUMP JUMPDEST PUSH2 0x369A DUP7 DUP4 PUSH2 0x3653 JUMP JUMPDEST SWAP6 POP DUP1 NOT DUP5 AND SWAP4 POP DUP1 DUP7 AND DUP5 OR SWAP3 POP POP POP SWAP4 SWAP3 POP POP POP JUMP JUMPDEST PUSH1 0x0 DUP2 SWAP1 POP SWAP2 SWAP1 POP JUMP JUMPDEST PUSH1 0x0 PUSH2 0x36D7 PUSH2 0x36D2 PUSH2 0x36CD DUP5 PUSH2 0x275B JUMP JUMPDEST PUSH2 0x36B2 JUMP JUMPDEST PUSH2 0x275B JUMP JUMPDEST SWAP1 POP SWAP2 SWAP1 POP JUMP JUMPDEST PUSH1 0x0 DUP2 SWAP1 POP SWAP2 SWAP1 POP JUMP JUMPDEST PUSH2 0x36F1 DUP4 PUSH2 0x36BC JUMP JUMPDEST PUSH2 0x3705 PUSH2 0x36FD DUP3 PUSH2 0x36DE JUMP JUMPDEST DUP5 DUP5 SLOAD PUSH2 0x3660 JUMP JUMPDEST DUP3 SSTORE POP POP POP POP JUMP JUMPDEST PUSH1 0x0 SWAP1 JUMP JUMPDEST PUSH2 0x371A PUSH2 0x370D JUMP JUMPDEST PUSH2 0x3725 DUP2 DUP5 DUP5 PUSH2 0x36E8 JUMP JUMPDEST POP POP POP JUMP JUMPDEST JUMPDEST DUP2 DUP2 LT ISZERO PUSH2 0x3749 JUMPI PUSH2 0x373E PUSH1 0x0 DUP3 PUSH2 0x3712 JUMP JUMPDEST PUSH1 0x1 DUP2 ADD SWAP1 POP PUSH2 0x372B JUMP JUMPDEST POP POP JUMP JUMPDEST PUSH1 0x1F DUP3 GT ISZERO PUSH2 0x378E JUMPI PUSH2 0x375F DUP2 PUSH2 0x362E JUMP JUMPDEST PUSH2 0x3768 DUP5 PUSH2 0x3643 JUMP JUMPDEST DUP2 ADD PUSH1 0x20 DUP6 LT ISZERO PUSH2 0x3777 JUMPI DUP2 SWAP1 POP JUMPDEST PUSH2 0x378B PUSH2 0x3783 DUP6 PUSH2 0x3643 JUMP JUMPDEST DUP4 ADD DUP3 PUSH2 0x372A JUMP JUMPDEST POP POP JUMPDEST POP POP POP JUMP JUMPDEST PUSH1 0x0 DUP3 DUP3 SHR SWAP1 POP SWAP3 SWAP2 POP POP JUMP JUMPDEST PUSH1 0x0 PUSH2 0x37B1 PUSH1 0x0 NOT DUP5 PUSH1 0x8 MUL PUSH2 0x3793 JUMP JUMPDEST NOT DUP1 DUP4 AND SWAP2 POP POP SWAP3 SWAP2 POP POP JUMP JUMPDEST PUSH1 0x0 PUSH2 0x37CA DUP4 DUP4 PUSH2 0x37A0 JUMP JUMPDEST SWAP2 POP DUP3 PUSH1 0x2 MUL DUP3 OR SWAP1 POP SWAP3 SWAP2 POP POP JUMP JUMPDEST PUSH2 0x37E3 DUP3 PUSH2 0x286F JUMP JUMPDEST PUSH8 0xFFFFFFFFFFFFFFFF DUP2 GT ISZERO PUSH2 0x37FC JUMPI PUSH2 0x37FB PUSH2 0x2CD8 JUMP JUMPDEST JUMPDEST PUSH2 0x3806 DUP3 SLOAD PUSH2 0x30F8 JUMP JUMPDEST PUSH2 0x3811 DUP3 DUP3 DUP6 PUSH2 0x374D JUMP JUMPDEST PUSH1 0x0 PUSH1 0x20 SWAP1 POP PUSH1 0x1F DUP4 GT PUSH1 0x1 DUP2 EQ PUSH2 0x3844 JUMPI PUSH1 0x0 DUP5 ISZERO PUSH2 0x3832 JUMPI DUP3 DUP8 ADD MLOAD SWAP1 POP JUMPDEST PUSH2 0x383C DUP6 DUP3 PUSH2 0x37BE JUMP JUMPDEST DUP7 SSTORE POP PUSH2 0x38A4 JUMP JUMPDEST PUSH1 0x1F NOT DUP5 AND PUSH2 0x3852 DUP7 PUSH2 0x362E JUMP JUMPDEST PUSH1 0x0 JUMPDEST DUP3 DUP2 LT ISZERO PUSH2 0x387A JUMPI DUP5 DUP10 ADD MLOAD DUP3 SSTORE PUSH1 0x1 DUP3 ADD SWAP2 POP PUSH1 0x20 DUP6 ADD SWAP5 POP PUSH1 0x20 DUP2 ADD SWAP1 POP PUSH2 0x3855 JUMP JUMPDEST DUP7 DUP4 LT ISZERO PUSH2 0x3897 JUMPI DUP5 DUP10 ADD MLOAD PUSH2 0x3893 PUSH1 0x1F DUP10 AND DUP3 PUSH2 0x37A0 JUMP JUMPDEST DUP4 SSTORE POP JUMPDEST PUSH1 0x1 PUSH1 0x2 DUP9 MUL ADD DUP9 SSTORE POP POP POP JUMPDEST POP POP POP POP POP POP JUMP JUMPDEST PUSH1 0x0 PUSH1 0x60 DUP3 ADD SWAP1 POP DUP2 DUP2 SUB PUSH1 0x0 DUP4 ADD MSTORE PUSH2 0x38C6 DUP2 DUP7 PUSH2 0x2BD4 JUMP JUMPDEST SWAP1 POP PUSH2 0x38D5 PUSH1 0x20 DUP4 ADD DUP6 PUSH2 0x2A75 JUMP JUMPDEST PUSH2 0x38E2 PUSH1 0x40 DUP4 ADD DUP5 PUSH2 0x2A75 JUMP JUMPDEST SWAP5 SWAP4 POP POP POP POP JUMP JUMPDEST PUSH32 0x4D61726B6574706C616365206164647265737320616C72656164792073657400 PUSH1 0x0 DUP3 ADD MSTORE POP JUMP JUMPDEST PUSH1 0x0 PUSH2 0x3920 PUSH1 0x1F DUP4 PUSH2 0x2BC3 JUMP JUMPDEST SWAP2 POP PUSH2 0x392B DUP3 PUSH2 0x38EA JUMP JUMPDEST PUSH1 0x20 DUP3 ADD SWAP1 POP SWAP2 SWAP1 POP JUMP JUMPDEST PUSH1 0x0 PUSH1 0x20 DUP3 ADD SWAP1 POP DUP2 DUP2 SUB PUSH1 0x0 DUP4 ADD MSTORE PUSH2 0x394F DUP2 PUSH2 0x3913 JUMP JUMPDEST SWAP1 POP SWAP2 SWAP1 POP JUMP JUMPDEST PUSH1 0x0 PUSH2 0x3961 DUP3 PUSH2 0x275B JUMP JUMPDEST SWAP2 POP PUSH2 0x396C DUP4 PUSH2 0x275B JUMP JUMPDEST SWAP3 POP DUP3 DUP3 ADD SWAP1 POP DUP1 DUP3 GT ISZERO PUSH2 0x3984 JUMPI PUSH2 0x3983 PUSH2 0x2FEB JUMP JUMPDEST JUMPDEST SWAP3 SWAP2 POP POP JUMP INVALID LOG2 PUSH5 0x6970667358 0x22 SLT KECCAK256 PUSH9 0x1AC7CF65895EE1134A DUP14 SUB 0xC8 BLOBHASH CHAINID SMOD DUP8 PUSH16 0xE9E3E1C0640FC2896BD483C2826D6473 PUSH16 0x6C634300081C00330000000000000000 "},"methodIdentifiers":{"decreaseReservedEnergy(uint256,uint256)":"61f2d09f","getAvailableEnergy(uint256)":"47846fd9","getMicrogrid(uint256)":"4504b83a","getOwner(uint256)":"c41a360a","getPricingData(uint256)":"4fa4c02d","getSurplus(uint256)":"d0531897","hasSurplus(uint256)":"12c6e696","increaseReservedEnergy(uint256,uint256)":"d3e0bada","isMicrogridActive(uint256)":"1c334a7e","isRegistered(address)":"c3c5a547","marketplaceAddress()":"daa17f49","microgrids(uint256)":"93e64b48","nextId()":"61b8ce8c","owner()":"8da5cb5b","registerMicrogrid(string,uint256,uint256,uint256)":"955464ef","renounceOwnership()":"715018a6","setMarketplaceAddress(address)":"b47cc556","setMicrogridStatus(uint256,bool)":"1b4ffccb","transferOwnership(address)":"f2fde38b","updateStatus(uint256,uint256,uint256,uint256)":"87d53231"}}}}}