{"contracts/Marketplace.sol":{"Marketplace":{"abi":[{"inputs":[{"internalType":"address","name":"_energyTokenAddress","type":"address"},{"internalType":"address","name":"_registryAddress","type":"address"}],"stateMutability":"nonpayable","type":"constructor"},{"anonymous":false,"inputs":[{"indexed":true,"internalType":"uint256","name":"offerId","type":"uint256"},{"indexed":false,"internalType":"uint256","name":"energyBought","type":"uint256"},{"indexed":true,"internalType":"address","name":"buyer","type":"address"},{"indexed":false,"internalType":"uint256","name":"totalCost","type":"uint256"}],"name":"EnergyPurchased","type":"event"},{"anonymous":false,"inputs":[{"indexed":true,"internalType":"uint256","name":"offerId","type":"uint256"},{"indexed":true,"internalType":"address","name":"seller","type":"address"}],"name":"OfferCancelled","type":"event"},{"anonymous":false,"inputs":[{"indexed":true,"internalType":"uint256","name":"offerId","type":"uint256"},{"indexed":true,"internalType":"uint256","name":"microgridId","type":"uint256"},{"indexed":false,"internalType":"uint256","name":"totalEnergy","type":"uint256"},{"indexed":false,"internalType":"uint256","name":"suggestedPrice","type":"uint256"},{"indexed":false,"internalType":"uint256","name":"sellingPrice","type":"uint256"},{"indexed":true,"internalType":"address","name":"seller","type":"address"}],"name":"OfferCreated","type":"event"},{"anonymous":false,"inputs":[{"indexed":true,"internalType":"uint256","name":"offerId","type":"uint256"},{"indexed":false,"internalType":"enum Marketplace.OfferStatus","name":"newStatus","type":"uint8"}],"name":"OfferStatusUpdated","type":"event"},{"inputs":[{"internalType":"uint256","name":"","type":"uint256"}],"name":"activeOfferCount","outputs":[{"internalType":"uint256","name":"","type":"uint256"}],"stateMutability":"view","type":"function"},{"inputs":[{"internalType":"uint256","name":"_offerId","type":"uint256"},{"internalType":"uint256","name":"_amt","type":"uint256"}],"name":"buyEnergy","outputs":[],"stateMutability":"nonpayable","type":"function"},{"inputs":[{"internalType":"uint256","name":"_offerId","type":"uint256"}],"name":"cancelOffer","outputs":[],"stateMutability":"nonpayable","type":"function"},{"inputs":[{"internalType":"uint256","name":"_microgridId","type":"uint256"},{"internalType":"uint256","name":"_energyAmount","type":"uint256"},{"internalType":"uint256","name":"_pricePerUnit","type":"uint256"}],"name":"createOffer","outputs":[],"stateMutability":"nonpayable","type":"function"},{"inputs":[],"name":"energyToken","outputs":[{"internalType":"contract IEnergyToken","name":"","type":"address"}],"stateMutability":"view","type":"function"},{"inputs":[{"internalType":"uint256","name":"_offerId","type":"uint256"}],"name":"expireOffer","outputs":[],"stateMutability":"nonpayable","type":"function"},{"inputs":[{"internalType":"uint256","name":"_offerId","type":"uint256"}],"name":"isOfferOpen","outputs":[{"internalType":"bool","name":"","type":"bool"}],"stateMutability":"view","type":"function"},{"inputs":[{"internalType":"uint256","name":"","type":"uint256"},{"internalType":"uint256","name":"","type":"uint256"}],"name":"microgridOffers","outputs":[{"internalType":"uint256","name":"","type":"uint256"}],"stateMutability":"view","type":"function"},{"inputs":[],"name":"nextOfferId","outputs":[{"internalType":"uint256","name":"","type":"uint256"}],"stateMutability":"view","type":"function"},{"inputs":[{"internalType":"uint256","name":"","type":"uint256"}],"name":"offers","outputs":[{"internalType":"uint256","name":"offerId","type":"uint256"},{"internalType":"uint256","name":"microgridId","type":"uint256"},{"internalType":"uint256","name":"totalEnergy","type":"uint256"},{"internalType":"uint256","name":"remainingEnergy","type":"uint256"},{"internalType":"uint256","name":"soldEnergy","type":"uint256"},{"internalType":"uint256","name":"suggestedPrice","type":"uint256"},{"internalType":"uint256","name":"sellingPrice","type":"uint256"},{"internalType":"address","name":"seller","type":"address"},{"internalType":"uint256","name":"createdAt","type":"uint256"},{"internalType":"uint256","name":"updatedAt","type":"uint256"},{"internalType":"uint256","name":"expiresAt","type":"uint256"},{"internalType":"enum Marketplace.OfferStatus","name":"status","type":"uint8"}],"stateMutability":"view","type":"function"},{"inputs":[],"name":"registry","outputs":[{"internalType":"contract IMicrogridRegistry","name":"","type":"address"}],"stateMutability":"view","type":"function"},{"inputs":[{"internalType":"address","name":"","type":"address"},{"internalType":"uint256","name":"","type":"uint256"}],"name":"sellerOffers","outputs":[{"internalType":"uint256","name":"","type":"uint256"}],"stateMutability":"view","type":"function"}],"evm":{"bytecode":{"linkReferences":{},"object":"608060405234801561001057600080fd5b50604051613e1a380380613e1a8339818101604052810190610032919061016e565b61004c673b9b3e3028b7c88660c01b61010860201b60201c565b61006667869edd4f7933d8e460c01b61010860201b60201c565b816000806101000a81548173ffffffffffffffffffffffffffffffffffffffff021916908373ffffffffffffffffffffffffffffffffffffffff1602179055506100c0677dd60b50651d84f260c01b61010860201b60201c565b80600160006101000a81548173ffffffffffffffffffffffffffffffffffffffff021916908373ffffffffffffffffffffffffffffffffffffffff16021790555050506101ae565b50565b600080fd5b600073ffffffffffffffffffffffffffffffffffffffff82169050919050565b600061013b82610110565b9050919050565b61014b81610130565b811461015657600080fd5b50565b60008151905061016881610142565b92915050565b600080604083850312156101855761018461010b565b5b600061019385828601610159565b92505060206101a485828601610159565b9150509250929050565b613c5d806101bd6000396000f3fe608060405234801561001057600080fd5b50600436106100b45760003560e01c80637e930a5c116100715780637e930a5c146101a35780638a72ea6a146101d3578063cdb6d52d1461020e578063dc35a9001461022a578063ef706adf14610246578063f10b160614610262576100b4565b80630f20337d146100b95780634ec7fb81146100e95780635f5d065514610107578063716588531461012557806373868d73146101555780637b10399914610185575b600080fd5b6100d360048036038101906100ce9190612abf565b61027e565b6040516100e09190612b0e565b60405180910390f35b6100f16102af565b6040516100fe9190612ba8565b60405180910390f35b61010f6102d3565b60405161011c9190612b0e565b60405180910390f35b61013f600480360381019061013a9190612bc3565b6102d9565b60405161014c9190612b0e565b60405180910390f35b61016f600480360381019061016a9190612bc3565b6102f1565b60405161017c9190612c0b565b60405180910390f35b61018d61040b565b60405161019a9190612c47565b60405180910390f35b6101bd60048036038101906101b89190612ca0565b610431565b6040516101ca9190612b0e565b60405180910390f35b6101ed60048036038101906101e89190612bc3565b610462565b6040516102059c9b9a99989796959493929190612d66565b60405180910390f35b61022860048036038101906102239190612abf565b6104ef565b005b610244600480360381019061023f9190612e20565b6111aa565b005b610260600480360381019061025b9190612bc3565b611d12565b005b61027c60048036038101906102779190612bc3565b611ff4565b005b6004602052816000526040600020818154811061029a57600080fd5b90600052602060002001600091509150505481565b60008054906101000a900473ffffffffffffffffffffffffffffffffffffffff1681565b60025481565b60066020528060005260406000206000915090505481565b600061030767094d43ab07ebef4c60c01b6121cd565b61031b677446ef47d6dbb5c660c01b6121cd565b61032f679d1163b6831e9d9760c01b6121cd565b6000600481111561034357610342612cef565b5b60036000848152602001908152602001600020600b0160009054906101000a900460ff16600481111561037957610378612cef565b5b14801561039657506103956711babfb5583e2aa760c01b6121d0565b5b806104045750600160048111156103b0576103af612cef565b5b60036000848152602001908152602001600020600b0160009054906101000a900460ff1660048111156103e6576103e5612cef565b5b148015610403575061040267b55885fb1005259a60c01b6121d0565b5b5b9050919050565b600160009054906101000a900473ffffffffffffffffffffffffffffffffffffffff1681565b6005602052816000526040600020818154811061044d57600080fd5b90600052602060002001600091509150505481565b60036020528060005260406000206000915090508060000154908060010154908060020154908060030154908060040154908060050154908060060154908060070160009054906101000a900473ffffffffffffffffffffffffffffffffffffffff169080600801549080600901549080600a01549080600b0160009054906101000a900460ff1690508c565b610503672680199eef9d4a3860c01b6121cd565b8161051867ba7bfdef7777848b60c01b6121cd565b61052c67706b05460c3dcc1360c01b6121cd565b610540674f8ffced21f86a5d60c01b6121cd565b6105546781d3162c59e3225160c01b6121cd565b6002548110610598576040517f08c379a000000000000000000000000000000000000000000000000000000000815260040161058f90612ed0565b60405180910390fd5b6105ac671c657e9c1529471a60c01b6121cd565b6105c067739d41a13419280e60c01b6121cd565b6105d4675d7becd776bfa07f60c01b6121cd565b6105e867ea7a3a5dbe6b4b3e60c01b6121cd565b6105fc676f643bef25d27bfa60c01b6121cd565b6106106764c78af261073d4760c01b6121cd565b61062467e2333bab1e9e61bd60c01b6121cd565b61062d836102f1565b61066c576040517f08c379a000000000000000000000000000000000000000000000000000000000815260040161066390612f3c565b60405180910390fd5b61068067e73c1cbfe2a4ae6960c01b6121cd565b61069467dda7698396787bbb60c01b6121cd565b6106a867fa2a7d7aabcd885060c01b6121cd565b60036000848152602001908152602001600020600a0154421061076e576106d8664b339663f1be4b60c01b6121cd565b6106ec67fc1340b1cc20e3c060c01b6121cd565b61070067c884e18c7fdc78d460c01b6121cd565b61070b8360046121db565b61071f67f551cc57a4f9ec4660c01b6121cd565b61073367d94b5d4cfb1a3e8960c01b6121cd565b6040517f08c379a000000000000000000000000000000000000000000000000000000000815260040161076590612fa8565b60405180910390fd5b610782678e5ee2d0728d720e60c01b6121cd565b61079667d6ae36ae0f2511c460c01b6121cd565b6107aa6719dd15dbc329896a60c01b6121cd565b6107be67ea025d4613a8dc4460c01b6121cd565b6003600084815260200190815260200160002060070160009054906101000a900473ffffffffffffffffffffffffffffffffffffffff1673ffffffffffffffffffffffffffffffffffffffff163373ffffffffffffffffffffffffffffffffffffffff1603610862576040517f08c379a00000000000000000000000000000000000000000000000000000000081526004016108599061303a565b60405180910390fd5b61087667878b8db82b6625cf60c01b6121cd565b61088a67389420f9b6bc242760c01b6121cd565b61089e675dd829a710c3eb1f60c01b6121cd565b6108b26777ae245b2c28b3d860c01b6121cd565b600082116108f5576040517f08c379a00000000000000000000000000000000000000000000000000000000081526004016108ec906130a6565b60405180910390fd5b61090967e29c623506bff16b60c01b6121cd565b61091d67777c51b83ac102b260c01b6121cd565b610931671391eb833854918e60c01b6121cd565b610945679d2dd918afeb5bed60c01b6121cd565b816003600085815260200190815260200160002060030154101561099e576040517f08c379a000000000000000000000000000000000000000000000000000000000815260040161099590613138565b60405180910390fd5b6109b267eea15dcade1d66fc60c01b6121cd565b6109c6675a4365837c9267e060c01b6121cd565b6109da67bfe26ae6af1e6fc360c01b6121cd565b60006109fc600360008681526020019081526020016000206006015484612547565b9050610a12679ee5346618c8061460c01b6121cd565b610a2667273f7ea4c4424c0260c01b6121cd565b610a3a678da6615f2514184e60c01b6121cd565b8060008054906101000a900473ffffffffffffffffffffffffffffffffffffffff1673ffffffffffffffffffffffffffffffffffffffff166370a08231336040518263ffffffff1660e01b8152600401610a949190613158565b602060405180830381865afa158015610ab1573d6000803e3d6000fd5b505050506040513d601f19601f82011682018060405250810190610ad59190613188565b1015610b16576040517f08c379a0000000000000000000000000000000000000000000000000000000008152600401610b0d90613201565b60405180910390fd5b610b2a670b99fc33d5e8b2d160c01b6121cd565b610b3e6773ea0bf0d863075960c01b6121cd565b610b5267bb61b8f25532559260c01b6121cd565b610b66675d621e90a6b731e460c01b6121cd565b8060008054906101000a900473ffffffffffffffffffffffffffffffffffffffff1673ffffffffffffffffffffffffffffffffffffffff1663dd62ed3e33306040518363ffffffff1660e01b8152600401610bc2929190613221565b602060405180830381865afa158015610bdf573d6000803e3d6000fd5b505050506040513d601f19601f82011682018060405250810190610c039190613188565b1015610c44576040517f08c379a0000000000000000000000000000000000000000000000000000000008152600401610c3b906132bc565b60405180910390fd5b610c5867d251944cd1413c1c60c01b6121cd565b610c6c675ded486ce5c4462a60c01b6121cd565b610c8067b421197ca277054d60c01b6121cd565b610c9467647238746403323960c01b6121cd565b60008054906101000a900473ffffffffffffffffffffffffffffffffffffffff1673ffffffffffffffffffffffffffffffffffffffff166323b872dd336003600088815260200190815260200160002060070160009054906101000a900473ffffffffffffffffffffffffffffffffffffffff16846040518463ffffffff1660e01b8152600401610d27939291906132dc565b6020604051808303816000875af1158015610d46573d6000803e3d6000fd5b505050506040513d601f19601f82011682018060405250810190610d6a919061333f565b610da9576040517f08c379a0000000000000000000000000000000000000000000000000000000008152600401610da0906133b8565b60405180910390fd5b610dbd6798fe73a0ec21f35560c01b6121cd565b610dd16799bda05fbbb74bb460c01b6121cd565b82600360008681526020019081526020016000206003016000828254610df79190613407565b92505081905550610e126781ab24170ada414a60c01b6121cd565b82600360008681526020019081526020016000206004016000828254610e38919061343b565b92505081905550610e5367b18ee6eb18d7cac760c01b6121cd565b610e6767b7539cd177af59ee60c01b6121cd565b600160009054906101000a900473ffffffffffffffffffffffffffffffffffffffff1673ffffffffffffffffffffffffffffffffffffffff166361f2d09f6003600087815260200190815260200160002060010154856040518363ffffffff1660e01b8152600401610eda92919061346f565b600060405180830381600087803b158015610ef457600080fd5b505af1158015610f08573d6000803e3d6000fd5b50505050610f206771384e73dfb65c9560c01b6121cd565b426003600086815260200190815260200160002060090181905550610f4f67f28b9243fabf099260c01b6121cd565b610f636780662f9fcea0442f60c01b6121cd565b600060036000868152602001908152602001600020600301540361104057610f956764732ed4a59ad89060c01b6121cd565b610fa967b43caf31ea54f71060c01b6121cd565b60066000600360008781526020019081526020016000206001015481526020019081526020016000206000815480929190610fe390613498565b9190505550610ffc67687f4c266e818abe60c01b6121cd565b600260036000868152602001908152602001600020600b0160006101000a81548160ff0219169083600481111561103657611035612cef565b5b02179055506110a8565b61105467e0976c0c976ee59460c01b6121cd565b61106867c864755e870501c260c01b6121cd565b600160036000868152602001908152602001600020600b0160006101000a81548160ff021916908360048111156110a2576110a1612cef565b5b02179055505b6110bc67cc3fc017276d4d2260c01b6121cd565b6110d06740053e930d2cd21260c01b6121cd565b837f2e74881a6c74723c41779bc20d0aa57148f87d6cd03977e71379655e32e2711660036000878152602001908152602001600020600b0160009054906101000a900460ff1660405161112391906134c1565b60405180910390a261113f67207dfe63b408692560c01b6121cd565b6111536721dd26c1f12c972b60c01b6121cd565b3373ffffffffffffffffffffffffffffffffffffffff16847f76e4b739eb0c5c67926a4c7392010f3efe3bcf51d1c06b947264bb78b785630f858460405161119c92919061346f565b60405180910390a350505050565b6111be679a5a3cd819ff91d260c01b6121cd565b6111d26765d0a4dc2a4be24d60c01b6121cd565b6111e667381fc89cbdcfc1ec60c01b6121cd565b6111fa67aa1b58280433f5b260c01b6121cd565b6000821161123d576040517f08c379a00000000000000000000000000000000000000000000000000000000081526004016112349061354e565b60405180910390fd5b61125167f140259cfd6fd27660c01b6121cd565b61126567ae3ac2bfa1ba68af60c01b6121cd565b61127967ab831fe51ccb934f60c01b6121cd565b61128d6715712cb429dc6d8760c01b6121cd565b600081116112d0576040517f08c379a00000000000000000000000000000000000000000000000000000000081526004016112c7906135e0565b60405180910390fd5b6112e4671ae588bff79076dc60c01b6121cd565b6112f867322ab45fd5ccb9a660c01b6121cd565b61130c67450c73e5f74f7d6e60c01b6121cd565b6113206721268975b5e199e160c01b6121cd565b3373ffffffffffffffffffffffffffffffffffffffff16600160009054906101000a900473ffffffffffffffffffffffffffffffffffffffff1673ffffffffffffffffffffffffffffffffffffffff1663c41a360a856040518263ffffffff1660e01b81526004016113929190612b0e565b602060405180830381865afa1580156113af573d6000803e3d6000fd5b505050506040513d601f19601f820116820180604052508101906113d39190613615565b73ffffffffffffffffffffffffffffffffffffffff1614611429576040517f08c379a00000000000000000000000000000000000000000000000000000000081526004016114209061368e565b60405180910390fd5b61143d67d075920a16dd5a0c60c01b6121cd565b61145167c0b7ff08ee9548dd60c01b6121cd565b611465673228e484006db2d860c01b6121cd565b6114796782b06dd331ae5b0b60c01b6121cd565b600160009054906101000a900473ffffffffffffffffffffffffffffffffffffffff1673ffffffffffffffffffffffffffffffffffffffff16631c334a7e846040518263ffffffff1660e01b81526004016114d49190612b0e565b602060405180830381865afa1580156114f1573d6000803e3d6000fd5b505050506040513d601f19601f82011682018060405250810190611515919061333f565b611554576040517f08c379a000000000000000000000000000000000000000000000000000000000815260040161154b906136fa565b60405180910390fd5b61156867136eed40c6c922b660c01b6121cd565b61157c67e6a946e21f1c626860c01b6121cd565b611590677393920ffcf402de60c01b6121cd565b6115a467040814c2f572d49460c01b6121cd565b81600160009054906101000a900473ffffffffffffffffffffffffffffffffffffffff1673ffffffffffffffffffffffffffffffffffffffff166347846fd9856040518263ffffffff1660e01b81526004016116009190612b0e565b602060405180830381865afa15801561161d573d6000803e3d6000fd5b505050506040513d601f19601f820116820180604052508101906116419190613188565b1015611682576040517f08c379a00000000000000000000000000000000000000000000000000000000081526004016116799061378c565b60405180910390fd5b611696670dfe22f0d4a672af60c01b6121cd565b6116aa675971d819843f103760c01b6121cd565b6116be67c8b42d1b51224af560c01b6121cd565b6000600260008154809291906116d3906137ac565b9190505590506116ed67f606cc2c75ed219a60c01b6121cd565b61170167de4fe4c40c17229a60c01b6121cd565b6000806000806000600160009054906101000a900473ffffffffffffffffffffffffffffffffffffffff1673ffffffffffffffffffffffffffffffffffffffff16634fa4c02d8a6040518263ffffffff1660e01b81526004016117649190612b0e565b60a060405180830381865afa158015611781573d6000803e3d6000fd5b505050506040513d601f19601f820116820180604052508101906117a591906137f4565b945094509450945094506117c36768aeb3c095c7f35e60c01b6121cd565b6117d7672f236ea09587a4c360c01b6121cd565b60006117e6868686868661262c565b90506117fc6706bc9c6aeed4fbd560c01b6121cd565b61181067a4caceb9d00ffd0760c01b6121cd565b60006064605083611821919061386f565b61182b91906138e0565b90506118416705c185691a91eb3d60c01b6121cd565b6118556737d1c8fa3fc4f0c360c01b6121cd565b60006064607884611866919061386f565b61187091906138e0565b905061188667f07a10b42961279a60c01b6121cd565b61189a675f1b58a78c7cdd1460c01b6121cd565b6118ae67494f2cb48e12885160c01b6121cd565b818a101580156118be5750808a11155b6118fd576040517f08c379a00000000000000000000000000000000000000000000000000000000081526004016118f49061395d565b60405180910390fd5b61191167e38a85170685c8d760c01b6121cd565b611925676abf395cd92f54fc60c01b6121cd565b611939675af89df8fca5cd4160c01b6121cd565b600160009054906101000a900473ffffffffffffffffffffffffffffffffffffffff1673ffffffffffffffffffffffffffffffffffffffff1663d3e0bada8d8d6040518363ffffffff1660e01b815260040161199692919061346f565b600060405180830381600087803b1580156119b057600080fd5b505af11580156119c4573d6000803e3d6000fd5b505050506119dc6703a72c80c04b23a660c01b6121cd565b6040518061018001604052808a81526020018d81526020018c81526020018c8152602001600081526020018481526020018b81526020013373ffffffffffffffffffffffffffffffffffffffff1681526020014281526020014281526020016201518042611a4a919061343b565b815260200160006004811115611a6357611a62612cef565b5b815250600360008b8152602001908152602001600020600082015181600001556020820151816001015560408201518160020155606082015181600301556080820151816004015560a0820151816005015560c0820151816006015560e08201518160070160006101000a81548173ffffffffffffffffffffffffffffffffffffffff021916908373ffffffffffffffffffffffffffffffffffffffff1602179055506101008201518160080155610120820151816009015561014082015181600a015561016082015181600b0160006101000a81548160ff02191690836004811115611b5357611b52612cef565b5b0217905550905050611b6f67413a961d55eed4c560c01b6121cd565b611b836775040d2a85b2b46c60c01b6121cd565b600460008d8152602001908152602001600020899080600181540180825580915050600190039060005260206000200160009091909190915055611bd167bed133fbdca3299c60c01b6121cd565b611be567cf7b454e9007880760c01b6121cd565b600560003373ffffffffffffffffffffffffffffffffffffffff1673ffffffffffffffffffffffffffffffffffffffff168152602001908152602001600020899080600181540180825580915050600190039060005260206000200160009091909190915055611c5f67cdd6bf7276cb72c560c01b6121cd565b600660008d81526020019081526020016000206000815480929190611c83906137ac565b9190505550611c9c67a4621493689acfd060c01b6121cd565b611cb067951830a3cb6aee0f60c01b6121cd565b3373ffffffffffffffffffffffffffffffffffffffff168c8a7f55b8d19e468503ecc8f7d6a2611f03f249440d3d2401ff1ff15a474ee7cbee748e878f604051611cfc9392919061397d565b60405180910390a4505050505050505050505050565b611d266719ddcef6df16891560c01b6121cd565b80611d3b67ba7bfdef7777848b60c01b6121cd565b611d4f67706b05460c3dcc1360c01b6121cd565b611d63674f8ffced21f86a5d60c01b6121cd565b611d776781d3162c59e3225160c01b6121cd565b6002548110611dbb576040517f08c379a0000000000000000000000000000000000000000000000000000000008152600401611db290612ed0565b60405180910390fd5b611dcf671c657e9c1529471a60c01b6121cd565b611de367739d41a13419280e60c01b6121cd565b611df767fb27f8dc2122a96b60c01b6121cd565b611e0b67481fba86f961ba1160c01b6121cd565b81611e206756ddd2c459e53f9960c01b6121cd565b611e3467b8dfec048a3dc02c60c01b6121cd565b611e48678c7b861a2773175060c01b6121cd565b611e5c678d429286b351ce2b60c01b6121cd565b3373ffffffffffffffffffffffffffffffffffffffff166003600083815260200190815260200160002060070160009054906101000a900473ffffffffffffffffffffffffffffffffffffffff1673ffffffffffffffffffffffffffffffffffffffff1614611f00576040517f08c379a0000000000000000000000000000000000000000000000000000000008152600401611ef790613a00565b60405180910390fd5b611f1467056f4c7caaf571f560c01b6121cd565b611f2867ca11c4f8494e7eec60c01b6121cd565b611f3c67efe4388be8a3916e60c01b6121cd565b611f5067c42505019d1cafd960c01b6121cd565b611f6467b8dfb617b505f04860c01b6121cd565b611f78678ccfd734d25e421860c01b6121cd565b611f838360036121db565b611f9767aaf47553fc0664cd60c01b6121cd565b611fab674e3cdbdac12bfad760c01b6121cd565b3373ffffffffffffffffffffffffffffffffffffffff16837f1f51377b3e685a0e2419f9bb4ba7c07ec54936353ba3d0fb3c6538dab676622260405160405180910390a3505050565b612008679be8bb0b4294ba8260c01b6121cd565b8061201d67ba7bfdef7777848b60c01b6121cd565b61203167706b05460c3dcc1360c01b6121cd565b612045674f8ffced21f86a5d60c01b6121cd565b6120596781d3162c59e3225160c01b6121cd565b600254811061209d576040517f08c379a000000000000000000000000000000000000000000000000000000000815260040161209490612ed0565b60405180910390fd5b6120b1671c657e9c1529471a60c01b6121cd565b6120c567739d41a13419280e60c01b6121cd565b6120d967d55633de5e0f1e1660c01b6121cd565b6120ed6732c770a4fd49257b60c01b6121cd565b61210167eb5899eae539ef0b60c01b6121cd565b61211567e79c51a41e466f9d60c01b6121cd565b612129677ea16401fef1cbca60c01b6121cd565b4260036000848152602001908152602001600020600a01541115612182576040517f08c379a000000000000000000000000000000000000000000000000000000000815260040161217990613a6c565b60405180910390fd5b61219667708e8493661cbb1c60c01b6121cd565b6121aa6701f656a4e98e9cea60c01b6121cd565b6121be6713b19bd016988b7160c01b6121cd565b6121c98260046121db565b5050565b50565b600060019050919050565b6121ef67ce68d647694a955560c01b6121cd565b61220367b89cc6d9425ea89160c01b6121cd565b61221767edda526cf613671260c01b6121cd565b61222b67f71c04669445b5a560c01b6121cd565b612234826102f1565b612273576040517f08c379a000000000000000000000000000000000000000000000000000000000815260040161226a90613ad8565b60405180910390fd5b61228767957777ae119c51fa60c01b6121cd565b61229b6729c5b54ebe9c549260c01b6121cd565b6122af6748f031cb73711fed60c01b6121cd565b6000600360008481526020019081526020016000206003015411156123ca576122e2674a0721138a62e22660c01b6121cd565b6122f667730da868475af79d60c01b6121cd565b61230a670382242a894dc31f60c01b6121cd565b600160009054906101000a900473ffffffffffffffffffffffffffffffffffffffff1673ffffffffffffffffffffffffffffffffffffffff166361f2d09f600360008581526020019081526020016000206001015460036000868152602001908152602001600020600301546040518363ffffffff1660e01b815260040161239392919061346f565b600060405180830381600087803b1580156123ad57600080fd5b505af11580156123c1573d6000803e3d6000fd5b505050506123df565b6123de674cd60c7e690070cd60c01b6121cd565b5b6123f367155be38e2760b69860c01b6121cd565b6000600360008481526020019081526020016000206003018190555061242367457804c4a0f2767060c01b6121cd565b8060036000848152602001908152602001600020600b0160006101000a81548160ff0219169083600481111561245c5761245b612cef565b5b0217905550612475671c9d22980082a60760c01b6121cd565b4260036000848152602001908152602001600020600901819055506124a467237a5841b8fcf9ce60c01b6121cd565b600660006003600085815260200190815260200160002060010154815260200190815260200160002060008154809291906124de90613498565b91905055506124f767b138972ad4dfa21660c01b6121cd565b61250b67988b3643cc6f482260c01b6121cd565b817f2e74881a6c74723c41779bc20d0aa57148f87d6cd03977e71379655e32e271168260405161253b91906134c1565b60405180910390a25050565b600061255d67e112cfa0e6d236eb60c01b612a81565b61257167c6b37b89e14ae6d960c01b612a81565b612585673bd7961d41f8b64b60c01b612a81565b61259967797fe3e86872047260c01b612a81565b600082116125dc576040517f08c379a00000000000000000000000000000000000000000000000000000000081526004016125d3906130a6565b60405180910390fd5b6125f06762752e452583d0ea60c01b612a81565b61260467fed1b5912b411dc960c01b612a81565b61261867d8430cb5ca52595660c01b612a81565b8282612624919061386f565b905092915050565b600061264267e59e2c24b4122ea660c01b612a81565b61265667552507d86d11d6f460c01b612a81565b61266a67279d5edce02d8f9660c01b612a81565b6000600a90506126846742333b8d06f3359a60c01b612a81565b612698671529075b9e3902c760c01b612a81565b60008387896126a79190613b02565b6126b19190613b02565b90506126c76796d12ff52e8668e660c01b612a81565b6126db67795d5357bd5d35b760c01b612a81565b6000856064836126eb9190613b45565b6126f59190613bbd565b905061270b67f535f76c476c0ce860c01b612a81565b61271f67ccaa71e57007eec260c01b612a81565b6046811261274f5761273b6793850a2aae92b54d60c01b612a81565b6002836127489190613407565b925061286f565b612763678a313710a197347a60c01b612a81565b61277767186b9ea3f93e06db60c01b612a81565b602881126127a75761279367290dadfe08a7366760c01b612a81565b6001836127a09190613407565b925061286e565b6127bb673d45e1ae604e45d960c01b612a81565b6127cf67f83617716c1214ab60c01b612a81565b601481126127f0576127eb672bc5e0315f8cea6360c01b612a81565b61286d565b612804672a26f29228ac594d60c01b612a81565b612818673a793d3aeab6987360c01b612a81565b600081126128485761283467bf95e14ccb94ecf360c01b612a81565b600283612841919061343b565b925061286c565b61285c67bee89ec3da9e19ea60c01b612a81565b600483612869919061343b565b92505b5b5b5b61288367b917fc5d7530947760c01b612a81565b61289767bb9b3434d27d43b760c01b612a81565b605087106128c7576128b36760d7bbb0c4742de760c01b612a81565b6002836128c09190613407565b92506129e7565b6128db67406bd57269fe0c3360c01b612a81565b6128ef6789b58ed4a8201f3e60c01b612a81565b603c871061291f5761290b67a409d1592cb9e8b660c01b612a81565b6001836129189190613407565b92506129e6565b61293367b7a5e097c422c28560c01b612a81565b61294767e1050fd692e780a560c01b612a81565b602887106129685761296367e92a29f9318a9fef60c01b612a81565b6129e5565b61297c677b0960d25ca8953260c01b612a81565b612990671fb24eba7086370260c01b612a81565b601487106129c0576129ac67faf6c96db548ca7160c01b612a81565b6002836129b9919061343b565b92506129e4565b6129d467e8fe5d37cefb08e960c01b612a81565b6004836129e1919061343b565b92505b5b5b5b6129fb6744713e3ecee556b960c01b612a81565b612a0f6758a31924b2ce138760c01b612a81565b6001831015612a3557612a2c6732ac1783bb29236260c01b612a81565b60019250612a4a565b612a49679a08181c36be1af260c01b612a81565b5b612a5e67c87d3ea6698cabf260c01b612a81565b612a7267ca3fa540c53f2ea960c01b612a81565b82935050505095945050505050565b50565b600080fd5b6000819050919050565b612a9c81612a89565b8114612aa757600080fd5b50565b600081359050612ab981612a93565b92915050565b60008060408385031215612ad657612ad5612a84565b5b6000612ae485828601612aaa565b9250506020612af585828601612aaa565b9150509250929050565b612b0881612a89565b82525050565b6000602082019050612b236000830184612aff565b92915050565b600073ffffffffffffffffffffffffffffffffffffffff82169050919050565b6000819050919050565b6000612b6e612b69612b6484612b29565b612b49565b612b29565b9050919050565b6000612b8082612b53565b9050919050565b6000612b9282612b75565b9050919050565b612ba281612b87565b82525050565b6000602082019050612bbd6000830184612b99565b92915050565b600060208284031215612bd957612bd8612a84565b5b6000612be784828501612aaa565b91505092915050565b60008115159050919050565b612c0581612bf0565b82525050565b6000602082019050612c206000830184612bfc565b92915050565b6000612c3182612b75565b9050919050565b612c4181612c26565b82525050565b6000602082019050612c5c6000830184612c38565b92915050565b6000612c6d82612b29565b9050919050565b612c7d81612c62565b8114612c8857600080fd5b50565b600081359050612c9a81612c74565b92915050565b60008060408385031215612cb757612cb6612a84565b5b6000612cc585828601612c8b565b9250506020612cd685828601612aaa565b9150509250929050565b612ce981612c62565b82525050565b7f4e487b7100000000000000000000000000000000000000000000000000000000600052602160045260246000fd5b60058110612d2f57612d2e612cef565b5b50565b6000819050612d4082612d1e565b919050565b6000612d5082612d32565b9050919050565b612d6081612d45565b82525050565b600061018082019050612d7c600083018f612aff565b612d89602083018e612aff565b612d96604083018d612aff565b612da3606083018c612aff565b612db0608083018b612aff565b612dbd60a083018a612aff565b612dca60c0830189612aff565b612dd760e0830188612ce0565b612de5610100830187612aff565b612df3610120830186612aff565b612e01610140830185612aff565b612e0f610160830184612d57565b9d9c50505050505050505050505050565b600080600060608486031215612e3957612e38612a84565b5b6000612e4786828701612aaa565b9350506020612e5886828701612aaa565b9250506040612e6986828701612aaa565b9150509250925092565b600082825260208201905092915050565b7f4f6666657220646f6573206e6f74206578697374000000000000000000000000600082015250565b6000612eba601483612e73565b9150612ec582612e84565b602082019050919050565b60006020820190508181036000830152612ee981612ead565b9050919050565b7f4f666665722069736e2774206f70656e00000000000000000000000000000000600082015250565b6000612f26601083612e73565b9150612f3182612ef0565b602082019050919050565b60006020820190508181036000830152612f5581612f19565b9050919050565b7f4f66666572206861732065787069726564000000000000000000000000000000600082015250565b6000612f92601183612e73565b9150612f9d82612f5c565b602082019050919050565b60006020820190508181036000830152612fc181612f85565b9050919050565b7f53656c6c65722063616e6e6f7420627579207468656972206f776e20656e657260008201527f6779000000000000000000000000000000000000000000000000000000000000602082015250565b6000613024602283612e73565b915061302f82612fc8565b604082019050919050565b6000602082019050818103600083015261305381613017565b9050919050565b7f416d6f756e74206d7573742062652067726561746572207468616e2030000000600082015250565b6000613090601d83612e73565b915061309b8261305a565b602082019050919050565b600060208201905081810360008301526130bf81613083565b9050919050565b7f4e6f7420656e6f75676820656e6572677920617661696c61626c6520696e207460008201527f6865206f66666572000000000000000000000000000000000000000000000000602082015250565b6000613122602883612e73565b915061312d826130c6565b604082019050919050565b6000602082019050818103600083015261315181613115565b9050919050565b600060208201905061316d6000830184612ce0565b92915050565b60008151905061318281612a93565b92915050565b60006020828403121561319e5761319d612a84565b5b60006131ac84828501613173565b91505092915050565b7f496e73756666696369656e742045544b2062616c616e63650000000000000000600082015250565b60006131eb601883612e73565b91506131f6826131b5565b602082019050919050565b6000602082019050818103600083015261321a816131de565b9050919050565b60006040820190506132366000830185612ce0565b6132436020830184612ce0565b9392505050565b7f417070726f7665204d61726b6574706c61636520746f207370656e6420796f7560008201527f722045544b206669727374000000000000000000000000000000000000000000602082015250565b60006132a6602b83612e73565b91506132b18261324a565b604082019050919050565b600060208201905081810360008301526132d581613299565b9050919050565b60006060820190506132f16000830186612ce0565b6132fe6020830185612ce0565b61330b6040830184612aff565b949350505050565b61331c81612bf0565b811461332757600080fd5b50565b60008151905061333981613313565b92915050565b60006020828403121561335557613354612a84565b5b60006133638482850161332a565b91505092915050565b7f5472616e73666572206661696c65640000000000000000000000000000000000600082015250565b60006133a2600f83612e73565b91506133ad8261336c565b602082019050919050565b600060208201905081810360008301526133d181613395565b9050919050565b7f4e487b7100000000000000000000000000000000000000000000000000000000600052601160045260246000fd5b600061341282612a89565b915061341d83612a89565b9250828203905081811115613435576134346133d8565b5b92915050565b600061344682612a89565b915061345183612a89565b9250828201905080821115613469576134686133d8565b5b92915050565b60006040820190506134846000830185612aff565b6134916020830184612aff565b9392505050565b60006134a382612a89565b9150600082036134b6576134b56133d8565b5b600182039050919050565b60006020820190506134d66000830184612d57565b92915050565b7f456e6572677920616d6f756e74206d757374206265206772656174657220746860008201527f616e203000000000000000000000000000000000000000000000000000000000602082015250565b6000613538602483612e73565b9150613543826134dc565b604082019050919050565b600060208201905081810360008301526135678161352b565b9050919050565b7f50726963652070657220756e6974206d7573742062652067726561746572207460008201527f68616e2030000000000000000000000000000000000000000000000000000000602082015250565b60006135ca602583612e73565b91506135d58261356e565b604082019050919050565b600060208201905081810360008301526135f9816135bd565b9050919050565b60008151905061360f81612c74565b92915050565b60006020828403121561362b5761362a612a84565b5b600061363984828501613600565b91505092915050565b7f4e6f7420746865206f776e6572206f662074686973206d6963726f6772696400600082015250565b6000613678601f83612e73565b915061368382613642565b602082019050919050565b600060208201905081810360008301526136a78161366b565b9050919050565b7f4d6963726f67726964206973206e6f7420616374697665000000000000000000600082015250565b60006136e4601783612e73565b91506136ef826136ae565b602082019050919050565b60006020820190508181036000830152613713816136d7565b9050919050565b7f4e6f7420656e6f75676820617661696c61626c6520656e6572677920696e207460008201527f6865206d6963726f677269640000000000000000000000000000000000000000602082015250565b6000613776602c83612e73565b91506137818261371a565b604082019050919050565b600060208201905081810360008301526137a581613769565b9050919050565b60006137b782612a89565b91507fffffffffffffffffffffffffffffffffffffffffffffffffffffffffffffffff82036137e9576137e86133d8565b5b600182019050919050565b600080600080600060a086880312156138105761380f612a84565b5b600061381e88828901613173565b955050602061382f88828901613173565b945050604061384088828901613173565b935050606061385188828901613173565b925050608061386288828901613173565b9150509295509295909350565b600061387a82612a89565b915061388583612a89565b925082820261389381612a89565b915082820484148315176138aa576138a96133d8565b5b5092915050565b7f4e487b7100000000000000000000000000000000000000000000000000000000600052601260045260246000fd5b60006138eb82612a89565b91506138f683612a89565b925082613906576139056138b1565b5b828204905092915050565b7f5072696365206973206f7574206f66206d61726b65742072616e676500000000600082015250565b6000613947601c83612e73565b915061395282613911565b602082019050919050565b600060208201905081810360008301526139768161393a565b9050919050565b60006060820190506139926000830186612aff565b61399f6020830185612aff565b6139ac6040830184612aff565b949350505050565b7f4e6f74207468652073656c6c6572206f662074686973206f6666657200000000600082015250565b60006139ea601c83612e73565b91506139f5826139b4565b602082019050919050565b60006020820190508181036000830152613a19816139dd565b9050919050565b7f4f6666657220686173206e6f7420657870697265642079657400000000000000600082015250565b6000613a56601983612e73565b9150613a6182613a20565b602082019050919050565b60006020820190508181036000830152613a8581613a49565b9050919050565b7f4f6666657220616c726561647920636c6f736564000000000000000000000000600082015250565b6000613ac2601483612e73565b9150613acd82613a8c565b602082019050919050565b60006020820190508181036000830152613af181613ab5565b9050919050565b6000819050919050565b6000613b0d82613af8565b9150613b1883613af8565b9250828203905081811260008412168282136000851215161715613b3f57613b3e6133d8565b5b92915050565b6000613b5082613af8565b9150613b5b83613af8565b9250828202613b6981613af8565b91507f80000000000000000000000000000000000000000000000000000000000000008414600084121615613ba157613ba06133d8565b5b8282058414831517613bb657613bb56133d8565b5b5092915050565b6000613bc882613af8565b9150613bd383613af8565b925082613be357613be26138b1565b5b600160000383147f800000000000000000000000000000000000000000000000000000000000000083141615613c1c57613c1b6133d8565b5b82820590509291505056fea2646970667358221220358409852b73256f61ddf136c9df883981669efe60a9a3494a8bdf06c17e0b0d64736f6c634300081c0033","opcodes":"PUSH1 0x80 PUSH1 0x40 MSTORE CALLVALUE DUP1 ISZERO PUSH2 0x10 JUMPI PUSH1 0x0 DUP1 REVERT JUMPDEST POP PUSH1 0x40 MLOAD PUSH2 0x3E1A CODESIZE SUB DUP1 PUSH2 0x3E1A DUP4 CODECOPY DUP2 DUP2 ADD PUSH1 0x40 MSTORE DUP2 ADD SWAP1 PUSH2 0x32 SWAP2 SWAP1 PUSH2 0x16E JUMP JUMPDEST PUSH2 0x4C PUSH8 0x3B9B3E3028B7C886 PUSH1 0xC0 SHL PUSH2 0x108 PUSH1 0x20 SHL PUSH1 0x20 SHR JUMP JUMPDEST PUSH2 0x66 PUSH8 0x869EDD4F7933D8E4 PUSH1 0xC0 SHL PUSH2 0x108 PUSH1 0x20 SHL PUSH1 0x20 SHR JUMP JUMPDEST DUP2 PUSH1 0x0 DUP1 PUSH2 0x100 EXP DUP2 SLOAD DUP2 PUSH20 0xFFFFFFFFFFFFFFFFFFFFFFFFFFFFFFFFFFFFFFFF MUL NOT AND SWAP1 DUP4 PUSH20 0xFFFFFFFFFFFFFFFFFFFFFFFFFFFFFFFFFFFFFFFF AND MUL OR SWAP1 SSTORE POP PUSH2 0xC0 PUSH8 0x7DD60B50651D84F2 PUSH1 0xC0 SHL PUSH2 0x108 PUSH1 0x20 SHL PUSH1 0x20 SHR JUMP JUMPDEST DUP1 PUSH1 0x1 PUSH1 0x0 PUSH2 0x100 EXP DUP2 SLOAD DUP2 PUSH20 0xFFFFFFFFFFFFFFFFFFFFFFFFFFFFFFFFFFFFFFFF MUL NOT AND SWAP1 DUP4 PUSH20 0xFFFFFFFFFFFFFFFFFFFFFFFFFFFFFFFFFFFFFFFF AND MUL OR SWAP1 SSTORE POP POP POP PUSH2 0x1AE JUMP JUMPDEST POP JUMP JUMPDEST PUSH1 0x0 DUP1 REVERT JUMPDEST PUSH1 0x0 PUSH20 0xFFFFFFFFFFFFFFFFFFFFFFFFFFFFFFFFFFFFFFFF DUP3 AND SWAP1 POP SWAP2 SWAP1 POP JUMP JUMPDEST PUSH1 0x0 PUSH2 0x13B DUP3 PUSH2 0x110 JUMP JUMPDEST SWAP1 POP SWAP2 SWAP1 POP JUMP JUMPDEST PUSH2 0x14B DUP2 PUSH2 0x130 JUMP JUMPDEST DUP2 EQ PUSH2 0x156 JUMPI PUSH1 0x0 DUP1 REVERT JUMPDEST POP JUMP JUMPDEST PUSH1 0x0 DUP2 MLOAD SWAP1 POP PUSH2 0x168 DUP2 PUSH2 0x142 JUMP JUMPDEST SWAP3 SWAP2 POP POP JUMP JUMPDEST PUSH1 0x0 DUP1 PUSH1 0x40 DUP4 DUP6 SUB SLT ISZERO PUSH2 0x185 JUMPI PUSH2 0x184 PUSH2 0x10B JUMP JUMPDEST JUMPDEST PUSH1 0x0 PUSH2 0x193 DUP6 DUP3 DUP7 ADD PUSH2 0x159 JUMP JUMPDEST SWAP3 POP POP PUSH1 0x20 PUSH2 0x1A4 DUP6 DUP3 DUP7 ADD PUSH2 0x159 JUMP JUMPDEST SWAP2 POP POP SWAP3 POP SWAP3 SWAP1 POP JUMP JUMPDEST PUSH2 0x3C5D DUP1 PUSH2 0x1BD PUSH1 0x0 CODECOPY PUSH1 0x0 RETURN INVALID PUSH1 0x80 PUSH1 0x40 MSTORE CALLVALUE DUP1 ISZERO PUSH2 0x10 JUMPI PUSH1 0x0 DUP1 REVERT JUMPDEST POP PUSH1 0x4 CALLDATASIZE LT PUSH2 0xB4 JUMPI PUSH1 0x0 CALLDATALOAD PUSH1 0xE0 SHR DUP1 PUSH4 0x7E930A5C GT PUSH2 0x71 JUMPI DUP1 PUSH4 0x7E930A5C EQ PUSH2 0x1A3 JUMPI DUP1 PUSH4 0x8A72EA6A EQ PUSH2 0x1D3 JUMPI DUP1 PUSH4 0xCDB6D52D EQ PUSH2 0x20E JUMPI DUP1 PUSH4 0xDC35A900 EQ PUSH2 0x22A JUMPI DUP1 PUSH4 0xEF706ADF EQ PUSH2 0x246 JUMPI DUP1 PUSH4 0xF10B1606 EQ PUSH2 0x262 JUMPI PUSH2 0xB4 JUMP JUMPDEST DUP1 PUSH4 0xF20337D EQ PUSH2 0xB9 JUMPI DUP1 PUSH4 0x4EC7FB81 EQ PUSH2 0xE9 JUMPI DUP1 PUSH4 0x5F5D0655 EQ PUSH2 0x107 JUMPI DUP1 PUSH4 0x71658853 EQ PUSH2 0x125 JUMPI DUP1 PUSH4 0x73868D73 EQ PUSH2 0x155 JUMPI DUP1 PUSH4 0x7B103999 EQ PUSH2 0x185 JUMPI JUMPDEST PUSH1 0x0 DUP1 REVERT JUMPDEST PUSH2 0xD3 PUSH1 0x4 DUP1 CALLDATASIZE SUB DUP2 ADD SWAP1 PUSH2 0xCE SWAP2 SWAP1 PUSH2 0x2ABF JUMP JUMPDEST PUSH2 0x27E JUMP JUMPDEST PUSH1 0x40 MLOAD PUSH2 0xE0 SWAP2 SWAP1 PUSH2 0x2B0E JUMP JUMPDEST PUSH1 0x40 MLOAD DUP1 SWAP2 SUB SWAP1 RETURN JUMPDEST PUSH2 0xF1 PUSH2 0x2AF JUMP JUMPDEST PUSH1 0x40 MLOAD PUSH2 0xFE SWAP2 SWAP1 PUSH2 0x2BA8 JUMP JUMPDEST PUSH1 0x40 MLOAD DUP1 SWAP2 SUB SWAP1 RETURN JUMPDEST PUSH2 0x10F PUSH2 0x2D3 JUMP JUMPDEST PUSH1 0x40 MLOAD PUSH2 0x11C SWAP2 SWAP1 PUSH2 0x2B0E JUMP JUMPDEST PUSH1 0x40 MLOAD DUP1 SWAP2 SUB SWAP1 RETURN JUMPDEST PUSH2 0x13F PUSH1 0x4 DUP1 CALLDATASIZE SUB DUP2 ADD SWAP1 PUSH2 0x13A SWAP2 SWAP1 PUSH2 0x2BC3 JUMP JUMPDEST PUSH2 0x2D9 JUMP JUMPDEST PUSH1 0x40 MLOAD PUSH2 0x14C SWAP2 SWAP1 PUSH2 0x2B0E JUMP JUMPDEST PUSH1 0x40 MLOAD DUP1 SWAP2 SUB SWAP1 RETURN JUMPDEST PUSH2 0x16F PUSH1 0x4 DUP1 CALLDATASIZE SUB DUP2 ADD SWAP1 PUSH2 0x16A SWAP2 SWAP1 PUSH2 0x2BC3 JUMP JUMPDEST PUSH2 0x2F1 JUMP JUMPDEST PUSH1 0x40 MLOAD PUSH2 0x17C SWAP2 SWAP1 PUSH2 0x2C0B JUMP JUMPDEST PUSH1 0x40 MLOAD DUP1 SWAP2 SUB SWAP1 RETURN JUMPDEST PUSH2 0x18D PUSH2 0x40B JUMP JUMPDEST PUSH1 0x40 MLOAD PUSH2 0x19A SWAP2 SWAP1 PUSH2 0x2C47 JUMP JUMPDEST PUSH1 0x40 MLOAD DUP1 SWAP2 SUB SWAP1 RETURN JUMPDEST PUSH2 0x1BD PUSH1 0x4 DUP1 CALLDATASIZE SUB DUP2 ADD SWAP1 PUSH2 0x1B8 SWAP2 SWAP1 PUSH2 0x2CA0 JUMP JUMPDEST PUSH2 0x431 JUMP JUMPDEST PUSH1 0x40 MLOAD PUSH2 0x1CA SWAP2 SWAP1 PUSH2 0x2B0E JUMP JUMPDEST PUSH1 0x40 MLOAD DUP1 SWAP2 SUB SWAP1 RETURN JUMPDEST PUSH2 0x1ED PUSH1 0x4 DUP1 CALLDATASIZE SUB DUP2 ADD SWAP1 PUSH2 0x1E8 SWAP2 SWAP1 PUSH2 0x2BC3 JUMP JUMPDEST PUSH2 0x462 JUMP JUMPDEST PUSH1 0x40 MLOAD PUSH2 0x205 SWAP13 SWAP12 SWAP11 SWAP10 SWAP9 SWAP8 SWAP7 SWAP6 SWAP5 SWAP4 SWAP3 SWAP2 SWAP1 PUSH2 0x2D66 JUMP JUMPDEST PUSH1 0x40 MLOAD DUP1 SWAP2 SUB SWAP1 RETURN JUMPDEST PUSH2 0x228 PUSH1 0x4 DUP1 CALLDATASIZE SUB DUP2 ADD SWAP1 PUSH2 0x223 SWAP2 SWAP1 PUSH2 0x2ABF JUMP JUMPDEST PUSH2 0x4EF JUMP JUMPDEST STOP JUMPDEST PUSH2 0x244 PUSH1 0x4 DUP1 CALLDATASIZE SUB DUP2 ADD SWAP1 PUSH2 0x23F SWAP2 SWAP1 PUSH2 0x2E20 JUMP JUMPDEST PUSH2 0x11AA JUMP JUMPDEST STOP JUMPDEST PUSH2 0x260 PUSH1 0x4 DUP1 CALLDATASIZE SUB DUP2 ADD SWAP1 PUSH2 0x25B SWAP2 SWAP1 PUSH2 0x2BC3 JUMP JUMPDEST PUSH2 0x1D12 JUMP JUMPDEST STOP JUMPDEST PUSH2 0x27C PUSH1 0x4 DUP1 CALLDATASIZE SUB DUP2 ADD SWAP1 PUSH2 0x277 SWAP2 SWAP1 PUSH2 0x2BC3 JUMP JUMPDEST PUSH2 0x1FF4 JUMP JUMPDEST STOP JUMPDEST PUSH1 0x4 PUSH1 0x20 MSTORE DUP2 PUSH1 0x0 MSTORE PUSH1 0x40 PUSH1 0x0 KECCAK256 DUP2 DUP2 SLOAD DUP2 LT PUSH2 0x29A JUMPI PUSH1 0x0 DUP1 REVERT JUMPDEST SWAP1 PUSH1 0x0 MSTORE PUSH1 0x20 PUSH1 0x0 KECCAK256 ADD PUSH1 0x0 SWAP2 POP SWAP2 POP POP SLOAD DUP2 JUMP JUMPDEST PUSH1 0x0 DUP1 SLOAD SWAP1 PUSH2 0x100 EXP SWAP1 DIV PUSH20 0xFFFFFFFFFFFFFFFFFFFFFFFFFFFFFFFFFFFFFFFF AND DUP2 JUMP JUMPDEST PUSH1 0x2 SLOAD DUP2 JUMP JUMPDEST PUSH1 0x6 PUSH1 0x20 MSTORE DUP1 PUSH1 0x0 MSTORE PUSH1 0x40 PUSH1 0x0 KECCAK256 PUSH1 0x0 SWAP2 POP SWAP1 POP SLOAD DUP2 JUMP JUMPDEST PUSH1 0x0 PUSH2 0x307 PUSH8 0x94D43AB07EBEF4C PUSH1 0xC0 SHL PUSH2 0x21CD JUMP JUMPDEST PUSH2 0x31B PUSH8 0x7446EF47D6DBB5C6 PUSH1 0xC0 SHL PUSH2 0x21CD JUMP JUMPDEST PUSH2 0x32F PUSH8 0x9D1163B6831E9D97 PUSH1 0xC0 SHL PUSH2 0x21CD JUMP JUMPDEST PUSH1 0x0 PUSH1 0x4 DUP2 GT ISZERO PUSH2 0x343 JUMPI PUSH2 0x342 PUSH2 0x2CEF JUMP JUMPDEST JUMPDEST PUSH1 0x3 PUSH1 0x0 DUP5 DUP2 MSTORE PUSH1 0x20 ADD SWAP1 DUP2 MSTORE PUSH1 0x20 ADD PUSH1 0x0 KECCAK256 PUSH1 0xB ADD PUSH1 0x0 SWAP1 SLOAD SWAP1 PUSH2 0x100 EXP SWAP1 DIV PUSH1 0xFF AND PUSH1 0x4 DUP2 GT ISZERO PUSH2 0x379 JUMPI PUSH2 0x378 PUSH2 0x2CEF JUMP JUMPDEST JUMPDEST EQ DUP1 ISZERO PUSH2 0x396 JUMPI POP PUSH2 0x395 PUSH8 0x11BABFB5583E2AA7 PUSH1 0xC0 SHL PUSH2 0x21D0 JUMP JUMPDEST JUMPDEST DUP1 PUSH2 0x404 JUMPI POP PUSH1 0x1 PUSH1 0x4 DUP2 GT ISZERO PUSH2 0x3B0 JUMPI PUSH2 0x3AF PUSH2 0x2CEF JUMP JUMPDEST JUMPDEST PUSH1 0x3 PUSH1 0x0 DUP5 DUP2 MSTORE PUSH1 0x20 ADD SWAP1 DUP2 MSTORE PUSH1 0x20 ADD PUSH1 0x0 KECCAK256 PUSH1 0xB ADD PUSH1 0x0 SWAP1 SLOAD SWAP1 PUSH2 0x100 EXP SWAP1 DIV PUSH1 0xFF AND PUSH1 0x4 DUP2 GT ISZERO PUSH2 0x3E6 JUMPI PUSH2 0x3E5 PUSH2 0x2CEF JUMP JUMPDEST JUMPDEST EQ DUP1 ISZERO PUSH2 0x403 JUMPI POP PUSH2 0x402 PUSH8 0xB55885FB1005259A PUSH1 0xC0 SHL PUSH2 0x21D0 JUMP JUMPDEST JUMPDEST JUMPDEST SWAP1 POP SWAP2 SWAP1 POP JUMP JUMPDEST PUSH1 0x1 PUSH1 0x0 SWAP1 SLOAD SWAP1 PUSH2 0x100 EXP SWAP1 DIV PUSH20 0xFFFFFFFFFFFFFFFFFFFFFFFFFFFFFFFFFFFFFFFF AND DUP2 JUMP JUMPDEST PUSH1 0x5 PUSH1 0x20 MSTORE DUP2 PUSH1 0x0 MSTORE PUSH1 0x40 PUSH1 0x0 KECCAK256 DUP2 DUP2 SLOAD DUP2 LT PUSH2 0x44D JUMPI PUSH1 0x0 DUP1 REVERT JUMPDEST SWAP1 PUSH1 0x0 MSTORE PUSH1 0x20 PUSH1 0x0 KECCAK256 ADD PUSH1 0x0 SWAP2 POP SWAP2 POP POP SLOAD DUP2 JUMP JUMPDEST PUSH1 0x3 PUSH1 0x20 MSTORE DUP1 PUSH1 0x0 MSTORE PUSH1 0x40 PUSH1 0x0 KECCAK256 PUSH1 0x0 SWAP2 POP SWAP1 POP DUP1 PUSH1 0x0 ADD SLOAD SWAP1 DUP1 PUSH1 0x1 ADD SLOAD SWAP1 DUP1 PUSH1 0x2 ADD SLOAD SWAP1 DUP1 PUSH1 0x3 ADD SLOAD SWAP1 DUP1 PUSH1 0x4 ADD SLOAD SWAP1 DUP1 PUSH1 0x5 ADD SLOAD SWAP1 DUP1 PUSH1 0x6 ADD SLOAD SWAP1 DUP1 PUSH1 0x7 ADD PUSH1 0x0 SWAP1 SLOAD SWAP1 PUSH2 0x100 EXP SWAP1 DIV PUSH20 0xFFFFFFFFFFFFFFFFFFFFFFFFFFFFFFFFFFFFFFFF AND SWAP1 DUP1 PUSH1 0x8 ADD SLOAD SWAP1 DUP1 PUSH1 0x9 ADD SLOAD SWAP1 DUP1 PUSH1 0xA ADD SLOAD SWAP1 DUP1 PUSH1 0xB ADD PUSH1 0x0 SWAP1 SLOAD SWAP1 PUSH2 0x100 EXP SWAP1 DIV PUSH1 0xFF AND SWAP1 POP DUP13 JUMP JUMPDEST PUSH2 0x503 PUSH8 0x2680199EEF9D4A38 PUSH1 0xC0 SHL PUSH2 0x21CD JUMP JUMPDEST DUP2 PUSH2 0x518 PUSH8 0xBA7BFDEF7777848B PUSH1 0xC0 SHL PUSH2 0x21CD JUMP JUMPDEST PUSH2 0x52C PUSH8 0x706B05460C3DCC13 PUSH1 0xC0 SHL PUSH2 0x21CD JUMP JUMPDEST PUSH2 0x540 PUSH8 0x4F8FFCED21F86A5D PUSH1 0xC0 SHL PUSH2 0x21CD JUMP JUMPDEST PUSH2 0x554 PUSH8 0x81D3162C59E32251 PUSH1 0xC0 SHL PUSH2 0x21CD JUMP JUMPDEST PUSH1 0x2 SLOAD DUP2 LT PUSH2 0x598 JUMPI PUSH1 0x40 MLOAD PUSH32 0x8C379A000000000000000000000000000000000000000000000000000000000 DUP2 MSTORE PUSH1 0x4 ADD PUSH2 0x58F SWAP1 PUSH2 0x2ED0 JUMP JUMPDEST PUSH1 0x40 MLOAD DUP1 SWAP2 SUB SWAP1 REVERT JUMPDEST PUSH2 0x5AC PUSH8 0x1C657E9C1529471A PUSH1 0xC0 SHL PUSH2 0x21CD JUMP JUMPDEST PUSH2 0x5C0 PUSH8 0x739D41A13419280E PUSH1 0xC0 SHL PUSH2 0x21CD JUMP JUMPDEST PUSH2 0x5D4 PUSH8 0x5D7BECD776BFA07F PUSH1 0xC0 SHL PUSH2 0x21CD JUMP JUMPDEST PUSH2 0x5E8 PUSH8 0xEA7A3A5DBE6B4B3E PUSH1 0xC0 SHL PUSH2 0x21CD JUMP JUMPDEST PUSH2 0x5FC PUSH8 0x6F643BEF25D27BFA PUSH1 0xC0 SHL PUSH2 0x21CD JUMP JUMPDEST PUSH2 0x610 PUSH8 0x64C78AF261073D47 PUSH1 0xC0 SHL PUSH2 0x21CD JUMP JUMPDEST PUSH2 0x624 PUSH8 0xE2333BAB1E9E61BD PUSH1 0xC0 SHL PUSH2 0x21CD JUMP JUMPDEST PUSH2 0x62D DUP4 PUSH2 0x2F1 JUMP JUMPDEST PUSH2 0x66C JUMPI PUSH1 0x40 MLOAD PUSH32 0x8C379A000000000000000000000000000000000000000000000000000000000 DUP2 MSTORE PUSH1 0x4 ADD PUSH2 0x663 SWAP1 PUSH2 0x2F3C JUMP JUMPDEST PUSH1 0x40 MLOAD DUP1 SWAP2 SUB SWAP1 REVERT JUMPDEST PUSH2 0x680 PUSH8 0xE73C1CBFE2A4AE69 PUSH1 0xC0 SHL PUSH2 0x21CD JUMP JUMPDEST PUSH2 0x694 PUSH8 0xDDA7698396787BBB PUSH1 0xC0 SHL PUSH2 0x21CD JUMP JUMPDEST PUSH2 0x6A8 PUSH8 0xFA2A7D7AABCD8850 PUSH1 0xC0 SHL PUSH2 0x21CD JUMP JUMPDEST PUSH1 0x3 PUSH1 0x0 DUP5 DUP2 MSTORE PUSH1 0x20 ADD SWAP1 DUP2 MSTORE PUSH1 0x20 ADD PUSH1 0x0 KECCAK256 PUSH1 0xA ADD SLOAD TIMESTAMP LT PUSH2 0x76E JUMPI PUSH2 0x6D8 PUSH7 0x4B339663F1BE4B PUSH1 0xC0 SHL PUSH2 0x21CD JUMP JUMPDEST PUSH2 0x6EC PUSH8 0xFC1340B1CC20E3C0 PUSH1 0xC0 SHL PUSH2 0x21CD JUMP JUMPDEST PUSH2 0x700 PUSH8 0xC884E18C7FDC78D4 PUSH1 0xC0 SHL PUSH2 0x21CD JUMP JUMPDEST PUSH2 0x70B DUP4 PUSH1 0x4 PUSH2 0x21DB JUMP JUMPDEST PUSH2 0x71F PUSH8 0xF551CC57A4F9EC46 PUSH1 0xC0 SHL PUSH2 0x21CD JUMP JUMPDEST PUSH2 0x733 PUSH8 0xD94B5D4CFB1A3E89 PUSH1 0xC0 SHL PUSH2 0x21CD JUMP JUMPDEST PUSH1 0x40 MLOAD PUSH32 0x8C379A000000000000000000000000000000000000000000000000000000000 DUP2 MSTORE PUSH1 0x4 ADD PUSH2 0x765 SWAP1 PUSH2 0x2FA8 JUMP JUMPDEST PUSH1 0x40 MLOAD DUP1 SWAP2 SUB SWAP1 REVERT JUMPDEST PUSH2 0x782 PUSH8 0x8E5EE2D0728D720E PUSH1 0xC0 SHL PUSH2 0x21CD JUMP JUMPDEST PUSH2 0x796 PUSH8 0xD6AE36AE0F2511C4 PUSH1 0xC0 SHL PUSH2 0x21CD JUMP JUMPDEST PUSH2 0x7AA PUSH8 0x19DD15DBC329896A PUSH1 0xC0 SHL PUSH2 0x21CD JUMP JUMPDEST PUSH2 0x7BE PUSH8 0xEA025D4613A8DC44 PUSH1 0xC0 SHL PUSH2 0x21CD JUMP JUMPDEST PUSH1 0x3 PUSH1 0x0 DUP5 DUP2 MSTORE PUSH1 0x20 ADD SWAP1 DUP2 MSTORE PUSH1 0x20 ADD PUSH1 0x0 KECCAK256 PUSH1 0x7 ADD PUSH1 0x0 SWAP1 SLOAD SWAP1 PUSH2 0x100 EXP SWAP1 DIV PUSH20 0xFFFFFFFFFFFFFFFFFFFFFFFFFFFFFFFFFFFFFFFF AND PUSH20 0xFFFFFFFFFFFFFFFFFFFFFFFFFFFFFFFFFFFFFFFF AND CALLER PUSH20 0xFFFFFFFFFFFFFFFFFFFFFFFFFFFFFFFFFFFFFFFF AND SUB PUSH2 0x862 JUMPI PUSH1 0x40 MLOAD PUSH32 0x8C379A000000000000000000000000000000000000000000000000000000000 DUP2 MSTORE PUSH1 0x4 ADD PUSH2 0x859 SWAP1 PUSH2 0x303A JUMP JUMPDEST PUSH1 0x40 MLOAD DUP1 SWAP2 SUB SWAP1 REVERT JUMPDEST PUSH2 0x876 PUSH8 0x878B8DB82B6625CF PUSH1 0xC0 SHL PUSH2 0x21CD JUMP JUMPDEST PUSH2 0x88A PUSH8 0x389420F9B6BC2427 PUSH1 0xC0 SHL PUSH2 0x21CD JUMP JUMPDEST PUSH2 0x89E PUSH8 0x5DD829A710C3EB1F PUSH1 0xC0 SHL PUSH2 0x21CD JUMP JUMPDEST PUSH2 0x8B2 PUSH8 0x77AE245B2C28B3D8 PUSH1 0xC0 SHL PUSH2 0x21CD JUMP JUMPDEST PUSH1 0x0 DUP3 GT PUSH2 0x8F5 JUMPI PUSH1 0x40 MLOAD PUSH32 0x8C379A000000000000000000000000000000000000000000000000000000000 DUP2 MSTORE PUSH1 0x4 ADD PUSH2 0x8EC SWAP1 PUSH2 0x30A6 JUMP JUMPDEST PUSH1 0x40 MLOAD DUP1 SWAP2 SUB SWAP1 REVERT JUMPDEST PUSH2 0x909 PUSH8 0xE29C623506BFF16B PUSH1 0xC0 SHL PUSH2 0x21CD JUMP JUMPDEST PUSH2 0x91D PUSH8 0x777C51B83AC102B2 PUSH1 0xC0 SHL PUSH2 0x21CD JUMP JUMPDEST PUSH2 0x931 PUSH8 0x1391EB833854918E PUSH1 0xC0 SHL PUSH2 0x21CD JUMP JUMPDEST PUSH2 0x945 PUSH8 0x9D2DD918AFEB5BED PUSH1 0xC0 SHL PUSH2 0x21CD JUMP JUMPDEST DUP2 PUSH1 0x3 PUSH1 0x0 DUP6 DUP2 MSTORE PUSH1 0x20 ADD SWAP1 DUP2 MSTORE PUSH1 0x20 ADD PUSH1 0x0 KECCAK256 PUSH1 0x3 ADD SLOAD LT ISZERO PUSH2 0x99E JUMPI PUSH1 0x40 MLOAD PUSH32 0x8C379A000000000000000000000000000000000000000000000000000000000 DUP2 MSTORE PUSH1 0x4 ADD PUSH2 0x995 SWAP1 PUSH2 0x3138 JUMP JUMPDEST PUSH1 0x40 MLOAD DUP1 SWAP2 SUB SWAP1 REVERT JUMPDEST PUSH2 0x9B2 PUSH8 0xEEA15DCADE1D66FC PUSH1 0xC0 SHL PUSH2 0x21CD JUMP JUMPDEST PUSH2 0x9C6 PUSH8 0x5A4365837C9267E0 PUSH1 0xC0 SHL PUSH2 0x21CD JUMP JUMPDEST PUSH2 0x9DA PUSH8 0xBFE26AE6AF1E6FC3 PUSH1 0xC0 SHL PUSH2 0x21CD JUMP JUMPDEST PUSH1 0x0 PUSH2 0x9FC PUSH1 0x3 PUSH1 0x0 DUP7 DUP2 MSTORE PUSH1 0x20 ADD SWAP1 DUP2 MSTORE PUSH1 0x20 ADD PUSH1 0x0 KECCAK256 PUSH1 0x6 ADD SLOAD DUP5 PUSH2 0x2547 JUMP JUMPDEST SWAP1 POP PUSH2 0xA12 PUSH8 0x9EE5346618C80614 PUSH1 0xC0 SHL PUSH2 0x21CD JUMP JUMPDEST PUSH2 0xA26 PUSH8 0x273F7EA4C4424C02 PUSH1 0xC0 SHL PUSH2 0x21CD JUMP JUMPDEST PUSH2 0xA3A PUSH8 0x8DA6615F2514184E PUSH1 0xC0 SHL PUSH2 0x21CD JUMP JUMPDEST DUP1 PUSH1 0x0 DUP1 SLOAD SWAP1 PUSH2 0x100 EXP SWAP1 DIV PUSH20 0xFFFFFFFFFFFFFFFFFFFFFFFFFFFFFFFFFFFFFFFF AND PUSH20 0xFFFFFFFFFFFFFFFFFFFFFFFFFFFFFFFFFFFFFFFF AND PUSH4 0x70A08231 CALLER PUSH1 0x40 MLOAD DUP3 PUSH4 0xFFFFFFFF AND PUSH1 0xE0 SHL DUP2 MSTORE PUSH1 0x4 ADD PUSH2 0xA94 SWAP2 SWAP1 PUSH2 0x3158 JUMP JUMPDEST PUSH1 0x20 PUSH1 0x40 MLOAD DUP1 DUP4 SUB DUP2 DUP7 GAS STATICCALL ISZERO DUP1 ISZERO PUSH2 0xAB1 JUMPI RETURNDATASIZE PUSH1 0x0 DUP1 RETURNDATACOPY RETURNDATASIZE PUSH1 0x0 REVERT JUMPDEST POP POP POP POP PUSH1 0x40 MLOAD RETURNDATASIZE PUSH1 0x1F NOT PUSH1 0x1F DUP3 ADD AND DUP3 ADD DUP1 PUSH1 0x40 MSTORE POP DUP2 ADD SWAP1 PUSH2 0xAD5 SWAP2 SWAP1 PUSH2 0x3188 JUMP JUMPDEST LT ISZERO PUSH2 0xB16 JUMPI PUSH1 0x40 MLOAD PUSH32 0x8C379A000000000000000000000000000000000000000000000000000000000 DUP2 MSTORE PUSH1 0x4 ADD PUSH2 0xB0D SWAP1 PUSH2 0x3201 JUMP JUMPDEST PUSH1 0x40 MLOAD DUP1 SWAP2 SUB SWAP1 REVERT JUMPDEST PUSH2 0xB2A PUSH8 0xB99FC33D5E8B2D1 PUSH1 0xC0 SHL PUSH2 0x21CD JUMP JUMPDEST PUSH2 0xB3E PUSH8 0x73EA0BF0D8630759 PUSH1 0xC0 SHL PUSH2 0x21CD JUMP JUMPDEST PUSH2 0xB52 PUSH8 0xBB61B8F255325592 PUSH1 0xC0 SHL PUSH2 0x21CD JUMP JUMPDEST PUSH2 0xB66 PUSH8 0x5D621E90A6B731E4 PUSH1 0xC0 SHL PUSH2 0x21CD JUMP JUMPDEST DUP1 PUSH1 0x0 DUP1 SLOAD SWAP1 PUSH2 0x100 EXP SWAP1 DIV PUSH20 0xFFFFFFFFFFFFFFFFFFFFFFFFFFFFFFFFFFFFFFFF AND PUSH20 0xFFFFFFFFFFFFFFFFFFFFFFFFFFFFFFFFFFFFFFFF AND PUSH4 0xDD62ED3E CALLER ADDRESS PUSH1 0x40 MLOAD DUP4 PUSH4 0xFFFFFFFF AND PUSH1 0xE0 SHL DUP2 MSTORE PUSH1 0x4 ADD PUSH2 0xBC2 SWAP3 SWAP2 SWAP1 PUSH2 0x3221 JUMP JUMPDEST PUSH1 0x20 PUSH1 0x40 MLOAD DUP1 DUP4 SUB DUP2 DUP7 GAS STATICCALL ISZERO DUP1 ISZERO PUSH2 0xBDF JUMPI RETURNDATASIZE PUSH1 0x0 DUP1 RETURNDATACOPY RETURNDATASIZE PUSH1 0x0 REVERT JUMPDEST POP POP POP POP PUSH1 0x40 MLOAD RETURNDATASIZE PUSH1 0x1F NOT PUSH1 0x1F DUP3 ADD AND DUP3 ADD DUP1 PUSH1 0x40 MSTORE POP DUP2 ADD SWAP1 PUSH2 0xC03 SWAP2 SWAP1 PUSH2 0x3188 JUMP JUMPDEST LT ISZERO PUSH2 0xC44 JUMPI PUSH1 0x40 MLOAD PUSH32 0x8C379A000000000000000000000000000000000000000000000000000000000 DUP2 MSTORE PUSH1 0x4 ADD PUSH2 0xC3B SWAP1 PUSH2 0x32BC JUMP JUMPDEST PUSH1 0x40 MLOAD DUP1 SWAP2 SUB SWAP1 REVERT JUMPDEST PUSH2 0xC58 PUSH8 0xD251944CD1413C1C PUSH1 0xC0 SHL PUSH2 0x21CD JUMP JUMPDEST PUSH2 0xC6C PUSH8 0x5DED486CE5C4462A PUSH1 0xC0 SHL PUSH2 0x21CD JUMP JUMPDEST PUSH2 0xC80 PUSH8 0xB421197CA277054D PUSH1 0xC0 SHL PUSH2 0x21CD JUMP JUMPDEST PUSH2 0xC94 PUSH8 0x6472387464033239 PUSH1 0xC0 SHL PUSH2 0x21CD JUMP JUMPDEST PUSH1 0x0 DUP1 SLOAD SWAP1 PUSH2 0x100 EXP SWAP1 DIV PUSH20 0xFFFFFFFFFFFFFFFFFFFFFFFFFFFFFFFFFFFFFFFF AND PUSH20 0xFFFFFFFFFFFFFFFFFFFFFFFFFFFFFFFFFFFFFFFF AND PUSH4 0x23B872DD CALLER PUSH1 0x3 PUSH1 0x0 DUP9 DUP2 MSTORE PUSH1 0x20 ADD SWAP1 DUP2 MSTORE PUSH1 0x20 ADD PUSH1 0x0 KECCAK256 PUSH1 0x7 ADD PUSH1 0x0 SWAP1 SLOAD SWAP1 PUSH2 0x100 EXP SWAP1 DIV PUSH20 0xFFFFFFFFFFFFFFFFFFFFFFFFFFFFFFFFFFFFFFFF AND DUP5 PUSH1 0x40 MLOAD DUP5 PUSH4 0xFFFFFFFF AND PUSH1 0xE0 SHL DUP2 MSTORE PUSH1 0x4 ADD PUSH2 0xD27 SWAP4 SWAP3 SWAP2 SWAP1 PUSH2 0x32DC JUMP JUMPDEST PUSH1 0x20 PUSH1 0x40 MLOAD DUP1 DUP4 SUB DUP2 PUSH1 0x0 DUP8 GAS CALL ISZERO DUP1 ISZERO PUSH2 0xD46 JUMPI RETURNDATASIZE PUSH1 0x0 DUP1 RETURNDATACOPY RETURNDATASIZE PUSH1 0x0 REVERT JUMPDEST POP POP POP POP PUSH1 0x40 MLOAD RETURNDATASIZE PUSH1 0x1F NOT PUSH1 0x1F DUP3 ADD AND DUP3 ADD DUP1 PUSH1 0x40 MSTORE POP DUP2 ADD SWAP1 PUSH2 0xD6A SWAP2 SWAP1 PUSH2 0x333F JUMP JUMPDEST PUSH2 0xDA9 JUMPI PUSH1 0x40 MLOAD PUSH32 0x8C379A000000000000000000000000000000000000000000000000000000000 DUP2 MSTORE PUSH1 0x4 ADD PUSH2 0xDA0 SWAP1 PUSH2 0x33B8 JUMP JUMPDEST PUSH1 0x40 MLOAD DUP1 SWAP2 SUB SWAP1 REVERT JUMPDEST PUSH2 0xDBD PUSH8 0x98FE73A0EC21F355 PUSH1 0xC0 SHL PUSH2 0x21CD JUMP JUMPDEST PUSH2 0xDD1 PUSH8 0x99BDA05FBBB74BB4 PUSH1 0xC0 SHL PUSH2 0x21CD JUMP JUMPDEST DUP3 PUSH1 0x3 PUSH1 0x0 DUP7 DUP2 MSTORE PUSH1 0x20 ADD SWAP1 DUP2 MSTORE PUSH1 0x20 ADD PUSH1 0x0 KECCAK256 PUSH1 0x3 ADD PUSH1 0x0 DUP3 DUP3 SLOAD PUSH2 0xDF7 SWAP2 SWAP1 PUSH2 0x3407 JUMP JUMPDEST SWAP3 POP POP DUP2 SWAP1 SSTORE POP PUSH2 0xE12 PUSH8 0x81AB24170ADA414A PUSH1 0xC0 SHL PUSH2 0x21CD JUMP JUMPDEST DUP3 PUSH1 0x3 PUSH1 0x0 DUP7 DUP2 MSTORE PUSH1 0x20 ADD SWAP1 DUP2 MSTORE PUSH1 0x20 ADD PUSH1 0x0 KECCAK256 PUSH1 0x4 ADD PUSH1 0x0 DUP3 DUP3 SLOAD PUSH2 0xE38 SWAP2 SWAP1 PUSH2 0x343B JUMP JUMPDEST SWAP3 POP POP DUP2 SWAP1 SSTORE POP PUSH2 0xE53 PUSH8 0xB18EE6EB18D7CAC7 PUSH1 0xC0 SHL PUSH2 0x21CD JUMP JUMPDEST PUSH2 0xE67 PUSH8 0xB7539CD177AF59EE PUSH1 0xC0 SHL PUSH2 0x21CD JUMP JUMPDEST PUSH1 0x1 PUSH1 0x0 SWAP1 SLOAD SWAP1 PUSH2 0x100 EXP SWAP1 DIV PUSH20 0xFFFFFFFFFFFFFFFFFFFFFFFFFFFFFFFFFFFFFFFF AND PUSH20 0xFFFFFFFFFFFFFFFFFFFFFFFFFFFFFFFFFFFFFFFF AND PUSH4 0x61F2D09F PUSH1 0x3 PUSH1 0x0 DUP8 DUP2 MSTORE PUSH1 0x20 ADD SWAP1 DUP2 MSTORE PUSH1 0x20 ADD PUSH1 0x0 KECCAK256 PUSH1 0x1 ADD SLOAD DUP6 PUSH1 0x40 MLOAD DUP4 PUSH4 0xFFFFFFFF AND PUSH1 0xE0 SHL DUP2 MSTORE PUSH1 0x4 ADD PUSH2 0xEDA SWAP3 SWAP2 SWAP1 PUSH2 0x346F JUMP JUMPDEST PUSH1 0x0 PUSH1 0x40 MLOAD DUP1 DUP4 SUB DUP2 PUSH1 0x0 DUP8 DUP1 EXTCODESIZE ISZERO DUP1 ISZERO PUSH2 0xEF4 JUMPI PUSH1 0x0 DUP1 REVERT JUMPDEST POP GAS CALL ISZERO DUP1 ISZERO PUSH2 0xF08 JUMPI RETURNDATASIZE PUSH1 0x0 DUP1 RETURNDATACOPY RETURNDATASIZE PUSH1 0x0 REVERT JUMPDEST POP POP POP POP PUSH2 0xF20 PUSH8 0x71384E73DFB65C95 PUSH1 0xC0 SHL PUSH2 0x21CD JUMP JUMPDEST TIMESTAMP PUSH1 0x3 PUSH1 0x0 DUP7 DUP2 MSTORE PUSH1 0x20 ADD SWAP1 DUP2 MSTORE PUSH1 0x20 ADD PUSH1 0x0 KECCAK256 PUSH1 0x9 ADD DUP2 SWAP1 SSTORE POP PUSH2 0xF4F PUSH8 0xF28B9243FABF0992 PUSH1 0xC0 SHL PUSH2 0x21CD JUMP JUMPDEST PUSH2 0xF63 PUSH8 0x80662F9FCEA0442F PUSH1 0xC0 SHL PUSH2 0x21CD JUMP JUMPDEST PUSH1 0x0 PUSH1 0x3 PUSH1 0x0 DUP7 DUP2 MSTORE PUSH1 0x20 ADD SWAP1 DUP2 MSTORE PUSH1 0x20 ADD PUSH1 0x0 KECCAK256 PUSH1 0x3 ADD SLOAD SUB PUSH2 0x1040 JUMPI PUSH2 0xF95 PUSH8 0x64732ED4A59AD890 PUSH1 0xC0 SHL PUSH2 0x21CD JUMP JUMPDEST PUSH2 0xFA9 PUSH8 0xB43CAF31EA54F710 PUSH1 0xC0 SHL PUSH2 0x21CD JUMP JUMPDEST PUSH1 0x6 PUSH1 0x0 PUSH1 0x3 PUSH1 0x0 DUP8 DUP2 MSTORE PUSH1 0x20 ADD SWAP1 DUP2 MSTORE PUSH1 0x20 ADD PUSH1 0x0 KECCAK256 PUSH1 0x1 ADD SLOAD DUP2 MSTORE PUSH1 0x20 ADD SWAP1 DUP2 MSTORE PUSH1 0x20 ADD PUSH1 0x0 KECCAK256 PUSH1 0x0 DUP2 SLOAD DUP1 SWAP3 SWAP2 SWAP1 PUSH2 0xFE3 SWAP1 PUSH2 0x3498 JUMP JUMPDEST SWAP2 SWAP1 POP SSTORE POP PUSH2 0xFFC PUSH8 0x687F4C266E818ABE PUSH1 0xC0 SHL PUSH2 0x21CD JUMP JUMPDEST PUSH1 0x2 PUSH1 0x3 PUSH1 0x0 DUP7 DUP2 MSTORE PUSH1 0x20 ADD SWAP1 DUP2 MSTORE PUSH1 0x20 ADD PUSH1 0x0 KECCAK256 PUSH1 0xB ADD PUSH1 0x0 PUSH2 0x100 EXP DUP2 SLOAD DUP2 PUSH1 0xFF MUL NOT AND SWAP1 DUP4 PUSH1 0x4 DUP2 GT ISZERO PUSH2 0x1036 JUMPI PUSH2 0x1035 PUSH2 0x2CEF JUMP JUMPDEST JUMPDEST MUL OR SWAP1 SSTORE POP PUSH2 0x10A8 JUMP JUMPDEST PUSH2 0x1054 PUSH8 0xE0976C0C976EE594 PUSH1 0xC0 SHL PUSH2 0x21CD JUMP JUMPDEST PUSH2 0x1068 PUSH8 0xC864755E870501C2 PUSH1 0xC0 SHL PUSH2 0x21CD JUMP JUMPDEST PUSH1 0x1 PUSH1 0x3 PUSH1 0x0 DUP7 DUP2 MSTORE PUSH1 0x20 ADD SWAP1 DUP2 MSTORE PUSH1 0x20 ADD PUSH1 0x0 KECCAK256 PUSH1 0xB ADD PUSH1 0x0 PUSH2 0x100 EXP DUP2 SLOAD DUP2 PUSH1 0xFF MUL NOT AND SWAP1 DUP4 PUSH1 0x4 DUP2 GT ISZERO PUSH2 0x10A2 JUMPI PUSH2 0x10A1 PUSH2 0x2CEF JUMP JUMPDEST JUMPDEST MUL OR SWAP1 SSTORE POP JUMPDEST PUSH2 0x10BC PUSH8 0xCC3FC017276D4D22 PUSH1 0xC0 SHL PUSH2 0x21CD JUMP JUMPDEST PUSH2 0x10D0 PUSH8 0x40053E930D2CD212 PUSH1 0xC0 SHL PUSH2 0x21CD JUMP JUMPDEST DUP4 PUSH32 0x2E74881A6C74723C41779BC20D0AA57148F87D6CD03977E71379655E32E27116 PUSH1 0x3 PUSH1 0x0 DUP8 DUP2 MSTORE PUSH1 0x20 ADD SWAP1 DUP2 MSTORE PUSH1 0x20 ADD PUSH1 0x0 KECCAK256 PUSH1 0xB ADD PUSH1 0x0 SWAP1 SLOAD SWAP1 PUSH2 0x100 EXP SWAP1 DIV PUSH1 0xFF AND PUSH1 0x40 MLOAD PUSH2 0x1123 SWAP2 SWAP1 PUSH2 0x34C1 JUMP JUMPDEST PUSH1 0x40 MLOAD DUP1 SWAP2 SUB SWAP1 LOG2 PUSH2 0x113F PUSH8 0x207DFE63B4086925 PUSH1 0xC0 SHL PUSH2 0x21CD JUMP JUMPDEST PUSH2 0x1153 PUSH8 0x21DD26C1F12C972B PUSH1 0xC0 SHL PUSH2 0x21CD JUMP JUMPDEST CALLER PUSH20 0xFFFFFFFFFFFFFFFFFFFFFFFFFFFFFFFFFFFFFFFF AND DUP5 PUSH32 0x76E4B739EB0C5C67926A4C7392010F3EFE3BCF51D1C06B947264BB78B785630F DUP6 DUP5 PUSH1 0x40 MLOAD PUSH2 0x119C SWAP3 SWAP2 SWAP1 PUSH2 0x346F JUMP JUMPDEST PUSH1 0x40 MLOAD DUP1 SWAP2 SUB SWAP1 LOG3 POP POP POP POP JUMP JUMPDEST PUSH2 0x11BE PUSH8 0x9A5A3CD819FF91D2 PUSH1 0xC0 SHL PUSH2 0x21CD JUMP JUMPDEST PUSH2 0x11D2 PUSH8 0x65D0A4DC2A4BE24D PUSH1 0xC0 SHL PUSH2 0x21CD JUMP JUMPDEST PUSH2 0x11E6 PUSH8 0x381FC89CBDCFC1EC PUSH1 0xC0 SHL PUSH2 0x21CD JUMP JUMPDEST PUSH2 0x11FA PUSH8 0xAA1B58280433F5B2 PUSH1 0xC0 SHL PUSH2 0x21CD JUMP JUMPDEST PUSH1 0x0 DUP3 GT PUSH2 0x123D JUMPI PUSH1 0x40 MLOAD PUSH32 0x8C379A000000000000000000000000000000000000000000000000000000000 DUP2 MSTORE PUSH1 0x4 ADD PUSH2 0x1234 SWAP1 PUSH2 0x354E JUMP JUMPDEST PUSH1 0x40 MLOAD DUP1 SWAP2 SUB SWAP1 REVERT JUMPDEST PUSH2 0x1251 PUSH8 0xF140259CFD6FD276 PUSH1 0xC0 SHL PUSH2 0x21CD JUMP JUMPDEST PUSH2 0x1265 PUSH8 0xAE3AC2BFA1BA68AF PUSH1 0xC0 SHL PUSH2 0x21CD JUMP JUMPDEST PUSH2 0x1279 PUSH8 0xAB831FE51CCB934F PUSH1 0xC0 SHL PUSH2 0x21CD JUMP JUMPDEST PUSH2 0x128D PUSH8 0x15712CB429DC6D87 PUSH1 0xC0 SHL PUSH2 0x21CD JUMP JUMPDEST PUSH1 0x0 DUP2 GT PUSH2 0x12D0 JUMPI PUSH1 0x40 MLOAD PUSH32 0x8C379A000000000000000000000000000000000000000000000000000000000 DUP2 MSTORE PUSH1 0x4 ADD PUSH2 0x12C7 SWAP1 PUSH2 0x35E0 JUMP JUMPDEST PUSH1 0x40 MLOAD DUP1 SWAP2 SUB SWAP1 REVERT JUMPDEST PUSH2 0x12E4 PUSH8 0x1AE588BFF79076DC PUSH1 0xC0 SHL PUSH2 0x21CD JUMP JUMPDEST PUSH2 0x12F8 PUSH8 0x322AB45FD5CCB9A6 PUSH1 0xC0 SHL PUSH2 0x21CD JUMP JUMPDEST PUSH2 0x130C PUSH8 0x450C73E5F74F7D6E PUSH1 0xC0 SHL PUSH2 0x21CD JUMP JUMPDEST PUSH2 0x1320 PUSH8 0x21268975B5E199E1 PUSH1 0xC0 SHL PUSH2 0x21CD JUMP JUMPDEST CALLER PUSH20 0xFFFFFFFFFFFFFFFFFFFFFFFFFFFFFFFFFFFFFFFF AND PUSH1 0x1 PUSH1 0x0 SWAP1 SLOAD SWAP1 PUSH2 0x100 EXP SWAP1 DIV PUSH20 0xFFFFFFFFFFFFFFFFFFFFFFFFFFFFFFFFFFFFFFFF AND PUSH20 0xFFFFFFFFFFFFFFFFFFFFFFFFFFFFFFFFFFFFFFFF AND PUSH4 0xC41A360A DUP6 PUSH1 0x40 MLOAD DUP3 PUSH4 0xFFFFFFFF AND PUSH1 0xE0 SHL DUP2 MSTORE PUSH1 0x4 ADD PUSH2 0x1392 SWAP2 SWAP1 PUSH2 0x2B0E JUMP JUMPDEST PUSH1 0x20 PUSH1 0x40 MLOAD DUP1 DUP4 SUB DUP2 DUP7 GAS STATICCALL ISZERO DUP1 ISZERO PUSH2 0x13AF JUMPI RETURNDATASIZE PUSH1 0x0 DUP1 RETURNDATACOPY RETURNDATASIZE PUSH1 0x0 REVERT JUMPDEST POP POP POP POP PUSH1 0x40 MLOAD RETURNDATASIZE PUSH1 0x1F NOT PUSH1 0x1F DUP3 ADD AND DUP3 ADD DUP1 PUSH1 0x40 MSTORE POP DUP2 ADD SWAP1 PUSH2 0x13D3 SWAP2 SWAP1 PUSH2 0x3615 JUMP JUMPDEST PUSH20 0xFFFFFFFFFFFFFFFFFFFFFFFFFFFFFFFFFFFFFFFF AND EQ PUSH2 0x1429 JUMPI PUSH1 0x40 MLOAD PUSH32 0x8C379A000000000000000000000000000000000000000000000000000000000 DUP2 MSTORE PUSH1 0x4 ADD PUSH2 0x1420 SWAP1 PUSH2 0x368E JUMP JUMPDEST PUSH1 0x40 MLOAD DUP1 SWAP2 SUB SWAP1 REVERT JUMPDEST PUSH2 0x143D PUSH8 0xD075920A16DD5A0C PUSH1 0xC0 SHL PUSH2 0x21CD JUMP JUMPDEST PUSH2 0x1451 PUSH8 0xC0B7FF08EE9548DD PUSH1 0xC0 SHL PUSH2 0x21CD JUMP JUMPDEST PUSH2 0x1465 PUSH8 0x3228E484006DB2D8 PUSH1 0xC0 SHL PUSH2 0x21CD JUMP JUMPDEST PUSH2 0x1479 PUSH8 0x82B06DD331AE5B0B PUSH1 0xC0 SHL PUSH2 0x21CD JUMP JUMPDEST PUSH1 0x1 PUSH1 0x0 SWAP1 SLOAD SWAP1 PUSH2 0x100 EXP SWAP1 DIV PUSH20 0xFFFFFFFFFFFFFFFFFFFFFFFFFFFFFFFFFFFFFFFF AND PUSH20 0xFFFFFFFFFFFFFFFFFFFFFFFFFFFFFFFFFFFFFFFF AND PUSH4 0x1C334A7E DUP5 PUSH1 0x40 MLOAD DUP3 PUSH4 0xFFFFFFFF AND PUSH1 0xE0 SHL DUP2 MSTORE PUSH1 0x4 ADD PUSH2 0x14D4 SWAP2 SWAP1 PUSH2 0x2B0E JUMP JUMPDEST PUSH1 0x20 PUSH1 0x40 MLOAD DUP1 DUP4 SUB DUP2 DUP7 GAS STATICCALL ISZERO DUP1 ISZERO PUSH2 0x14F1 JUMPI RETURNDATASIZE PUSH1 0x0 DUP1 RETURNDATACOPY RETURNDATASIZE PUSH1 0x0 REVERT JUMPDEST POP POP POP POP PUSH1 0x40 MLOAD RETURNDATASIZE PUSH1 0x1F NOT PUSH1 0x1F DUP3 ADD AND DUP3 ADD DUP1 PUSH1 0x40 MSTORE POP DUP2 ADD SWAP1 PUSH2 0x1515 SWAP2 SWAP1 PUSH2 0x333F JUMP JUMPDEST PUSH2 0x1554 JUMPI PUSH1 0x40 MLOAD PUSH32 0x8C379A000000000000000000000000000000000000000000000000000000000 DUP2 MSTORE PUSH1 0x4 ADD PUSH2 0x154B SWAP1 PUSH2 0x36FA JUMP JUMPDEST PUSH1 0x40 MLOAD DUP1 SWAP2 SUB SWAP1 REVERT JUMPDEST PUSH2 0x1568 PUSH8 0x136EED40C6C922B6 PUSH1 0xC0 SHL PUSH2 0x21CD JUMP JUMPDEST PUSH2 0x157C PUSH8 0xE6A946E21F1C6268 PUSH1 0xC0 SHL PUSH2 0x21CD JUMP JUMPDEST PUSH2 0x1590 PUSH8 0x7393920FFCF402DE PUSH1 0xC0 SHL PUSH2 0x21CD JUMP JUMPDEST PUSH2 0x15A4 PUSH8 0x40814C2F572D494 PUSH1 0xC0 SHL PUSH2 0x21CD JUMP JUMPDEST DUP2 PUSH1 0x1 PUSH1 0x0 SWAP1 SLOAD SWAP1 PUSH2 0x100 EXP SWAP1 DIV PUSH20 0xFFFFFFFFFFFFFFFFFFFFFFFFFFFFFFFFFFFFFFFF AND PUSH20 0xFFFFFFFFFFFFFFFFFFFFFFFFFFFFFFFFFFFFFFFF AND PUSH4 0x47846FD9 DUP6 PUSH1 0x40 MLOAD DUP3 PUSH4 0xFFFFFFFF AND PUSH1 0xE0 SHL DUP2 MSTORE PUSH1 0x4 ADD PUSH2 0x1600 SWAP2 SWAP1 PUSH2 0x2B0E JUMP JUMPDEST PUSH1 0x20 PUSH1 0x40 MLOAD DUP1 DUP4 SUB DUP2 DUP7 GAS STATICCALL ISZERO DUP1 ISZERO PUSH2 0x161D JUMPI RETURNDATASIZE PUSH1 0x0 DUP1 RETURNDATACOPY RETURNDATASIZE PUSH1 0x0 REVERT JUMPDEST POP POP POP POP PUSH1 0x40 MLOAD RETURNDATASIZE PUSH1 0x1F NOT PUSH1 0x1F DUP3 ADD AND DUP3 ADD DUP1 PUSH1 0x40 MSTORE POP DUP2 ADD SWAP1 PUSH2 0x1641 SWAP2 SWAP1 PUSH2 0x3188 JUMP JUMPDEST LT ISZERO PUSH2 0x1682 JUMPI PUSH1 0x40 MLOAD PUSH32 0x8C379A000000000000000000000000000000000000000000000000000000000 DUP2 MSTORE PUSH1 0x4 ADD PUSH2 0x1679 SWAP1 PUSH2 0x378C JUMP JUMPDEST PUSH1 0x40 MLOAD DUP1 SWAP2 SUB SWAP1 REVERT JUMPDEST PUSH2 0x1696 PUSH8 0xDFE22F0D4A672AF PUSH1 0xC0 SHL PUSH2 0x21CD JUMP JUMPDEST PUSH2 0x16AA PUSH8 0x5971D819843F1037 PUSH1 0xC0 SHL PUSH2 0x21CD JUMP JUMPDEST PUSH2 0x16BE PUSH8 0xC8B42D1B51224AF5 PUSH1 0xC0 SHL PUSH2 0x21CD JUMP JUMPDEST PUSH1 0x0 PUSH1 0x2 PUSH1 0x0 DUP2 SLOAD DUP1 SWAP3 SWAP2 SWAP1 PUSH2 0x16D3 SWAP1 PUSH2 0x37AC JUMP JUMPDEST SWAP2 SWAP1 POP SSTORE SWAP1 POP PUSH2 0x16ED PUSH8 0xF606CC2C75ED219A PUSH1 0xC0 SHL PUSH2 0x21CD JUMP JUMPDEST PUSH2 0x1701 PUSH8 0xDE4FE4C40C17229A PUSH1 0xC0 SHL PUSH2 0x21CD JUMP JUMPDEST PUSH1 0x0 DUP1 PUSH1 0x0 DUP1 PUSH1 0x0 PUSH1 0x1 PUSH1 0x0 SWAP1 SLOAD SWAP1 PUSH2 0x100 EXP SWAP1 DIV PUSH20 0xFFFFFFFFFFFFFFFFFFFFFFFFFFFFFFFFFFFFFFFF AND PUSH20 0xFFFFFFFFFFFFFFFFFFFFFFFFFFFFFFFFFFFFFFFF AND PUSH4 0x4FA4C02D DUP11 PUSH1 0x40 MLOAD DUP3 PUSH4 0xFFFFFFFF AND PUSH1 0xE0 SHL DUP2 MSTORE PUSH1 0x4 ADD PUSH2 0x1764 SWAP2 SWAP1 PUSH2 0x2B0E JUMP JUMPDEST PUSH1 0xA0 PUSH1 0x40 MLOAD DUP1 DUP4 SUB DUP2 DUP7 GAS STATICCALL ISZERO DUP1 ISZERO PUSH2 0x1781 JUMPI RETURNDATASIZE PUSH1 0x0 DUP1 RETURNDATACOPY RETURNDATASIZE PUSH1 0x0 REVERT JUMPDEST POP POP POP POP PUSH1 0x40 MLOAD RETURNDATASIZE PUSH1 0x1F NOT PUSH1 0x1F DUP3 ADD AND DUP3 ADD DUP1 PUSH1 0x40 MSTORE POP DUP2 ADD SWAP1 PUSH2 0x17A5 SWAP2 SWAP1 PUSH2 0x37F4 JUMP JUMPDEST SWAP5 POP SWAP5 POP SWAP5 POP SWAP5 POP SWAP5 POP PUSH2 0x17C3 PUSH8 0x68AEB3C095C7F35E PUSH1 0xC0 SHL PUSH2 0x21CD JUMP JUMPDEST PUSH2 0x17D7 PUSH8 0x2F236EA09587A4C3 PUSH1 0xC0 SHL PUSH2 0x21CD JUMP JUMPDEST PUSH1 0x0 PUSH2 0x17E6 DUP7 DUP7 DUP7 DUP7 DUP7 PUSH2 0x262C JUMP JUMPDEST SWAP1 POP PUSH2 0x17FC PUSH8 0x6BC9C6AEED4FBD5 PUSH1 0xC0 SHL PUSH2 0x21CD JUMP JUMPDEST PUSH2 0x1810 PUSH8 0xA4CACEB9D00FFD07 PUSH1 0xC0 SHL PUSH2 0x21CD JUMP JUMPDEST PUSH1 0x0 PUSH1 0x64 PUSH1 0x50 DUP4 PUSH2 0x1821 SWAP2 SWAP1 PUSH2 0x386F JUMP JUMPDEST PUSH2 0x182B SWAP2 SWAP1 PUSH2 0x38E0 JUMP JUMPDEST SWAP1 POP PUSH2 0x1841 PUSH8 0x5C185691A91EB3D PUSH1 0xC0 SHL PUSH2 0x21CD JUMP JUMPDEST PUSH2 0x1855 PUSH8 0x37D1C8FA3FC4F0C3 PUSH1 0xC0 SHL PUSH2 0x21CD JUMP JUMPDEST PUSH1 0x0 PUSH1 0x64 PUSH1 0x78 DUP5 PUSH2 0x1866 SWAP2 SWAP1 PUSH2 0x386F JUMP JUMPDEST PUSH2 0x1870 SWAP2 SWAP1 PUSH2 0x38E0 JUMP JUMPDEST SWAP1 POP PUSH2 0x1886 PUSH8 0xF07A10B42961279A PUSH1 0xC0 SHL PUSH2 0x21CD JUMP JUMPDEST PUSH2 0x189A PUSH8 0x5F1B58A78C7CDD14 PUSH1 0xC0 SHL PUSH2 0x21CD JUMP JUMPDEST PUSH2 0x18AE PUSH8 0x494F2CB48E128851 PUSH1 0xC0 SHL PUSH2 0x21CD JUMP JUMPDEST DUP2 DUP11 LT ISZERO DUP1 ISZERO PUSH2 0x18BE JUMPI POP DUP1 DUP11 GT ISZERO JUMPDEST PUSH2 0x18FD JUMPI PUSH1 0x40 MLOAD PUSH32 0x8C379A000000000000000000000000000000000000000000000000000000000 DUP2 MSTORE PUSH1 0x4 ADD PUSH2 0x18F4 SWAP1 PUSH2 0x395D JUMP JUMPDEST PUSH1 0x40 MLOAD DUP1 SWAP2 SUB SWAP1 REVERT JUMPDEST PUSH2 0x1911 PUSH8 0xE38A85170685C8D7 PUSH1 0xC0 SHL PUSH2 0x21CD JUMP JUMPDEST PUSH2 0x1925 PUSH8 0x6ABF395CD92F54FC PUSH1 0xC0 SHL PUSH2 0x21CD JUMP JUMPDEST PUSH2 0x1939 PUSH8 0x5AF89DF8FCA5CD41 PUSH1 0xC0 SHL PUSH2 0x21CD JUMP JUMPDEST PUSH1 0x1 PUSH1 0x0 SWAP1 SLOAD SWAP1 PUSH2 0x100 EXP SWAP1 DIV PUSH20 0xFFFFFFFFFFFFFFFFFFFFFFFFFFFFFFFFFFFFFFFF AND PUSH20 0xFFFFFFFFFFFFFFFFFFFFFFFFFFFFFFFFFFFFFFFF AND PUSH4 0xD3E0BADA DUP14 DUP14 PUSH1 0x40 MLOAD DUP4 PUSH4 0xFFFFFFFF AND PUSH1 0xE0 SHL DUP2 MSTORE PUSH1 0x4 ADD PUSH2 0x1996 SWAP3 SWAP2 SWAP1 PUSH2 0x346F JUMP JUMPDEST PUSH1 0x0 PUSH1 0x40 MLOAD DUP1 DUP4 SUB DUP2 PUSH1 0x0 DUP8 DUP1 EXTCODESIZE ISZERO DUP1 ISZERO PUSH2 0x19B0 JUMPI PUSH1 0x0 DUP1 REVERT JUMPDEST POP GAS CALL ISZERO DUP1 ISZERO PUSH2 0x19C4 JUMPI RETURNDATASIZE PUSH1 0x0 DUP1 RETURNDATACOPY RETURNDATASIZE PUSH1 0x0 REVERT JUMPDEST POP POP POP POP PUSH2 0x19DC PUSH8 0x3A72C80C04B23A6 PUSH1 0xC0 SHL PUSH2 0x21CD JUMP JUMPDEST PUSH1 0x40 MLOAD DUP1 PUSH2 0x180 ADD PUSH1 0x40 MSTORE DUP1 DUP11 DUP2 MSTORE PUSH1 0x20 ADD DUP14 DUP2 MSTORE PUSH1 0x20 ADD DUP13 DUP2 MSTORE PUSH1 0x20 ADD DUP13 DUP2 MSTORE PUSH1 0x20 ADD PUSH1 0x0 DUP2 MSTORE PUSH1 0x20 ADD DUP5 DUP2 MSTORE PUSH1 0x20 ADD DUP12 DUP2 MSTORE PUSH1 0x20 ADD CALLER PUSH20 0xFFFFFFFFFFFFFFFFFFFFFFFFFFFFFFFFFFFFFFFF AND DUP2 MSTORE PUSH1 0x20 ADD TIMESTAMP DUP2 MSTORE PUSH1 0x20 ADD TIMESTAMP DUP2 MSTORE PUSH1 0x20 ADD PUSH3 0x15180 TIMESTAMP PUSH2 0x1A4A SWAP2 SWAP1 PUSH2 0x343B JUMP JUMPDEST DUP2 MSTORE PUSH1 0x20 ADD PUSH1 0x0 PUSH1 0x4 DUP2 GT ISZERO PUSH2 0x1A63 JUMPI PUSH2 0x1A62 PUSH2 0x2CEF JUMP JUMPDEST JUMPDEST DUP2 MSTORE POP PUSH1 0x3 PUSH1 0x0 DUP12 DUP2 MSTORE PUSH1 0x20 ADD SWAP1 DUP2 MSTORE PUSH1 0x20 ADD PUSH1 0x0 KECCAK256 PUSH1 0x0 DUP3 ADD MLOAD DUP2 PUSH1 0x0 ADD SSTORE PUSH1 0x20 DUP3 ADD MLOAD DUP2 PUSH1 0x1 ADD SSTORE PUSH1 0x40 DUP3 ADD MLOAD DUP2 PUSH1 0x2 ADD SSTORE PUSH1 0x60 DUP3 ADD MLOAD DUP2 PUSH1 0x3 ADD SSTORE PUSH1 0x80 DUP3 ADD MLOAD DUP2 PUSH1 0x4 ADD SSTORE PUSH1 0xA0 DUP3 ADD MLOAD DUP2 PUSH1 0x5 ADD SSTORE PUSH1 0xC0 DUP3 ADD MLOAD DUP2 PUSH1 0x6 ADD SSTORE PUSH1 0xE0 DUP3 ADD MLOAD DUP2 PUSH1 0x7 ADD PUSH1 0x0 PUSH2 0x100 EXP DUP2 SLOAD DUP2 PUSH20 0xFFFFFFFFFFFFFFFFFFFFFFFFFFFFFFFFFFFFFFFF MUL NOT AND SWAP1 DUP4 PUSH20 0xFFFFFFFFFFFFFFFFFFFFFFFFFFFFFFFFFFFFFFFF AND MUL OR SWAP1 SSTORE POP PUSH2 0x100 DUP3 ADD MLOAD DUP2 PUSH1 0x8 ADD SSTORE PUSH2 0x120 DUP3 ADD MLOAD DUP2 PUSH1 0x9 ADD SSTORE PUSH2 0x140 DUP3 ADD MLOAD DUP2 PUSH1 0xA ADD SSTORE PUSH2 0x160 DUP3 ADD MLOAD DUP2 PUSH1 0xB ADD PUSH1 0x0 PUSH2 0x100 EXP DUP2 SLOAD DUP2 PUSH1 0xFF MUL NOT AND SWAP1 DUP4 PUSH1 0x4 DUP2 GT ISZERO PUSH2 0x1B53 JUMPI PUSH2 0x1B52 PUSH2 0x2CEF JUMP JUMPDEST JUMPDEST MUL OR SWAP1 SSTORE POP SWAP1 POP POP PUSH2 0x1B6F PUSH8 0x413A961D55EED4C5 PUSH1 0xC0 SHL PUSH2 0x21CD JUMP JUMPDEST PUSH2 0x1B83 PUSH8 0x75040D2A85B2B46C PUSH1 0xC0 SHL PUSH2 0x21CD JUMP JUMPDEST PUSH1 0x4 PUSH1 0x0 DUP14 DUP2 MSTORE PUSH1 0x20 ADD SWAP1 DUP2 MSTORE PUSH1 0x20 ADD PUSH1 0x0 KECCAK256 DUP10 SWAP1 DUP1 PUSH1 0x1 DUP2 SLOAD ADD DUP1 DUP3 SSTORE DUP1 SWAP2 POP POP PUSH1 0x1 SWAP1 SUB SWAP1 PUSH1 0x0 MSTORE PUSH1 0x20 PUSH1 0x0 KECCAK256 ADD PUSH1 0x0 SWAP1 SWAP2 SWAP1 SWAP2 SWAP1 SWAP2 POP SSTORE PUSH2 0x1BD1 PUSH8 0xBED133FBDCA3299C PUSH1 0xC0 SHL PUSH2 0x21CD JUMP JUMPDEST PUSH2 0x1BE5 PUSH8 0xCF7B454E90078807 PUSH1 0xC0 SHL PUSH2 0x21CD JUMP JUMPDEST PUSH1 0x5 PUSH1 0x0 CALLER PUSH20 0xFFFFFFFFFFFFFFFFFFFFFFFFFFFFFFFFFFFFFFFF AND PUSH20 0xFFFFFFFFFFFFFFFFFFFFFFFFFFFFFFFFFFFFFFFF AND DUP2 MSTORE PUSH1 0x20 ADD SWAP1 DUP2 MSTORE PUSH1 0x20 ADD PUSH1 0x0 KECCAK256 DUP10 SWAP1 DUP1 PUSH1 0x1 DUP2 SLOAD ADD DUP1 DUP3 SSTORE DUP1 SWAP2 POP POP PUSH1 0x1 SWAP1 SUB SWAP1 PUSH1 0x0 MSTORE PUSH1 0x20 PUSH1 0x0 KECCAK256 ADD PUSH1 0x0 SWAP1 SWAP2 SWAP1 SWAP2 SWAP1 SWAP2 POP SSTORE PUSH2 0x1C5F PUSH8 0xCDD6BF7276CB72C5 PUSH1 0xC0 SHL PUSH2 0x21CD JUMP JUMPDEST PUSH1 0x6 PUSH1 0x0 DUP14 DUP2 MSTORE PUSH1 0x20 ADD SWAP1 DUP2 MSTORE PUSH1 0x20 ADD PUSH1 0x0 KECCAK256 PUSH1 0x0 DUP2 SLOAD DUP1 SWAP3 SWAP2 SWAP1 PUSH2 0x1C83 SWAP1 PUSH2 0x37AC JUMP JUMPDEST SWAP2 SWAP1 POP SSTORE POP PUSH2 0x1C9C PUSH8 0xA4621493689ACFD0 PUSH1 0xC0 SHL PUSH2 0x21CD JUMP JUMPDEST PUSH2 0x1CB0 PUSH8 0x951830A3CB6AEE0F PUSH1 0xC0 SHL PUSH2 0x21CD JUMP JUMPDEST CALLER PUSH20 0xFFFFFFFFFFFFFFFFFFFFFFFFFFFFFFFFFFFFFFFF AND DUP13 DUP11 PUSH32 0x55B8D19E468503ECC8F7D6A2611F03F249440D3D2401FF1FF15A474EE7CBEE74 DUP15 DUP8 DUP16 PUSH1 0x40 MLOAD PUSH2 0x1CFC SWAP4 SWAP3 SWAP2 SWAP1 PUSH2 0x397D JUMP JUMPDEST PUSH1 0x40 MLOAD DUP1 SWAP2 SUB SWAP1 LOG4 POP POP POP POP POP POP POP POP POP POP POP POP JUMP JUMPDEST PUSH2 0x1D26 PUSH8 0x19DDCEF6DF168915 PUSH1 0xC0 SHL PUSH2 0x21CD JUMP JUMPDEST DUP1 PUSH2 0x1D3B PUSH8 0xBA7BFDEF7777848B PUSH1 0xC0 SHL PUSH2 0x21CD JUMP JUMPDEST PUSH2 0x1D4F PUSH8 0x706B05460C3DCC13 PUSH1 0xC0 SHL PUSH2 0x21CD JUMP JUMPDEST PUSH2 0x1D63 PUSH8 0x4F8FFCED21F86A5D PUSH1 0xC0 SHL PUSH2 0x21CD JUMP JUMPDEST PUSH2 0x1D77 PUSH8 0x81D3162C59E32251 PUSH1 0xC0 SHL PUSH2 0x21CD JUMP JUMPDEST PUSH1 0x2 SLOAD DUP2 LT PUSH2 0x1DBB JUMPI PUSH1 0x40 MLOAD PUSH32 0x8C379A000000000000000000000000000000000000000000000000000000000 DUP2 MSTORE PUSH1 0x4 ADD PUSH2 0x1DB2 SWAP1 PUSH2 0x2ED0 JUMP JUMPDEST PUSH1 0x40 MLOAD DUP1 SWAP2 SUB SWAP1 REVERT JUMPDEST PUSH2 0x1DCF PUSH8 0x1C657E9C1529471A PUSH1 0xC0 SHL PUSH2 0x21CD JUMP JUMPDEST PUSH2 0x1DE3 PUSH8 0x739D41A13419280E PUSH1 0xC0 SHL PUSH2 0x21CD JUMP JUMPDEST PUSH2 0x1DF7 PUSH8 0xFB27F8DC2122A96B PUSH1 0xC0 SHL PUSH2 0x21CD JUMP JUMPDEST PUSH2 0x1E0B PUSH8 0x481FBA86F961BA11 PUSH1 0xC0 SHL PUSH2 0x21CD JUMP JUMPDEST DUP2 PUSH2 0x1E20 PUSH8 0x56DDD2C459E53F99 PUSH1 0xC0 SHL PUSH2 0x21CD JUMP JUMPDEST PUSH2 0x1E34 PUSH8 0xB8DFEC048A3DC02C PUSH1 0xC0 SHL PUSH2 0x21CD JUMP JUMPDEST PUSH2 0x1E48 PUSH8 0x8C7B861A27731750 PUSH1 0xC0 SHL PUSH2 0x21CD JUMP JUMPDEST PUSH2 0x1E5C PUSH8 0x8D429286B351CE2B PUSH1 0xC0 SHL PUSH2 0x21CD JUMP JUMPDEST CALLER PUSH20 0xFFFFFFFFFFFFFFFFFFFFFFFFFFFFFFFFFFFFFFFF AND PUSH1 0x3 PUSH1 0x0 DUP4 DUP2 MSTORE PUSH1 0x20 ADD SWAP1 DUP2 MSTORE PUSH1 0x20 ADD PUSH1 0x0 KECCAK256 PUSH1 0x7 ADD PUSH1 0x0 SWAP1 SLOAD SWAP1 PUSH2 0x100 EXP SWAP1 DIV PUSH20 0xFFFFFFFFFFFFFFFFFFFFFFFFFFFFFFFFFFFFFFFF AND PUSH20 0xFFFFFFFFFFFFFFFFFFFFFFFFFFFFFFFFFFFFFFFF AND EQ PUSH2 0x1F00 JUMPI PUSH1 0x40 MLOAD PUSH32 0x8C379A000000000000000000000000000000000000000000000000000000000 DUP2 MSTORE PUSH1 0x4 ADD PUSH2 0x1EF7 SWAP1 PUSH2 0x3A00 JUMP JUMPDEST PUSH1 0x40 MLOAD DUP1 SWAP2 SUB SWAP1 REVERT JUMPDEST PUSH2 0x1F14 PUSH8 0x56F4C7CAAF571F5 PUSH1 0xC0 SHL PUSH2 0x21CD JUMP JUMPDEST PUSH2 0x1F28 PUSH8 0xCA11C4F8494E7EEC PUSH1 0xC0 SHL PUSH2 0x21CD JUMP JUMPDEST PUSH2 0x1F3C PUSH8 0xEFE4388BE8A3916E PUSH1 0xC0 SHL PUSH2 0x21CD JUMP JUMPDEST PUSH2 0x1F50 PUSH8 0xC42505019D1CAFD9 PUSH1 0xC0 SHL PUSH2 0x21CD JUMP JUMPDEST PUSH2 0x1F64 PUSH8 0xB8DFB617B505F048 PUSH1 0xC0 SHL PUSH2 0x21CD JUMP JUMPDEST PUSH2 0x1F78 PUSH8 0x8CCFD734D25E4218 PUSH1 0xC0 SHL PUSH2 0x21CD JUMP JUMPDEST PUSH2 0x1F83 DUP4 PUSH1 0x3 PUSH2 0x21DB JUMP JUMPDEST PUSH2 0x1F97 PUSH8 0xAAF47553FC0664CD PUSH1 0xC0 SHL PUSH2 0x21CD JUMP JUMPDEST PUSH2 0x1FAB PUSH8 0x4E3CDBDAC12BFAD7 PUSH1 0xC0 SHL PUSH2 0x21CD JUMP JUMPDEST CALLER PUSH20 0xFFFFFFFFFFFFFFFFFFFFFFFFFFFFFFFFFFFFFFFF AND DUP4 PUSH32 0x1F51377B3E685A0E2419F9BB4BA7C07EC54936353BA3D0FB3C6538DAB6766222 PUSH1 0x40 MLOAD PUSH1 0x40 MLOAD DUP1 SWAP2 SUB SWAP1 LOG3 POP POP POP JUMP JUMPDEST PUSH2 0x2008 PUSH8 0x9BE8BB0B4294BA82 PUSH1 0xC0 SHL PUSH2 0x21CD JUMP JUMPDEST DUP1 PUSH2 0x201D PUSH8 0xBA7BFDEF7777848B PUSH1 0xC0 SHL PUSH2 0x21CD JUMP JUMPDEST PUSH2 0x2031 PUSH8 0x706B05460C3DCC13 PUSH1 0xC0 SHL PUSH2 0x21CD JUMP JUMPDEST PUSH2 0x2045 PUSH8 0x4F8FFCED21F86A5D PUSH1 0xC0 SHL PUSH2 0x21CD JUMP JUMPDEST PUSH2 0x2059 PUSH8 0x81D3162C59E32251 PUSH1 0xC0 SHL PUSH2 0x21CD JUMP JUMPDEST PUSH1 0x2 SLOAD DUP2 LT PUSH2 0x209D JUMPI PUSH1 0x40 MLOAD PUSH32 0x8C379A000000000000000000000000000000000000000000000000000000000 DUP2 MSTORE PUSH1 0x4 ADD PUSH2 0x2094 SWAP1 PUSH2 0x2ED0 JUMP JUMPDEST PUSH1 0x40 MLOAD DUP1 SWAP2 SUB SWAP1 REVERT JUMPDEST PUSH2 0x20B1 PUSH8 0x1C657E9C1529471A PUSH1 0xC0 SHL PUSH2 0x21CD JUMP JUMPDEST PUSH2 0x20C5 PUSH8 0x739D41A13419280E PUSH1 0xC0 SHL PUSH2 0x21CD JUMP JUMPDEST PUSH2 0x20D9 PUSH8 0xD55633DE5E0F1E16 PUSH1 0xC0 SHL PUSH2 0x21CD JUMP JUMPDEST PUSH2 0x20ED PUSH8 0x32C770A4FD49257B PUSH1 0xC0 SHL PUSH2 0x21CD JUMP JUMPDEST PUSH2 0x2101 PUSH8 0xEB5899EAE539EF0B PUSH1 0xC0 SHL PUSH2 0x21CD JUMP JUMPDEST PUSH2 0x2115 PUSH8 0xE79C51A41E466F9D PUSH1 0xC0 SHL PUSH2 0x21CD JUMP JUMPDEST PUSH2 0x2129 PUSH8 0x7EA16401FEF1CBCA PUSH1 0xC0 SHL PUSH2 0x21CD JUMP JUMPDEST TIMESTAMP PUSH1 0x3 PUSH1 0x0 DUP5 DUP2 MSTORE PUSH1 0x20 ADD SWAP1 DUP2 MSTORE PUSH1 0x20 ADD PUSH1 0x0 KECCAK256 PUSH1 0xA ADD SLOAD GT ISZERO PUSH2 0x2182 JUMPI PUSH1 0x40 MLOAD PUSH32 0x8C379A000000000000000000000000000000000000000000000000000000000 DUP2 MSTORE PUSH1 0x4 ADD PUSH2 0x2179 SWAP1 PUSH2 0x3A6C JUMP JUMPDEST PUSH1 0x40 MLOAD DUP1 SWAP2 SUB SWAP1 REVERT JUMPDEST PUSH2 0x2196 PUSH8 0x708E8493661CBB1C PUSH1 0xC0 SHL PUSH2 0x21CD JUMP JUMPDEST PUSH2 0x21AA PUSH8 0x1F656A4E98E9CEA PUSH1 0xC0 SHL PUSH2 0x21CD JUMP JUMPDEST PUSH2 0x21BE PUSH8 0x13B19BD016988B71 PUSH1 0xC0 SHL PUSH2 0x21CD JUMP JUMPDEST PUSH2 0x21C9 DUP3 PUSH1 0x4 PUSH2 0x21DB JUMP JUMPDEST POP POP JUMP JUMPDEST POP JUMP JUMPDEST PUSH1 0x0 PUSH1 0x1 SWAP1 POP SWAP2 SWAP1 POP JUMP JUMPDEST PUSH2 0x21EF PUSH8 0xCE68D647694A9555 PUSH1 0xC0 SHL PUSH2 0x21CD JUMP JUMPDEST PUSH2 0x2203 PUSH8 0xB89CC6D9425EA891 PUSH1 0xC0 SHL PUSH2 0x21CD JUMP JUMPDEST PUSH2 0x2217 PUSH8 0xEDDA526CF6136712 PUSH1 0xC0 SHL PUSH2 0x21CD JUMP JUMPDEST PUSH2 0x222B PUSH8 0xF71C04669445B5A5 PUSH1 0xC0 SHL PUSH2 0x21CD JUMP JUMPDEST PUSH2 0x2234 DUP3 PUSH2 0x2F1 JUMP JUMPDEST PUSH2 0x2273 JUMPI PUSH1 0x40 MLOAD PUSH32 0x8C379A000000000000000000000000000000000000000000000000000000000 DUP2 MSTORE PUSH1 0x4 ADD PUSH2 0x226A SWAP1 PUSH2 0x3AD8 JUMP JUMPDEST PUSH1 0x40 MLOAD DUP1 SWAP2 SUB SWAP1 REVERT JUMPDEST PUSH2 0x2287 PUSH8 0x957777AE119C51FA PUSH1 0xC0 SHL PUSH2 0x21CD JUMP JUMPDEST PUSH2 0x229B PUSH8 0x29C5B54EBE9C5492 PUSH1 0xC0 SHL PUSH2 0x21CD JUMP JUMPDEST PUSH2 0x22AF PUSH8 0x48F031CB73711FED PUSH1 0xC0 SHL PUSH2 0x21CD JUMP JUMPDEST PUSH1 0x0 PUSH1 0x3 PUSH1 0x0 DUP5 DUP2 MSTORE PUSH1 0x20 ADD SWAP1 DUP2 MSTORE PUSH1 0x20 ADD PUSH1 0x0 KECCAK256 PUSH1 0x3 ADD SLOAD GT ISZERO PUSH2 0x23CA JUMPI PUSH2 0x22E2 PUSH8 0x4A0721138A62E226 PUSH1 0xC0 SHL PUSH2 0x21CD JUMP JUMPDEST PUSH2 0x22F6 PUSH8 0x730DA868475AF79D PUSH1 0xC0 SHL PUSH2 0x21CD JUMP JUMPDEST PUSH2 0x230A PUSH8 0x382242A894DC31F PUSH1 0xC0 SHL PUSH2 0x21CD JUMP JUMPDEST PUSH1 0x1 PUSH1 0x0 SWAP1 SLOAD SWAP1 PUSH2 0x100 EXP SWAP1 DIV PUSH20 0xFFFFFFFFFFFFFFFFFFFFFFFFFFFFFFFFFFFFFFFF AND PUSH20 0xFFFFFFFFFFFFFFFFFFFFFFFFFFFFFFFFFFFFFFFF AND PUSH4 0x61F2D09F PUSH1 0x3 PUSH1 0x0 DUP6 DUP2 MSTORE PUSH1 0x20 ADD SWAP1 DUP2 MSTORE PUSH1 0x20 ADD PUSH1 0x0 KECCAK256 PUSH1 0x1 ADD SLOAD PUSH1 0x3 PUSH1 0x0 DUP7 DUP2 MSTORE PUSH1 0x20 ADD SWAP1 DUP2 MSTORE PUSH1 0x20 ADD PUSH1 0x0 KECCAK256 PUSH1 0x3 ADD SLOAD PUSH1 0x40 MLOAD DUP4 PUSH4 0xFFFFFFFF AND PUSH1 0xE0 SHL DUP2 MSTORE PUSH1 0x4 ADD PUSH2 0x2393 SWAP3 SWAP2 SWAP1 PUSH2 0x346F JUMP JUMPDEST PUSH1 0x0 PUSH1 0x40 MLOAD DUP1 DUP4 SUB DUP2 PUSH1 0x0 DUP8 DUP1 EXTCODESIZE ISZERO DUP1 ISZERO PUSH2 0x23AD JUMPI PUSH1 0x0 DUP1 REVERT JUMPDEST POP GAS CALL ISZERO DUP1 ISZERO PUSH2 0x23C1 JUMPI RETURNDATASIZE PUSH1 0x0 DUP1 RETURNDATACOPY RETURNDATASIZE PUSH1 0x0 REVERT JUMPDEST POP POP POP POP PUSH2 0x23DF JUMP JUMPDEST PUSH2 0x23DE PUSH8 0x4CD60C7E690070CD PUSH1 0xC0 SHL PUSH2 0x21CD JUMP JUMPDEST JUMPDEST PUSH2 0x23F3 PUSH8 0x155BE38E2760B698 PUSH1 0xC0 SHL PUSH2 0x21CD JUMP JUMPDEST PUSH1 0x0 PUSH1 0x3 PUSH1 0x0 DUP5 DUP2 MSTORE PUSH1 0x20 ADD SWAP1 DUP2 MSTORE PUSH1 0x20 ADD PUSH1 0x0 KECCAK256 PUSH1 0x3 ADD DUP2 SWAP1 SSTORE POP PUSH2 0x2423 PUSH8 0x457804C4A0F27670 PUSH1 0xC0 SHL PUSH2 0x21CD JUMP JUMPDEST DUP1 PUSH1 0x3 PUSH1 0x0 DUP5 DUP2 MSTORE PUSH1 0x20 ADD SWAP1 DUP2 MSTORE PUSH1 0x20 ADD PUSH1 0x0 KECCAK256 PUSH1 0xB ADD PUSH1 0x0 PUSH2 0x100 EXP DUP2 SLOAD DUP2 PUSH1 0xFF MUL NOT AND SWAP1 DUP4 PUSH1 0x4 DUP2 GT ISZERO PUSH2 0x245C JUMPI PUSH2 0x245B PUSH2 0x2CEF JUMP JUMPDEST JUMPDEST MUL OR SWAP1 SSTORE POP PUSH2 0x2475 PUSH8 0x1C9D22980082A607 PUSH1 0xC0 SHL PUSH2 0x21CD JUMP JUMPDEST TIMESTAMP PUSH1 0x3 PUSH1 0x0 DUP5 DUP2 MSTORE PUSH1 0x20 ADD SWAP1 DUP2 MSTORE PUSH1 0x20 ADD PUSH1 0x0 KECCAK256 PUSH1 0x9 ADD DUP2 SWAP1 SSTORE POP PUSH2 0x24A4 PUSH8 0x237A5841B8FCF9CE PUSH1 0xC0 SHL PUSH2 0x21CD JUMP JUMPDEST PUSH1 0x6 PUSH1 0x0 PUSH1 0x3 PUSH1 0x0 DUP6 DUP2 MSTORE PUSH1 0x20 ADD SWAP1 DUP2 MSTORE PUSH1 0x20 ADD PUSH1 0x0 KECCAK256 PUSH1 0x1 ADD SLOAD DUP2 MSTORE PUSH1 0x20 ADD SWAP1 DUP2 MSTORE PUSH1 0x20 ADD PUSH1 0x0 KECCAK256 PUSH1 0x0 DUP2 SLOAD DUP1 SWAP3 SWAP2 SWAP1 PUSH2 0x24DE SWAP1 PUSH2 0x3498 JUMP JUMPDEST SWAP2 SWAP1 POP SSTORE POP PUSH2 0x24F7 PUSH8 0xB138972AD4DFA216 PUSH1 0xC0 SHL PUSH2 0x21CD JUMP JUMPDEST PUSH2 0x250B PUSH8 0x988B3643CC6F4822 PUSH1 0xC0 SHL PUSH2 0x21CD JUMP JUMPDEST DUP2 PUSH32 0x2E74881A6C74723C41779BC20D0AA57148F87D6CD03977E71379655E32E27116 DUP3 PUSH1 0x40 MLOAD PUSH2 0x253B SWAP2 SWAP1 PUSH2 0x34C1 JUMP JUMPDEST PUSH1 0x40 MLOAD DUP1 SWAP2 SUB SWAP1 LOG2 POP POP JUMP JUMPDEST PUSH1 0x0 PUSH2 0x255D PUSH8 0xE112CFA0E6D236EB PUSH1 0xC0 SHL PUSH2 0x2A81 JUMP JUMPDEST PUSH2 0x2571 PUSH8 0xC6B37B89E14AE6D9 PUSH1 0xC0 SHL PUSH2 0x2A81 JUMP JUMPDEST PUSH2 0x2585 PUSH8 0x3BD7961D41F8B64B PUSH1 0xC0 SHL PUSH2 0x2A81 JUMP JUMPDEST PUSH2 0x2599 PUSH8 0x797FE3E868720472 PUSH1 0xC0 SHL PUSH2 0x2A81 JUMP JUMPDEST PUSH1 0x0 DUP3 GT PUSH2 0x25DC JUMPI PUSH1 0x40 MLOAD PUSH32 0x8C379A000000000000000000000000000000000000000000000000000000000 DUP2 MSTORE PUSH1 0x4 ADD PUSH2 0x25D3 SWAP1 PUSH2 0x30A6 JUMP JUMPDEST PUSH1 0x40 MLOAD DUP1 SWAP2 SUB SWAP1 REVERT JUMPDEST PUSH2 0x25F0 PUSH8 0x62752E452583D0EA PUSH1 0xC0 SHL PUSH2 0x2A81 JUMP JUMPDEST PUSH2 0x2604 PUSH8 0xFED1B5912B411DC9 PUSH1 0xC0 SHL PUSH2 0x2A81 JUMP JUMPDEST PUSH2 0x2618 PUSH8 0xD8430CB5CA525956 PUSH1 0xC0 SHL PUSH2 0x2A81 JUMP JUMPDEST DUP3 DUP3 PUSH2 0x2624 SWAP2 SWAP1 PUSH2 0x386F JUMP JUMPDEST SWAP1 POP SWAP3 SWAP2 POP POP JUMP JUMPDEST PUSH1 0x0 PUSH2 0x2642 PUSH8 0xE59E2C24B4122EA6 PUSH1 0xC0 SHL PUSH2 0x2A81 JUMP JUMPDEST PUSH2 0x2656 PUSH8 0x552507D86D11D6F4 PUSH1 0xC0 SHL PUSH2 0x2A81 JUMP JUMPDEST PUSH2 0x266A PUSH8 0x279D5EDCE02D8F96 PUSH1 0xC0 SHL PUSH2 0x2A81 JUMP JUMPDEST PUSH1 0x0 PUSH1 0xA SWAP1 POP PUSH2 0x2684 PUSH8 0x42333B8D06F3359A PUSH1 0xC0 SHL PUSH2 0x2A81 JUMP JUMPDEST PUSH2 0x2698 PUSH8 0x1529075B9E3902C7 PUSH1 0xC0 SHL PUSH2 0x2A81 JUMP JUMPDEST PUSH1 0x0 DUP4 DUP8 DUP10 PUSH2 0x26A7 SWAP2 SWAP1 PUSH2 0x3B02 JUMP JUMPDEST PUSH2 0x26B1 SWAP2 SWAP1 PUSH2 0x3B02 JUMP JUMPDEST SWAP1 POP PUSH2 0x26C7 PUSH8 0x96D12FF52E8668E6 PUSH1 0xC0 SHL PUSH2 0x2A81 JUMP JUMPDEST PUSH2 0x26DB PUSH8 0x795D5357BD5D35B7 PUSH1 0xC0 SHL PUSH2 0x2A81 JUMP JUMPDEST PUSH1 0x0 DUP6 PUSH1 0x64 DUP4 PUSH2 0x26EB SWAP2 SWAP1 PUSH2 0x3B45 JUMP JUMPDEST PUSH2 0x26F5 SWAP2 SWAP1 PUSH2 0x3BBD JUMP JUMPDEST SWAP1 POP PUSH2 0x270B PUSH8 0xF535F76C476C0CE8 PUSH1 0xC0 SHL PUSH2 0x2A81 JUMP JUMPDEST PUSH2 0x271F PUSH8 0xCCAA71E57007EEC2 PUSH1 0xC0 SHL PUSH2 0x2A81 JUMP JUMPDEST PUSH1 0x46 DUP2 SLT PUSH2 0x274F JUMPI PUSH2 0x273B PUSH8 0x93850A2AAE92B54D PUSH1 0xC0 SHL PUSH2 0x2A81 JUMP JUMPDEST PUSH1 0x2 DUP4 PUSH2 0x2748 SWAP2 SWAP1 PUSH2 0x3407 JUMP JUMPDEST SWAP3 POP PUSH2 0x286F JUMP JUMPDEST PUSH2 0x2763 PUSH8 0x8A313710A197347A PUSH1 0xC0 SHL PUSH2 0x2A81 JUMP JUMPDEST PUSH2 0x2777 PUSH8 0x186B9EA3F93E06DB PUSH1 0xC0 SHL PUSH2 0x2A81 JUMP JUMPDEST PUSH1 0x28 DUP2 SLT PUSH2 0x27A7 JUMPI PUSH2 0x2793 PUSH8 0x290DADFE08A73667 PUSH1 0xC0 SHL PUSH2 0x2A81 JUMP JUMPDEST PUSH1 0x1 DUP4 PUSH2 0x27A0 SWAP2 SWAP1 PUSH2 0x3407 JUMP JUMPDEST SWAP3 POP PUSH2 0x286E JUMP JUMPDEST PUSH2 0x27BB PUSH8 0x3D45E1AE604E45D9 PUSH1 0xC0 SHL PUSH2 0x2A81 JUMP JUMPDEST PUSH2 0x27CF PUSH8 0xF83617716C1214AB PUSH1 0xC0 SHL PUSH2 0x2A81 JUMP JUMPDEST PUSH1 0x14 DUP2 SLT PUSH2 0x27F0 JUMPI PUSH2 0x27EB PUSH8 0x2BC5E0315F8CEA63 PUSH1 0xC0 SHL PUSH2 0x2A81 JUMP JUMPDEST PUSH2 0x286D JUMP JUMPDEST PUSH2 0x2804 PUSH8 0x2A26F29228AC594D PUSH1 0xC0 SHL PUSH2 0x2A81 JUMP JUMPDEST PUSH2 0x2818 PUSH8 0x3A793D3AEAB69873 PUSH1 0xC0 SHL PUSH2 0x2A81 JUMP JUMPDEST PUSH1 0x0 DUP2 SLT PUSH2 0x2848 JUMPI PUSH2 0x2834 PUSH8 0xBF95E14CCB94ECF3 PUSH1 0xC0 SHL PUSH2 0x2A81 JUMP JUMPDEST PUSH1 0x2 DUP4 PUSH2 0x2841 SWAP2 SWAP1 PUSH2 0x343B JUMP JUMPDEST SWAP3 POP PUSH2 0x286C JUMP JUMPDEST PUSH2 0x285C PUSH8 0xBEE89EC3DA9E19EA PUSH1 0xC0 SHL PUSH2 0x2A81 JUMP JUMPDEST PUSH1 0x4 DUP4 PUSH2 0x2869 SWAP2 SWAP1 PUSH2 0x343B JUMP JUMPDEST SWAP3 POP JUMPDEST JUMPDEST JUMPDEST JUMPDEST PUSH2 0x2883 PUSH8 0xB917FC5D75309477 PUSH1 0xC0 SHL PUSH2 0x2A81 JUMP JUMPDEST PUSH2 0x2897 PUSH8 0xBB9B3434D27D43B7 PUSH1 0xC0 SHL PUSH2 0x2A81 JUMP JUMPDEST PUSH1 0x50 DUP8 LT PUSH2 0x28C7 JUMPI PUSH2 0x28B3 PUSH8 0x60D7BBB0C4742DE7 PUSH1 0xC0 SHL PUSH2 0x2A81 JUMP JUMPDEST PUSH1 0x2 DUP4 PUSH2 0x28C0 SWAP2 SWAP1 PUSH2 0x3407 JUMP JUMPDEST SWAP3 POP PUSH2 0x29E7 JUMP JUMPDEST PUSH2 0x28DB PUSH8 0x406BD57269FE0C33 PUSH1 0xC0 SHL PUSH2 0x2A81 JUMP JUMPDEST PUSH2 0x28EF PUSH8 0x89B58ED4A8201F3E PUSH1 0xC0 SHL PUSH2 0x2A81 JUMP JUMPDEST PUSH1 0x3C DUP8 LT PUSH2 0x291F JUMPI PUSH2 0x290B PUSH8 0xA409D1592CB9E8B6 PUSH1 0xC0 SHL PUSH2 0x2A81 JUMP JUMPDEST PUSH1 0x1 DUP4 PUSH2 0x2918 SWAP2 SWAP1 PUSH2 0x3407 JUMP JUMPDEST SWAP3 POP PUSH2 0x29E6 JUMP JUMPDEST PUSH2 0x2933 PUSH8 0xB7A5E097C422C285 PUSH1 0xC0 SHL PUSH2 0x2A81 JUMP JUMPDEST PUSH2 0x2947 PUSH8 0xE1050FD692E780A5 PUSH1 0xC0 SHL PUSH2 0x2A81 JUMP JUMPDEST PUSH1 0x28 DUP8 LT PUSH2 0x2968 JUMPI PUSH2 0x2963 PUSH8 0xE92A29F9318A9FEF PUSH1 0xC0 SHL PUSH2 0x2A81 JUMP JUMPDEST PUSH2 0x29E5 JUMP JUMPDEST PUSH2 0x297C PUSH8 0x7B0960D25CA89532 PUSH1 0xC0 SHL PUSH2 0x2A81 JUMP JUMPDEST PUSH2 0x2990 PUSH8 0x1FB24EBA70863702 PUSH1 0xC0 SHL PUSH2 0x2A81 JUMP JUMPDEST PUSH1 0x14 DUP8 LT PUSH2 0x29C0 JUMPI PUSH2 0x29AC PUSH8 0xFAF6C96DB548CA71 PUSH1 0xC0 SHL PUSH2 0x2A81 JUMP JUMPDEST PUSH1 0x2 DUP4 PUSH2 0x29B9 SWAP2 SWAP1 PUSH2 0x343B JUMP JUMPDEST SWAP3 POP PUSH2 0x29E4 JUMP JUMPDEST PUSH2 0x29D4 PUSH8 0xE8FE5D37CEFB08E9 PUSH1 0xC0 SHL PUSH2 0x2A81 JUMP JUMPDEST PUSH1 0x4 DUP4 PUSH2 0x29E1 SWAP2 SWAP1 PUSH2 0x343B JUMP JUMPDEST SWAP3 POP JUMPDEST JUMPDEST JUMPDEST JUMPDEST PUSH2 0x29FB PUSH8 0x44713E3ECEE556B9 PUSH1 0xC0 SHL PUSH2 0x2A81 JUMP JUMPDEST PUSH2 0x2A0F PUSH8 0x58A31924B2CE1387 PUSH1 0xC0 SHL PUSH2 0x2A81 JUMP JUMPDEST PUSH1 0x1 DUP4 LT ISZERO PUSH2 0x2A35 JUMPI PUSH2 0x2A2C PUSH8 0x32AC1783BB292362 PUSH1 0xC0 SHL PUSH2 0x2A81 JUMP JUMPDEST PUSH1 0x1 SWAP3 POP PUSH2 0x2A4A JUMP JUMPDEST PUSH2 0x2A49 PUSH8 0x9A08181C36BE1AF2 PUSH1 0xC0 SHL PUSH2 0x2A81 JUMP JUMPDEST JUMPDEST PUSH2 0x2A5E PUSH8 0xC87D3EA6698CABF2 PUSH1 0xC0 SHL PUSH2 0x2A81 JUMP JUMPDEST PUSH2 0x2A72 PUSH8 0xCA3FA540C53F2EA9 PUSH1 0xC0 SHL PUSH2 0x2A81 JUMP JUMPDEST DUP3 SWAP4 POP POP POP POP SWAP6 SWAP5 POP POP POP POP POP JUMP JUMPDEST POP JUMP JUMPDEST PUSH1 0x0 DUP1 REVERT JUMPDEST PUSH1 0x0 DUP2 SWAP1 POP SWAP2 SWAP1 POP JUMP JUMPDEST PUSH2 0x2A9C DUP2 PUSH2 0x2A89 JUMP JUMPDEST DUP2 EQ PUSH2 0x2AA7 JUMPI PUSH1 0x0 DUP1 REVERT JUMPDEST POP JUMP JUMPDEST PUSH1 0x0 DUP2 CALLDATALOAD SWAP1 POP PUSH2 0x2AB9 DUP2 PUSH2 0x2A93 JUMP JUMPDEST SWAP3 SWAP2 POP POP JUMP JUMPDEST PUSH1 0x0 DUP1 PUSH1 0x40 DUP4 DUP6 SUB SLT ISZERO PUSH2 0x2AD6 JUMPI PUSH2 0x2AD5 PUSH2 0x2A84 JUMP JUMPDEST JUMPDEST PUSH1 0x0 PUSH2 0x2AE4 DUP6 DUP3 DUP7 ADD PUSH2 0x2AAA JUMP JUMPDEST SWAP3 POP POP PUSH1 0x20 PUSH2 0x2AF5 DUP6 DUP3 DUP7 ADD PUSH2 0x2AAA JUMP JUMPDEST SWAP2 POP POP SWAP3 POP SWAP3 SWAP1 POP JUMP JUMPDEST PUSH2 0x2B08 DUP2 PUSH2 0x2A89 JUMP JUMPDEST DUP3 MSTORE POP POP JUMP JUMPDEST PUSH1 0x0 PUSH1 0x20 DUP3 ADD SWAP1 POP PUSH2 0x2B23 PUSH1 0x0 DUP4 ADD DUP5 PUSH2 0x2AFF JUMP JUMPDEST SWAP3 SWAP2 POP POP JUMP JUMPDEST PUSH1 0x0 PUSH20 0xFFFFFFFFFFFFFFFFFFFFFFFFFFFFFFFFFFFFFFFF DUP3 AND SWAP1 POP SWAP2 SWAP1 POP JUMP JUMPDEST PUSH1 0x0 DUP2 SWAP1 POP SWAP2 SWAP1 POP JUMP JUMPDEST PUSH1 0x0 PUSH2 0x2B6E PUSH2 0x2B69 PUSH2 0x2B64 DUP5 PUSH2 0x2B29 JUMP JUMPDEST PUSH2 0x2B49 JUMP JUMPDEST PUSH2 0x2B29 JUMP JUMPDEST SWAP1 POP SWAP2 SWAP1 POP JUMP JUMPDEST PUSH1 0x0 PUSH2 0x2B80 DUP3 PUSH2 0x2B53 JUMP JUMPDEST SWAP1 POP SWAP2 SWAP1 POP JUMP JUMPDEST PUSH1 0x0 PUSH2 0x2B92 DUP3 PUSH2 0x2B75 JUMP JUMPDEST SWAP1 POP SWAP2 SWAP1 POP JUMP JUMPDEST PUSH2 0x2BA2 DUP2 PUSH2 0x2B87 JUMP JUMPDEST DUP3 MSTORE POP POP JUMP JUMPDEST PUSH1 0x0 PUSH1 0x20 DUP3 ADD SWAP1 POP PUSH2 0x2BBD PUSH1 0x0 DUP4 ADD DUP5 PUSH2 0x2B99 JUMP JUMPDEST SWAP3 SWAP2 POP POP JUMP JUMPDEST PUSH1 0x0 PUSH1 0x20 DUP3 DUP5 SUB SLT ISZERO PUSH2 0x2BD9 JUMPI PUSH2 0x2BD8 PUSH2 0x2A84 JUMP JUMPDEST JUMPDEST PUSH1 0x0 PUSH2 0x2BE7 DUP5 DUP3 DUP6 ADD PUSH2 0x2AAA JUMP JUMPDEST SWAP2 POP POP SWAP3 SWAP2 POP POP JUMP JUMPDEST PUSH1 0x0 DUP2 ISZERO ISZERO SWAP1 POP SWAP2 SWAP1 POP JUMP JUMPDEST PUSH2 0x2C05 DUP2 PUSH2 0x2BF0 JUMP JUMPDEST DUP3 MSTORE POP POP JUMP JUMPDEST PUSH1 0x0 PUSH1 0x20 DUP3 ADD SWAP1 POP PUSH2 0x2C20 PUSH1 0x0 DUP4 ADD DUP5 PUSH2 0x2BFC JUMP JUMPDEST SWAP3 SWAP2 POP POP JUMP JUMPDEST PUSH1 0x0 PUSH2 0x2C31 DUP3 PUSH2 0x2B75 JUMP JUMPDEST SWAP1 POP SWAP2 SWAP1 POP JUMP JUMPDEST PUSH2 0x2C41 DUP2 PUSH2 0x2C26 JUMP JUMPDEST DUP3 MSTORE POP POP JUMP JUMPDEST PUSH1 0x0 PUSH1 0x20 DUP3 ADD SWAP1 POP PUSH2 0x2C5C PUSH1 0x0 DUP4 ADD DUP5 PUSH2 0x2C38 JUMP JUMPDEST SWAP3 SWAP2 POP POP JUMP JUMPDEST PUSH1 0x0 PUSH2 0x2C6D DUP3 PUSH2 0x2B29 JUMP JUMPDEST SWAP1 POP SWAP2 SWAP1 POP JUMP JUMPDEST PUSH2 0x2C7D DUP2 PUSH2 0x2C62 JUMP JUMPDEST DUP2 EQ PUSH2 0x2C88 JUMPI PUSH1 0x0 DUP1 REVERT JUMPDEST POP JUMP JUMPDEST PUSH1 0x0 DUP2 CALLDATALOAD SWAP1 POP PUSH2 0x2C9A DUP2 PUSH2 0x2C74 JUMP JUMPDEST SWAP3 SWAP2 POP POP JUMP JUMPDEST PUSH1 0x0 DUP1 PUSH1 0x40 DUP4 DUP6 SUB SLT ISZERO PUSH2 0x2CB7 JUMPI PUSH2 0x2CB6 PUSH2 0x2A84 JUMP JUMPDEST JUMPDEST PUSH1 0x0 PUSH2 0x2CC5 DUP6 DUP3 DUP7 ADD PUSH2 0x2C8B JUMP JUMPDEST SWAP3 POP POP PUSH1 0x20 PUSH2 0x2CD6 DUP6 DUP3 DUP7 ADD PUSH2 0x2AAA JUMP JUMPDEST SWAP2 POP POP SWAP3 POP SWAP3 SWAP1 POP JUMP JUMPDEST PUSH2 0x2CE9 DUP2 PUSH2 0x2C62 JUMP JUMPDEST DUP3 MSTORE POP POP JUMP JUMPDEST PUSH32 0x4E487B7100000000000000000000000000000000000000000000000000000000 PUSH1 0x0 MSTORE PUSH1 0x21 PUSH1 0x4 MSTORE PUSH1 0x24 PUSH1 0x0 REVERT JUMPDEST PUSH1 0x5 DUP2 LT PUSH2 0x2D2F JUMPI PUSH2 0x2D2E PUSH2 0x2CEF JUMP JUMPDEST JUMPDEST POP JUMP JUMPDEST PUSH1 0x0 DUP2 SWAP1 POP PUSH2 0x2D40 DUP3 PUSH2 0x2D1E JUMP JUMPDEST SWAP2 SWAP1 POP JUMP JUMPDEST PUSH1 0x0 PUSH2 0x2D50 DUP3 PUSH2 0x2D32 JUMP JUMPDEST SWAP1 POP SWAP2 SWAP1 POP JUMP JUMPDEST PUSH2 0x2D60 DUP2 PUSH2 0x2D45 JUMP JUMPDEST DUP3 MSTORE POP POP JUMP JUMPDEST PUSH1 0x0 PUSH2 0x180 DUP3 ADD SWAP1 POP PUSH2 0x2D7C PUSH1 0x0 DUP4 ADD DUP16 PUSH2 0x2AFF JUMP JUMPDEST PUSH2 0x2D89 PUSH1 0x20 DUP4 ADD DUP15 PUSH2 0x2AFF JUMP JUMPDEST PUSH2 0x2D96 PUSH1 0x40 DUP4 ADD DUP14 PUSH2 0x2AFF JUMP JUMPDEST PUSH2 0x2DA3 PUSH1 0x60 DUP4 ADD DUP13 PUSH2 0x2AFF JUMP JUMPDEST PUSH2 0x2DB0 PUSH1 0x80 DUP4 ADD DUP12 PUSH2 0x2AFF JUMP JUMPDEST PUSH2 0x2DBD PUSH1 0xA0 DUP4 ADD DUP11 PUSH2 0x2AFF JUMP JUMPDEST PUSH2 0x2DCA PUSH1 0xC0 DUP4 ADD DUP10 PUSH2 0x2AFF JUMP JUMPDEST PUSH2 0x2DD7 PUSH1 0xE0 DUP4 ADD DUP9 PUSH2 0x2CE0 JUMP JUMPDEST PUSH2 0x2DE5 PUSH2 0x100 DUP4 ADD DUP8 PUSH2 0x2AFF JUMP JUMPDEST PUSH2 0x2DF3 PUSH2 0x120 DUP4 ADD DUP7 PUSH2 0x2AFF JUMP JUMPDEST PUSH2 0x2E01 PUSH2 0x140 DUP4 ADD DUP6 PUSH2 0x2AFF JUMP JUMPDEST PUSH2 0x2E0F PUSH2 0x160 DUP4 ADD DUP5 PUSH2 0x2D57 JUMP JUMPDEST SWAP14 SWAP13 POP POP POP POP POP POP POP POP POP POP POP POP POP JUMP JUMPDEST PUSH1 0x0 DUP1 PUSH1 0x0 PUSH1 0x60 DUP5 DUP7 SUB SLT ISZERO PUSH2 0x2E39 JUMPI PUSH2 0x2E38 PUSH2 0x2A84 JUMP JUMPDEST JUMPDEST PUSH1 0x0 PUSH2 0x2E47 DUP7 DUP3 DUP8 ADD PUSH2 0x2AAA JUMP JUMPDEST SWAP4 POP POP PUSH1 0x20 PUSH2 0x2E58 DUP7 DUP3 DUP8 ADD PUSH2 0x2AAA JUMP JUMPDEST SWAP3 POP POP PUSH1 0x40 PUSH2 0x2E69 DUP7 DUP3 DUP8 ADD PUSH2 0x2AAA JUMP JUMPDEST SWAP2 POP POP SWAP3 POP SWAP3 POP SWAP3 JUMP JUMPDEST PUSH1 0x0 DUP3 DUP3 MSTORE PUSH1 0x20 DUP3 ADD SWAP1 POP SWAP3 SWAP2 POP POP JUMP JUMPDEST PUSH32 0x4F6666657220646F6573206E6F74206578697374000000000000000000000000 PUSH1 0x0 DUP3 ADD MSTORE POP JUMP JUMPDEST PUSH1 0x0 PUSH2 0x2EBA PUSH1 0x14 DUP4 PUSH2 0x2E73 JUMP JUMPDEST SWAP2 POP PUSH2 0x2EC5 DUP3 PUSH2 0x2E84 JUMP JUMPDEST PUSH1 0x20 DUP3 ADD SWAP1 POP SWAP2 SWAP1 POP JUMP JUMPDEST PUSH1 0x0 PUSH1 0x20 DUP3 ADD SWAP1 POP DUP2 DUP2 SUB PUSH1 0x0 DUP4 ADD MSTORE PUSH2 0x2EE9 DUP2 PUSH2 0x2EAD JUMP JUMPDEST SWAP1 POP SWAP2 SWAP1 POP JUMP JUMPDEST PUSH32 0x4F666665722069736E2774206F70656E00000000000000000000000000000000 PUSH1 0x0 DUP3 ADD MSTORE POP JUMP JUMPDEST PUSH1 0x0 PUSH2 0x2F26 PUSH1 0x10 DUP4 PUSH2 0x2E73 JUMP JUMPDEST SWAP2 POP PUSH2 0x2F31 DUP3 PUSH2 0x2EF0 JUMP JUMPDEST PUSH1 0x20 DUP3 ADD SWAP1 POP SWAP2 SWAP1 POP JUMP JUMPDEST PUSH1 0x0 PUSH1 0x20 DUP3 ADD SWAP1 POP DUP2 DUP2 SUB PUSH1 0x0 DUP4 ADD MSTORE PUSH2 0x2F55 DUP2 PUSH2 0x2F19 JUMP JUMPDEST SWAP1 POP SWAP2 SWAP1 POP JUMP JUMPDEST PUSH32 0x4F66666572206861732065787069726564000000000000000000000000000000 PUSH1 0x0 DUP3 ADD MSTORE POP JUMP JUMPDEST PUSH1 0x0 PUSH2 0x2F92 PUSH1 0x11 DUP4 PUSH2 0x2E73 JUMP JUMPDEST SWAP2 POP PUSH2 0x2F9D DUP3 PUSH2 0x2F5C JUMP JUMPDEST PUSH1 0x20 DUP3 ADD SWAP1 POP SWAP2 SWAP1 POP JUMP JUMPDEST PUSH1 0x0 PUSH1 0x20 DUP3 ADD SWAP1 POP DUP2 DUP2 SUB PUSH1 0x0 DUP4 ADD MSTORE PUSH2 0x2FC1 DUP2 PUSH2 0x2F85 JUMP JUMPDEST SWAP1 POP SWAP2 SWAP1 POP JUMP JUMPDEST PUSH32 0x53656C6C65722063616E6E6F7420627579207468656972206F776E20656E6572 PUSH1 0x0 DUP3 ADD MSTORE PUSH32 0x6779000000000000000000000000000000000000000000000000000000000000 PUSH1 0x20 DUP3 ADD MSTORE POP JUMP JUMPDEST PUSH1 0x0 PUSH2 0x3024 PUSH1 0x22 DUP4 PUSH2 0x2E73 JUMP JUMPDEST SWAP2 POP PUSH2 0x302F DUP3 PUSH2 0x2FC8 JUMP JUMPDEST PUSH1 0x40 DUP3 ADD SWAP1 POP SWAP2 SWAP1 POP JUMP JUMPDEST PUSH1 0x0 PUSH1 0x20 DUP3 ADD SWAP1 POP DUP2 DUP2 SUB PUSH1 0x0 DUP4 ADD MSTORE PUSH2 0x3053 DUP2 PUSH2 0x3017 JUMP JUMPDEST SWAP1 POP SWAP2 SWAP1 POP JUMP JUMPDEST PUSH32 0x416D6F756E74206D7573742062652067726561746572207468616E2030000000 PUSH1 0x0 DUP3 ADD MSTORE POP JUMP JUMPDEST PUSH1 0x0 PUSH2 0x3090 PUSH1 0x1D DUP4 PUSH2 0x2E73 JUMP JUMPDEST SWAP2 POP PUSH2 0x309B DUP3 PUSH2 0x305A JUMP JUMPDEST PUSH1 0x20 DUP3 ADD SWAP1 POP SWAP2 SWAP1 POP JUMP JUMPDEST PUSH1 0x0 PUSH1 0x20 DUP3 ADD SWAP1 POP DUP2 DUP2 SUB PUSH1 0x0 DUP4 ADD MSTORE PUSH2 0x30BF DUP2 PUSH2 0x3083 JUMP JUMPDEST SWAP1 POP SWAP2 SWAP1 POP JUMP JUMPDEST PUSH32 0x4E6F7420656E6F75676820656E6572677920617661696C61626C6520696E2074 PUSH1 0x0 DUP3 ADD MSTORE PUSH32 0x6865206F66666572000000000000000000000000000000000000000000000000 PUSH1 0x20 DUP3 ADD MSTORE POP JUMP JUMPDEST PUSH1 0x0 PUSH2 0x3122 PUSH1 0x28 DUP4 PUSH2 0x2E73 JUMP JUMPDEST SWAP2 POP PUSH2 0x312D DUP3 PUSH2 0x30C6 JUMP JUMPDEST PUSH1 0x40 DUP3 ADD SWAP1 POP SWAP2 SWAP1 POP JUMP JUMPDEST PUSH1 0x0 PUSH1 0x20 DUP3 ADD SWAP1 POP DUP2 DUP2 SUB PUSH1 0x0 DUP4 ADD MSTORE PUSH2 0x3151 DUP2 PUSH2 0x3115 JUMP JUMPDEST SWAP1 POP SWAP2 SWAP1 POP JUMP JUMPDEST PUSH1 0x0 PUSH1 0x20 DUP3 ADD SWAP1 POP PUSH2 0x316D PUSH1 0x0 DUP4 ADD DUP5 PUSH2 0x2CE0 JUMP JUMPDEST SWAP3 SWAP2 POP POP JUMP JUMPDEST PUSH1 0x0 DUP2 MLOAD SWAP1 POP PUSH2 0x3182 DUP2 PUSH2 0x2A93 JUMP JUMPDEST SWAP3 SWAP2 POP POP JUMP JUMPDEST PUSH1 0x0 PUSH1 0x20 DUP3 DUP5 SUB SLT ISZERO PUSH2 0x319E JUMPI PUSH2 0x319D PUSH2 0x2A84 JUMP JUMPDEST JUMPDEST PUSH1 0x0 PUSH2 0x31AC DUP5 DUP3 DUP6 ADD PUSH2 0x3173 JUMP JUMPDEST SWAP2 POP POP SWAP3 SWAP2 POP POP JUMP JUMPDEST PUSH32 0x496E73756666696369656E742045544B2062616C616E63650000000000000000 PUSH1 0x0 DUP3 ADD MSTORE POP JUMP JUMPDEST PUSH1 0x0 PUSH2 0x31EB PUSH1 0x18 DUP4 PUSH2 0x2E73 JUMP JUMPDEST SWAP2 POP PUSH2 0x31F6 DUP3 PUSH2 0x31B5 JUMP JUMPDEST PUSH1 0x20 DUP3 ADD SWAP1 POP SWAP2 SWAP1 POP JUMP JUMPDEST PUSH1 0x0 PUSH1 0x20 DUP3 ADD SWAP1 POP DUP2 DUP2 SUB PUSH1 0x0 DUP4 ADD MSTORE PUSH2 0x321A DUP2 PUSH2 0x31DE JUMP JUMPDEST SWAP1 POP SWAP2 SWAP1 POP JUMP JUMPDEST PUSH1 0x0 PUSH1 0x40 DUP3 ADD SWAP1 POP PUSH2 0x3236 PUSH1 0x0 DUP4 ADD DUP6 PUSH2 0x2CE0 JUMP JUMPDEST PUSH2 0x3243 PUSH1 0x20 DUP4 ADD DUP5 PUSH2 0x2CE0 JUMP JUMPDEST SWAP4 SWAP3 POP POP POP JUMP JUMPDEST PUSH32 0x417070726F7665204D61726B6574706C61636520746F207370656E6420796F75 PUSH1 0x0 DUP3 ADD MSTORE PUSH32 0x722045544B206669727374000000000000000000000000000000000000000000 PUSH1 0x20 DUP3 ADD MSTORE POP JUMP JUMPDEST PUSH1 0x0 PUSH2 0x32A6 PUSH1 0x2B DUP4 PUSH2 0x2E73 JUMP JUMPDEST SWAP2 POP PUSH2 0x32B1 DUP3 PUSH2 0x324A JUMP JUMPDEST PUSH1 0x40 DUP3 ADD SWAP1 POP SWAP2 SWAP1 POP JUMP JUMPDEST PUSH1 0x0 PUSH1 0x20 DUP3 ADD SWAP1 POP DUP2 DUP2 SUB PUSH1 0x0 DUP4 ADD MSTORE PUSH2 0x32D5 DUP2 PUSH2 0x3299 JUMP JUMPDEST SWAP1 POP SWAP2 SWAP1 POP JUMP JUMPDEST PUSH1 0x0 PUSH1 0x60 DUP3 ADD SWAP1 POP PUSH2 0x32F1 PUSH1 0x0 DUP4 ADD DUP7 PUSH2 0x2CE0 JUMP JUMPDEST PUSH2 0x32FE PUSH1 0x20 DUP4 ADD DUP6 PUSH2 0x2CE0 JUMP JUMPDEST PUSH2 0x330B PUSH1 0x40 DUP4 ADD DUP5 PUSH2 0x2AFF JUMP JUMPDEST SWAP5 SWAP4 POP POP POP POP JUMP JUMPDEST PUSH2 0x331C DUP2 PUSH2 0x2BF0 JUMP JUMPDEST DUP2 EQ PUSH2 0x3327 JUMPI PUSH1 0x0 DUP1 REVERT JUMPDEST POP JUMP JUMPDEST PUSH1 0x0 DUP2 MLOAD SWAP1 POP PUSH2 0x3339 DUP2 PUSH2 0x3313 JUMP JUMPDEST SWAP3 SWAP2 POP POP JUMP JUMPDEST PUSH1 0x0 PUSH1 0x20 DUP3 DUP5 SUB SLT ISZERO PUSH2 0x3355 JUMPI PUSH2 0x3354 PUSH2 0x2A84 JUMP JUMPDEST JUMPDEST PUSH1 0x0 PUSH2 0x3363 DUP5 DUP3 DUP6 ADD PUSH2 0x332A JUMP JUMPDEST SWAP2 POP POP SWAP3 SWAP2 POP POP JUMP JUMPDEST PUSH32 0x5472616E73666572206661696C65640000000000000000000000000000000000 PUSH1 0x0 DUP3 ADD MSTORE POP JUMP JUMPDEST PUSH1 0x0 PUSH2 0x33A2 PUSH1 0xF DUP4 PUSH2 0x2E73 JUMP JUMPDEST SWAP2 POP PUSH2 0x33AD DUP3 PUSH2 0x336C JUMP JUMPDEST PUSH1 0x20 DUP3 ADD SWAP1 POP SWAP2 SWAP1 POP JUMP JUMPDEST PUSH1 0x0 PUSH1 0x20 DUP3 ADD SWAP1 POP DUP2 DUP2 SUB PUSH1 0x0 DUP4 ADD MSTORE PUSH2 0x33D1 DUP2 PUSH2 0x3395 JUMP JUMPDEST SWAP1 POP SWAP2 SWAP1 POP JUMP JUMPDEST PUSH32 0x4E487B7100000000000000000000000000000000000000000000000000000000 PUSH1 0x0 MSTORE PUSH1 0x11 PUSH1 0x4 MSTORE PUSH1 0x24 PUSH1 0x0 REVERT JUMPDEST PUSH1 0x0 PUSH2 0x3412 DUP3 PUSH2 0x2A89 JUMP JUMPDEST SWAP2 POP PUSH2 0x341D DUP4 PUSH2 0x2A89 JUMP JUMPDEST SWAP3 POP DUP3 DUP3 SUB SWAP1 POP DUP2 DUP2 GT ISZERO PUSH2 0x3435 JUMPI PUSH2 0x3434 PUSH2 0x33D8 JUMP JUMPDEST JUMPDEST SWAP3 SWAP2 POP POP JUMP JUMPDEST PUSH1 0x0 PUSH2 0x3446 DUP3 PUSH2 0x2A89 JUMP JUMPDEST SWAP2 POP PUSH2 0x3451 DUP4 PUSH2 0x2A89 JUMP JUMPDEST SWAP3 POP DUP3 DUP3 ADD SWAP1 POP DUP1 DUP3 GT ISZERO PUSH2 0x3469 JUMPI PUSH2 0x3468 PUSH2 0x33D8 JUMP JUMPDEST JUMPDEST SWAP3 SWAP2 POP POP JUMP JUMPDEST PUSH1 0x0 PUSH1 0x40 DUP3 ADD SWAP1 POP PUSH2 0x3484 PUSH1 0x0 DUP4 ADD DUP6 PUSH2 0x2AFF JUMP JUMPDEST PUSH2 0x3491 PUSH1 0x20 DUP4 ADD DUP5 PUSH2 0x2AFF JUMP JUMPDEST SWAP4 SWAP3 POP POP POP JUMP JUMPDEST PUSH1 0x0 PUSH2 0x34A3 DUP3 PUSH2 0x2A89 JUMP JUMPDEST SWAP2 POP PUSH1 0x0 DUP3 SUB PUSH2 0x34B6 JUMPI PUSH2 0x34B5 PUSH2 0x33D8 JUMP JUMPDEST JUMPDEST PUSH1 0x1 DUP3 SUB SWAP1 POP SWAP2 SWAP1 POP JUMP JUMPDEST PUSH1 0x0 PUSH1 0x20 DUP3 ADD SWAP1 POP PUSH2 0x34D6 PUSH1 0x0 DUP4 ADD DUP5 PUSH2 0x2D57 JUMP JUMPDEST SWAP3 SWAP2 POP POP JUMP JUMPDEST PUSH32 0x456E6572677920616D6F756E74206D7573742062652067726561746572207468 PUSH1 0x0 DUP3 ADD MSTORE PUSH32 0x616E203000000000000000000000000000000000000000000000000000000000 PUSH1 0x20 DUP3 ADD MSTORE POP JUMP JUMPDEST PUSH1 0x0 PUSH2 0x3538 PUSH1 0x24 DUP4 PUSH2 0x2E73 JUMP JUMPDEST SWAP2 POP PUSH2 0x3543 DUP3 PUSH2 0x34DC JUMP JUMPDEST PUSH1 0x40 DUP3 ADD SWAP1 POP SWAP2 SWAP1 POP JUMP JUMPDEST PUSH1 0x0 PUSH1 0x20 DUP3 ADD SWAP1 POP DUP2 DUP2 SUB PUSH1 0x0 DUP4 ADD MSTORE PUSH2 0x3567 DUP2 PUSH2 0x352B JUMP JUMPDEST SWAP1 POP SWAP2 SWAP1 POP JUMP JUMPDEST PUSH32 0x50726963652070657220756E6974206D75737420626520677265617465722074 PUSH1 0x0 DUP3 ADD MSTORE PUSH32 0x68616E2030000000000000000000000000000000000000000000000000000000 PUSH1 0x20 DUP3 ADD MSTORE POP JUMP JUMPDEST PUSH1 0x0 PUSH2 0x35CA PUSH1 0x25 DUP4 PUSH2 0x2E73 JUMP JUMPDEST SWAP2 POP PUSH2 0x35D5 DUP3 PUSH2 0x356E JUMP JUMPDEST PUSH1 0x40 DUP3 ADD SWAP1 POP SWAP2 SWAP1 POP JUMP JUMPDEST PUSH1 0x0 PUSH1 0x20 DUP3 ADD SWAP1 POP DUP2 DUP2 SUB PUSH1 0x0 DUP4 ADD MSTORE PUSH2 0x35F9 DUP2 PUSH2 0x35BD JUMP JUMPDEST SWAP1 POP SWAP2 SWAP1 POP JUMP JUMPDEST PUSH1 0x0 DUP2 MLOAD SWAP1 POP PUSH2 0x360F DUP2 PUSH2 0x2C74 JUMP JUMPDEST SWAP3 SWAP2 POP POP JUMP JUMPDEST PUSH1 0x0 PUSH1 0x20 DUP3 DUP5 SUB SLT ISZERO PUSH2 0x362B JUMPI PUSH2 0x362A PUSH2 0x2A84 JUMP JUMPDEST JUMPDEST PUSH1 0x0 PUSH2 0x3639 DUP5 DUP3 DUP6 ADD PUSH2 0x3600 JUMP JUMPDEST SWAP2 POP POP SWAP3 SWAP2 POP POP JUMP JUMPDEST PUSH32 0x4E6F7420746865206F776E6572206F662074686973206D6963726F6772696400 PUSH1 0x0 DUP3 ADD MSTORE POP JUMP JUMPDEST PUSH1 0x0 PUSH2 0x3678 PUSH1 0x1F DUP4 PUSH2 0x2E73 JUMP JUMPDEST SWAP2 POP PUSH2 0x3683 DUP3 PUSH2 0x3642 JUMP JUMPDEST PUSH1 0x20 DUP3 ADD SWAP1 POP SWAP2 SWAP1 POP JUMP JUMPDEST PUSH1 0x0 PUSH1 0x20 DUP3 ADD SWAP1 POP DUP2 DUP2 SUB PUSH1 0x0 DUP4 ADD MSTORE PUSH2 0x36A7 DUP2 PUSH2 0x366B JUMP JUMPDEST SWAP1 POP SWAP2 SWAP1 POP JUMP JUMPDEST PUSH32 0x4D6963726F67726964206973206E6F7420616374697665000000000000000000 PUSH1 0x0 DUP3 ADD MSTORE POP JUMP JUMPDEST PUSH1 0x0 PUSH2 0x36E4 PUSH1 0x17 DUP4 PUSH2 0x2E73 JUMP JUMPDEST SWAP2 POP PUSH2 0x36EF DUP3 PUSH2 0x36AE JUMP JUMPDEST PUSH1 0x20 DUP3 ADD SWAP1 POP SWAP2 SWAP1 POP JUMP JUMPDEST PUSH1 0x0 PUSH1 0x20 DUP3 ADD SWAP1 POP DUP2 DUP2 SUB PUSH1 0x0 DUP4 ADD MSTORE PUSH2 0x3713 DUP2 PUSH2 0x36D7 JUMP JUMPDEST SWAP1 POP SWAP2 SWAP1 POP JUMP JUMPDEST PUSH32 0x4E6F7420656E6F75676820617661696C61626C6520656E6572677920696E2074 PUSH1 0x0 DUP3 ADD MSTORE PUSH32 0x6865206D6963726F677269640000000000000000000000000000000000000000 PUSH1 0x20 DUP3 ADD MSTORE POP JUMP JUMPDEST PUSH1 0x0 PUSH2 0x3776 PUSH1 0x2C DUP4 PUSH2 0x2E73 JUMP JUMPDEST SWAP2 POP PUSH2 0x3781 DUP3 PUSH2 0x371A JUMP JUMPDEST PUSH1 0x40 DUP3 ADD SWAP1 POP SWAP2 SWAP1 POP JUMP JUMPDEST PUSH1 0x0 PUSH1 0x20 DUP3 ADD SWAP1 POP DUP2 DUP2 SUB PUSH1 0x0 DUP4 ADD MSTORE PUSH2 0x37A5 DUP2 PUSH2 0x3769 JUMP JUMPDEST SWAP1 POP SWAP2 SWAP1 POP JUMP JUMPDEST PUSH1 0x0 PUSH2 0x37B7 DUP3 PUSH2 0x2A89 JUMP JUMPDEST SWAP2 POP PUSH32 0xFFFFFFFFFFFFFFFFFFFFFFFFFFFFFFFFFFFFFFFFFFFFFFFFFFFFFFFFFFFFFFFF DUP3 SUB PUSH2 0x37E9 JUMPI PUSH2 0x37E8 PUSH2 0x33D8 JUMP JUMPDEST JUMPDEST PUSH1 0x1 DUP3 ADD SWAP1 POP SWAP2 SWAP1 POP JUMP JUMPDEST PUSH1 0x0 DUP1 PUSH1 0x0 DUP1 PUSH1 0x0 PUSH1 0xA0 DUP7 DUP9 SUB SLT ISZERO PUSH2 0x3810 JUMPI PUSH2 0x380F PUSH2 0x2A84 JUMP JUMPDEST JUMPDEST PUSH1 0x0 PUSH2 0x381E DUP9 DUP3 DUP10 ADD PUSH2 0x3173 JUMP JUMPDEST SWAP6 POP POP PUSH1 0x20 PUSH2 0x382F DUP9 DUP3 DUP10 ADD PUSH2 0x3173 JUMP JUMPDEST SWAP5 POP POP PUSH1 0x40 PUSH2 0x3840 DUP9 DUP3 DUP10 ADD PUSH2 0x3173 JUMP JUMPDEST SWAP4 POP POP PUSH1 0x60 PUSH2 0x3851 DUP9 DUP3 DUP10 ADD PUSH2 0x3173 JUMP JUMPDEST SWAP3 POP POP PUSH1 0x80 PUSH2 0x3862 DUP9 DUP3 DUP10 ADD PUSH2 0x3173 JUMP JUMPDEST SWAP2 POP POP SWAP3 SWAP6 POP SWAP3 SWAP6 SWAP1 SWAP4 POP JUMP JUMPDEST PUSH1 0x0 PUSH2 0x387A DUP3 PUSH2 0x2A89 JUMP JUMPDEST SWAP2 POP PUSH2 0x3885 DUP4 PUSH2 0x2A89 JUMP JUMPDEST SWAP3 POP DUP3 DUP3 MUL PUSH2 0x3893 DUP2 PUSH2 0x2A89 JUMP JUMPDEST SWAP2 POP DUP3 DUP3 DIV DUP5 EQ DUP4 ISZERO OR PUSH2 0x38AA JUMPI PUSH2 0x38A9 PUSH2 0x33D8 JUMP JUMPDEST JUMPDEST POP SWAP3 SWAP2 POP POP JUMP JUMPDEST PUSH32 0x4E487B7100000000000000000000000000000000000000000000000000000000 PUSH1 0x0 MSTORE PUSH1 0x12 PUSH1 0x4 MSTORE PUSH1 0x24 PUSH1 0x0 REVERT JUMPDEST PUSH1 0x0 PUSH2 0x38EB DUP3 PUSH2 0x2A89 JUMP JUMPDEST SWAP2 POP PUSH2 0x38F6 DUP4 PUSH2 0x2A89 JUMP JUMPDEST SWAP3 POP DUP3 PUSH2 0x3906 JUMPI PUSH2 0x3905 PUSH2 0x38B1 JUMP JUMPDEST JUMPDEST DUP3 DUP3 DIV SWAP1 POP SWAP3 SWAP2 POP POP JUMP JUMPDEST PUSH32 0x5072696365206973206F7574206F66206D61726B65742072616E676500000000 PUSH1 0x0 DUP3 ADD MSTORE POP JUMP JUMPDEST PUSH1 0x0 PUSH2 0x3947 PUSH1 0x1C DUP4 PUSH2 0x2E73 JUMP JUMPDEST SWAP2 POP PUSH2 0x3952 DUP3 PUSH2 0x3911 JUMP JUMPDEST PUSH1 0x20 DUP3 ADD SWAP1 POP SWAP2 SWAP1 POP JUMP JUMPDEST PUSH1 0x0 PUSH1 0x20 DUP3 ADD SWAP1 POP DUP2 DUP2 SUB PUSH1 0x0 DUP4 ADD MSTORE PUSH2 0x3976 DUP2 PUSH2 0x393A JUMP JUMPDEST SWAP1 POP SWAP2 SWAP1 POP JUMP JUMPDEST PUSH1 0x0 PUSH1 0x60 DUP3 ADD SWAP1 POP PUSH2 0x3992 PUSH1 0x0 DUP4 ADD DUP7 PUSH2 0x2AFF JUMP JUMPDEST PUSH2 0x399F PUSH1 0x20 DUP4 ADD DUP6 PUSH2 0x2AFF JUMP JUMPDEST PUSH2 0x39AC PUSH1 0x40 DUP4 ADD DUP5 PUSH2 0x2AFF JUMP JUMPDEST SWAP5 SWAP4 POP POP POP POP JUMP JUMPDEST PUSH32 0x4E6F74207468652073656C6C6572206F662074686973206F6666657200000000 PUSH1 0x0 DUP3 ADD MSTORE POP JUMP JUMPDEST PUSH1 0x0 PUSH2 0x39EA PUSH1 0x1C DUP4 PUSH2 0x2E73 JUMP JUMPDEST SWAP2 POP PUSH2 0x39F5 DUP3 PUSH2 0x39B4 JUMP JUMPDEST PUSH1 0x20 DUP3 ADD SWAP1 POP SWAP2 SWAP1 POP JUMP JUMPDEST PUSH1 0x0 PUSH1 0x20 DUP3 ADD SWAP1 POP DUP2 DUP2 SUB PUSH1 0x0 DUP4 ADD MSTORE PUSH2 0x3A19 DUP2 PUSH2 0x39DD JUMP JUMPDEST SWAP1 POP SWAP2 SWAP1 POP JUMP JUMPDEST PUSH32 0x4F6666657220686173206E6F7420657870697265642079657400000000000000 PUSH1 0x0 DUP3 ADD MSTORE POP JUMP JUMPDEST PUSH1 0x0 PUSH2 0x3A56 PUSH1 0x19 DUP4 PUSH2 0x2E73 JUMP JUMPDEST SWAP2 POP PUSH2 0x3A61 DUP3 PUSH2 0x3A20 JUMP JUMPDEST PUSH1 0x20 DUP3 ADD SWAP1 POP SWAP2 SWAP1 POP JUMP JUMPDEST PUSH1 0x0 PUSH1 0x20 DUP3 ADD SWAP1 POP DUP2 DUP2 SUB PUSH1 0x0 DUP4 ADD MSTORE PUSH2 0x3A85 DUP2 PUSH2 0x3A49 JUMP JUMPDEST SWAP1 POP SWAP2 SWAP1 POP JUMP JUMPDEST PUSH32 0x4F6666657220616C726561647920636C6F736564000000000000000000000000 PUSH1 0x0 DUP3 ADD MSTORE POP JUMP JUMPDEST PUSH1 0x0 PUSH2 0x3AC2 PUSH1 0x14 DUP4 PUSH2 0x2E73 JUMP JUMPDEST SWAP2 POP PUSH2 0x3ACD DUP3 PUSH2 0x3A8C JUMP JUMPDEST PUSH1 0x20 DUP3 ADD SWAP1 POP SWAP2 SWAP1 POP JUMP JUMPDEST PUSH1 0x0 PUSH1 0x20 DUP3 ADD SWAP1 POP DUP2 DUP2 SUB PUSH1 0x0 DUP4 ADD MSTORE PUSH2 0x3AF1 DUP2 PUSH2 0x3AB5 JUMP JUMPDEST SWAP1 POP SWAP2 SWAP1 POP JUMP JUMPDEST PUSH1 0x0 DUP2 SWAP1 POP SWAP2 SWAP1 POP JUMP JUMPDEST PUSH1 0x0 PUSH2 0x3B0D DUP3 PUSH2 0x3AF8 JUMP JUMPDEST SWAP2 POP PUSH2 0x3B18 DUP4 PUSH2 0x3AF8 JUMP JUMPDEST SWAP3 POP DUP3 DUP3 SUB SWAP1 POP DUP2 DUP2 SLT PUSH1 0x0 DUP5 SLT AND DUP3 DUP3 SGT PUSH1 0x0 DUP6 SLT ISZERO AND OR ISZERO PUSH2 0x3B3F JUMPI PUSH2 0x3B3E PUSH2 0x33D8 JUMP JUMPDEST JUMPDEST SWAP3 SWAP2 POP POP JUMP JUMPDEST PUSH1 0x0 PUSH2 0x3B50 DUP3 PUSH2 0x3AF8 JUMP JUMPDEST SWAP2 POP PUSH2 0x3B5B DUP4 PUSH2 0x3AF8 JUMP JUMPDEST SWAP3 POP DUP3 DUP3 MUL PUSH2 0x3B69 DUP2 PUSH2 0x3AF8 JUMP JUMPDEST SWAP2 POP PUSH32 0x8000000000000000000000000000000000000000000000000000000000000000 DUP5 EQ PUSH1 0x0 DUP5 SLT AND ISZERO PUSH2 0x3BA1 JUMPI PUSH2 0x3BA0 PUSH2 0x33D8 JUMP JUMPDEST JUMPDEST DUP3 DUP3 SDIV DUP5 EQ DUP4 ISZERO OR PUSH2 0x3BB6 JUMPI PUSH2 0x3BB5 PUSH2 0x33D8 JUMP JUMPDEST JUMPDEST POP SWAP3 SWAP2 POP POP JUMP JUMPDEST PUSH1 0x0 PUSH2 0x3BC8 DUP3 PUSH2 0x3AF8 JUMP JUMPDEST SWAP2 POP PUSH2 0x3BD3 DUP4 PUSH2 0x3AF8 JUMP JUMPDEST SWAP3 POP DUP3 PUSH2 0x3BE3 JUMPI PUSH2 0x3BE2 PUSH2 0x38B1 JUMP JUMPDEST JUMPDEST PUSH1 0x1 PUSH1 0x0 SUB DUP4 EQ PUSH32 0x8000000000000000000000000000000000000000000000000000000000000000 DUP4 EQ AND ISZERO PUSH2 0x3C1C JUMPI PUSH2 0x3C1B PUSH2 0x33D8 JUMP JUMPDEST JUMPDEST DUP3 DUP3 SDIV SWAP1 POP SWAP3 SWAP2 POP POP JUMP INVALID LOG2 PUSH5 0x6970667358 0x22 SLT KECCAK256 CALLDATALOAD DUP5 MULMOD DUP6 0x2B PUSH20 0x256F61DDF136C9DF883981669EFE60A9A3494A8B 0xDF MOD 0xC1 PUSH31 0xB0D64736F6C634300081C0033000000000000000000000000000000000000 "},"methodIdentifiers":{"activeOfferCount(uint256)":"71658853","buyEnergy(uint256,uint256)":"cdb6d52d","cancelOffer(uint256)":"ef706adf","createOffer(uint256,uint256,uint256)":"dc35a900","energyToken()":"4ec7fb81","expireOffer(uint256)":"f10b1606","isOfferOpen(uint256)":"73868d73","microgridOffers(uint256,uint256)":"0f20337d","nextOfferId()":"5f5d0655","offers(uint256)":"8a72ea6a","registry()":"7b103999","sellerOffers(address,uint256)":"7e930a5c"}}}}}