{
  "_format": "hh-sol-artifact-1",
  "contractName": "MicrogridRegistry",
  "sourceName": "contracts/MicrogridRegistry.sol",
  "abi": [
    {
      "inputs": [
        {
          "internalType": "address",
          "name": "_owner",
          "type": "address"
        }
      ],
      "stateMutability": "nonpayable",
      "type": "constructor"
    },
    {
      "inputs": [
        {
          "internalType": "address",
          "name": "owner",
          "type": "address"
        }
      ],
      "name": "OwnableInvalidOwner",
      "type": "error"
    },
    {
      "inputs": [
        {
          "internalType": "address",
          "name": "account",
          "type": "address"
        }
      ],
      "name": "OwnableUnauthorizedAccount",
      "type": "error"
    },
    {
      "anonymous": false,
      "inputs": [
        {
          "indexed": true,
          "internalType": "uint256",
          "name": "id",
          "type": "uint256"
        },
        {
          "indexed": true,
          "internalType": "address",
          "name": "owner",
          "type": "address"
        },
        {
          "indexed": false,
          "internalType": "string",
          "name": "name",
          "type": "string"
        },
        {
          "indexed": false,
          "internalType": "uint256",
          "name": "latitude",
          "type": "uint256"
        },
        {
          "indexed": false,
          "internalType": "uint256",
          "name": "longitude",
          "type": "uint256"
        }
      ],
      "name": "MicrogridRegistered",
      "type": "event"
    },
    {
      "anonymous": false,
      "inputs": [
        {
          "indexed": true,
          "internalType": "address",
          "name": "previousOwner",
          "type": "address"
        },
        {
          "indexed": true,
          "internalType": "address",
          "name": "newOwner",
          "type": "address"
        }
      ],
      "name": "OwnershipTransferred",
      "type": "event"
    },
    {
      "anonymous": false,
      "inputs": [
        {
          "indexed": true,
          "internalType": "uint256",
          "name": "id",
          "type": "uint256"
        },
        {
          "indexed": false,
          "internalType": "uint256",
          "name": "reservedEnergy",
          "type": "uint256"
        }
      ],
      "name": "ReservedEnergyUpdated",
      "type": "event"
    },
    {
      "anonymous": false,
      "inputs": [
        {
          "indexed": true,
          "internalType": "uint256",
          "name": "id",
          "type": "uint256"
        },
        {
          "indexed": false,
          "internalType": "uint256",
          "name": "energyGenerated",
          "type": "uint256"
        },
        {
          "indexed": false,
          "internalType": "uint256",
          "name": "energyDemand",
          "type": "uint256"
        },
        {
          "indexed": false,
          "internalType": "uint256",
          "name": "batteryLevel",
          "type": "uint256"
        },
        {
          "indexed": false,
          "internalType": "uint256",
          "name": "lastUpdated",
          "type": "uint256"
        }
      ],
      "name": "StatusUpdated",
      "type": "event"
    },
    {
      "inputs": [
        {
          "internalType": "uint256",
          "name": "_id",
          "type": "uint256"
        },
        {
          "internalType": "uint256",
          "name": "_amount",
          "type": "uint256"
        }
      ],
      "name": "decreaseReservedEnergy",
      "outputs": [],
      "stateMutability": "nonpayable",
      "type": "function"
    },
    {
      "inputs": [
        {
          "internalType": "uint256",
          "name": "_id",
          "type": "uint256"
        }
      ],
      "name": "getAvailableEnergy",
      "outputs": [
        {
          "internalType": "uint256",
          "name": "",
          "type": "uint256"
        }
      ],
      "stateMutability": "view",
      "type": "function"
    },
    {
      "inputs": [
        {
          "internalType": "uint256",
          "name": "_id",
          "type": "uint256"
        }
      ],
      "name": "getMicrogrid",
      "outputs": [
        {
          "components": [
            {
              "internalType": "uint256",
              "name": "id",
              "type": "uint256"
            },
            {
              "internalType": "string",
              "name": "name",
              "type": "string"
            },
            {
              "internalType": "address",
              "name": "owner",
              "type": "address"
            },
            {
              "internalType": "uint256",
              "name": "latitude",
              "type": "uint256"
            },
            {
              "internalType": "uint256",
              "name": "longitude",
              "type": "uint256"
            },
            {
              "internalType": "uint256",
              "name": "energyGenerated",
              "type": "uint256"
            },
            {
              "internalType": "uint256",
              "name": "energyDemand",
              "type": "uint256"
            },
            {
              "internalType": "uint256",
              "name": "batteryLevel",
              "type": "uint256"
            },
            {
              "internalType": "uint256",
              "name": "maxCapacity",
              "type": "uint256"
            },
            {
              "internalType": "uint256",
              "name": "reservedEnergy",
              "type": "uint256"
            },
            {
              "internalType": "bool",
              "name": "isActive",
              "type": "bool"
            },
            {
              "internalType": "uint256",
              "name": "lastUpdated",
              "type": "uint256"
            }
          ],
          "internalType": "struct MicrogridRegistry.Microgrid",
          "name": "",
          "type": "tuple"
        }
      ],
      "stateMutability": "view",
      "type": "function"
    },
    {
      "inputs": [
        {
          "internalType": "uint256",
          "name": "_id",
          "type": "uint256"
        }
      ],
      "name": "getOwner",
      "outputs": [
        {
          "internalType": "address",
          "name": "",
          "type": "address"
        }
      ],
      "stateMutability": "view",
      "type": "function"
    },
    {
      "inputs": [
        {
          "internalType": "uint256",
          "name": "_id",
          "type": "uint256"
        }
      ],
      "name": "getPricingData",
      "outputs": [
        {
          "internalType": "uint256",
          "name": "generation",
          "type": "uint256"
        },
        {
          "internalType": "uint256",
          "name": "demand",
          "type": "uint256"
        },
        {
          "internalType": "uint256",
          "name": "batteryLevel",
          "type": "uint256"
        },
        {
          "internalType": "uint256",
          "name": "maxCapacity",
          "type": "uint256"
        },
        {
          "internalType": "uint256",
          "name": "reservedEnergy",
          "type": "uint256"
        }
      ],
      "stateMutability": "view",
      "type": "function"
    },
    {
      "inputs": [
        {
          "internalType": "uint256",
          "name": "_id",
          "type": "uint256"
        }
      ],
      "name": "getSurplus",
      "outputs": [
        {
          "internalType": "int256",
          "name": "",
          "type": "int256"
        }
      ],
      "stateMutability": "view",
      "type": "function"
    },
    {
      "inputs": [
        {
          "internalType": "uint256",
          "name": "_id",
          "type": "uint256"
        }
      ],
      "name": "hasSurplus",
      "outputs": [
        {
          "internalType": "bool",
          "name": "",
          "type": "bool"
        }
      ],
      "stateMutability": "view",
      "type": "function"
    },
    {
      "inputs": [
        {
          "internalType": "uint256",
          "name": "_id",
          "type": "uint256"
        },
        {
          "internalType": "uint256",
          "name": "_amount",
          "type": "uint256"
        }
      ],
      "name": "increaseReservedEnergy",
      "outputs": [],
      "stateMutability": "nonpayable",
      "type": "function"
    },
    {
      "inputs": [
        {
          "internalType": "uint256",
          "name": "_id",
          "type": "uint256"
        }
      ],
      "name": "isMicrogridActive",
      "outputs": [
        {
          "internalType": "bool",
          "name": "",
          "type": "bool"
        }
      ],
      "stateMutability": "view",
      "type": "function"
    },
    {
      "inputs": [
        {
          "internalType": "address",
          "name": "",
          "type": "address"
        }
      ],
      "name": "isRegistered",
      "outputs": [
        {
          "internalType": "bool",
          "name": "",
          "type": "bool"
        }
      ],
      "stateMutability": "view",
      "type": "function"
    },
    {
      "inputs": [],
      "name": "marketplaceAddress",
      "outputs": [
        {
          "internalType": "address",
          "name": "",
          "type": "address"
        }
      ],
      "stateMutability": "view",
      "type": "function"
    },
    {
      "inputs": [
        {
          "internalType": "uint256",
          "name": "",
          "type": "uint256"
        }
      ],
      "name": "microgrids",
      "outputs": [
        {
          "internalType": "uint256",
          "name": "id",
          "type": "uint256"
        },
        {
          "internalType": "string",
          "name": "name",
          "type": "string"
        },
        {
          "internalType": "address",
          "name": "owner",
          "type": "address"
        },
        {
          "internalType": "uint256",
          "name": "latitude",
          "type": "uint256"
        },
        {
          "internalType": "uint256",
          "name": "longitude",
          "type": "uint256"
        },
        {
          "internalType": "uint256",
          "name": "energyGenerated",
          "type": "uint256"
        },
        {
          "internalType": "uint256",
          "name": "energyDemand",
          "type": "uint256"
        },
        {
          "internalType": "uint256",
          "name": "batteryLevel",
          "type": "uint256"
        },
        {
          "internalType": "uint256",
          "name": "maxCapacity",
          "type": "uint256"
        },
        {
          "internalType": "uint256",
          "name": "reservedEnergy",
          "type": "uint256"
        },
        {
          "internalType": "bool",
          "name": "isActive",
          "type": "bool"
        },
        {
          "internalType": "uint256",
          "name": "lastUpdated",
          "type": "uint256"
        }
      ],
      "stateMutability": "view",
      "type": "function"
    },
    {
      "inputs": [],
      "name": "nextId",
      "outputs": [
        {
          "internalType": "uint256",
          "name": "",
          "type": "uint256"
        }
      ],
      "stateMutability": "view",
      "type": "function"
    },
    {
      "inputs": [],
      "name": "owner",
      "outputs": [
        {
          "internalType": "address",
          "name": "",
          "type": "address"
        }
      ],
      "stateMutability": "view",
      "type": "function"
    },
    {
      "inputs": [
        {
          "internalType": "string",
          "name": "_name",
          "type": "string"
        },
        {
          "internalType": "uint256",
          "name": "_latitude",
          "type": "uint256"
        },
        {
          "internalType": "uint256",
          "name": "_longitude",
          "type": "uint256"
        },
        {
          "internalType": "uint256",
          "name": "_maxCapacity",
          "type": "uint256"
        }
      ],
      "name": "registerMicrogrid",
      "outputs": [],
      "stateMutability": "nonpayable",
      "type": "function"
    },
    {
      "inputs": [],
      "name": "renounceOwnership",
      "outputs": [],
      "stateMutability": "nonpayable",
      "type": "function"
    },
    {
      "inputs": [
        {
          "internalType": "address",
          "name": "_marketplaceAddress",
          "type": "address"
        }
      ],
      "name": "setMarketplaceAddress",
      "outputs": [],
      "stateMutability": "nonpayable",
      "type": "function"
    },
    {
      "inputs": [
        {
          "internalType": "uint256",
          "name": "_id",
          "type": "uint256"
        },
        {
          "internalType": "bool",
          "name": "_status",
          "type": "bool"
        }
      ],
      "name": "setMicrogridStatus",
      "outputs": [],
      "stateMutability": "nonpayable",
      "type": "function"
    },
    {
      "inputs": [
        {
          "internalType": "address",
          "name": "newOwner",
          "type": "address"
        }
      ],
      "name": "transferOwnership",
      "outputs": [],
      "stateMutability": "nonpayable",
      "type": "function"
    },
    {
      "inputs": [
        {
          "internalType": "uint256",
          "name": "_id",
          "type": "uint256"
        },
        {
          "internalType": "uint256",
          "name": "_energyGenerated",
          "type": "uint256"
        },
        {
          "internalType": "uint256",
          "name": "_energyDemand",
          "type": "uint256"
        },
        {
          "internalType": "uint256",
          "name": "_batteryLevel",
          "type": "uint256"
        }
      ],
      "name": "updateStatus",
      "outputs": [],
      "stateMutability": "nonpayable",
      "type": "function"
    }
  ],
  "bytecode": "0x608060405234801561001057600080fd5b50604051613c25380380613c25833981810160405281019061003291906101ff565b80600073ffffffffffffffffffffffffffffffffffffffff168173ffffffffffffffffffffffffffffffffffffffff16036100a55760006040517f1e4fbdf700000000000000000000000000000000000000000000000000000000815260040161009c919061023b565b60405180910390fd5b6100b4816100d560201b60201c565b506100cf677498f59fdf49492360c01b61019960201b60201c565b50610256565b60008060009054906101000a900473ffffffffffffffffffffffffffffffffffffffff169050816000806101000a81548173ffffffffffffffffffffffffffffffffffffffff021916908373ffffffffffffffffffffffffffffffffffffffff1602179055508173ffffffffffffffffffffffffffffffffffffffff168173ffffffffffffffffffffffffffffffffffffffff167f8be0079c531659141344cd1fd0a4f28419497f9722a3daafe3b4186f6b6457e060405160405180910390a35050565b50565b600080fd5b600073ffffffffffffffffffffffffffffffffffffffff82169050919050565b60006101cc826101a1565b9050919050565b6101dc816101c1565b81146101e757600080fd5b50565b6000815190506101f9816101d3565b92915050565b6000602082840312156102155761021461019c565b5b6000610223848285016101ea565b91505092915050565b610235816101c1565b82525050565b6000602082019050610250600083018461022c565b92915050565b6139c0806102656000396000f3fe608060405234801561001057600080fd5b506004361061012c5760003560e01c80638da5cb5b116100ad578063c41a360a11610071578063c41a360a14610362578063d053189714610392578063d3e0bada146103c2578063daa17f49146103de578063f2fde38b146103fc5761012c565b80638da5cb5b146102a157806393e64b48146102bf578063955464ef146102fa578063b47cc55614610316578063c3c5a547146103325761012c565b80634fa4c02d116100f45780634fa4c02d1461020d57806361b8ce8c1461024157806361f2d09f1461025f578063715018a61461027b57806387d53231146102855761012c565b806312c6e696146101315780631b4ffccb146101615780631c334a7e1461017d5780634504b83a146101ad57806347846fd9146101dd575b600080fd5b61014b60048036038101906101469190612791565b610418565b60405161015891906127d9565b60405180910390f35b61017b60048036038101906101769190612820565b610600565b005b61019760048036038101906101929190612791565b610834565b6040516101a491906127d9565b60405180910390f35b6101c760048036038101906101c29190612791565b610931565b6040516101d49190612a53565b60405180910390f35b6101f760048036038101906101f29190612791565b610b8c565b6040516102049190612a84565b60405180910390f35b61022760048036038101906102229190612791565b610de6565b604051610238959493929190612a9f565b60405180910390f35b610249610f2a565b6040516102569190612a84565b60405180910390f35b61027960048036038101906102749190612af2565b610f30565b005b61028361126c565b005b61029f600480360381019061029a9190612b32565b611280565b005b6102a961182f565b6040516102b69190612ba8565b60405180910390f35b6102d960048036038101906102d49190612791565b611858565b6040516102f19c9b9a99989796959493929190612c0d565b60405180910390f35b610314600480360381019061030f9190612e03565b61196d565b005b610330600480360381019061032b9190612eb2565b611d96565b005b61034c60048036038101906103479190612eb2565b611f13565b60405161035991906127d9565b60405180910390f35b61037c60048036038101906103779190612791565b611f33565b6040516103899190612ba8565b60405180910390f35b6103ac60048036038101906103a79190612791565b612043565b6040516103b99190612ef8565b60405180910390f35b6103dc60048036038101906103d79190612af2565b612227565b005b6103e66124ba565b6040516103f39190612ba8565b60405180910390f35b61041660048036038101906104119190612eb2565b6124e0565b005b600061042e67b4dc3df9f2666ee260c01b612566565b61044267531ef668318c0faf60c01b612566565b610456672ca6757977889e6060c01b612566565b61046a677e58e82d96d2bb9b60c01b612566565b60015482106104ae576040517f08c379a00000000000000000000000000000000000000000000000000000000081526004016104a590612f5f565b60405180910390fd5b6104c267b6f5d2a5a44e05da60c01b612566565b6104d667c30e41633df9431360c01b612566565b6104ea67a143898764c0abb660c01b612566565b6104fe675c5ddd629d0cef5160c01b612566565b60026000838152602001908152602001600020600a0160009054906101000a900460ff16610561576040517f08c379a000000000000000000000000000000000000000000000000000000000815260040161055890612fcb565b60405180910390fd5b6105756734c98df10a0332dc60c01b612566565b61058967929245689b98c3e460c01b612566565b61059d67295343197ebf6e0460c01b612566565b60006002600084815260200190815260200160002060090154600260008581526020019081526020016000206006015460026000868152602001908152602001600020600501546105ee919061301a565b6105f8919061301a565b139050919050565b61061467f89f8a8ae5f82cea60c01b612566565b8161062967fa4f067ae74eab6560c01b612566565b61063d67afdec20e1d74114c60c01b612566565b61065167a4ace05e2d1d45cd60c01b612566565b610665671ac14c798361e87c60c01b612566565b3373ffffffffffffffffffffffffffffffffffffffff166002600083815260200190815260200160002060020160009054906101000a900473ffffffffffffffffffffffffffffffffffffffff1673ffffffffffffffffffffffffffffffffffffffff1614610709576040517f08c379a0000000000000000000000000000000000000000000000000000000008152600401610700906130a9565b60405180910390fd5b61071d6739813d068070cd7a60c01b612566565b61073167449830fb7314c1ea60c01b612566565b6107456794d9ceb1fbba2f1e60c01b612566565b61075967b8c3fb3d763a438060c01b612566565b61076d67d13272a7d29ea6a260c01b612566565b610781672b5e7cfca0079fdc60c01b612566565b61079567613569ec6cb4348460c01b612566565b60015483106107d9576040517f08c379a00000000000000000000000000000000000000000000000000000000081526004016107d090612f5f565b60405180910390fd5b6107ed67e2c262ce4260545b60c01b612566565b610801675d67d88a123e689160c01b612566565b8160026000858152602001908152602001600020600a0160006101000a81548160ff021916908315150217905550505050565b600061084a67d762fa7c6c37d50660c01b612566565b61085e671ea261b3736522d460c01b612566565b61087267459868f4d929983660c01b612566565b61088667f8ce72b5d3536b9a60c01b612566565b60015482106108ca576040517f08c379a00000000000000000000000000000000000000000000000000000000081526004016108c190612f5f565b60405180910390fd5b6108de675a286fdf257760b860c01b612566565b6108f26765e887ec27f560cd60c01b612566565b610906676568fbf0250a9a5760c01b612566565b60026000838152602001908152602001600020600a0160009054906101000a900460ff169050919050565b6109396126ce565b61094d67b04d39c5e6f69f5c60c01b612566565b6109616761ce6221a32f695560c01b612566565b61097567f6565571302ac30e60c01b612566565b610989672c20243c0f0e0a4f60c01b612566565b60015482106109cd576040517f08c379a00000000000000000000000000000000000000000000000000000000081526004016109c490612f5f565b60405180910390fd5b6109e16759ede53b87dfa0ca60c01b612566565b6109f567683101ddc02dc9e860c01b612566565b610a09678b878fc8e5e6fb2c60c01b612566565b600260008381526020019081526020016000206040518061018001604052908160008201548152602001600182018054610a42906130f8565b80601f0160208091040260200160405190810160405280929190818152602001828054610a6e906130f8565b8015610abb5780601f10610a9057610100808354040283529160200191610abb565b820191906000526020600020905b815481529060010190602001808311610a9e57829003601f168201915b505050505081526020016002820160009054906101000a900473ffffffffffffffffffffffffffffffffffffffff1673ffffffffffffffffffffffffffffffffffffffff1673ffffffffffffffffffffffffffffffffffffffff16815260200160038201548152602001600482015481526020016005820154815260200160068201548152602001600782015481526020016008820154815260200160098201548152602001600a820160009054906101000a900460ff16151515158152602001600b820154815250509050919050565b6000610ba2671324422a7873a3da60c01b612566565b610bb66715560b90cd50b01e60c01b612566565b610bca670305cd9cd539ac6e60c01b612566565b610bde677f0568aaeb0c33d460c01b612566565b6001548210610c22576040517f08c379a0000000000000000000000000000000000000000000000000000000008152600401610c1990612f5f565b60405180910390fd5b610c3667d6d4090f871de3f260c01b612566565b610c4a67652b47b1aec8166860c01b612566565b610c5e6743f8b25febfc9b8260c01b612566565b610c72679d83790bb39c9c7760c01b612566565b60026000838152602001908152602001600020600a0160009054906101000a900460ff16610cd5576040517f08c379a0000000000000000000000000000000000000000000000000000000008152600401610ccc90612fcb565b60405180910390fd5b610ce9670fc64cf6ca78858960c01b612566565b610cfd6748d9f12032d200e460c01b612566565b610d11671702f42fe677d51760c01b612566565b6000600260008481526020019081526020016000206009015460026000858152602001908152602001600020600601546002600086815260200190815260200160002060050154610d62919061301a565b610d6c919061301a565b9050610d8267171ccfe02a3cf0bd60c01b612566565b610d96677deb97982d0696d160c01b612566565b6000811380610db55750610db467defae39df701114360c01b612569565b5b8015610dd15750610dd067491c047f725869f060c01b612570565b5b610ddc576000610dde565b805b915050919050565b6000806000806000610e0267c2b20a8a4e3886a360c01b612566565b610e16674a8774d293726d3660c01b612566565b610e2a6739108c05650b717e60c01b612566565b610e3e67d83c483deb0a40e960c01b612566565b6001548610610e82576040517f08c379a0000000000000000000000000000000000000000000000000000000008152600401610e7990613175565b60405180910390fd5b610e9667e41559b9af7b936b60c01b612566565b610eaa67873b84cb6338c5f860c01b612566565b610ebe6770f2d806e916d2dd60c01b612566565b6000600260008881526020019081526020016000209050610ee967354fa5c916554a8560c01b612566565b610efd672c8d460486d470a360c01b612566565b80600501548160060154826007015483600801548460090154955095509550955095505091939590929450565b60015481565b610f44672f5d3c474838767260c01b612566565b610f58676a5ad04aae31d1b660c01b612566565b610f6c67d502a5ef9f2dfa4f60c01b612566565b610f806717bd4a9b088876e160c01b612566565b610f9467d642e18a857a8ef260c01b612566565b600460009054906101000a900473ffffffffffffffffffffffffffffffffffffffff1673ffffffffffffffffffffffffffffffffffffffff163373ffffffffffffffffffffffffffffffffffffffff1614611024576040517f08c379a000000000000000000000000000000000000000000000000000000000815260040161101b90613207565b60405180910390fd5b6110386786c22fa2488e768460c01b612566565b61104c670269a2df1273f38b60c01b612566565b611060679b525715386667ef60c01b612566565b61107467ca3a66c4410e85ad60c01b612566565b61108867ef8cfa6cf4dfe5ce60c01b612566565b61109c671a592f94464ee6b060c01b612566565b6110b067245012603618026760c01b612566565b60015482106110f4576040517f08c379a00000000000000000000000000000000000000000000000000000000081526004016110eb90612f5f565b60405180910390fd5b611108675de7c156eb33bd2960c01b612566565b61111c67c4e6ab9f2a9a0c9560c01b612566565b61113067571eb7ccd72f08f360c01b612566565b611144670e432b71c23fc0a260c01b612566565b806002600084815260200190815260200160002060090154101561119d576040517f08c379a000000000000000000000000000000000000000000000000000000000815260040161119490613273565b60405180910390fd5b6111b1678a6e80b00935cd0360c01b612566565b6111c567384344826201745460c01b612566565b806002600084815260200190815260200160002060090160008282546111eb9190613293565b92505081905550611206670f51323cd07aad7e60c01b612566565b61121a6779c99591e7e6304260c01b612566565b817fb289bc0a077dda72409091ecfd7217e89eec2e6c01bbb815eecf3599ccf31fcc60026000858152602001908152602001600020600901546040516112609190612a84565b60405180910390a25050565b61127461257b565b61127e6000612602565b565b61129467366ce72b9219a58460c01b612566565b836112a967fa4f067ae74eab6560c01b612566565b6112bd67afdec20e1d74114c60c01b612566565b6112d167a4ace05e2d1d45cd60c01b612566565b6112e5671ac14c798361e87c60c01b612566565b3373ffffffffffffffffffffffffffffffffffffffff166002600083815260200190815260200160002060020160009054906101000a900473ffffffffffffffffffffffffffffffffffffffff1673ffffffffffffffffffffffffffffffffffffffff1614611389576040517f08c379a0000000000000000000000000000000000000000000000000000000008152600401611380906130a9565b60405180910390fd5b61139d6739813d068070cd7a60c01b612566565b6113b167449830fb7314c1ea60c01b612566565b6113c5678d5858aae7daeca060c01b612566565b6113d967ac6288d1048056d360c01b612566565b6113ed67b967d2aaf4825e6160c01b612566565b61140167f5f214a9c628bad260c01b612566565b611415674cadd743f374d2ab60c01b612566565b6001548510611459576040517f08c379a000000000000000000000000000000000000000000000000000000000815260040161145090612f5f565b60405180910390fd5b61146d676788ec642f957ae760c01b612566565b61148167fa7b1fb2d7ff470660c01b612566565b6114956782d24609dd94249d60c01b612566565b6114a9672b9089367569a33660c01b612566565b60026000868152602001908152602001600020600a0160009054906101000a900460ff1661150c576040517f08c379a000000000000000000000000000000000000000000000000000000000815260040161150390612fcb565b60405180910390fd5b6115206739c283729373565060c01b612566565b61153467fe47287d8ecdc20f60c01b612566565b611548670b624af8296d7b2760c01b612566565b61155c676283f85f9c192eab60c01b612566565b60648211156115a0576040517f08c379a000000000000000000000000000000000000000000000000000000000815260040161159790613339565b60405180910390fd5b6115b467a41bba8c4159305160c01b612566565b6115c867ea464fd45ed8930e60c01b612566565b6115dc670f5e7e21303552ba60c01b612566565b6115f067b7be9008bfd83c9b60c01b612566565b6002600086815260200190815260200160002060080154841115611649576040517f08c379a0000000000000000000000000000000000000000000000000000000008152600401611640906133cb565b60405180910390fd5b61165d67d6daf06b072eaec460c01b612566565b6116716701d55785fc782d1960c01b612566565b611685670b9707ab0f3ee56760c01b612566565b611699675fffe45604df573360c01b612566565b60026000868152602001908152602001600020600801548311156116f2576040517f08c379a00000000000000000000000000000000000000000000000000000000081526004016116e99061345d565b60405180910390fd5b61170667df19ec54a283de1060c01b612566565b61171a67d3a9bf9fe28169e760c01b612566565b836002600087815260200190815260200160002060050181905550611749673b95be0ba4c515c160c01b612566565b8260026000878152602001908152602001600020600601819055506117786708d3e7b160c570aa60c01b612566565b8160026000878152602001908152602001600020600701819055506117a76721f60e690a46da7b60c01b612566565b4260026000878152602001908152602001600020600b01819055506117d66747daee6437abbdf260c01b612566565b6117ea67c065a7f1fd7bc0ec60c01b612566565b847f51dffc56f3ebef9bab005c12273259d1c794ecdac4bdb23f96c2d9553ab9410185858542604051611820949392919061347d565b60405180910390a25050505050565b60008060009054906101000a900473ffffffffffffffffffffffffffffffffffffffff16905090565b6002602052806000526040600020600091509050806000015490806001018054611881906130f8565b80601f01602080910402602001604051908101604052809291908181526020018280546118ad906130f8565b80156118fa5780601f106118cf576101008083540402835291602001916118fa565b820191906000526020600020905b8154815290600101906020018083116118dd57829003601f168201915b5050505050908060020160009054906101000a900473ffffffffffffffffffffffffffffffffffffffff169080600301549080600401549080600501549080600601549080600701549080600801549080600901549080600a0160009054906101000a900460ff169080600b015490508c565b61198167996bcc77b4dd022160c01b612566565b61199567d361145a6ecd39e260c01b612566565b6119a9679291de0b7230fe1e60c01b612566565b6119bd67adf31b09c471e45060c01b612566565b60008111611a00576040517f08c379a00000000000000000000000000000000000000000000000000000000081526004016119f790613534565b60405180910390fd5b611a14675f39edb0ea14ab4460c01b612566565b611a286785961d1be68ed07160c01b612566565b611a3c6727e72d98da31b7df60c01b612566565b611a50672e86007e8cce32b860c01b612566565b600360003373ffffffffffffffffffffffffffffffffffffffff1673ffffffffffffffffffffffffffffffffffffffff16815260200190815260200160002060009054906101000a900460ff1615611add576040517f08c379a0000000000000000000000000000000000000000000000000000000008152600401611ad4906135c6565b60405180910390fd5b611af16701819a4401d310b160c01b612566565b611b056713a957b9f7ec1dc360c01b612566565b611b1967891d80d03ac6a17f60c01b612566565b600060016000815480929190611b2e906135e6565b919050559050611b4867ccd2107b25c4bd7c60c01b612566565b6040518061018001604052808281526020018681526020013373ffffffffffffffffffffffffffffffffffffffff168152602001858152602001848152602001600081526020016000815260200160648152602001838152602001600081526020016001151581526020014281525060026000838152602001908152602001600020600082015181600001556020820151816001019081611be991906137da565b5060408201518160020160006101000a81548173ffffffffffffffffffffffffffffffffffffffff021916908373ffffffffffffffffffffffffffffffffffffffff160217905550606082015181600301556080820151816004015560a0820151816005015560c0820151816006015560e082015181600701556101008201518160080155610120820151816009015561014082015181600a0160006101000a81548160ff02191690831515021790555061016082015181600b0155905050611cbc67799a67e54c3f41b760c01b612566565b6001600360003373ffffffffffffffffffffffffffffffffffffffff1673ffffffffffffffffffffffffffffffffffffffff16815260200190815260200160002060006101000a81548160ff021916908315150217905550611d2867269be0f902554f2560c01b612566565b611d3c67d5d45cc58e54426b60c01b612566565b3373ffffffffffffffffffffffffffffffffffffffff16817f7b2068605e8ed71972e65749aa4b5d44adfa00427b5bde64876aeba6a4411a86878787604051611d87939291906138ac565b60405180910390a35050505050565b611daa671c61b3a5956e4cfc60c01b612566565b611db261257b565b611dc6674531e96e5c496f4460c01b612566565b611dda6756b573d7891c888e60c01b612566565b611dee67b49686be80667d3360c01b612566565b611e026752b3c6e66d76e7d660c01b612566565b611e1667bc8323eaea9afcb460c01b612566565b600073ffffffffffffffffffffffffffffffffffffffff16600460009054906101000a900473ffffffffffffffffffffffffffffffffffffffff1673ffffffffffffffffffffffffffffffffffffffff1614611ea7576040517f08c379a0000000000000000000000000000000000000000000000000000000008152600401611e9e90613936565b60405180910390fd5b611ebb672a599fec7ed0750360c01b612566565b611ecf67f74fbf3aead8a23f60c01b612566565b80600460006101000a81548173ffffffffffffffffffffffffffffffffffffffff021916908373ffffffffffffffffffffffffffffffffffffffff16021790555050565b60036020528060005260406000206000915054906101000a900460ff1681565b6000611f4967ca4bb878fb4ec9b860c01b612566565b611f5d67e12cb3328be2465d60c01b612566565b611f71675c34391cd8a117ee60c01b612566565b611f8567f95f8bbb565b53b560c01b612566565b6001548210611fc9576040517f08c379a0000000000000000000000000000000000000000000000000000000008152600401611fc090612f5f565b60405180910390fd5b611fdd67210f72b6dc17970260c01b612566565b611ff167d55c83df174856b960c01b612566565b6120056744d688c12effcb3260c01b612566565b6002600083815260200190815260200160002060020160009054906101000a900473ffffffffffffffffffffffffffffffffffffffff169050919050565b6000612059674c19e989d821af5860c01b612566565b61206d671cdcb680dd5ee62460c01b612566565b612081670e9da262b5b2c54660c01b612566565b6120956724e650501ca9cb1560c01b612566565b60015482106120d9576040517f08c379a00000000000000000000000000000000000000000000000000000000081526004016120d090612f5f565b60405180910390fd5b6120ec666313cff83a1d7160c01b612566565b61210067fc36b5df670d4aef60c01b612566565b61211467e390373532fa951e60c01b612566565b612128679cd94390c7b0b3f760c01b612566565b60026000838152602001908152602001600020600a0160009054906101000a900460ff1661218b576040517f08c379a000000000000000000000000000000000000000000000000000000000815260040161218290612fcb565b60405180910390fd5b61219f679f47add35597033460c01b612566565b6121b36780ce5745264ac26a60c01b612566565b6121c767f0a14cb56e33a28260c01b612566565b600260008381526020019081526020016000206009015460026000848152602001908152602001600020600601546002600085815260200190815260200160002060050154612216919061301a565b612220919061301a565b9050919050565b61223b67252ac259dda5b6af60c01b612566565b61224f676a5ad04aae31d1b660c01b612566565b61226367d502a5ef9f2dfa4f60c01b612566565b6122776717bd4a9b088876e160c01b612566565b61228b67d642e18a857a8ef260c01b612566565b600460009054906101000a900473ffffffffffffffffffffffffffffffffffffffff1673ffffffffffffffffffffffffffffffffffffffff163373ffffffffffffffffffffffffffffffffffffffff161461231b576040517f08c379a000000000000000000000000000000000000000000000000000000000815260040161231290613207565b60405180910390fd5b61232f6786c22fa2488e768460c01b612566565b612343670269a2df1273f38b60c01b612566565b6123576743b45f3873535c8560c01b612566565b61236b67959a014e8f200f4960c01b612566565b61237f674acfd88884345e6460c01b612566565b61239367b6c94fdca21c5f2160c01b612566565b6123a7672a196dff200f2f2460c01b612566565b60015482106123eb576040517f08c379a00000000000000000000000000000000000000000000000000000000081526004016123e290612f5f565b60405180910390fd5b6123ff6787ff27b23e47aee560c01b612566565b612413671a3ade033fc64fa960c01b612566565b806002600084815260200190815260200160002060090160008282546124399190613956565b9250508190555061245467e0ab9ee7266a059760c01b612566565b61246867ae90b112036f44c960c01b612566565b817fb289bc0a077dda72409091ecfd7217e89eec2e6c01bbb815eecf3599ccf31fcc60026000858152602001908152602001600020600901546040516124ae9190612a84565b60405180910390a25050565b600460009054906101000a900473ffffffffffffffffffffffffffffffffffffffff1681565b6124e861257b565b600073ffffffffffffffffffffffffffffffffffffffff168173ffffffffffffffffffffffffffffffffffffffff160361255a5760006040517f1e4fbdf70000000000000000000000000000000000000000000000000000000081526004016125519190612ba8565b60405180910390fd5b61256381612602565b50565b50565b6000919050565b600060019050919050565b6125836126c6565b73ffffffffffffffffffffffffffffffffffffffff166125a161182f565b73ffffffffffffffffffffffffffffffffffffffff1614612600576125c46126c6565b6040517f118cdaa70000000000000000000000000000000000000000000000000000000081526004016125f79190612ba8565b60405180910390fd5b565b60008060009054906101000a900473ffffffffffffffffffffffffffffffffffffffff169050816000806101000a81548173ffffffffffffffffffffffffffffffffffffffff021916908373ffffffffffffffffffffffffffffffffffffffff1602179055508173ffffffffffffffffffffffffffffffffffffffff168173ffffffffffffffffffffffffffffffffffffffff167f8be0079c531659141344cd1fd0a4f28419497f9722a3daafe3b4186f6b6457e060405160405180910390a35050565b600033905090565b6040518061018001604052806000815260200160608152602001600073ffffffffffffffffffffffffffffffffffffffff16815260200160008152602001600081526020016000815260200160008152602001600081526020016000815260200160008152602001600015158152602001600081525090565b6000604051905090565b600080fd5b600080fd5b6000819050919050565b61276e8161275b565b811461277957600080fd5b50565b60008135905061278b81612765565b92915050565b6000602082840312156127a7576127a6612751565b5b60006127b58482850161277c565b91505092915050565b60008115159050919050565b6127d3816127be565b82525050565b60006020820190506127ee60008301846127ca565b92915050565b6127fd816127be565b811461280857600080fd5b50565b60008135905061281a816127f4565b92915050565b6000806040838503121561283757612836612751565b5b60006128458582860161277c565b92505060206128568582860161280b565b9150509250929050565b6128698161275b565b82525050565b600081519050919050565b600082825260208201905092915050565b60005b838110156128a957808201518184015260208101905061288e565b60008484015250505050565b6000601f19601f8301169050919050565b60006128d18261286f565b6128db818561287a565b93506128eb81856020860161288b565b6128f4816128b5565b840191505092915050565b600073ffffffffffffffffffffffffffffffffffffffff82169050919050565b600061292a826128ff565b9050919050565b61293a8161291f565b82525050565b612949816127be565b82525050565b6000610180830160008301516129686000860182612860565b506020830151848203602086015261298082826128c6565b91505060408301516129956040860182612931565b5060608301516129a86060860182612860565b5060808301516129bb6080860182612860565b5060a08301516129ce60a0860182612860565b5060c08301516129e160c0860182612860565b5060e08301516129f460e0860182612860565b50610100830151612a09610100860182612860565b50610120830151612a1e610120860182612860565b50610140830151612a33610140860182612940565b50610160830151612a48610160860182612860565b508091505092915050565b60006020820190508181036000830152612a6d818461294f565b905092915050565b612a7e8161275b565b82525050565b6000602082019050612a996000830184612a75565b92915050565b600060a082019050612ab46000830188612a75565b612ac16020830187612a75565b612ace6040830186612a75565b612adb6060830185612a75565b612ae86080830184612a75565b9695505050505050565b60008060408385031215612b0957612b08612751565b5b6000612b178582860161277c565b9250506020612b288582860161277c565b9150509250929050565b60008060008060808587031215612b4c57612b4b612751565b5b6000612b5a8782880161277c565b9450506020612b6b8782880161277c565b9350506040612b7c8782880161277c565b9250506060612b8d8782880161277c565b91505092959194509250565b612ba28161291f565b82525050565b6000602082019050612bbd6000830184612b99565b92915050565b600082825260208201905092915050565b6000612bdf8261286f565b612be98185612bc3565b9350612bf981856020860161288b565b612c02816128b5565b840191505092915050565b600061018082019050612c23600083018f612a75565b8181036020830152612c35818e612bd4565b9050612c44604083018d612b99565b612c51606083018c612a75565b612c5e608083018b612a75565b612c6b60a083018a612a75565b612c7860c0830189612a75565b612c8560e0830188612a75565b612c93610100830187612a75565b612ca1610120830186612a75565b612caf6101408301856127ca565b612cbd610160830184612a75565b9d9c50505050505050505050505050565b600080fd5b600080fd5b7f4e487b7100000000000000000000000000000000000000000000000000000000600052604160045260246000fd5b612d10826128b5565b810181811067ffffffffffffffff82111715612d2f57612d2e612cd8565b5b80604052505050565b6000612d42612747565b9050612d4e8282612d07565b919050565b600067ffffffffffffffff821115612d6e57612d6d612cd8565b5b612d77826128b5565b9050602081019050919050565b82818337600083830152505050565b6000612da6612da184612d53565b612d38565b905082815260208101848484011115612dc257612dc1612cd3565b5b612dcd848285612d84565b509392505050565b600082601f830112612dea57612de9612cce565b5b8135612dfa848260208601612d93565b91505092915050565b60008060008060808587031215612e1d57612e1c612751565b5b600085013567ffffffffffffffff811115612e3b57612e3a612756565b5b612e4787828801612dd5565b9450506020612e588782880161277c565b9350506040612e698782880161277c565b9250506060612e7a8782880161277c565b91505092959194509250565b612e8f8161291f565b8114612e9a57600080fd5b50565b600081359050612eac81612e86565b92915050565b600060208284031215612ec857612ec7612751565b5b6000612ed684828501612e9d565b91505092915050565b6000819050919050565b612ef281612edf565b82525050565b6000602082019050612f0d6000830184612ee9565b92915050565b7f4d6963726f6772696420646f6573206e6f742065786973740000000000000000600082015250565b6000612f49601883612bc3565b9150612f5482612f13565b602082019050919050565b60006020820190508181036000830152612f7881612f3c565b9050919050565b7f4d6963726f67726964206973206e6f7420616374697665000000000000000000600082015250565b6000612fb5601783612bc3565b9150612fc082612f7f565b602082019050919050565b60006020820190508181036000830152612fe481612fa8565b9050919050565b7f4e487b7100000000000000000000000000000000000000000000000000000000600052601160045260246000fd5b600061302582612edf565b915061303083612edf565b925082820390508181126000841216828213600085121516171561305757613056612feb565b5b92915050565b7f4e6f7420746865206f776e6572206f662074686973206d6963726f6772696400600082015250565b6000613093601f83612bc3565b915061309e8261305d565b602082019050919050565b600060208201905081810360008301526130c281613086565b9050919050565b7f4e487b7100000000000000000000000000000000000000000000000000000000600052602260045260246000fd5b6000600282049050600182168061311057607f821691505b602082108103613123576131226130c9565b5b50919050565b7f4d6963726f6772696420646f65736e2774206578697374000000000000000000600082015250565b600061315f601783612bc3565b915061316a82613129565b602082019050919050565b6000602082019050818103600083015261318e81613152565b9050919050565b7f4f6e6c7920746865206d61726b6574706c6163652063616e2063616c6c20746860008201527f69732066756e6374696f6e000000000000000000000000000000000000000000602082015250565b60006131f1602b83612bc3565b91506131fc82613195565b604082019050919050565b60006020820190508181036000830152613220816131e4565b9050919050565b7f496e73756666696369656e7420726573657276656420656e6572677900000000600082015250565b600061325d601c83612bc3565b915061326882613227565b602082019050919050565b6000602082019050818103600083015261328c81613250565b9050919050565b600061329e8261275b565b91506132a98361275b565b92508282039050818111156132c1576132c0612feb565b5b92915050565b7f42617474657279206c6576656c206d757374206265206265747765656e20302060008201527f616e642031303000000000000000000000000000000000000000000000000000602082015250565b6000613323602783612bc3565b915061332e826132c7565b604082019050919050565b6000602082019050818103600083015261335281613316565b9050919050565b7f456e657267792067656e6572617465642065786365656473206d61782063617060008201527f6163697479000000000000000000000000000000000000000000000000000000602082015250565b60006133b5602583612bc3565b91506133c082613359565b604082019050919050565b600060208201905081810360008301526133e4816133a8565b9050919050565b7f456e657267792064656d616e642065786365656473206d61782063617061636960008201527f7479000000000000000000000000000000000000000000000000000000000000602082015250565b6000613447602283612bc3565b9150613452826133eb565b604082019050919050565b600060208201905081810360008301526134768161343a565b9050919050565b60006080820190506134926000830187612a75565b61349f6020830186612a75565b6134ac6040830185612a75565b6134b96060830184612a75565b95945050505050565b7f4d6178206361706163697479206d75737420626520677265617465722074686160008201527f6e207a65726f0000000000000000000000000000000000000000000000000000602082015250565b600061351e602683612bc3565b9150613529826134c2565b604082019050919050565b6000602082019050818103600083015261354d81613511565b9050919050565b7f4d6963726f6772696420616c7265616479207265676973746572656420666f7260008201527f2074686973206f776e6572000000000000000000000000000000000000000000602082015250565b60006135b0602b83612bc3565b91506135bb82613554565b604082019050919050565b600060208201905081810360008301526135df816135a3565b9050919050565b60006135f18261275b565b91507fffffffffffffffffffffffffffffffffffffffffffffffffffffffffffffffff820361362357613622612feb565b5b600182019050919050565b60008190508160005260206000209050919050565b60006020601f8301049050919050565b600082821b905092915050565b6000600883026136907fffffffffffffffffffffffffffffffffffffffffffffffffffffffffffffffff82613653565b61369a8683613653565b95508019841693508086168417925050509392505050565b6000819050919050565b60006136d76136d26136cd8461275b565b6136b2565b61275b565b9050919050565b6000819050919050565b6136f1836136bc565b6137056136fd826136de565b848454613660565b825550505050565b600090565b61371a61370d565b6137258184846136e8565b505050565b5b818110156137495761373e600082613712565b60018101905061372b565b5050565b601f82111561378e5761375f8161362e565b61376884613643565b81016020851015613777578190505b61378b61378385613643565b83018261372a565b50505b505050565b600082821c905092915050565b60006137b160001984600802613793565b1980831691505092915050565b60006137ca83836137a0565b9150826002028217905092915050565b6137e38261286f565b67ffffffffffffffff8111156137fc576137fb612cd8565b5b61380682546130f8565b61381182828561374d565b600060209050601f8311600181146138445760008415613832578287015190505b61383c85826137be565b8655506138a4565b601f1984166138528661362e565b60005b8281101561387a57848901518255600182019150602085019450602081019050613855565b868310156138975784890151613893601f8916826137a0565b8355505b6001600288020188555050505b505050505050565b600060608201905081810360008301526138c68186612bd4565b90506138d56020830185612a75565b6138e26040830184612a75565b949350505050565b7f4d61726b6574706c616365206164647265737320616c72656164792073657400600082015250565b6000613920601f83612bc3565b915061392b826138ea565b602082019050919050565b6000602082019050818103600083015261394f81613913565b9050919050565b60006139618261275b565b915061396c8361275b565b925082820190508082111561398457613983612feb565b5b9291505056fea2646970667358221220681ac7cf65895ee1134a8d03c8494607876fe9e3e1c0640fc2896bd483c2826d64736f6c634300081c0033",
  "linkReferences": {},
  "deployedLinkReferences": {}
}