{
  "_format": "hh-sol-artifact-1",
  "contractName": "MicrogridRegistry",
  "sourceName": "contracts/MicrogridRegistry.sol",
  "abi": [
    {
      "inputs": [
        {
          "internalType": "address",
          "name": "_owner",
          "type": "address"
        }
      ],
      "stateMutability": "nonpayable",
      "type": "constructor"
    },
    {
      "inputs": [
        {
          "internalType": "address",
          "name": "owner",
          "type": "address"
        }
      ],
      "name": "OwnableInvalidOwner",
      "type": "error"
    },
    {
      "inputs": [
        {
          "internalType": "address",
          "name": "account",
          "type": "address"
        }
      ],
      "name": "OwnableUnauthorizedAccount",
      "type": "error"
    },
    {
      "anonymous": false,
      "inputs": [
        {
          "indexed": true,
          "internalType": "uint256",
          "name": "id",
          "type": "uint256"
        },
        {
          "indexed": true,
          "internalType": "address",
          "name": "owner",
          "type": "address"
        },
        {
          "indexed": false,
          "internalType": "string",
          "name": "name",
          "type": "string"
        },
        {
          "indexed": false,
          "internalType": "uint256",
          "name": "latitude",
          "type": "uint256"
        },
        {
          "indexed": false,
          "internalType": "uint256",
          "name": "longitude",
          "type": "uint256"
        }
      ],
      "name": "MicrogridRegistered",
      "type": "event"
    },
    {
      "anonymous": false,
      "inputs": [
        {
          "indexed": true,
          "internalType": "address",
          "name": "previousOwner",
          "type": "address"
        },
        {
          "indexed": true,
          "internalType": "address",
          "name": "newOwner",
          "type": "address"
        }
      ],
      "name": "OwnershipTransferred",
      "type": "event"
    },
    {
      "anonymous": false,
      "inputs": [
        {
          "indexed": true,
          "internalType": "uint256",
          "name": "id",
          "type": "uint256"
        },
        {
          "indexed": false,
          "internalType": "uint256",
          "name": "reservedEnergy",
          "type": "uint256"
        }
      ],
      "name": "ReservedEnergyUpdated",
      "type": "event"
    },
    {
      "anonymous": false,
      "inputs": [
        {
          "indexed": true,
          "internalType": "uint256",
          "name": "id",
          "type": "uint256"
        },
        {
          "indexed": false,
          "internalType": "uint256",
          "name": "energyGenerated",
          "type": "uint256"
        },
        {
          "indexed": false,
          "internalType": "uint256",
          "name": "energyDemand",
          "type": "uint256"
        },
        {
          "indexed": false,
          "internalType": "uint256",
          "name": "batteryLevel",
          "type": "uint256"
        },
        {
          "indexed": false,
          "internalType": "uint256",
          "name": "lastUpdated",
          "type": "uint256"
        }
      ],
      "name": "StatusUpdated",
      "type": "event"
    },
    {
      "inputs": [
        {
          "internalType": "uint256",
          "name": "_id",
          "type": "uint256"
        },
        {
          "internalType": "uint256",
          "name": "_amount",
          "type": "uint256"
        }
      ],
      "name": "decreaseReservedEnergy",
      "outputs": [],
      "stateMutability": "nonpayable",
      "type": "function"
    },
    {
      "inputs": [
        {
          "internalType": "uint256",
          "name": "_id",
          "type": "uint256"
        }
      ],
      "name": "getAvailableEnergy",
      "outputs": [
        {
          "internalType": "uint256",
          "name": "",
          "type": "uint256"
        }
      ],
      "stateMutability": "view",
      "type": "function"
    },
    {
      "inputs": [
        {
          "internalType": "uint256",
          "name": "_id",
          "type": "uint256"
        }
      ],
      "name": "getMicrogrid",
      "outputs": [
        {
          "components": [
            {
              "internalType": "uint256",
              "name": "id",
              "type": "uint256"
            },
            {
              "internalType": "string",
              "name": "name",
              "type": "string"
            },
            {
              "internalType": "address",
              "name": "owner",
              "type": "address"
            },
            {
              "internalType": "uint256",
              "name": "latitude",
              "type": "uint256"
            },
            {
              "internalType": "uint256",
              "name": "longitude",
              "type": "uint256"
            },
            {
              "internalType": "uint256",
              "name": "energyGenerated",
              "type": "uint256"
            },
            {
              "internalType": "uint256",
              "name": "energyDemand",
              "type": "uint256"
            },
            {
              "internalType": "uint256",
              "name": "batteryLevel",
              "type": "uint256"
            },
            {
              "internalType": "uint256",
              "name": "maxCapacity",
              "type": "uint256"
            },
            {
              "internalType": "uint256",
              "name": "reservedEnergy",
              "type": "uint256"
            },
            {
              "internalType": "bool",
              "name": "isActive",
              "type": "bool"
            },
            {
              "internalType": "uint256",
              "name": "lastUpdated",
              "type": "uint256"
            }
          ],
          "internalType": "struct MicrogridRegistry.Microgrid",
          "name": "",
          "type": "tuple"
        }
      ],
      "stateMutability": "view",
      "type": "function"
    },
    {
      "inputs": [],
      "name": "getMyMicrogrid",
      "outputs": [
        {
          "components": [
            {
              "internalType": "uint256",
              "name": "id",
              "type": "uint256"
            },
            {
              "internalType": "string",
              "name": "name",
              "type": "string"
            },
            {
              "internalType": "address",
              "name": "owner",
              "type": "address"
            },
            {
              "internalType": "uint256",
              "name": "latitude",
              "type": "uint256"
            },
            {
              "internalType": "uint256",
              "name": "longitude",
              "type": "uint256"
            },
            {
              "internalType": "uint256",
              "name": "energyGenerated",
              "type": "uint256"
            },
            {
              "internalType": "uint256",
              "name": "energyDemand",
              "type": "uint256"
            },
            {
              "internalType": "uint256",
              "name": "batteryLevel",
              "type": "uint256"
            },
            {
              "internalType": "uint256",
              "name": "maxCapacity",
              "type": "uint256"
            },
            {
              "internalType": "uint256",
              "name": "reservedEnergy",
              "type": "uint256"
            },
            {
              "internalType": "bool",
              "name": "isActive",
              "type": "bool"
            },
            {
              "internalType": "uint256",
              "name": "lastUpdated",
              "type": "uint256"
            }
          ],
          "internalType": "struct MicrogridRegistry.Microgrid",
          "name": "",
          "type": "tuple"
        }
      ],
      "stateMutability": "view",
      "type": "function"
    },
    {
      "inputs": [
        {
          "internalType": "uint256",
          "name": "_id",
          "type": "uint256"
        }
      ],
      "name": "getOwner",
      "outputs": [
        {
          "internalType": "address",
          "name": "",
          "type": "address"
        }
      ],
      "stateMutability": "view",
      "type": "function"
    },
    {
      "inputs": [
        {
          "internalType": "uint256",
          "name": "_id",
          "type": "uint256"
        }
      ],
      "name": "getPricingData",
      "outputs": [
        {
          "internalType": "uint256",
          "name": "generation",
          "type": "uint256"
        },
        {
          "internalType": "uint256",
          "name": "demand",
          "type": "uint256"
        },
        {
          "internalType": "uint256",
          "name": "batteryLevel",
          "type": "uint256"
        },
        {
          "internalType": "uint256",
          "name": "maxCapacity",
          "type": "uint256"
        },
        {
          "internalType": "uint256",
          "name": "reservedEnergy",
          "type": "uint256"
        }
      ],
      "stateMutability": "view",
      "type": "function"
    },
    {
      "inputs": [
        {
          "internalType": "uint256",
          "name": "_id",
          "type": "uint256"
        }
      ],
      "name": "getSurplus",
      "outputs": [
        {
          "internalType": "int256",
          "name": "",
          "type": "int256"
        }
      ],
      "stateMutability": "view",
      "type": "function"
    },
    {
      "inputs": [
        {
          "internalType": "uint256",
          "name": "_id",
          "type": "uint256"
        },
        {
          "internalType": "uint256",
          "name": "_amount",
          "type": "uint256"
        }
      ],
      "name": "increaseReservedEnergy",
      "outputs": [],
      "stateMutability": "nonpayable",
      "type": "function"
    },
    {
      "inputs": [
        {
          "internalType": "uint256",
          "name": "_id",
          "type": "uint256"
        }
      ],
      "name": "isMicrogridActive",
      "outputs": [
        {
          "internalType": "bool",
          "name": "",
          "type": "bool"
        }
      ],
      "stateMutability": "view",
      "type": "function"
    },
    {
      "inputs": [
        {
          "internalType": "address",
          "name": "",
          "type": "address"
        }
      ],
      "name": "isRegistered",
      "outputs": [
        {
          "internalType": "bool",
          "name": "",
          "type": "bool"
        }
      ],
      "stateMutability": "view",
      "type": "function"
    },
    {
      "inputs": [],
      "name": "marketplaceAddress",
      "outputs": [
        {
          "internalType": "address",
          "name": "",
          "type": "address"
        }
      ],
      "stateMutability": "view",
      "type": "function"
    },
    {
      "inputs": [
        {
          "internalType": "uint256",
          "name": "",
          "type": "uint256"
        }
      ],
      "name": "microgrids",
      "outputs": [
        {
          "internalType": "uint256",
          "name": "id",
          "type": "uint256"
        },
        {
          "internalType": "string",
          "name": "name",
          "type": "string"
        },
        {
          "internalType": "address",
          "name": "owner",
          "type": "address"
        },
        {
          "internalType": "uint256",
          "name": "latitude",
          "type": "uint256"
        },
        {
          "internalType": "uint256",
          "name": "longitude",
          "type": "uint256"
        },
        {
          "internalType": "uint256",
          "name": "energyGenerated",
          "type": "uint256"
        },
        {
          "internalType": "uint256",
          "name": "energyDemand",
          "type": "uint256"
        },
        {
          "internalType": "uint256",
          "name": "batteryLevel",
          "type": "uint256"
        },
        {
          "internalType": "uint256",
          "name": "maxCapacity",
          "type": "uint256"
        },
        {
          "internalType": "uint256",
          "name": "reservedEnergy",
          "type": "uint256"
        },
        {
          "internalType": "bool",
          "name": "isActive",
          "type": "bool"
        },
        {
          "internalType": "uint256",
          "name": "lastUpdated",
          "type": "uint256"
        }
      ],
      "stateMutability": "view",
      "type": "function"
    },
    {
      "inputs": [],
      "name": "nextId",
      "outputs": [
        {
          "internalType": "uint256",
          "name": "",
          "type": "uint256"
        }
      ],
      "stateMutability": "view",
      "type": "function"
    },
    {
      "inputs": [],
      "name": "owner",
      "outputs": [
        {
          "internalType": "address",
          "name": "",
          "type": "address"
        }
      ],
      "stateMutability": "view",
      "type": "function"
    },
    {
      "inputs": [
        {
          "internalType": "address",
          "name": "",
          "type": "address"
        }
      ],
      "name": "ownerToMicrogridId",
      "outputs": [
        {
          "internalType": "uint256",
          "name": "",
          "type": "uint256"
        }
      ],
      "stateMutability": "view",
      "type": "function"
    },
    {
      "inputs": [
        {
          "internalType": "string",
          "name": "_name",
          "type": "string"
        },
        {
          "internalType": "uint256",
          "name": "_latitude",
          "type": "uint256"
        },
        {
          "internalType": "uint256",
          "name": "_longitude",
          "type": "uint256"
        },
        {
          "internalType": "uint256",
          "name": "_maxCapacity",
          "type": "uint256"
        }
      ],
      "name": "registerMicrogrid",
      "outputs": [],
      "stateMutability": "nonpayable",
      "type": "function"
    },
    {
      "inputs": [],
      "name": "renounceOwnership",
      "outputs": [],
      "stateMutability": "nonpayable",
      "type": "function"
    },
    {
      "inputs": [
        {
          "internalType": "address",
          "name": "_marketplaceAddress",
          "type": "address"
        }
      ],
      "name": "setMarketplaceAddress",
      "outputs": [],
      "stateMutability": "nonpayable",
      "type": "function"
    },
    {
      "inputs": [
        {
          "internalType": "bool",
          "name": "_status",
          "type": "bool"
        }
      ],
      "name": "setMicrogridStatus",
      "outputs": [],
      "stateMutability": "nonpayable",
      "type": "function"
    },
    {
      "inputs": [
        {
          "internalType": "address",
          "name": "newOwner",
          "type": "address"
        }
      ],
      "name": "transferOwnership",
      "outputs": [],
      "stateMutability": "nonpayable",
      "type": "function"
    },
    {
      "inputs": [
        {
          "internalType": "uint256",
          "name": "_energyGenerated",
          "type": "uint256"
        },
        {
          "internalType": "uint256",
          "name": "_energyDemand",
          "type": "uint256"
        },
        {
          "internalType": "uint256",
          "name": "_batteryLevel",
          "type": "uint256"
        }
      ],
      "name": "updateStatus",
      "outputs": [],
      "stateMutability": "nonpayable",
      "type": "function"
    }
  ],
  "bytecode": "0x608060405234801561001057600080fd5b50604051612ff5380380612ff5833981810160405281019061003291906101e2565b80600073ffffffffffffffffffffffffffffffffffffffff168173ffffffffffffffffffffffffffffffffffffffff16036100a55760006040517f1e4fbdf700000000000000000000000000000000000000000000000000000000815260040161009c919061021e565b60405180910390fd5b6100b4816100bb60201b60201c565b5050610239565b60008060009054906101000a900473ffffffffffffffffffffffffffffffffffffffff169050816000806101000a81548173ffffffffffffffffffffffffffffffffffffffff021916908373ffffffffffffffffffffffffffffffffffffffff1602179055508173ffffffffffffffffffffffffffffffffffffffff168173ffffffffffffffffffffffffffffffffffffffff167f8be0079c531659141344cd1fd0a4f28419497f9722a3daafe3b4186f6b6457e060405160405180910390a35050565b600080fd5b600073ffffffffffffffffffffffffffffffffffffffff82169050919050565b60006101af82610184565b9050919050565b6101bf816101a4565b81146101ca57600080fd5b50565b6000815190506101dc816101b6565b92915050565b6000602082840312156101f8576101f761017f565b5b6000610206848285016101cd565b91505092915050565b610218816101a4565b82525050565b6000602082019050610233600083018461020f565b92915050565b612dad806102486000396000f3fe608060405234801561001057600080fd5b50600436106101375760003560e01c8063955464ef116100b8578063c41a360a1161007c578063c41a360a1461036f578063d05318971461039f578063d3e0bada146103cf578063daa17f49146103eb578063f2fde38b14610409578063fae0c6f61461042557610137565b8063955464ef146102bb578063aa392765146102d7578063ad26a07c14610307578063b47cc55614610323578063c3c5a5471461033f57610137565b806361f2d09f116100ff57806361f2d09f1461021e578063715018a61461023a5780637c198ac1146102445780638da5cb5b1461026257806393e64b481461028057610137565b80631c334a7e1461013c5780634504b83a1461016c57806347846fd91461019c5780634fa4c02d146101cc57806361b8ce8c14610200575b600080fd5b61015660048036038101906101519190611ba5565b610441565b6040516101639190611bed565b60405180910390f35b61018660048036038101906101819190611ba5565b6104b2565b6040516101939190611dfb565b60405180910390f35b6101b660048036038101906101b19190611ba5565b610681565b6040516101c39190611e2c565b60405180910390f35b6101e660048036038101906101e19190611ba5565b6107a0565b6040516101f7959493929190611e47565b60405180910390f35b610208610830565b6040516102159190611e2c565b60405180910390f35b61023860048036038101906102339190611e9a565b610836565b005b6102426109e2565b005b61024c6109f6565b6040516102599190611dfb565b60405180910390f35b61026a610c50565b6040516102779190611ee9565b60405180910390f35b61029a60048036038101906102959190611ba5565b610c79565b6040516102b29c9b9a99989796959493929190611f4e565b60405180910390f35b6102d560048036038101906102d09190612144565b610d8e565b005b6102f160048036038101906102ec91906121f3565b6110cf565b6040516102fe9190611e2c565b60405180910390f35b610321600480360381019061031c9190612220565b6110e7565b005b61033d600480360381019061033891906121f3565b611404565b005b610359600480360381019061035491906121f3565b6114e1565b6040516103669190611bed565b60405180910390f35b61038960048036038101906103849190611ba5565b611501565b6040516103969190611ee9565b60405180910390f35b6103b960048036038101906103b49190611ba5565b611585565b6040516103c6919061228c565b60405180910390f35b6103e960048036038101906103e49190611e9a565b61168e565b005b6103f36117e1565b6040516104009190611ee9565b60405180910390f35b610423600480360381019061041e91906121f3565b611807565b005b61043f600480360381019061043a91906122d3565b61188d565b005b60006001548210610487576040517f08c379a000000000000000000000000000000000000000000000000000000000815260040161047e9061234c565b60405180910390fd5b60026000838152602001908152602001600020600a0160009054906101000a900460ff169050919050565b6104ba611ae2565b60015482106104fe576040517f08c379a00000000000000000000000000000000000000000000000000000000081526004016104f59061234c565b60405180910390fd5b6002600083815260200190815260200160002060405180610180016040529081600082015481526020016001820180546105379061239b565b80601f01602080910402602001604051908101604052809291908181526020018280546105639061239b565b80156105b05780601f10610585576101008083540402835291602001916105b0565b820191906000526020600020905b81548152906001019060200180831161059357829003601f168201915b505050505081526020016002820160009054906101000a900473ffffffffffffffffffffffffffffffffffffffff1673ffffffffffffffffffffffffffffffffffffffff1673ffffffffffffffffffffffffffffffffffffffff16815260200160038201548152602001600482015481526020016005820154815260200160068201548152602001600782015481526020016008820154815260200160098201548152602001600a820160009054906101000a900460ff16151515158152602001600b820154815250509050919050565b600060015482106106c7576040517f08c379a00000000000000000000000000000000000000000000000000000000081526004016106be9061234c565b60405180910390fd5b60026000838152602001908152602001600020600a0160009054906101000a900460ff1661072a576040517f08c379a000000000000000000000000000000000000000000000000000000000815260040161072190612418565b60405180910390fd5b600060026000848152602001908152602001600020600901546002600085815260200190815260200160002060060154600260008681526020019081526020016000206005015461077b9190612467565b6107859190612467565b905060008113610796576000610798565b805b915050919050565b600080600080600060015486106107ec576040517f08c379a00000000000000000000000000000000000000000000000000000000081526004016107e3906124f6565b60405180910390fd5b600060026000888152602001908152602001600020905080600501548160060154826007015483600801548460090154955095509550955095505091939590929450565b60015481565b600560009054906101000a900473ffffffffffffffffffffffffffffffffffffffff1673ffffffffffffffffffffffffffffffffffffffff163373ffffffffffffffffffffffffffffffffffffffff16146108c6576040517f08c379a00000000000000000000000000000000000000000000000000000000081526004016108bd90612588565b60405180910390fd5b600154821061090a576040517f08c379a00000000000000000000000000000000000000000000000000000000081526004016109019061234c565b60405180910390fd5b8060026000848152602001908152602001600020600901541015610963576040517f08c379a000000000000000000000000000000000000000000000000000000000815260040161095a906125f4565b60405180910390fd5b806002600084815260200190815260200160002060090160008282546109899190612614565b92505081905550817fb289bc0a077dda72409091ecfd7217e89eec2e6c01bbb815eecf3599ccf31fcc60026000858152602001908152602001600020600901546040516109d69190611e2c565b60405180910390a25050565b6109ea61198f565b6109f46000611a16565b565b6109fe611ae2565b600360003373ffffffffffffffffffffffffffffffffffffffff1673ffffffffffffffffffffffffffffffffffffffff16815260200190815260200160002060009054906101000a900460ff16610a8a576040517f08c379a0000000000000000000000000000000000000000000000000000000008152600401610a8190612694565b60405180910390fd5b6000600460003373ffffffffffffffffffffffffffffffffffffffff1673ffffffffffffffffffffffffffffffffffffffff168152602001908152602001600020549050600260008281526020019081526020016000206040518061018001604052908160008201548152602001600182018054610b079061239b565b80601f0160208091040260200160405190810160405280929190818152602001828054610b339061239b565b8015610b805780601f10610b5557610100808354040283529160200191610b80565b820191906000526020600020905b815481529060010190602001808311610b6357829003601f168201915b505050505081526020016002820160009054906101000a900473ffffffffffffffffffffffffffffffffffffffff1673ffffffffffffffffffffffffffffffffffffffff1673ffffffffffffffffffffffffffffffffffffffff16815260200160038201548152602001600482015481526020016005820154815260200160068201548152602001600782015481526020016008820154815260200160098201548152602001600a820160009054906101000a900460ff16151515158152602001600b8201548152505091505090565b60008060009054906101000a900473ffffffffffffffffffffffffffffffffffffffff16905090565b6002602052806000526040600020600091509050806000015490806001018054610ca29061239b565b80601f0160208091040260200160405190810160405280929190818152602001828054610cce9061239b565b8015610d1b5780601f10610cf057610100808354040283529160200191610d1b565b820191906000526020600020905b815481529060010190602001808311610cfe57829003601f168201915b5050505050908060020160009054906101000a900473ffffffffffffffffffffffffffffffffffffffff169080600301549080600401549080600501549080600601549080600701549080600801549080600901549080600a0160009054906101000a900460ff169080600b015490508c565b60008111610dd1576040517f08c379a0000000000000000000000000000000000000000000000000000000008152600401610dc890612726565b60405180910390fd5b600360003373ffffffffffffffffffffffffffffffffffffffff1673ffffffffffffffffffffffffffffffffffffffff16815260200190815260200160002060009054906101000a900460ff1615610e5e576040517f08c379a0000000000000000000000000000000000000000000000000000000008152600401610e55906127b8565b60405180910390fd5b600060016000815480929190610e73906127d8565b9190505590506040518061018001604052808281526020018681526020013373ffffffffffffffffffffffffffffffffffffffff168152602001858152602001848152602001600081526020016000815260200160648152602001838152602001600081526020016001151581526020014281525060026000838152602001908152602001600020600082015181600001556020820151816001019081610f1a91906129cc565b5060408201518160020160006101000a81548173ffffffffffffffffffffffffffffffffffffffff021916908373ffffffffffffffffffffffffffffffffffffffff160217905550606082015181600301556080820151816004015560a0820151816005015560c0820151816006015560e082015181600701556101008201518160080155610120820151816009015561014082015181600a0160006101000a81548160ff02191690831515021790555061016082015181600b015590505080600460003373ffffffffffffffffffffffffffffffffffffffff1673ffffffffffffffffffffffffffffffffffffffff168152602001908152602001600020819055506001600360003373ffffffffffffffffffffffffffffffffffffffff1673ffffffffffffffffffffffffffffffffffffffff16815260200190815260200160002060006101000a81548160ff0219169083151502179055503373ffffffffffffffffffffffffffffffffffffffff16817f7b2068605e8ed71972e65749aa4b5d44adfa00427b5bde64876aeba6a4411a868787876040516110c093929190612a9e565b60405180910390a35050505050565b60046020528060005260406000206000915090505481565b6000600460003373ffffffffffffffffffffffffffffffffffffffff1673ffffffffffffffffffffffffffffffffffffffff168152602001908152602001600020549050600360003373ffffffffffffffffffffffffffffffffffffffff1673ffffffffffffffffffffffffffffffffffffffff16815260200190815260200160002060009054906101000a900460ff166111b7576040517f08c379a00000000000000000000000000000000000000000000000000000000081526004016111ae90612694565b60405180910390fd5b60015481106111fb576040517f08c379a00000000000000000000000000000000000000000000000000000000081526004016111f29061234c565b60405180910390fd5b60026000828152602001908152602001600020600a0160009054906101000a900460ff1661125e576040517f08c379a000000000000000000000000000000000000000000000000000000000815260040161125590612418565b60405180910390fd5b60648211156112a2576040517f08c379a000000000000000000000000000000000000000000000000000000000815260040161129990612b4e565b60405180910390fd5b60026000828152602001908152602001600020600801548411156112fb576040517f08c379a00000000000000000000000000000000000000000000000000000000081526004016112f290612be0565b60405180910390fd5b6002600082815260200190815260200160002060080154831115611354576040517f08c379a000000000000000000000000000000000000000000000000000000000815260040161134b90612c72565b60405180910390fd5b8360026000838152602001908152602001600020600501819055508260026000838152602001908152602001600020600601819055508160026000838152602001908152602001600020600701819055504260026000838152602001908152602001600020600b0181905550807f51dffc56f3ebef9bab005c12273259d1c794ecdac4bdb23f96c2d9553ab94101858585426040516113f69493929190612c92565b60405180910390a250505050565b61140c61198f565b600073ffffffffffffffffffffffffffffffffffffffff16600560009054906101000a900473ffffffffffffffffffffffffffffffffffffffff1673ffffffffffffffffffffffffffffffffffffffff161461149d576040517f08c379a000000000000000000000000000000000000000000000000000000000815260040161149490612d23565b60405180910390fd5b80600560006101000a81548173ffffffffffffffffffffffffffffffffffffffff021916908373ffffffffffffffffffffffffffffffffffffffff16021790555050565b60036020528060005260406000206000915054906101000a900460ff1681565b60006001548210611547576040517f08c379a000000000000000000000000000000000000000000000000000000000815260040161153e9061234c565b60405180910390fd5b6002600083815260200190815260200160002060020160009054906101000a900473ffffffffffffffffffffffffffffffffffffffff169050919050565b600060015482106115cb576040517f08c379a00000000000000000000000000000000000000000000000000000000081526004016115c29061234c565b60405180910390fd5b60026000838152602001908152602001600020600a0160009054906101000a900460ff1661162e576040517f08c379a000000000000000000000000000000000000000000000000000000000815260040161162590612418565b60405180910390fd5b60026000838152602001908152602001600020600901546002600084815260200190815260200160002060060154600260008581526020019081526020016000206005015461167d9190612467565b6116879190612467565b9050919050565b600560009054906101000a900473ffffffffffffffffffffffffffffffffffffffff1673ffffffffffffffffffffffffffffffffffffffff163373ffffffffffffffffffffffffffffffffffffffff161461171e576040517f08c379a000000000000000000000000000000000000000000000000000000000815260040161171590612588565b60405180910390fd5b6001548210611762576040517f08c379a00000000000000000000000000000000000000000000000000000000081526004016117599061234c565b60405180910390fd5b806002600084815260200190815260200160002060090160008282546117889190612d43565b92505081905550817fb289bc0a077dda72409091ecfd7217e89eec2e6c01bbb815eecf3599ccf31fcc60026000858152602001908152602001600020600901546040516117d59190611e2c565b60405180910390a25050565b600560009054906101000a900473ffffffffffffffffffffffffffffffffffffffff1681565b61180f61198f565b600073ffffffffffffffffffffffffffffffffffffffff168173ffffffffffffffffffffffffffffffffffffffff16036118815760006040517f1e4fbdf70000000000000000000000000000000000000000000000000000000081526004016118789190611ee9565b60405180910390fd5b61188a81611a16565b50565b600360003373ffffffffffffffffffffffffffffffffffffffff1673ffffffffffffffffffffffffffffffffffffffff16815260200190815260200160002060009054906101000a900460ff16611919576040517f08c379a000000000000000000000000000000000000000000000000000000000815260040161191090612694565b60405180910390fd5b6000600460003373ffffffffffffffffffffffffffffffffffffffff1673ffffffffffffffffffffffffffffffffffffffff1681526020019081526020016000205490508160026000838152602001908152602001600020600a0160006101000a81548160ff0219169083151502179055505050565b611997611ada565b73ffffffffffffffffffffffffffffffffffffffff166119b5610c50565b73ffffffffffffffffffffffffffffffffffffffff1614611a14576119d8611ada565b6040517f118cdaa7000000000000000000000000000000000000000000000000000000008152600401611a0b9190611ee9565b60405180910390fd5b565b60008060009054906101000a900473ffffffffffffffffffffffffffffffffffffffff169050816000806101000a81548173ffffffffffffffffffffffffffffffffffffffff021916908373ffffffffffffffffffffffffffffffffffffffff1602179055508173ffffffffffffffffffffffffffffffffffffffff168173ffffffffffffffffffffffffffffffffffffffff167f8be0079c531659141344cd1fd0a4f28419497f9722a3daafe3b4186f6b6457e060405160405180910390a35050565b600033905090565b6040518061018001604052806000815260200160608152602001600073ffffffffffffffffffffffffffffffffffffffff16815260200160008152602001600081526020016000815260200160008152602001600081526020016000815260200160008152602001600015158152602001600081525090565b6000604051905090565b600080fd5b600080fd5b6000819050919050565b611b8281611b6f565b8114611b8d57600080fd5b50565b600081359050611b9f81611b79565b92915050565b600060208284031215611bbb57611bba611b65565b5b6000611bc984828501611b90565b91505092915050565b60008115159050919050565b611be781611bd2565b82525050565b6000602082019050611c026000830184611bde565b92915050565b611c1181611b6f565b82525050565b600081519050919050565b600082825260208201905092915050565b60005b83811015611c51578082015181840152602081019050611c36565b60008484015250505050565b6000601f19601f8301169050919050565b6000611c7982611c17565b611c838185611c22565b9350611c93818560208601611c33565b611c9c81611c5d565b840191505092915050565b600073ffffffffffffffffffffffffffffffffffffffff82169050919050565b6000611cd282611ca7565b9050919050565b611ce281611cc7565b82525050565b611cf181611bd2565b82525050565b600061018083016000830151611d106000860182611c08565b5060208301518482036020860152611d288282611c6e565b9150506040830151611d3d6040860182611cd9565b506060830151611d506060860182611c08565b506080830151611d636080860182611c08565b5060a0830151611d7660a0860182611c08565b5060c0830151611d8960c0860182611c08565b5060e0830151611d9c60e0860182611c08565b50610100830151611db1610100860182611c08565b50610120830151611dc6610120860182611c08565b50610140830151611ddb610140860182611ce8565b50610160830151611df0610160860182611c08565b508091505092915050565b60006020820190508181036000830152611e158184611cf7565b905092915050565b611e2681611b6f565b82525050565b6000602082019050611e416000830184611e1d565b92915050565b600060a082019050611e5c6000830188611e1d565b611e696020830187611e1d565b611e766040830186611e1d565b611e836060830185611e1d565b611e906080830184611e1d565b9695505050505050565b60008060408385031215611eb157611eb0611b65565b5b6000611ebf85828601611b90565b9250506020611ed085828601611b90565b9150509250929050565b611ee381611cc7565b82525050565b6000602082019050611efe6000830184611eda565b92915050565b600082825260208201905092915050565b6000611f2082611c17565b611f2a8185611f04565b9350611f3a818560208601611c33565b611f4381611c5d565b840191505092915050565b600061018082019050611f64600083018f611e1d565b8181036020830152611f76818e611f15565b9050611f85604083018d611eda565b611f92606083018c611e1d565b611f9f608083018b611e1d565b611fac60a083018a611e1d565b611fb960c0830189611e1d565b611fc660e0830188611e1d565b611fd4610100830187611e1d565b611fe2610120830186611e1d565b611ff0610140830185611bde565b611ffe610160830184611e1d565b9d9c50505050505050505050505050565b600080fd5b600080fd5b7f4e487b7100000000000000000000000000000000000000000000000000000000600052604160045260246000fd5b61205182611c5d565b810181811067ffffffffffffffff821117156120705761206f612019565b5b80604052505050565b6000612083611b5b565b905061208f8282612048565b919050565b600067ffffffffffffffff8211156120af576120ae612019565b5b6120b882611c5d565b9050602081019050919050565b82818337600083830152505050565b60006120e76120e284612094565b612079565b90508281526020810184848401111561210357612102612014565b5b61210e8482856120c5565b509392505050565b600082601f83011261212b5761212a61200f565b5b813561213b8482602086016120d4565b91505092915050565b6000806000806080858703121561215e5761215d611b65565b5b600085013567ffffffffffffffff81111561217c5761217b611b6a565b5b61218887828801612116565b945050602061219987828801611b90565b93505060406121aa87828801611b90565b92505060606121bb87828801611b90565b91505092959194509250565b6121d081611cc7565b81146121db57600080fd5b50565b6000813590506121ed816121c7565b92915050565b60006020828403121561220957612208611b65565b5b6000612217848285016121de565b91505092915050565b60008060006060848603121561223957612238611b65565b5b600061224786828701611b90565b935050602061225886828701611b90565b925050604061226986828701611b90565b9150509250925092565b6000819050919050565b61228681612273565b82525050565b60006020820190506122a1600083018461227d565b92915050565b6122b081611bd2565b81146122bb57600080fd5b50565b6000813590506122cd816122a7565b92915050565b6000602082840312156122e9576122e8611b65565b5b60006122f7848285016122be565b91505092915050565b7f4d6963726f6772696420646f6573206e6f742065786973740000000000000000600082015250565b6000612336601883611f04565b915061234182612300565b602082019050919050565b6000602082019050818103600083015261236581612329565b9050919050565b7f4e487b7100000000000000000000000000000000000000000000000000000000600052602260045260246000fd5b600060028204905060018216806123b357607f821691505b6020821081036123c6576123c561236c565b5b50919050565b7f4d6963726f67726964206973206e6f7420616374697665000000000000000000600082015250565b6000612402601783611f04565b915061240d826123cc565b602082019050919050565b60006020820190508181036000830152612431816123f5565b9050919050565b7f4e487b7100000000000000000000000000000000000000000000000000000000600052601160045260246000fd5b600061247282612273565b915061247d83612273565b92508282039050818112600084121682821360008512151617156124a4576124a3612438565b5b92915050565b7f4d6963726f6772696420646f65736e2774206578697374000000000000000000600082015250565b60006124e0601783611f04565b91506124eb826124aa565b602082019050919050565b6000602082019050818103600083015261250f816124d3565b9050919050565b7f4f6e6c7920746865206d61726b6574706c6163652063616e2063616c6c20746860008201527f69732066756e6374696f6e000000000000000000000000000000000000000000602082015250565b6000612572602b83611f04565b915061257d82612516565b604082019050919050565b600060208201905081810360008301526125a181612565565b9050919050565b7f496e73756666696369656e7420726573657276656420656e6572677900000000600082015250565b60006125de601c83611f04565b91506125e9826125a8565b602082019050919050565b6000602082019050818103600083015261260d816125d1565b9050919050565b600061261f82611b6f565b915061262a83611b6f565b925082820390508181111561264257612641612438565b5b92915050565b7f4d6963726f67726964206e6f7420726567697374657265640000000000000000600082015250565b600061267e601883611f04565b915061268982612648565b602082019050919050565b600060208201905081810360008301526126ad81612671565b9050919050565b7f4d6178206361706163697479206d75737420626520677265617465722074686160008201527f6e207a65726f0000000000000000000000000000000000000000000000000000602082015250565b6000612710602683611f04565b915061271b826126b4565b604082019050919050565b6000602082019050818103600083015261273f81612703565b9050919050565b7f4d6963726f6772696420616c7265616479207265676973746572656420666f7260008201527f2074686973206f776e6572000000000000000000000000000000000000000000602082015250565b60006127a2602b83611f04565b91506127ad82612746565b604082019050919050565b600060208201905081810360008301526127d181612795565b9050919050565b60006127e382611b6f565b91507fffffffffffffffffffffffffffffffffffffffffffffffffffffffffffffffff820361281557612814612438565b5b600182019050919050565b60008190508160005260206000209050919050565b60006020601f8301049050919050565b600082821b905092915050565b6000600883026128827fffffffffffffffffffffffffffffffffffffffffffffffffffffffffffffffff82612845565b61288c8683612845565b95508019841693508086168417925050509392505050565b6000819050919050565b60006128c96128c46128bf84611b6f565b6128a4565b611b6f565b9050919050565b6000819050919050565b6128e3836128ae565b6128f76128ef826128d0565b848454612852565b825550505050565b600090565b61290c6128ff565b6129178184846128da565b505050565b5b8181101561293b57612930600082612904565b60018101905061291d565b5050565b601f8211156129805761295181612820565b61295a84612835565b81016020851015612969578190505b61297d61297585612835565b83018261291c565b50505b505050565b600082821c905092915050565b60006129a360001984600802612985565b1980831691505092915050565b60006129bc8383612992565b9150826002028217905092915050565b6129d582611c17565b67ffffffffffffffff8111156129ee576129ed612019565b5b6129f8825461239b565b612a0382828561293f565b600060209050601f831160018114612a365760008415612a24578287015190505b612a2e85826129b0565b865550612a96565b601f198416612a4486612820565b60005b82811015612a6c57848901518255600182019150602085019450602081019050612a47565b86831015612a895784890151612a85601f891682612992565b8355505b6001600288020188555050505b505050505050565b60006060820190508181036000830152612ab88186611f15565b9050612ac76020830185611e1d565b612ad46040830184611e1d565b949350505050565b7f42617474657279206c6576656c206d757374206265206265747765656e20302060008201527f616e642031303000000000000000000000000000000000000000000000000000602082015250565b6000612b38602783611f04565b9150612b4382612adc565b604082019050919050565b60006020820190508181036000830152612b6781612b2b565b9050919050565b7f456e657267792067656e6572617465642065786365656473206d61782063617060008201527f6163697479000000000000000000000000000000000000000000000000000000602082015250565b6000612bca602583611f04565b9150612bd582612b6e565b604082019050919050565b60006020820190508181036000830152612bf981612bbd565b9050919050565b7f456e657267792064656d616e642065786365656473206d61782063617061636960008201527f7479000000000000000000000000000000000000000000000000000000000000602082015250565b6000612c5c602283611f04565b9150612c6782612c00565b604082019050919050565b60006020820190508181036000830152612c8b81612c4f565b9050919050565b6000608082019050612ca76000830187611e1d565b612cb46020830186611e1d565b612cc16040830185611e1d565b612cce6060830184611e1d565b95945050505050565b7f4d61726b6574706c616365206164647265737320616c72656164792073657400600082015250565b6000612d0d601f83611f04565b9150612d1882612cd7565b602082019050919050565b60006020820190508181036000830152612d3c81612d00565b9050919050565b6000612d4e82611b6f565b9150612d5983611b6f565b9250828201905080821115612d7157612d70612438565b5b9291505056fea2646970667358221220c0e3868708d94d74ee91c52f04aaa499086248bde0ab5b079299ab47ab657e1a64736f6c634300081c0033",
  "linkReferences": {},
  "deployedLinkReferences": {}
}