{
  "_format": "hh-sol-artifact-1",
  "contractName": "Marketplace",
  "sourceName": "contracts/Marketplace.sol",
  "abi": [
    {
      "inputs": [
        {
          "internalType": "address",
          "name": "_energyTokenAddress",
          "type": "address"
        },
        {
          "internalType": "address",
          "name": "_registryAddress",
          "type": "address"
        }
      ],
      "stateMutability": "nonpayable",
      "type": "constructor"
    },
    {
      "anonymous": false,
      "inputs": [
        {
          "indexed": true,
          "internalType": "uint256",
          "name": "offerId",
          "type": "uint256"
        },
        {
          "indexed": false,
          "internalType": "uint256",
          "name": "energyBought",
          "type": "uint256"
        },
        {
          "indexed": true,
          "internalType": "address",
          "name": "buyer",
          "type": "address"
        },
        {
          "indexed": false,
          "internalType": "uint256",
          "name": "totalCost",
          "type": "uint256"
        }
      ],
      "name": "EnergyPurchased",
      "type": "event"
    },
    {
      "anonymous": false,
      "inputs": [
        {
          "indexed": true,
          "internalType": "uint256",
          "name": "offerId",
          "type": "uint256"
        },
        {
          "indexed": true,
          "internalType": "address",
          "name": "seller",
          "type": "address"
        }
      ],
      "name": "OfferCancelled",
      "type": "event"
    },
    {
      "anonymous": false,
      "inputs": [
        {
          "indexed": true,
          "internalType": "uint256",
          "name": "offerId",
          "type": "uint256"
        },
        {
          "indexed": true,
          "internalType": "uint256",
          "name": "microgridId",
          "type": "uint256"
        },
        {
          "indexed": false,
          "internalType": "uint256",
          "name": "totalEnergy",
          "type": "uint256"
        },
        {
          "indexed": false,
          "internalType": "uint256",
          "name": "suggestedPrice",
          "type": "uint256"
        },
        {
          "indexed": false,
          "internalType": "uint256",
          "name": "sellingPrice",
          "type": "uint256"
        },
        {
          "indexed": true,
          "internalType": "address",
          "name": "seller",
          "type": "address"
        }
      ],
      "name": "OfferCreated",
      "type": "event"
    },
    {
      "anonymous": false,
      "inputs": [
        {
          "indexed": true,
          "internalType": "uint256",
          "name": "offerId",
          "type": "uint256"
        },
        {
          "indexed": false,
          "internalType": "enum Marketplace.OfferStatus",
          "name": "newStatus",
          "type": "uint8"
        }
      ],
      "name": "OfferStatusUpdated",
      "type": "event"
    },
    {
      "inputs": [
        {
          "internalType": "uint256",
          "name": "",
          "type": "uint256"
        }
      ],
      "name": "activeOfferCount",
      "outputs": [
        {
          "internalType": "uint256",
          "name": "",
          "type": "uint256"
        }
      ],
      "stateMutability": "view",
      "type": "function"
    },
    {
      "inputs": [
        {
          "internalType": "uint256",
          "name": "_offerId",
          "type": "uint256"
        },
        {
          "internalType": "uint256",
          "name": "_amt",
          "type": "uint256"
        }
      ],
      "name": "buyEnergy",
      "outputs": [],
      "stateMutability": "nonpayable",
      "type": "function"
    },
    {
      "inputs": [
        {
          "internalType": "uint256",
          "name": "_offerId",
          "type": "uint256"
        }
      ],
      "name": "cancelOffer",
      "outputs": [],
      "stateMutability": "nonpayable",
      "type": "function"
    },
    {
      "inputs": [
        {
          "internalType": "uint256",
          "name": "_microgridId",
          "type": "uint256"
        },
        {
          "internalType": "uint256",
          "name": "_energyAmount",
          "type": "uint256"
        },
        {
          "internalType": "uint256",
          "name": "_pricePerUnit",
          "type": "uint256"
        }
      ],
      "name": "createOffer",
      "outputs": [],
      "stateMutability": "nonpayable",
      "type": "function"
    },
    {
      "inputs": [],
      "name": "energyToken",
      "outputs": [
        {
          "internalType": "contract IEnergyToken",
          "name": "",
          "type": "address"
        }
      ],
      "stateMutability": "view",
      "type": "function"
    },
    {
      "inputs": [
        {
          "internalType": "uint256",
          "name": "_offerId",
          "type": "uint256"
        }
      ],
      "name": "expireOffer",
      "outputs": [],
      "stateMutability": "nonpayable",
      "type": "function"
    },
    {
      "inputs": [
        {
          "internalType": "uint256",
          "name": "_offerId",
          "type": "uint256"
        }
      ],
      "name": "isOfferOpen",
      "outputs": [
        {
          "internalType": "bool",
          "name": "",
          "type": "bool"
        }
      ],
      "stateMutability": "view",
      "type": "function"
    },
    {
      "inputs": [
        {
          "internalType": "uint256",
          "name": "",
          "type": "uint256"
        },
        {
          "internalType": "uint256",
          "name": "",
          "type": "uint256"
        }
      ],
      "name": "microgridOffers",
      "outputs": [
        {
          "internalType": "uint256",
          "name": "",
          "type": "uint256"
        }
      ],
      "stateMutability": "view",
      "type": "function"
    },
    {
      "inputs": [],
      "name": "nextOfferId",
      "outputs": [
        {
          "internalType": "uint256",
          "name": "",
          "type": "uint256"
        }
      ],
      "stateMutability": "view",
      "type": "function"
    },
    {
      "inputs": [
        {
          "internalType": "uint256",
          "name": "",
          "type": "uint256"
        }
      ],
      "name": "offers",
      "outputs": [
        {
          "internalType": "uint256",
          "name": "offerId",
          "type": "uint256"
        },
        {
          "internalType": "uint256",
          "name": "microgridId",
          "type": "uint256"
        },
        {
          "internalType": "uint256",
          "name": "totalEnergy",
          "type": "uint256"
        },
        {
          "internalType": "uint256",
          "name": "remainingEnergy",
          "type": "uint256"
        },
        {
          "internalType": "uint256",
          "name": "soldEnergy",
          "type": "uint256"
        },
        {
          "internalType": "uint256",
          "name": "suggestedPrice",
          "type": "uint256"
        },
        {
          "internalType": "uint256",
          "name": "sellingPrice",
          "type": "uint256"
        },
        {
          "internalType": "address",
          "name": "seller",
          "type": "address"
        },
        {
          "internalType": "uint256",
          "name": "createdAt",
          "type": "uint256"
        },
        {
          "internalType": "uint256",
          "name": "updatedAt",
          "type": "uint256"
        },
        {
          "internalType": "uint256",
          "name": "expiresAt",
          "type": "uint256"
        },
        {
          "internalType": "enum Marketplace.OfferStatus",
          "name": "status",
          "type": "uint8"
        }
      ],
      "stateMutability": "view",
      "type": "function"
    },
    {
      "inputs": [],
      "name": "registry",
      "outputs": [
        {
          "internalType": "contract IMicrogridRegistry",
          "name": "",
          "type": "address"
        }
      ],
      "stateMutability": "view",
      "type": "function"
    },
    {
      "inputs": [
        {
          "internalType": "address",
          "name": "",
          "type": "address"
        },
        {
          "internalType": "uint256",
          "name": "",
          "type": "uint256"
        }
      ],
      "name": "sellerOffers",
      "outputs": [
        {
          "internalType": "uint256",
          "name": "",
          "type": "uint256"
        }
      ],
      "stateMutability": "view",
      "type": "function"
    }
  ],
  "bytecode": "0x608060405234801561001057600080fd5b50604051613e1a380380613e1a8339818101604052810190610032919061016e565b61004c673b9b3e3028b7c88660c01b61010860201b60201c565b61006667869edd4f7933d8e460c01b61010860201b60201c565b816000806101000a81548173ffffffffffffffffffffffffffffffffffffffff021916908373ffffffffffffffffffffffffffffffffffffffff1602179055506100c0677dd60b50651d84f260c01b61010860201b60201c565b80600160006101000a81548173ffffffffffffffffffffffffffffffffffffffff021916908373ffffffffffffffffffffffffffffffffffffffff16021790555050506101ae565b50565b600080fd5b600073ffffffffffffffffffffffffffffffffffffffff82169050919050565b600061013b82610110565b9050919050565b61014b81610130565b811461015657600080fd5b50565b60008151905061016881610142565b92915050565b600080604083850312156101855761018461010b565b5b600061019385828601610159565b92505060206101a485828601610159565b9150509250929050565b613c5d806101bd6000396000f3fe608060405234801561001057600080fd5b50600436106100b45760003560e01c80637e930a5c116100715780637e930a5c146101a35780638a72ea6a146101d3578063cdb6d52d1461020e578063dc35a9001461022a578063ef706adf14610246578063f10b160614610262576100b4565b80630f20337d146100b95780634ec7fb81146100e95780635f5d065514610107578063716588531461012557806373868d73146101555780637b10399914610185575b600080fd5b6100d360048036038101906100ce9190612abf565b61027e565b6040516100e09190612b0e565b60405180910390f35b6100f16102af565b6040516100fe9190612ba8565b60405180910390f35b61010f6102d3565b60405161011c9190612b0e565b60405180910390f35b61013f600480360381019061013a9190612bc3565b6102d9565b60405161014c9190612b0e565b60405180910390f35b61016f600480360381019061016a9190612bc3565b6102f1565b60405161017c9190612c0b565b60405180910390f35b61018d61040b565b60405161019a9190612c47565b60405180910390f35b6101bd60048036038101906101b89190612ca0565b610431565b6040516101ca9190612b0e565b60405180910390f35b6101ed60048036038101906101e89190612bc3565b610462565b6040516102059c9b9a99989796959493929190612d66565b60405180910390f35b61022860048036038101906102239190612abf565b6104ef565b005b610244600480360381019061023f9190612e20565b6111aa565b005b610260600480360381019061025b9190612bc3565b611d12565b005b61027c60048036038101906102779190612bc3565b611ff4565b005b6004602052816000526040600020818154811061029a57600080fd5b90600052602060002001600091509150505481565b60008054906101000a900473ffffffffffffffffffffffffffffffffffffffff1681565b60025481565b60066020528060005260406000206000915090505481565b600061030767094d43ab07ebef4c60c01b6121cd565b61031b677446ef47d6dbb5c660c01b6121cd565b61032f679d1163b6831e9d9760c01b6121cd565b6000600481111561034357610342612cef565b5b60036000848152602001908152602001600020600b0160009054906101000a900460ff16600481111561037957610378612cef565b5b14801561039657506103956711babfb5583e2aa760c01b6121d0565b5b806104045750600160048111156103b0576103af612cef565b5b60036000848152602001908152602001600020600b0160009054906101000a900460ff1660048111156103e6576103e5612cef565b5b148015610403575061040267b55885fb1005259a60c01b6121d0565b5b5b9050919050565b600160009054906101000a900473ffffffffffffffffffffffffffffffffffffffff1681565b6005602052816000526040600020818154811061044d57600080fd5b90600052602060002001600091509150505481565b60036020528060005260406000206000915090508060000154908060010154908060020154908060030154908060040154908060050154908060060154908060070160009054906101000a900473ffffffffffffffffffffffffffffffffffffffff169080600801549080600901549080600a01549080600b0160009054906101000a900460ff1690508c565b610503672680199eef9d4a3860c01b6121cd565b8161051867ba7bfdef7777848b60c01b6121cd565b61052c67706b05460c3dcc1360c01b6121cd565b610540674f8ffced21f86a5d60c01b6121cd565b6105546781d3162c59e3225160c01b6121cd565b6002548110610598576040517f08c379a000000000000000000000000000000000000000000000000000000000815260040161058f90612ed0565b60405180910390fd5b6105ac671c657e9c1529471a60c01b6121cd565b6105c067739d41a13419280e60c01b6121cd565b6105d4675d7becd776bfa07f60c01b6121cd565b6105e867ea7a3a5dbe6b4b3e60c01b6121cd565b6105fc676f643bef25d27bfa60c01b6121cd565b6106106764c78af261073d4760c01b6121cd565b61062467e2333bab1e9e61bd60c01b6121cd565b61062d836102f1565b61066c576040517f08c379a000000000000000000000000000000000000000000000000000000000815260040161066390612f3c565b60405180910390fd5b61068067e73c1cbfe2a4ae6960c01b6121cd565b61069467dda7698396787bbb60c01b6121cd565b6106a867fa2a7d7aabcd885060c01b6121cd565b60036000848152602001908152602001600020600a0154421061076e576106d8664b339663f1be4b60c01b6121cd565b6106ec67fc1340b1cc20e3c060c01b6121cd565b61070067c884e18c7fdc78d460c01b6121cd565b61070b8360046121db565b61071f67f551cc57a4f9ec4660c01b6121cd565b61073367d94b5d4cfb1a3e8960c01b6121cd565b6040517f08c379a000000000000000000000000000000000000000000000000000000000815260040161076590612fa8565b60405180910390fd5b610782678e5ee2d0728d720e60c01b6121cd565b61079667d6ae36ae0f2511c460c01b6121cd565b6107aa6719dd15dbc329896a60c01b6121cd565b6107be67ea025d4613a8dc4460c01b6121cd565b6003600084815260200190815260200160002060070160009054906101000a900473ffffffffffffffffffffffffffffffffffffffff1673ffffffffffffffffffffffffffffffffffffffff163373ffffffffffffffffffffffffffffffffffffffff1603610862576040517f08c379a00000000000000000000000000000000000000000000000000000000081526004016108599061303a565b60405180910390fd5b61087667878b8db82b6625cf60c01b6121cd565b61088a67389420f9b6bc242760c01b6121cd565b61089e675dd829a710c3eb1f60c01b6121cd565b6108b26777ae245b2c28b3d860c01b6121cd565b600082116108f5576040517f08c379a00000000000000000000000000000000000000000000000000000000081526004016108ec906130a6565b60405180910390fd5b61090967e29c623506bff16b60c01b6121cd565b61091d67777c51b83ac102b260c01b6121cd565b610931671391eb833854918e60c01b6121cd565b610945679d2dd918afeb5bed60c01b6121cd565b816003600085815260200190815260200160002060030154101561099e576040517f08c379a000000000000000000000000000000000000000000000000000000000815260040161099590613138565b60405180910390fd5b6109b267eea15dcade1d66fc60c01b6121cd565b6109c6675a4365837c9267e060c01b6121cd565b6109da67bfe26ae6af1e6fc360c01b6121cd565b60006109fc600360008681526020019081526020016000206006015484612547565b9050610a12679ee5346618c8061460c01b6121cd565b610a2667273f7ea4c4424c0260c01b6121cd565b610a3a678da6615f2514184e60c01b6121cd565b8060008054906101000a900473ffffffffffffffffffffffffffffffffffffffff1673ffffffffffffffffffffffffffffffffffffffff166370a08231336040518263ffffffff1660e01b8152600401610a949190613158565b602060405180830381865afa158015610ab1573d6000803e3d6000fd5b505050506040513d601f19601f82011682018060405250810190610ad59190613188565b1015610b16576040517f08c379a0000000000000000000000000000000000000000000000000000000008152600401610b0d90613201565b60405180910390fd5b610b2a670b99fc33d5e8b2d160c01b6121cd565b610b3e6773ea0bf0d863075960c01b6121cd565b610b5267bb61b8f25532559260c01b6121cd565b610b66675d621e90a6b731e460c01b6121cd565b8060008054906101000a900473ffffffffffffffffffffffffffffffffffffffff1673ffffffffffffffffffffffffffffffffffffffff1663dd62ed3e33306040518363ffffffff1660e01b8152600401610bc2929190613221565b602060405180830381865afa158015610bdf573d6000803e3d6000fd5b505050506040513d601f19601f82011682018060405250810190610c039190613188565b1015610c44576040517f08c379a0000000000000000000000000000000000000000000000000000000008152600401610c3b906132bc565b60405180910390fd5b610c5867d251944cd1413c1c60c01b6121cd565b610c6c675ded486ce5c4462a60c01b6121cd565b610c8067b421197ca277054d60c01b6121cd565b610c9467647238746403323960c01b6121cd565b60008054906101000a900473ffffffffffffffffffffffffffffffffffffffff1673ffffffffffffffffffffffffffffffffffffffff166323b872dd336003600088815260200190815260200160002060070160009054906101000a900473ffffffffffffffffffffffffffffffffffffffff16846040518463ffffffff1660e01b8152600401610d27939291906132dc565b6020604051808303816000875af1158015610d46573d6000803e3d6000fd5b505050506040513d601f19601f82011682018060405250810190610d6a919061333f565b610da9576040517f08c379a0000000000000000000000000000000000000000000000000000000008152600401610da0906133b8565b60405180910390fd5b610dbd6798fe73a0ec21f35560c01b6121cd565b610dd16799bda05fbbb74bb460c01b6121cd565b82600360008681526020019081526020016000206003016000828254610df79190613407565b92505081905550610e126781ab24170ada414a60c01b6121cd565b82600360008681526020019081526020016000206004016000828254610e38919061343b565b92505081905550610e5367b18ee6eb18d7cac760c01b6121cd565b610e6767b7539cd177af59ee60c01b6121cd565b600160009054906101000a900473ffffffffffffffffffffffffffffffffffffffff1673ffffffffffffffffffffffffffffffffffffffff166361f2d09f6003600087815260200190815260200160002060010154856040518363ffffffff1660e01b8152600401610eda92919061346f565b600060405180830381600087803b158015610ef457600080fd5b505af1158015610f08573d6000803e3d6000fd5b50505050610f206771384e73dfb65c9560c01b6121cd565b426003600086815260200190815260200160002060090181905550610f4f67f28b9243fabf099260c01b6121cd565b610f636780662f9fcea0442f60c01b6121cd565b600060036000868152602001908152602001600020600301540361104057610f956764732ed4a59ad89060c01b6121cd565b610fa967b43caf31ea54f71060c01b6121cd565b60066000600360008781526020019081526020016000206001015481526020019081526020016000206000815480929190610fe390613498565b9190505550610ffc67687f4c266e818abe60c01b6121cd565b600260036000868152602001908152602001600020600b0160006101000a81548160ff0219169083600481111561103657611035612cef565b5b02179055506110a8565b61105467e0976c0c976ee59460c01b6121cd565b61106867c864755e870501c260c01b6121cd565b600160036000868152602001908152602001600020600b0160006101000a81548160ff021916908360048111156110a2576110a1612cef565b5b02179055505b6110bc67cc3fc017276d4d2260c01b6121cd565b6110d06740053e930d2cd21260c01b6121cd565b837f2e74881a6c74723c41779bc20d0aa57148f87d6cd03977e71379655e32e2711660036000878152602001908152602001600020600b0160009054906101000a900460ff1660405161112391906134c1565b60405180910390a261113f67207dfe63b408692560c01b6121cd565b6111536721dd26c1f12c972b60c01b6121cd565b3373ffffffffffffffffffffffffffffffffffffffff16847f76e4b739eb0c5c67926a4c7392010f3efe3bcf51d1c06b947264bb78b785630f858460405161119c92919061346f565b60405180910390a350505050565b6111be679a5a3cd819ff91d260c01b6121cd565b6111d26765d0a4dc2a4be24d60c01b6121cd565b6111e667381fc89cbdcfc1ec60c01b6121cd565b6111fa67aa1b58280433f5b260c01b6121cd565b6000821161123d576040517f08c379a00000000000000000000000000000000000000000000000000000000081526004016112349061354e565b60405180910390fd5b61125167f140259cfd6fd27660c01b6121cd565b61126567ae3ac2bfa1ba68af60c01b6121cd565b61127967ab831fe51ccb934f60c01b6121cd565b61128d6715712cb429dc6d8760c01b6121cd565b600081116112d0576040517f08c379a00000000000000000000000000000000000000000000000000000000081526004016112c7906135e0565b60405180910390fd5b6112e4671ae588bff79076dc60c01b6121cd565b6112f867322ab45fd5ccb9a660c01b6121cd565b61130c67450c73e5f74f7d6e60c01b6121cd565b6113206721268975b5e199e160c01b6121cd565b3373ffffffffffffffffffffffffffffffffffffffff16600160009054906101000a900473ffffffffffffffffffffffffffffffffffffffff1673ffffffffffffffffffffffffffffffffffffffff1663c41a360a856040518263ffffffff1660e01b81526004016113929190612b0e565b602060405180830381865afa1580156113af573d6000803e3d6000fd5b505050506040513d601f19601f820116820180604052508101906113d39190613615565b73ffffffffffffffffffffffffffffffffffffffff1614611429576040517f08c379a00000000000000000000000000000000000000000000000000000000081526004016114209061368e565b60405180910390fd5b61143d67d075920a16dd5a0c60c01b6121cd565b61145167c0b7ff08ee9548dd60c01b6121cd565b611465673228e484006db2d860c01b6121cd565b6114796782b06dd331ae5b0b60c01b6121cd565b600160009054906101000a900473ffffffffffffffffffffffffffffffffffffffff1673ffffffffffffffffffffffffffffffffffffffff16631c334a7e846040518263ffffffff1660e01b81526004016114d49190612b0e565b602060405180830381865afa1580156114f1573d6000803e3d6000fd5b505050506040513d601f19601f82011682018060405250810190611515919061333f565b611554576040517f08c379a000000000000000000000000000000000000000000000000000000000815260040161154b906136fa565b60405180910390fd5b61156867136eed40c6c922b660c01b6121cd565b61157c67e6a946e21f1c626860c01b6121cd565b611590677393920ffcf402de60c01b6121cd565b6115a467040814c2f572d49460c01b6121cd565b81600160009054906101000a900473ffffffffffffffffffffffffffffffffffffffff1673ffffffffffffffffffffffffffffffffffffffff166347846fd9856040518263ffffffff1660e01b81526004016116009190612b0e565b602060405180830381865afa15801561161d573d6000803e3d6000fd5b505050506040513d601f19601f820116820180604052508101906116419190613188565b1015611682576040517f08c379a00000000000000000000000000000000000000000000000000000000081526004016116799061378c565b60405180910390fd5b611696670dfe22f0d4a672af60c01b6121cd565b6116aa675971d819843f103760c01b6121cd565b6116be67c8b42d1b51224af560c01b6121cd565b6000600260008154809291906116d3906137ac565b9190505590506116ed67f606cc2c75ed219a60c01b6121cd565b61170167de4fe4c40c17229a60c01b6121cd565b6000806000806000600160009054906101000a900473ffffffffffffffffffffffffffffffffffffffff1673ffffffffffffffffffffffffffffffffffffffff16634fa4c02d8a6040518263ffffffff1660e01b81526004016117649190612b0e565b60a060405180830381865afa158015611781573d6000803e3d6000fd5b505050506040513d601f19601f820116820180604052508101906117a591906137f4565b945094509450945094506117c36768aeb3c095c7f35e60c01b6121cd565b6117d7672f236ea09587a4c360c01b6121cd565b60006117e6868686868661262c565b90506117fc6706bc9c6aeed4fbd560c01b6121cd565b61181067a4caceb9d00ffd0760c01b6121cd565b60006064605083611821919061386f565b61182b91906138e0565b90506118416705c185691a91eb3d60c01b6121cd565b6118556737d1c8fa3fc4f0c360c01b6121cd565b60006064607884611866919061386f565b61187091906138e0565b905061188667f07a10b42961279a60c01b6121cd565b61189a675f1b58a78c7cdd1460c01b6121cd565b6118ae67494f2cb48e12885160c01b6121cd565b818a101580156118be5750808a11155b6118fd576040517f08c379a00000000000000000000000000000000000000000000000000000000081526004016118f49061395d565b60405180910390fd5b61191167e38a85170685c8d760c01b6121cd565b611925676abf395cd92f54fc60c01b6121cd565b611939675af89df8fca5cd4160c01b6121cd565b600160009054906101000a900473ffffffffffffffffffffffffffffffffffffffff1673ffffffffffffffffffffffffffffffffffffffff1663d3e0bada8d8d6040518363ffffffff1660e01b815260040161199692919061346f565b600060405180830381600087803b1580156119b057600080fd5b505af11580156119c4573d6000803e3d6000fd5b505050506119dc6703a72c80c04b23a660c01b6121cd565b6040518061018001604052808a81526020018d81526020018c81526020018c8152602001600081526020018481526020018b81526020013373ffffffffffffffffffffffffffffffffffffffff1681526020014281526020014281526020016201518042611a4a919061343b565b815260200160006004811115611a6357611a62612cef565b5b815250600360008b8152602001908152602001600020600082015181600001556020820151816001015560408201518160020155606082015181600301556080820151816004015560a0820151816005015560c0820151816006015560e08201518160070160006101000a81548173ffffffffffffffffffffffffffffffffffffffff021916908373ffffffffffffffffffffffffffffffffffffffff1602179055506101008201518160080155610120820151816009015561014082015181600a015561016082015181600b0160006101000a81548160ff02191690836004811115611b5357611b52612cef565b5b0217905550905050611b6f67413a961d55eed4c560c01b6121cd565b611b836775040d2a85b2b46c60c01b6121cd565b600460008d8152602001908152602001600020899080600181540180825580915050600190039060005260206000200160009091909190915055611bd167bed133fbdca3299c60c01b6121cd565b611be567cf7b454e9007880760c01b6121cd565b600560003373ffffffffffffffffffffffffffffffffffffffff1673ffffffffffffffffffffffffffffffffffffffff168152602001908152602001600020899080600181540180825580915050600190039060005260206000200160009091909190915055611c5f67cdd6bf7276cb72c560c01b6121cd565b600660008d81526020019081526020016000206000815480929190611c83906137ac565b9190505550611c9c67a4621493689acfd060c01b6121cd565b611cb067951830a3cb6aee0f60c01b6121cd565b3373ffffffffffffffffffffffffffffffffffffffff168c8a7f55b8d19e468503ecc8f7d6a2611f03f249440d3d2401ff1ff15a474ee7cbee748e878f604051611cfc9392919061397d565b60405180910390a4505050505050505050505050565b611d266719ddcef6df16891560c01b6121cd565b80611d3b67ba7bfdef7777848b60c01b6121cd565b611d4f67706b05460c3dcc1360c01b6121cd565b611d63674f8ffced21f86a5d60c01b6121cd565b611d776781d3162c59e3225160c01b6121cd565b6002548110611dbb576040517f08c379a0000000000000000000000000000000000000000000000000000000008152600401611db290612ed0565b60405180910390fd5b611dcf671c657e9c1529471a60c01b6121cd565b611de367739d41a13419280e60c01b6121cd565b611df767fb27f8dc2122a96b60c01b6121cd565b611e0b67481fba86f961ba1160c01b6121cd565b81611e206756ddd2c459e53f9960c01b6121cd565b611e3467b8dfec048a3dc02c60c01b6121cd565b611e48678c7b861a2773175060c01b6121cd565b611e5c678d429286b351ce2b60c01b6121cd565b3373ffffffffffffffffffffffffffffffffffffffff166003600083815260200190815260200160002060070160009054906101000a900473ffffffffffffffffffffffffffffffffffffffff1673ffffffffffffffffffffffffffffffffffffffff1614611f00576040517f08c379a0000000000000000000000000000000000000000000000000000000008152600401611ef790613a00565b60405180910390fd5b611f1467056f4c7caaf571f560c01b6121cd565b611f2867ca11c4f8494e7eec60c01b6121cd565b611f3c67efe4388be8a3916e60c01b6121cd565b611f5067c42505019d1cafd960c01b6121cd565b611f6467b8dfb617b505f04860c01b6121cd565b611f78678ccfd734d25e421860c01b6121cd565b611f838360036121db565b611f9767aaf47553fc0664cd60c01b6121cd565b611fab674e3cdbdac12bfad760c01b6121cd565b3373ffffffffffffffffffffffffffffffffffffffff16837f1f51377b3e685a0e2419f9bb4ba7c07ec54936353ba3d0fb3c6538dab676622260405160405180910390a3505050565b612008679be8bb0b4294ba8260c01b6121cd565b8061201d67ba7bfdef7777848b60c01b6121cd565b61203167706b05460c3dcc1360c01b6121cd565b612045674f8ffced21f86a5d60c01b6121cd565b6120596781d3162c59e3225160c01b6121cd565b600254811061209d576040517f08c379a000000000000000000000000000000000000000000000000000000000815260040161209490612ed0565b60405180910390fd5b6120b1671c657e9c1529471a60c01b6121cd565b6120c567739d41a13419280e60c01b6121cd565b6120d967d55633de5e0f1e1660c01b6121cd565b6120ed6732c770a4fd49257b60c01b6121cd565b61210167eb5899eae539ef0b60c01b6121cd565b61211567e79c51a41e466f9d60c01b6121cd565b612129677ea16401fef1cbca60c01b6121cd565b4260036000848152602001908152602001600020600a01541115612182576040517f08c379a000000000000000000000000000000000000000000000000000000000815260040161217990613a6c565b60405180910390fd5b61219667708e8493661cbb1c60c01b6121cd565b6121aa6701f656a4e98e9cea60c01b6121cd565b6121be6713b19bd016988b7160c01b6121cd565b6121c98260046121db565b5050565b50565b600060019050919050565b6121ef67ce68d647694a955560c01b6121cd565b61220367b89cc6d9425ea89160c01b6121cd565b61221767edda526cf613671260c01b6121cd565b61222b67f71c04669445b5a560c01b6121cd565b612234826102f1565b612273576040517f08c379a000000000000000000000000000000000000000000000000000000000815260040161226a90613ad8565b60405180910390fd5b61228767957777ae119c51fa60c01b6121cd565b61229b6729c5b54ebe9c549260c01b6121cd565b6122af6748f031cb73711fed60c01b6121cd565b6000600360008481526020019081526020016000206003015411156123ca576122e2674a0721138a62e22660c01b6121cd565b6122f667730da868475af79d60c01b6121cd565b61230a670382242a894dc31f60c01b6121cd565b600160009054906101000a900473ffffffffffffffffffffffffffffffffffffffff1673ffffffffffffffffffffffffffffffffffffffff166361f2d09f600360008581526020019081526020016000206001015460036000868152602001908152602001600020600301546040518363ffffffff1660e01b815260040161239392919061346f565b600060405180830381600087803b1580156123ad57600080fd5b505af11580156123c1573d6000803e3d6000fd5b505050506123df565b6123de674cd60c7e690070cd60c01b6121cd565b5b6123f367155be38e2760b69860c01b6121cd565b6000600360008481526020019081526020016000206003018190555061242367457804c4a0f2767060c01b6121cd565b8060036000848152602001908152602001600020600b0160006101000a81548160ff0219169083600481111561245c5761245b612cef565b5b0217905550612475671c9d22980082a60760c01b6121cd565b4260036000848152602001908152602001600020600901819055506124a467237a5841b8fcf9ce60c01b6121cd565b600660006003600085815260200190815260200160002060010154815260200190815260200160002060008154809291906124de90613498565b91905055506124f767b138972ad4dfa21660c01b6121cd565b61250b67988b3643cc6f482260c01b6121cd565b817f2e74881a6c74723c41779bc20d0aa57148f87d6cd03977e71379655e32e271168260405161253b91906134c1565b60405180910390a25050565b600061255d67e112cfa0e6d236eb60c01b612a81565b61257167c6b37b89e14ae6d960c01b612a81565b612585673bd7961d41f8b64b60c01b612a81565b61259967797fe3e86872047260c01b612a81565b600082116125dc576040517f08c379a00000000000000000000000000000000000000000000000000000000081526004016125d3906130a6565b60405180910390fd5b6125f06762752e452583d0ea60c01b612a81565b61260467fed1b5912b411dc960c01b612a81565b61261867d8430cb5ca52595660c01b612a81565b8282612624919061386f565b905092915050565b600061264267e59e2c24b4122ea660c01b612a81565b61265667552507d86d11d6f460c01b612a81565b61266a67279d5edce02d8f9660c01b612a81565b6000600a90506126846742333b8d06f3359a60c01b612a81565b612698671529075b9e3902c760c01b612a81565b60008387896126a79190613b02565b6126b19190613b02565b90506126c76796d12ff52e8668e660c01b612a81565b6126db67795d5357bd5d35b760c01b612a81565b6000856064836126eb9190613b45565b6126f59190613bbd565b905061270b67f535f76c476c0ce860c01b612a81565b61271f67ccaa71e57007eec260c01b612a81565b6046811261274f5761273b6793850a2aae92b54d60c01b612a81565b6002836127489190613407565b925061286f565b612763678a313710a197347a60c01b612a81565b61277767186b9ea3f93e06db60c01b612a81565b602881126127a75761279367290dadfe08a7366760c01b612a81565b6001836127a09190613407565b925061286e565b6127bb673d45e1ae604e45d960c01b612a81565b6127cf67f83617716c1214ab60c01b612a81565b601481126127f0576127eb672bc5e0315f8cea6360c01b612a81565b61286d565b612804672a26f29228ac594d60c01b612a81565b612818673a793d3aeab6987360c01b612a81565b600081126128485761283467bf95e14ccb94ecf360c01b612a81565b600283612841919061343b565b925061286c565b61285c67bee89ec3da9e19ea60c01b612a81565b600483612869919061343b565b92505b5b5b5b61288367b917fc5d7530947760c01b612a81565b61289767bb9b3434d27d43b760c01b612a81565b605087106128c7576128b36760d7bbb0c4742de760c01b612a81565b6002836128c09190613407565b92506129e7565b6128db67406bd57269fe0c3360c01b612a81565b6128ef6789b58ed4a8201f3e60c01b612a81565b603c871061291f5761290b67a409d1592cb9e8b660c01b612a81565b6001836129189190613407565b92506129e6565b61293367b7a5e097c422c28560c01b612a81565b61294767e1050fd692e780a560c01b612a81565b602887106129685761296367e92a29f9318a9fef60c01b612a81565b6129e5565b61297c677b0960d25ca8953260c01b612a81565b612990671fb24eba7086370260c01b612a81565b601487106129c0576129ac67faf6c96db548ca7160c01b612a81565b6002836129b9919061343b565b92506129e4565b6129d467e8fe5d37cefb08e960c01b612a81565b6004836129e1919061343b565b92505b5b5b5b6129fb6744713e3ecee556b960c01b612a81565b612a0f6758a31924b2ce138760c01b612a81565b6001831015612a3557612a2c6732ac1783bb29236260c01b612a81565b60019250612a4a565b612a49679a08181c36be1af260c01b612a81565b5b612a5e67c87d3ea6698cabf260c01b612a81565b612a7267ca3fa540c53f2ea960c01b612a81565b82935050505095945050505050565b50565b600080fd5b6000819050919050565b612a9c81612a89565b8114612aa757600080fd5b50565b600081359050612ab981612a93565b92915050565b60008060408385031215612ad657612ad5612a84565b5b6000612ae485828601612aaa565b9250506020612af585828601612aaa565b9150509250929050565b612b0881612a89565b82525050565b6000602082019050612b236000830184612aff565b92915050565b600073ffffffffffffffffffffffffffffffffffffffff82169050919050565b6000819050919050565b6000612b6e612b69612b6484612b29565b612b49565b612b29565b9050919050565b6000612b8082612b53565b9050919050565b6000612b9282612b75565b9050919050565b612ba281612b87565b82525050565b6000602082019050612bbd6000830184612b99565b92915050565b600060208284031215612bd957612bd8612a84565b5b6000612be784828501612aaa565b91505092915050565b60008115159050919050565b612c0581612bf0565b82525050565b6000602082019050612c206000830184612bfc565b92915050565b6000612c3182612b75565b9050919050565b612c4181612c26565b82525050565b6000602082019050612c5c6000830184612c38565b92915050565b6000612c6d82612b29565b9050919050565b612c7d81612c62565b8114612c8857600080fd5b50565b600081359050612c9a81612c74565b92915050565b60008060408385031215612cb757612cb6612a84565b5b6000612cc585828601612c8b565b9250506020612cd685828601612aaa565b9150509250929050565b612ce981612c62565b82525050565b7f4e487b7100000000000000000000000000000000000000000000000000000000600052602160045260246000fd5b60058110612d2f57612d2e612cef565b5b50565b6000819050612d4082612d1e565b919050565b6000612d5082612d32565b9050919050565b612d6081612d45565b82525050565b600061018082019050612d7c600083018f612aff565b612d89602083018e612aff565b612d96604083018d612aff565b612da3606083018c612aff565b612db0608083018b612aff565b612dbd60a083018a612aff565b612dca60c0830189612aff565b612dd760e0830188612ce0565b612de5610100830187612aff565b612df3610120830186612aff565b612e01610140830185612aff565b612e0f610160830184612d57565b9d9c50505050505050505050505050565b600080600060608486031215612e3957612e38612a84565b5b6000612e4786828701612aaa565b9350506020612e5886828701612aaa565b9250506040612e6986828701612aaa565b9150509250925092565b600082825260208201905092915050565b7f4f6666657220646f6573206e6f74206578697374000000000000000000000000600082015250565b6000612eba601483612e73565b9150612ec582612e84565b602082019050919050565b60006020820190508181036000830152612ee981612ead565b9050919050565b7f4f666665722069736e2774206f70656e00000000000000000000000000000000600082015250565b6000612f26601083612e73565b9150612f3182612ef0565b602082019050919050565b60006020820190508181036000830152612f5581612f19565b9050919050565b7f4f66666572206861732065787069726564000000000000000000000000000000600082015250565b6000612f92601183612e73565b9150612f9d82612f5c565b602082019050919050565b60006020820190508181036000830152612fc181612f85565b9050919050565b7f53656c6c65722063616e6e6f7420627579207468656972206f776e20656e657260008201527f6779000000000000000000000000000000000000000000000000000000000000602082015250565b6000613024602283612e73565b915061302f82612fc8565b604082019050919050565b6000602082019050818103600083015261305381613017565b9050919050565b7f416d6f756e74206d7573742062652067726561746572207468616e2030000000600082015250565b6000613090601d83612e73565b915061309b8261305a565b602082019050919050565b600060208201905081810360008301526130bf81613083565b9050919050565b7f4e6f7420656e6f75676820656e6572677920617661696c61626c6520696e207460008201527f6865206f66666572000000000000000000000000000000000000000000000000602082015250565b6000613122602883612e73565b915061312d826130c6565b604082019050919050565b6000602082019050818103600083015261315181613115565b9050919050565b600060208201905061316d6000830184612ce0565b92915050565b60008151905061318281612a93565b92915050565b60006020828403121561319e5761319d612a84565b5b60006131ac84828501613173565b91505092915050565b7f496e73756666696369656e742045544b2062616c616e63650000000000000000600082015250565b60006131eb601883612e73565b91506131f6826131b5565b602082019050919050565b6000602082019050818103600083015261321a816131de565b9050919050565b60006040820190506132366000830185612ce0565b6132436020830184612ce0565b9392505050565b7f417070726f7665204d61726b6574706c61636520746f207370656e6420796f7560008201527f722045544b206669727374000000000000000000000000000000000000000000602082015250565b60006132a6602b83612e73565b91506132b18261324a565b604082019050919050565b600060208201905081810360008301526132d581613299565b9050919050565b60006060820190506132f16000830186612ce0565b6132fe6020830185612ce0565b61330b6040830184612aff565b949350505050565b61331c81612bf0565b811461332757600080fd5b50565b60008151905061333981613313565b92915050565b60006020828403121561335557613354612a84565b5b60006133638482850161332a565b91505092915050565b7f5472616e73666572206661696c65640000000000000000000000000000000000600082015250565b60006133a2600f83612e73565b91506133ad8261336c565b602082019050919050565b600060208201905081810360008301526133d181613395565b9050919050565b7f4e487b7100000000000000000000000000000000000000000000000000000000600052601160045260246000fd5b600061341282612a89565b915061341d83612a89565b9250828203905081811115613435576134346133d8565b5b92915050565b600061344682612a89565b915061345183612a89565b9250828201905080821115613469576134686133d8565b5b92915050565b60006040820190506134846000830185612aff565b6134916020830184612aff565b9392505050565b60006134a382612a89565b9150600082036134b6576134b56133d8565b5b600182039050919050565b60006020820190506134d66000830184612d57565b92915050565b7f456e6572677920616d6f756e74206d757374206265206772656174657220746860008201527f616e203000000000000000000000000000000000000000000000000000000000602082015250565b6000613538602483612e73565b9150613543826134dc565b604082019050919050565b600060208201905081810360008301526135678161352b565b9050919050565b7f50726963652070657220756e6974206d7573742062652067726561746572207460008201527f68616e2030000000000000000000000000000000000000000000000000000000602082015250565b60006135ca602583612e73565b91506135d58261356e565b604082019050919050565b600060208201905081810360008301526135f9816135bd565b9050919050565b60008151905061360f81612c74565b92915050565b60006020828403121561362b5761362a612a84565b5b600061363984828501613600565b91505092915050565b7f4e6f7420746865206f776e6572206f662074686973206d6963726f6772696400600082015250565b6000613678601f83612e73565b915061368382613642565b602082019050919050565b600060208201905081810360008301526136a78161366b565b9050919050565b7f4d6963726f67726964206973206e6f7420616374697665000000000000000000600082015250565b60006136e4601783612e73565b91506136ef826136ae565b602082019050919050565b60006020820190508181036000830152613713816136d7565b9050919050565b7f4e6f7420656e6f75676820617661696c61626c6520656e6572677920696e207460008201527f6865206d6963726f677269640000000000000000000000000000000000000000602082015250565b6000613776602c83612e73565b91506137818261371a565b604082019050919050565b600060208201905081810360008301526137a581613769565b9050919050565b60006137b782612a89565b91507fffffffffffffffffffffffffffffffffffffffffffffffffffffffffffffffff82036137e9576137e86133d8565b5b600182019050919050565b600080600080600060a086880312156138105761380f612a84565b5b600061381e88828901613173565b955050602061382f88828901613173565b945050604061384088828901613173565b935050606061385188828901613173565b925050608061386288828901613173565b9150509295509295909350565b600061387a82612a89565b915061388583612a89565b925082820261389381612a89565b915082820484148315176138aa576138a96133d8565b5b5092915050565b7f4e487b7100000000000000000000000000000000000000000000000000000000600052601260045260246000fd5b60006138eb82612a89565b91506138f683612a89565b925082613906576139056138b1565b5b828204905092915050565b7f5072696365206973206f7574206f66206d61726b65742072616e676500000000600082015250565b6000613947601c83612e73565b915061395282613911565b602082019050919050565b600060208201905081810360008301526139768161393a565b9050919050565b60006060820190506139926000830186612aff565b61399f6020830185612aff565b6139ac6040830184612aff565b949350505050565b7f4e6f74207468652073656c6c6572206f662074686973206f6666657200000000600082015250565b60006139ea601c83612e73565b91506139f5826139b4565b602082019050919050565b60006020820190508181036000830152613a19816139dd565b9050919050565b7f4f6666657220686173206e6f7420657870697265642079657400000000000000600082015250565b6000613a56601983612e73565b9150613a6182613a20565b602082019050919050565b60006020820190508181036000830152613a8581613a49565b9050919050565b7f4f6666657220616c726561647920636c6f736564000000000000000000000000600082015250565b6000613ac2601483612e73565b9150613acd82613a8c565b602082019050919050565b60006020820190508181036000830152613af181613ab5565b9050919050565b6000819050919050565b6000613b0d82613af8565b9150613b1883613af8565b9250828203905081811260008412168282136000851215161715613b3f57613b3e6133d8565b5b92915050565b6000613b5082613af8565b9150613b5b83613af8565b9250828202613b6981613af8565b91507f80000000000000000000000000000000000000000000000000000000000000008414600084121615613ba157613ba06133d8565b5b8282058414831517613bb657613bb56133d8565b5b5092915050565b6000613bc882613af8565b9150613bd383613af8565b925082613be357613be26138b1565b5b600160000383147f800000000000000000000000000000000000000000000000000000000000000083141615613c1c57613c1b6133d8565b5b82820590509291505056fea2646970667358221220358409852b73256f61ddf136c9df883981669efe60a9a3494a8bdf06c17e0b0d64736f6c634300081c0033",
  "linkReferences": {},
  "deployedLinkReferences": {}
}