{
  "_format": "hh-sol-artifact-1",
  "contractName": "Marketplace",
  "sourceName": "contracts/Marketplace.sol",
  "abi": [
    {
      "inputs": [
        {
          "internalType": "address",
          "name": "_energyTokenAddress",
          "type": "address"
        },
        {
          "internalType": "address",
          "name": "_registryAddress",
          "type": "address"
        }
      ],
      "stateMutability": "nonpayable",
      "type": "constructor"
    },
    {
      "anonymous": false,
      "inputs": [
        {
          "indexed": true,
          "internalType": "uint256",
          "name": "offerId",
          "type": "uint256"
        },
        {
          "indexed": false,
          "internalType": "uint256",
          "name": "energyBought",
          "type": "uint256"
        },
        {
          "indexed": true,
          "internalType": "address",
          "name": "buyer",
          "type": "address"
        },
        {
          "indexed": false,
          "internalType": "uint256",
          "name": "totalCost",
          "type": "uint256"
        }
      ],
      "name": "EnergyPurchased",
      "type": "event"
    },
    {
      "anonymous": false,
      "inputs": [
        {
          "indexed": true,
          "internalType": "uint256",
          "name": "offerId",
          "type": "uint256"
        },
        {
          "indexed": true,
          "internalType": "address",
          "name": "seller",
          "type": "address"
        }
      ],
      "name": "OfferCancelled",
      "type": "event"
    },
    {
      "anonymous": false,
      "inputs": [
        {
          "indexed": true,
          "internalType": "uint256",
          "name": "offerId",
          "type": "uint256"
        },
        {
          "indexed": true,
          "internalType": "uint256",
          "name": "microgridId",
          "type": "uint256"
        },
        {
          "indexed": false,
          "internalType": "uint256",
          "name": "totalEnergy",
          "type": "uint256"
        },
        {
          "indexed": false,
          "internalType": "uint256",
          "name": "suggestedPrice",
          "type": "uint256"
        },
        {
          "indexed": false,
          "internalType": "uint256",
          "name": "sellingPrice",
          "type": "uint256"
        },
        {
          "indexed": true,
          "internalType": "address",
          "name": "seller",
          "type": "address"
        }
      ],
      "name": "OfferCreated",
      "type": "event"
    },
    {
      "anonymous": false,
      "inputs": [
        {
          "indexed": true,
          "internalType": "uint256",
          "name": "offerId",
          "type": "uint256"
        },
        {
          "indexed": false,
          "internalType": "enum Marketplace.OfferStatus",
          "name": "newStatus",
          "type": "uint8"
        }
      ],
      "name": "OfferStatusUpdated",
      "type": "event"
    },
    {
      "inputs": [
        {
          "internalType": "uint256",
          "name": "",
          "type": "uint256"
        }
      ],
      "name": "activeOfferCount",
      "outputs": [
        {
          "internalType": "uint256",
          "name": "",
          "type": "uint256"
        }
      ],
      "stateMutability": "view",
      "type": "function"
    },
    {
      "inputs": [
        {
          "internalType": "uint256",
          "name": "_offerId",
          "type": "uint256"
        },
        {
          "internalType": "uint256",
          "name": "_amt",
          "type": "uint256"
        }
      ],
      "name": "buyEnergy",
      "outputs": [],
      "stateMutability": "nonpayable",
      "type": "function"
    },
    {
      "inputs": [
        {
          "internalType": "uint256",
          "name": "_offerId",
          "type": "uint256"
        }
      ],
      "name": "cancelOffer",
      "outputs": [],
      "stateMutability": "nonpayable",
      "type": "function"
    },
    {
      "inputs": [
        {
          "internalType": "uint256",
          "name": "_microgridId",
          "type": "uint256"
        },
        {
          "internalType": "uint256",
          "name": "_energyAmount",
          "type": "uint256"
        },
        {
          "internalType": "uint256",
          "name": "_pricePerUnit",
          "type": "uint256"
        }
      ],
      "name": "createOffer",
      "outputs": [],
      "stateMutability": "nonpayable",
      "type": "function"
    },
    {
      "inputs": [],
      "name": "energyToken",
      "outputs": [
        {
          "internalType": "contract IEnergyToken",
          "name": "",
          "type": "address"
        }
      ],
      "stateMutability": "view",
      "type": "function"
    },
    {
      "inputs": [
        {
          "internalType": "uint256",
          "name": "_offerId",
          "type": "uint256"
        }
      ],
      "name": "expireOffer",
      "outputs": [],
      "stateMutability": "nonpayable",
      "type": "function"
    },
    {
      "inputs": [
        {
          "internalType": "uint256",
          "name": "_microgridId",
          "type": "uint256"
        }
      ],
      "name": "getMicrogridOffers",
      "outputs": [
        {
          "internalType": "uint256[]",
          "name": "",
          "type": "uint256[]"
        }
      ],
      "stateMutability": "view",
      "type": "function"
    },
    {
      "inputs": [
        {
          "internalType": "uint256",
          "name": "_offerId",
          "type": "uint256"
        }
      ],
      "name": "getOffer",
      "outputs": [
        {
          "components": [
            {
              "internalType": "uint256",
              "name": "offerId",
              "type": "uint256"
            },
            {
              "internalType": "uint256",
              "name": "microgridId",
              "type": "uint256"
            },
            {
              "internalType": "uint256",
              "name": "totalEnergy",
              "type": "uint256"
            },
            {
              "internalType": "uint256",
              "name": "remainingEnergy",
              "type": "uint256"
            },
            {
              "internalType": "uint256",
              "name": "soldEnergy",
              "type": "uint256"
            },
            {
              "internalType": "uint256",
              "name": "suggestedPrice",
              "type": "uint256"
            },
            {
              "internalType": "uint256",
              "name": "sellingPrice",
              "type": "uint256"
            },
            {
              "internalType": "address",
              "name": "seller",
              "type": "address"
            },
            {
              "internalType": "uint256",
              "name": "createdAt",
              "type": "uint256"
            },
            {
              "internalType": "uint256",
              "name": "updatedAt",
              "type": "uint256"
            },
            {
              "internalType": "uint256",
              "name": "expiresAt",
              "type": "uint256"
            },
            {
              "internalType": "enum Marketplace.OfferStatus",
              "name": "status",
              "type": "uint8"
            }
          ],
          "internalType": "struct Marketplace.Offer",
          "name": "",
          "type": "tuple"
        }
      ],
      "stateMutability": "view",
      "type": "function"
    },
    {
      "inputs": [],
      "name": "getOfferCount",
      "outputs": [
        {
          "internalType": "uint256",
          "name": "",
          "type": "uint256"
        }
      ],
      "stateMutability": "view",
      "type": "function"
    },
    {
      "inputs": [
        {
          "internalType": "address",
          "name": "_seller",
          "type": "address"
        }
      ],
      "name": "getSellerOffers",
      "outputs": [
        {
          "internalType": "uint256[]",
          "name": "",
          "type": "uint256[]"
        }
      ],
      "stateMutability": "view",
      "type": "function"
    },
    {
      "inputs": [
        {
          "internalType": "uint256",
          "name": "_offerId",
          "type": "uint256"
        }
      ],
      "name": "isOfferOpen",
      "outputs": [
        {
          "internalType": "bool",
          "name": "",
          "type": "bool"
        }
      ],
      "stateMutability": "view",
      "type": "function"
    },
    {
      "inputs": [
        {
          "internalType": "uint256",
          "name": "",
          "type": "uint256"
        },
        {
          "internalType": "uint256",
          "name": "",
          "type": "uint256"
        }
      ],
      "name": "microgridOffers",
      "outputs": [
        {
          "internalType": "uint256",
          "name": "",
          "type": "uint256"
        }
      ],
      "stateMutability": "view",
      "type": "function"
    },
    {
      "inputs": [],
      "name": "nextOfferId",
      "outputs": [
        {
          "internalType": "uint256",
          "name": "",
          "type": "uint256"
        }
      ],
      "stateMutability": "view",
      "type": "function"
    },
    {
      "inputs": [
        {
          "internalType": "uint256",
          "name": "",
          "type": "uint256"
        }
      ],
      "name": "offers",
      "outputs": [
        {
          "internalType": "uint256",
          "name": "offerId",
          "type": "uint256"
        },
        {
          "internalType": "uint256",
          "name": "microgridId",
          "type": "uint256"
        },
        {
          "internalType": "uint256",
          "name": "totalEnergy",
          "type": "uint256"
        },
        {
          "internalType": "uint256",
          "name": "remainingEnergy",
          "type": "uint256"
        },
        {
          "internalType": "uint256",
          "name": "soldEnergy",
          "type": "uint256"
        },
        {
          "internalType": "uint256",
          "name": "suggestedPrice",
          "type": "uint256"
        },
        {
          "internalType": "uint256",
          "name": "sellingPrice",
          "type": "uint256"
        },
        {
          "internalType": "address",
          "name": "seller",
          "type": "address"
        },
        {
          "internalType": "uint256",
          "name": "createdAt",
          "type": "uint256"
        },
        {
          "internalType": "uint256",
          "name": "updatedAt",
          "type": "uint256"
        },
        {
          "internalType": "uint256",
          "name": "expiresAt",
          "type": "uint256"
        },
        {
          "internalType": "enum Marketplace.OfferStatus",
          "name": "status",
          "type": "uint8"
        }
      ],
      "stateMutability": "view",
      "type": "function"
    },
    {
      "inputs": [],
      "name": "registry",
      "outputs": [
        {
          "internalType": "contract IMicrogridRegistry",
          "name": "",
          "type": "address"
        }
      ],
      "stateMutability": "view",
      "type": "function"
    },
    {
      "inputs": [
        {
          "internalType": "address",
          "name": "",
          "type": "address"
        },
        {
          "internalType": "uint256",
          "name": "",
          "type": "uint256"
        }
      ],
      "name": "sellerOffers",
      "outputs": [
        {
          "internalType": "uint256",
          "name": "",
          "type": "uint256"
        }
      ],
      "stateMutability": "view",
      "type": "function"
    }
  ],
  "bytecode": "0x608060405234801561001057600080fd5b506040516134153803806134158339818101604052810190610032919061011d565b816000806101000a81548173ffffffffffffffffffffffffffffffffffffffff021916908373ffffffffffffffffffffffffffffffffffffffff16021790555080600160006101000a81548173ffffffffffffffffffffffffffffffffffffffff021916908373ffffffffffffffffffffffffffffffffffffffff160217905550505061015d565b600080fd5b600073ffffffffffffffffffffffffffffffffffffffff82169050919050565b60006100ea826100bf565b9050919050565b6100fa816100df565b811461010557600080fd5b50565b600081519050610117816100f1565b92915050565b60008060408385031215610134576101336100ba565b5b600061014285828601610108565b925050602061015385828601610108565b9150509250929050565b6132a98061016c6000396000f3fe608060405234801561001057600080fd5b50600436106101005760003560e01c80637e930a5c11610097578063d048db3711610066578063d048db3714610306578063dc35a90014610324578063ef706adf14610340578063f10b16061461035c57610100565b80637e930a5c1461024f5780638a72ea6a1461027f578063bc8859b8146102ba578063cdb6d52d146102ea57610100565b80635f5d0655116100d35780635f5d0655146101b357806371658853146101d157806373868d73146102015780637b1039991461023157610100565b80630f20337d146101055780632bce352a146101355780634579268a146101655780634ec7fb8114610195575b600080fd5b61011f600480360381019061011a9190611e97565b610378565b60405161012c9190611ee6565b60405180910390f35b61014f600480360381019061014a9190611f5f565b6103a9565b60405161015c919061204a565b60405180910390f35b61017f600480360381019061017a919061206c565b610440565b60405161018c9190612215565b60405180910390f35b61019d6105a7565b6040516101aa9190612290565b60405180910390f35b6101bb6105cb565b6040516101c89190611ee6565b60405180910390f35b6101eb60048036038101906101e6919061206c565b6105d1565b6040516101f89190611ee6565b60405180910390f35b61021b6004803603810190610216919061206c565b6105e9565b60405161022891906122c6565b60405180910390f35b61023961068e565b6040516102469190612302565b60405180910390f35b6102696004803603810190610264919061231d565b6106b4565b6040516102769190611ee6565b60405180910390f35b6102996004803603810190610294919061206c565b6106e5565b6040516102b19c9b9a9998979695949392919061237b565b60405180910390f35b6102d460048036038101906102cf919061206c565b610772565b6040516102e1919061204a565b60405180910390f35b61030460048036038101906102ff9190611e97565b6107dd565b005b61030e611054565b60405161031b9190611ee6565b60405180910390f35b61033e60048036038101906103399190612435565b61105e565b005b61035a6004803603810190610355919061206c565b611842565b005b6103766004803603810190610371919061206c565b611980565b005b6004602052816000526040600020818154811061039457600080fd5b90600052602060002001600091509150505481565b6060600560008373ffffffffffffffffffffffffffffffffffffffff1673ffffffffffffffffffffffffffffffffffffffff16815260200190815260200160002080548060200260200160405190810160405280929190818152602001828054801561043457602002820191906000526020600020905b815481526020019060010190808311610420575b50505050509050919050565b610448611dd3565b600254821061048c576040517f08c379a0000000000000000000000000000000000000000000000000000000008152600401610483906124e5565b60405180910390fd5b6003600083815260200190815260200160002060405180610180016040529081600082015481526020016001820154815260200160028201548152602001600382015481526020016004820154815260200160058201548152602001600682015481526020016007820160009054906101000a900473ffffffffffffffffffffffffffffffffffffffff1673ffffffffffffffffffffffffffffffffffffffff1673ffffffffffffffffffffffffffffffffffffffff1681526020016008820154815260200160098201548152602001600a8201548152602001600b820160009054906101000a900460ff16600481111561058a576105896120a8565b5b600481111561059c5761059b6120a8565b5b815250509050919050565b60008054906101000a900473ffffffffffffffffffffffffffffffffffffffff1681565b60025481565b60066020528060005260406000206000915090505481565b60008060048111156105fe576105fd6120a8565b5b60036000848152602001908152602001600020600b0160009054906101000a900460ff166004811115610634576106336120a8565b5b148061068757506001600481111561064f5761064e6120a8565b5b60036000848152602001908152602001600020600b0160009054906101000a900460ff166004811115610685576106846120a8565b5b145b9050919050565b600160009054906101000a900473ffffffffffffffffffffffffffffffffffffffff1681565b600560205281600052604060002081815481106106d057600080fd5b90600052602060002001600091509150505481565b60036020528060005260406000206000915090508060000154908060010154908060020154908060030154908060040154908060050154908060060154908060070160009054906101000a900473ffffffffffffffffffffffffffffffffffffffff169080600801549080600901549080600a01549080600b0160009054906101000a900460ff1690508c565b6060600460008381526020019081526020016000208054806020026020016040519081016040528092919081815260200182805480156107d157602002820191906000526020600020905b8154815260200190600101908083116107bd575b50505050509050919050565b816002548110610822576040517f08c379a0000000000000000000000000000000000000000000000000000000008152600401610819906124e5565b60405180910390fd5b61082b836105e9565b61086a576040517f08c379a000000000000000000000000000000000000000000000000000000000815260040161086190612551565b60405180910390fd5b60036000848152602001908152602001600020600a015442106108cd57610892836004611a2d565b6040517f08c379a00000000000000000000000000000000000000000000000000000000081526004016108c4906125bd565b60405180910390fd5b6003600084815260200190815260200160002060070160009054906101000a900473ffffffffffffffffffffffffffffffffffffffff1673ffffffffffffffffffffffffffffffffffffffff163373ffffffffffffffffffffffffffffffffffffffff1603610971576040517f08c379a00000000000000000000000000000000000000000000000000000000081526004016109689061264f565b60405180910390fd5b600082116109b4576040517f08c379a00000000000000000000000000000000000000000000000000000000081526004016109ab906126bb565b60405180910390fd5b8160036000858152602001908152602001600020600301541015610a0d576040517f08c379a0000000000000000000000000000000000000000000000000000000008152600401610a049061274d565b60405180910390fd5b6000610a2f600360008681526020019081526020016000206006015484611c40565b90508060008054906101000a900473ffffffffffffffffffffffffffffffffffffffff1673ffffffffffffffffffffffffffffffffffffffff166370a08231336040518263ffffffff1660e01b8152600401610a8b919061276d565b602060405180830381865afa158015610aa8573d6000803e3d6000fd5b505050506040513d601f19601f82011682018060405250810190610acc919061279d565b1015610b0d576040517f08c379a0000000000000000000000000000000000000000000000000000000008152600401610b0490612816565b60405180910390fd5b8060008054906101000a900473ffffffffffffffffffffffffffffffffffffffff1673ffffffffffffffffffffffffffffffffffffffff1663dd62ed3e33306040518363ffffffff1660e01b8152600401610b69929190612836565b602060405180830381865afa158015610b86573d6000803e3d6000fd5b505050506040513d601f19601f82011682018060405250810190610baa919061279d565b1015610beb576040517f08c379a0000000000000000000000000000000000000000000000000000000008152600401610be2906128d1565b60405180910390fd5b60008054906101000a900473ffffffffffffffffffffffffffffffffffffffff1673ffffffffffffffffffffffffffffffffffffffff166323b872dd336003600088815260200190815260200160002060070160009054906101000a900473ffffffffffffffffffffffffffffffffffffffff16846040518463ffffffff1660e01b8152600401610c7e939291906128f1565b6020604051808303816000875af1158015610c9d573d6000803e3d6000fd5b505050506040513d601f19601f82011682018060405250810190610cc19190612954565b610d00576040517f08c379a0000000000000000000000000000000000000000000000000000000008152600401610cf7906129cd565b60405180910390fd5b82600360008681526020019081526020016000206003016000828254610d269190612a1c565b9250508190555082600360008681526020019081526020016000206004016000828254610d539190612a50565b92505081905550600160009054906101000a900473ffffffffffffffffffffffffffffffffffffffff1673ffffffffffffffffffffffffffffffffffffffff166361f2d09f6003600087815260200190815260200160002060010154856040518363ffffffff1660e01b8152600401610dcd929190612a84565b600060405180830381600087803b158015610de757600080fd5b505af1158015610dfb573d6000803e3d6000fd5b50505050600160009054906101000a900473ffffffffffffffffffffffffffffffffffffffff1673ffffffffffffffffffffffffffffffffffffffff166392672828600360008781526020019081526020016000206001015433866040518463ffffffff1660e01b8152600401610e7493929190612aad565b600060405180830381600087803b158015610e8e57600080fd5b505af1158015610ea2573d6000803e3d6000fd5b505050504260036000868152602001908152602001600020600901819055506000600360008681526020019081526020016000206003015403610f625760066000600360008781526020019081526020016000206001015481526020019081526020016000206000815480929190610f1990612ae4565b9190505550600260036000868152602001908152602001600020600b0160006101000a81548160ff02191690836004811115610f5857610f576120a8565b5b0217905550610fa2565b600160036000868152602001908152602001600020600b0160006101000a81548160ff02191690836004811115610f9c57610f9b6120a8565b5b02179055505b837f2e74881a6c74723c41779bc20d0aa57148f87d6cd03977e71379655e32e2711660036000878152602001908152602001600020600b0160009054906101000a900460ff16604051610ff59190612b0d565b60405180910390a23373ffffffffffffffffffffffffffffffffffffffff16847f76e4b739eb0c5c67926a4c7392010f3efe3bcf51d1c06b947264bb78b785630f8584604051611046929190612a84565b60405180910390a350505050565b6000600254905090565b600082116110a1576040517f08c379a000000000000000000000000000000000000000000000000000000000815260040161109890612b9a565b60405180910390fd5b600081116110e4576040517f08c379a00000000000000000000000000000000000000000000000000000000081526004016110db90612c2c565b60405180910390fd5b3373ffffffffffffffffffffffffffffffffffffffff16600160009054906101000a900473ffffffffffffffffffffffffffffffffffffffff1673ffffffffffffffffffffffffffffffffffffffff1663c41a360a856040518263ffffffff1660e01b81526004016111569190611ee6565b602060405180830381865afa158015611173573d6000803e3d6000fd5b505050506040513d601f19601f820116820180604052508101906111979190612c61565b73ffffffffffffffffffffffffffffffffffffffff16146111ed576040517f08c379a00000000000000000000000000000000000000000000000000000000081526004016111e490612cda565b60405180910390fd5b600160009054906101000a900473ffffffffffffffffffffffffffffffffffffffff1673ffffffffffffffffffffffffffffffffffffffff16631c334a7e846040518263ffffffff1660e01b81526004016112489190611ee6565b602060405180830381865afa158015611265573d6000803e3d6000fd5b505050506040513d601f19601f820116820180604052508101906112899190612954565b6112c8576040517f08c379a00000000000000000000000000000000000000000000000000000000081526004016112bf90612d46565b60405180910390fd5b81600160009054906101000a900473ffffffffffffffffffffffffffffffffffffffff1673ffffffffffffffffffffffffffffffffffffffff166347846fd9856040518263ffffffff1660e01b81526004016113249190611ee6565b602060405180830381865afa158015611341573d6000803e3d6000fd5b505050506040513d601f19601f82011682018060405250810190611365919061279d565b10156113a6576040517f08c379a000000000000000000000000000000000000000000000000000000000815260040161139d90612dd8565b60405180910390fd5b6000600260008154809291906113bb90612df8565b9190505590506000806000806000600160009054906101000a900473ffffffffffffffffffffffffffffffffffffffff1673ffffffffffffffffffffffffffffffffffffffff16634fa4c02d8a6040518263ffffffff1660e01b81526004016114249190611ee6565b60a060405180830381865afa158015611441573d6000803e3d6000fd5b505050506040513d601f19601f820116820180604052508101906114659190612e40565b94509450945094509450600061147e8686868686611c98565b9050600060646050836114919190612ebb565b61149b9190612f2c565b9050600060646078846114ae9190612ebb565b6114b89190612f2c565b9050818a101580156114ca5750808a11155b611509576040517f08c379a000000000000000000000000000000000000000000000000000000000815260040161150090612fa9565b60405180910390fd5b600160009054906101000a900473ffffffffffffffffffffffffffffffffffffffff1673ffffffffffffffffffffffffffffffffffffffff1663d3e0bada8d8d6040518363ffffffff1660e01b8152600401611566929190612a84565b600060405180830381600087803b15801561158057600080fd5b505af1158015611594573d6000803e3d6000fd5b505050506040518061018001604052808a81526020018d81526020018c81526020018c8152602001600081526020018481526020018b81526020013373ffffffffffffffffffffffffffffffffffffffff16815260200142815260200142815260200162015180426116069190612a50565b81526020016000600481111561161f5761161e6120a8565b5b815250600360008b8152602001908152602001600020600082015181600001556020820151816001015560408201518160020155606082015181600301556080820151816004015560a0820151816005015560c0820151816006015560e08201518160070160006101000a81548173ffffffffffffffffffffffffffffffffffffffff021916908373ffffffffffffffffffffffffffffffffffffffff1602179055506101008201518160080155610120820151816009015561014082015181600a015561016082015181600b0160006101000a81548160ff0219169083600481111561170f5761170e6120a8565b5b0217905550905050600460008d8152602001908152602001600020899080600181540180825580915050600190039060005260206000200160009091909190915055600560003373ffffffffffffffffffffffffffffffffffffffff1673ffffffffffffffffffffffffffffffffffffffff168152602001908152602001600020899080600181540180825580915050600190039060005260206000200160009091909190915055600660008d815260200190815260200160002060008154809291906117db90612df8565b91905055503373ffffffffffffffffffffffffffffffffffffffff168c8a7f55b8d19e468503ecc8f7d6a2611f03f249440d3d2401ff1ff15a474ee7cbee748e878f60405161182c93929190612fc9565b60405180910390a4505050505050505050505050565b806002548110611887576040517f08c379a000000000000000000000000000000000000000000000000000000000815260040161187e906124e5565b60405180910390fd5b813373ffffffffffffffffffffffffffffffffffffffff166003600083815260200190815260200160002060070160009054906101000a900473ffffffffffffffffffffffffffffffffffffffff1673ffffffffffffffffffffffffffffffffffffffff161461192c576040517f08c379a00000000000000000000000000000000000000000000000000000000081526004016119239061304c565b60405180910390fd5b611937836003611a2d565b3373ffffffffffffffffffffffffffffffffffffffff16837f1f51377b3e685a0e2419f9bb4ba7c07ec54936353ba3d0fb3c6538dab676622260405160405180910390a3505050565b8060025481106119c5576040517f08c379a00000000000000000000000000000000000000000000000000000000081526004016119bc906124e5565b60405180910390fd5b4260036000848152602001908152602001600020600a01541115611a1e576040517f08c379a0000000000000000000000000000000000000000000000000000000008152600401611a15906130b8565b60405180910390fd5b611a29826004611a2d565b5050565b611a36826105e9565b611a75576040517f08c379a0000000000000000000000000000000000000000000000000000000008152600401611a6c90613124565b60405180910390fd5b600060036000848152602001908152602001600020600301541115611b5057600160009054906101000a900473ffffffffffffffffffffffffffffffffffffffff1673ffffffffffffffffffffffffffffffffffffffff166361f2d09f600360008581526020019081526020016000206001015460036000868152602001908152602001600020600301546040518363ffffffff1660e01b8152600401611b1d929190612a84565b600060405180830381600087803b158015611b3757600080fd5b505af1158015611b4b573d6000803e3d6000fd5b505050505b600060036000848152602001908152602001600020600301819055508060036000848152602001908152602001600020600b0160006101000a81548160ff02191690836004811115611ba557611ba46120a8565b5b021790555042600360008481526020019081526020016000206009018190555060066000600360008581526020019081526020016000206001015481526020019081526020016000206000815480929190611bff90612ae4565b9190505550817f2e74881a6c74723c41779bc20d0aa57148f87d6cd03977e71379655e32e2711682604051611c349190612b0d565b60405180910390a25050565b6000808211611c84576040517f08c379a0000000000000000000000000000000000000000000000000000000008152600401611c7b906126bb565b60405180910390fd5b8282611c909190612ebb565b905092915050565b600080600a90506000838789611cae919061314e565b611cb8919061314e565b9050600085606483611cca9190613191565b611cd49190613209565b905060468112611cf257600283611ceb9190612a1c565b9250611d46565b60288112611d0e57600183611d079190612a1c565b9250611d45565b6014811215611d445760008112611d3357600283611d2c9190612a50565b9250611d43565b600483611d409190612a50565b92505b5b5b5b60508710611d6257600283611d5b9190612a1c565b9250611db6565b603c8710611d7e57600183611d779190612a1c565b9250611db5565b6028871015611db45760148710611da357600283611d9c9190612a50565b9250611db3565b600483611db09190612a50565b92505b5b5b5b6001831015611dc457600192505b82935050505095945050505050565b60405180610180016040528060008152602001600081526020016000815260200160008152602001600081526020016000815260200160008152602001600073ffffffffffffffffffffffffffffffffffffffff16815260200160008152602001600081526020016000815260200160006004811115611e5657611e556120a8565b5b81525090565b600080fd5b6000819050919050565b611e7481611e61565b8114611e7f57600080fd5b50565b600081359050611e9181611e6b565b92915050565b60008060408385031215611eae57611ead611e5c565b5b6000611ebc85828601611e82565b9250506020611ecd85828601611e82565b9150509250929050565b611ee081611e61565b82525050565b6000602082019050611efb6000830184611ed7565b92915050565b600073ffffffffffffffffffffffffffffffffffffffff82169050919050565b6000611f2c82611f01565b9050919050565b611f3c81611f21565b8114611f4757600080fd5b50565b600081359050611f5981611f33565b92915050565b600060208284031215611f7557611f74611e5c565b5b6000611f8384828501611f4a565b91505092915050565b600081519050919050565b600082825260208201905092915050565b6000819050602082019050919050565b611fc181611e61565b82525050565b6000611fd38383611fb8565b60208301905092915050565b6000602082019050919050565b6000611ff782611f8c565b6120018185611f97565b935061200c83611fa8565b8060005b8381101561203d5781516120248882611fc7565b975061202f83611fdf565b925050600181019050612010565b5085935050505092915050565b600060208201905081810360008301526120648184611fec565b905092915050565b60006020828403121561208257612081611e5c565b5b600061209084828501611e82565b91505092915050565b6120a281611f21565b82525050565b7f4e487b7100000000000000000000000000000000000000000000000000000000600052602160045260246000fd5b600581106120e8576120e76120a8565b5b50565b60008190506120f9826120d7565b919050565b6000612109826120eb565b9050919050565b612119816120fe565b82525050565b610180820160008201516121366000850182611fb8565b5060208201516121496020850182611fb8565b50604082015161215c6040850182611fb8565b50606082015161216f6060850182611fb8565b5060808201516121826080850182611fb8565b5060a082015161219560a0850182611fb8565b5060c08201516121a860c0850182611fb8565b5060e08201516121bb60e0850182612099565b506101008201516121d0610100850182611fb8565b506101208201516121e5610120850182611fb8565b506101408201516121fa610140850182611fb8565b5061016082015161220f610160850182612110565b50505050565b60006101808201905061222b600083018461211f565b92915050565b6000819050919050565b600061225661225161224c84611f01565b612231565b611f01565b9050919050565b60006122688261223b565b9050919050565b600061227a8261225d565b9050919050565b61228a8161226f565b82525050565b60006020820190506122a56000830184612281565b92915050565b60008115159050919050565b6122c0816122ab565b82525050565b60006020820190506122db60008301846122b7565b92915050565b60006122ec8261225d565b9050919050565b6122fc816122e1565b82525050565b600060208201905061231760008301846122f3565b92915050565b6000806040838503121561233457612333611e5c565b5b600061234285828601611f4a565b925050602061235385828601611e82565b9150509250929050565b61236681611f21565b82525050565b612375816120fe565b82525050565b600061018082019050612391600083018f611ed7565b61239e602083018e611ed7565b6123ab604083018d611ed7565b6123b8606083018c611ed7565b6123c5608083018b611ed7565b6123d260a083018a611ed7565b6123df60c0830189611ed7565b6123ec60e083018861235d565b6123fa610100830187611ed7565b612408610120830186611ed7565b612416610140830185611ed7565b61242461016083018461236c565b9d9c50505050505050505050505050565b60008060006060848603121561244e5761244d611e5c565b5b600061245c86828701611e82565b935050602061246d86828701611e82565b925050604061247e86828701611e82565b9150509250925092565b600082825260208201905092915050565b7f4f6666657220646f6573206e6f74206578697374000000000000000000000000600082015250565b60006124cf601483612488565b91506124da82612499565b602082019050919050565b600060208201905081810360008301526124fe816124c2565b9050919050565b7f4f666665722069736e2774206f70656e00000000000000000000000000000000600082015250565b600061253b601083612488565b915061254682612505565b602082019050919050565b6000602082019050818103600083015261256a8161252e565b9050919050565b7f4f66666572206861732065787069726564000000000000000000000000000000600082015250565b60006125a7601183612488565b91506125b282612571565b602082019050919050565b600060208201905081810360008301526125d68161259a565b9050919050565b7f53656c6c65722063616e6e6f7420627579207468656972206f776e20656e657260008201527f6779000000000000000000000000000000000000000000000000000000000000602082015250565b6000612639602283612488565b9150612644826125dd565b604082019050919050565b600060208201905081810360008301526126688161262c565b9050919050565b7f416d6f756e74206d7573742062652067726561746572207468616e2030000000600082015250565b60006126a5601d83612488565b91506126b08261266f565b602082019050919050565b600060208201905081810360008301526126d481612698565b9050919050565b7f4e6f7420656e6f75676820656e6572677920617661696c61626c6520696e207460008201527f6865206f66666572000000000000000000000000000000000000000000000000602082015250565b6000612737602883612488565b9150612742826126db565b604082019050919050565b600060208201905081810360008301526127668161272a565b9050919050565b6000602082019050612782600083018461235d565b92915050565b60008151905061279781611e6b565b92915050565b6000602082840312156127b3576127b2611e5c565b5b60006127c184828501612788565b91505092915050565b7f496e73756666696369656e742045544b2062616c616e63650000000000000000600082015250565b6000612800601883612488565b915061280b826127ca565b602082019050919050565b6000602082019050818103600083015261282f816127f3565b9050919050565b600060408201905061284b600083018561235d565b612858602083018461235d565b9392505050565b7f417070726f7665204d61726b6574706c61636520746f207370656e6420796f7560008201527f722045544b206669727374000000000000000000000000000000000000000000602082015250565b60006128bb602b83612488565b91506128c68261285f565b604082019050919050565b600060208201905081810360008301526128ea816128ae565b9050919050565b6000606082019050612906600083018661235d565b612913602083018561235d565b6129206040830184611ed7565b949350505050565b612931816122ab565b811461293c57600080fd5b50565b60008151905061294e81612928565b92915050565b60006020828403121561296a57612969611e5c565b5b60006129788482850161293f565b91505092915050565b7f5472616e73666572206661696c65640000000000000000000000000000000000600082015250565b60006129b7600f83612488565b91506129c282612981565b602082019050919050565b600060208201905081810360008301526129e6816129aa565b9050919050565b7f4e487b7100000000000000000000000000000000000000000000000000000000600052601160045260246000fd5b6000612a2782611e61565b9150612a3283611e61565b9250828203905081811115612a4a57612a496129ed565b5b92915050565b6000612a5b82611e61565b9150612a6683611e61565b9250828201905080821115612a7e57612a7d6129ed565b5b92915050565b6000604082019050612a996000830185611ed7565b612aa66020830184611ed7565b9392505050565b6000606082019050612ac26000830186611ed7565b612acf602083018561235d565b612adc6040830184611ed7565b949350505050565b6000612aef82611e61565b915060008203612b0257612b016129ed565b5b600182039050919050565b6000602082019050612b22600083018461236c565b92915050565b7f456e6572677920616d6f756e74206d757374206265206772656174657220746860008201527f616e203000000000000000000000000000000000000000000000000000000000602082015250565b6000612b84602483612488565b9150612b8f82612b28565b604082019050919050565b60006020820190508181036000830152612bb381612b77565b9050919050565b7f50726963652070657220756e6974206d7573742062652067726561746572207460008201527f68616e2030000000000000000000000000000000000000000000000000000000602082015250565b6000612c16602583612488565b9150612c2182612bba565b604082019050919050565b60006020820190508181036000830152612c4581612c09565b9050919050565b600081519050612c5b81611f33565b92915050565b600060208284031215612c7757612c76611e5c565b5b6000612c8584828501612c4c565b91505092915050565b7f4e6f7420746865206f776e6572206f662074686973206d6963726f6772696400600082015250565b6000612cc4601f83612488565b9150612ccf82612c8e565b602082019050919050565b60006020820190508181036000830152612cf381612cb7565b9050919050565b7f4d6963726f67726964206973206e6f7420616374697665000000000000000000600082015250565b6000612d30601783612488565b9150612d3b82612cfa565b602082019050919050565b60006020820190508181036000830152612d5f81612d23565b9050919050565b7f4e6f7420656e6f75676820617661696c61626c6520656e6572677920696e207460008201527f6865206d6963726f677269640000000000000000000000000000000000000000602082015250565b6000612dc2602c83612488565b9150612dcd82612d66565b604082019050919050565b60006020820190508181036000830152612df181612db5565b9050919050565b6000612e0382611e61565b91507fffffffffffffffffffffffffffffffffffffffffffffffffffffffffffffffff8203612e3557612e346129ed565b5b600182019050919050565b600080600080600060a08688031215612e5c57612e5b611e5c565b5b6000612e6a88828901612788565b9550506020612e7b88828901612788565b9450506040612e8c88828901612788565b9350506060612e9d88828901612788565b9250506080612eae88828901612788565b9150509295509295909350565b6000612ec682611e61565b9150612ed183611e61565b9250828202612edf81611e61565b91508282048414831517612ef657612ef56129ed565b5b5092915050565b7f4e487b7100000000000000000000000000000000000000000000000000000000600052601260045260246000fd5b6000612f3782611e61565b9150612f4283611e61565b925082612f5257612f51612efd565b5b828204905092915050565b7f5072696365206973206f7574206f66206d61726b65742072616e676500000000600082015250565b6000612f93601c83612488565b9150612f9e82612f5d565b602082019050919050565b60006020820190508181036000830152612fc281612f86565b9050919050565b6000606082019050612fde6000830186611ed7565b612feb6020830185611ed7565b612ff86040830184611ed7565b949350505050565b7f4e6f74207468652073656c6c6572206f662074686973206f6666657200000000600082015250565b6000613036601c83612488565b915061304182613000565b602082019050919050565b6000602082019050818103600083015261306581613029565b9050919050565b7f4f6666657220686173206e6f7420657870697265642079657400000000000000600082015250565b60006130a2601983612488565b91506130ad8261306c565b602082019050919050565b600060208201905081810360008301526130d181613095565b9050919050565b7f4f6666657220616c726561647920636c6f736564000000000000000000000000600082015250565b600061310e601483612488565b9150613119826130d8565b602082019050919050565b6000602082019050818103600083015261313d81613101565b9050919050565b6000819050919050565b600061315982613144565b915061316483613144565b925082820390508181126000841216828213600085121516171561318b5761318a6129ed565b5b92915050565b600061319c82613144565b91506131a783613144565b92508282026131b581613144565b91507f800000000000000000000000000000000000000000000000000000000000000084146000841216156131ed576131ec6129ed565b5b8282058414831517613202576132016129ed565b5b5092915050565b600061321482613144565b915061321f83613144565b92508261322f5761322e612efd565b5b600160000383147f800000000000000000000000000000000000000000000000000000000000000083141615613268576132676129ed565b5b82820590509291505056fea264697066735822122093151e5898214fa2bfd51f5484382b17e3f9ef5ddbb7d5da4518853fda79966464736f6c634300081c0033",
  "linkReferences": {},
  "deployedLinkReferences": {}
}