{
  "_format": "hh-sol-artifact-1",
  "contractName": "Marketplace",
  "sourceName": "contracts/Marketplace.sol",
  "abi": [
    {
      "inputs": [
        {
          "internalType": "address",
          "name": "_energyTokenAddress",
          "type": "address"
        },
        {
          "internalType": "address",
          "name": "_registryAddress",
          "type": "address"
        }
      ],
      "stateMutability": "nonpayable",
      "type": "constructor"
    },
    {
      "anonymous": false,
      "inputs": [
        {
          "indexed": true,
          "internalType": "uint256",
          "name": "offerId",
          "type": "uint256"
        },
        {
          "indexed": false,
          "internalType": "uint256",
          "name": "energyBought",
          "type": "uint256"
        },
        {
          "indexed": true,
          "internalType": "address",
          "name": "buyer",
          "type": "address"
        },
        {
          "indexed": false,
          "internalType": "uint256",
          "name": "totalCost",
          "type": "uint256"
        }
      ],
      "name": "EnergyPurchased",
      "type": "event"
    },
    {
      "anonymous": false,
      "inputs": [
        {
          "indexed": true,
          "internalType": "uint256",
          "name": "offerId",
          "type": "uint256"
        },
        {
          "indexed": true,
          "internalType": "address",
          "name": "seller",
          "type": "address"
        }
      ],
      "name": "OfferCancelled",
      "type": "event"
    },
    {
      "anonymous": false,
      "inputs": [
        {
          "indexed": true,
          "internalType": "uint256",
          "name": "offerId",
          "type": "uint256"
        },
        {
          "indexed": true,
          "internalType": "uint256",
          "name": "microgridId",
          "type": "uint256"
        },
        {
          "indexed": false,
          "internalType": "uint256",
          "name": "totalEnergy",
          "type": "uint256"
        },
        {
          "indexed": false,
          "internalType": "uint256",
          "name": "suggestedPrice",
          "type": "uint256"
        },
        {
          "indexed": false,
          "internalType": "uint256",
          "name": "sellingPrice",
          "type": "uint256"
        },
        {
          "indexed": true,
          "internalType": "address",
          "name": "seller",
          "type": "address"
        }
      ],
      "name": "OfferCreated",
      "type": "event"
    },
    {
      "anonymous": false,
      "inputs": [
        {
          "indexed": true,
          "internalType": "uint256",
          "name": "offerId",
          "type": "uint256"
        },
        {
          "indexed": false,
          "internalType": "enum Marketplace.OfferStatus",
          "name": "newStatus",
          "type": "uint8"
        }
      ],
      "name": "OfferStatusUpdated",
      "type": "event"
    },
    {
      "inputs": [
        {
          "internalType": "uint256",
          "name": "",
          "type": "uint256"
        }
      ],
      "name": "activeOfferCount",
      "outputs": [
        {
          "internalType": "uint256",
          "name": "",
          "type": "uint256"
        }
      ],
      "stateMutability": "view",
      "type": "function"
    },
    {
      "inputs": [
        {
          "internalType": "uint256",
          "name": "_offerId",
          "type": "uint256"
        },
        {
          "internalType": "uint256",
          "name": "_amt",
          "type": "uint256"
        }
      ],
      "name": "buyEnergy",
      "outputs": [],
      "stateMutability": "nonpayable",
      "type": "function"
    },
    {
      "inputs": [
        {
          "internalType": "uint256",
          "name": "_offerId",
          "type": "uint256"
        }
      ],
      "name": "cancelOffer",
      "outputs": [],
      "stateMutability": "nonpayable",
      "type": "function"
    },
    {
      "inputs": [
        {
          "internalType": "uint256",
          "name": "_microgridId",
          "type": "uint256"
        },
        {
          "internalType": "uint256",
          "name": "_energyAmount",
          "type": "uint256"
        },
        {
          "internalType": "uint256",
          "name": "_pricePerUnit",
          "type": "uint256"
        }
      ],
      "name": "createOffer",
      "outputs": [],
      "stateMutability": "nonpayable",
      "type": "function"
    },
    {
      "inputs": [],
      "name": "energyToken",
      "outputs": [
        {
          "internalType": "contract IEnergyToken",
          "name": "",
          "type": "address"
        }
      ],
      "stateMutability": "view",
      "type": "function"
    },
    {
      "inputs": [
        {
          "internalType": "uint256",
          "name": "_offerId",
          "type": "uint256"
        }
      ],
      "name": "expireOffer",
      "outputs": [],
      "stateMutability": "nonpayable",
      "type": "function"
    },
    {
      "inputs": [
        {
          "internalType": "uint256",
          "name": "_microgridId",
          "type": "uint256"
        }
      ],
      "name": "getMicrogridOffers",
      "outputs": [
        {
          "internalType": "uint256[]",
          "name": "",
          "type": "uint256[]"
        }
      ],
      "stateMutability": "view",
      "type": "function"
    },
    {
      "inputs": [
        {
          "internalType": "uint256",
          "name": "_offerId",
          "type": "uint256"
        }
      ],
      "name": "getOffer",
      "outputs": [
        {
          "components": [
            {
              "internalType": "uint256",
              "name": "offerId",
              "type": "uint256"
            },
            {
              "internalType": "uint256",
              "name": "microgridId",
              "type": "uint256"
            },
            {
              "internalType": "uint256",
              "name": "totalEnergy",
              "type": "uint256"
            },
            {
              "internalType": "uint256",
              "name": "remainingEnergy",
              "type": "uint256"
            },
            {
              "internalType": "uint256",
              "name": "soldEnergy",
              "type": "uint256"
            },
            {
              "internalType": "uint256",
              "name": "suggestedPrice",
              "type": "uint256"
            },
            {
              "internalType": "uint256",
              "name": "sellingPrice",
              "type": "uint256"
            },
            {
              "internalType": "address",
              "name": "seller",
              "type": "address"
            },
            {
              "internalType": "uint256",
              "name": "createdAt",
              "type": "uint256"
            },
            {
              "internalType": "uint256",
              "name": "updatedAt",
              "type": "uint256"
            },
            {
              "internalType": "uint256",
              "name": "expiresAt",
              "type": "uint256"
            },
            {
              "internalType": "enum Marketplace.OfferStatus",
              "name": "status",
              "type": "uint8"
            }
          ],
          "internalType": "struct Marketplace.Offer",
          "name": "",
          "type": "tuple"
        }
      ],
      "stateMutability": "view",
      "type": "function"
    },
    {
      "inputs": [],
      "name": "getOfferCount",
      "outputs": [
        {
          "internalType": "uint256",
          "name": "",
          "type": "uint256"
        }
      ],
      "stateMutability": "view",
      "type": "function"
    },
    {
      "inputs": [
        {
          "internalType": "address",
          "name": "_seller",
          "type": "address"
        }
      ],
      "name": "getSellerOffers",
      "outputs": [
        {
          "internalType": "uint256[]",
          "name": "",
          "type": "uint256[]"
        }
      ],
      "stateMutability": "view",
      "type": "function"
    },
    {
      "inputs": [
        {
          "internalType": "uint256",
          "name": "_offerId",
          "type": "uint256"
        }
      ],
      "name": "isOfferOpen",
      "outputs": [
        {
          "internalType": "bool",
          "name": "",
          "type": "bool"
        }
      ],
      "stateMutability": "view",
      "type": "function"
    },
    {
      "inputs": [
        {
          "internalType": "uint256",
          "name": "",
          "type": "uint256"
        },
        {
          "internalType": "uint256",
          "name": "",
          "type": "uint256"
        }
      ],
      "name": "microgridOffers",
      "outputs": [
        {
          "internalType": "uint256",
          "name": "",
          "type": "uint256"
        }
      ],
      "stateMutability": "view",
      "type": "function"
    },
    {
      "inputs": [],
      "name": "nextOfferId",
      "outputs": [
        {
          "internalType": "uint256",
          "name": "",
          "type": "uint256"
        }
      ],
      "stateMutability": "view",
      "type": "function"
    },
    {
      "inputs": [
        {
          "internalType": "uint256",
          "name": "",
          "type": "uint256"
        }
      ],
      "name": "offers",
      "outputs": [
        {
          "internalType": "uint256",
          "name": "offerId",
          "type": "uint256"
        },
        {
          "internalType": "uint256",
          "name": "microgridId",
          "type": "uint256"
        },
        {
          "internalType": "uint256",
          "name": "totalEnergy",
          "type": "uint256"
        },
        {
          "internalType": "uint256",
          "name": "remainingEnergy",
          "type": "uint256"
        },
        {
          "internalType": "uint256",
          "name": "soldEnergy",
          "type": "uint256"
        },
        {
          "internalType": "uint256",
          "name": "suggestedPrice",
          "type": "uint256"
        },
        {
          "internalType": "uint256",
          "name": "sellingPrice",
          "type": "uint256"
        },
        {
          "internalType": "address",
          "name": "seller",
          "type": "address"
        },
        {
          "internalType": "uint256",
          "name": "createdAt",
          "type": "uint256"
        },
        {
          "internalType": "uint256",
          "name": "updatedAt",
          "type": "uint256"
        },
        {
          "internalType": "uint256",
          "name": "expiresAt",
          "type": "uint256"
        },
        {
          "internalType": "enum Marketplace.OfferStatus",
          "name": "status",
          "type": "uint8"
        }
      ],
      "stateMutability": "view",
      "type": "function"
    },
    {
      "inputs": [],
      "name": "registry",
      "outputs": [
        {
          "internalType": "contract IMicrogridRegistry",
          "name": "",
          "type": "address"
        }
      ],
      "stateMutability": "view",
      "type": "function"
    },
    {
      "inputs": [
        {
          "internalType": "address",
          "name": "",
          "type": "address"
        },
        {
          "internalType": "uint256",
          "name": "",
          "type": "uint256"
        }
      ],
      "name": "sellerOffers",
      "outputs": [
        {
          "internalType": "uint256",
          "name": "",
          "type": "uint256"
        }
      ],
      "stateMutability": "view",
      "type": "function"
    }
  ],
  "bytecode": "0x608060405234801561001057600080fd5b5060405161458d38038061458d8339818101604052810190610032919061016e565b61004c67953bc9e83d19d5e460c01b61010860201b60201c565b61006667770b2d132c62eb7060c01b61010860201b60201c565b816000806101000a81548173ffffffffffffffffffffffffffffffffffffffff021916908373ffffffffffffffffffffffffffffffffffffffff1602179055506100c067061639805d3bc7a660c01b61010860201b60201c565b80600160006101000a81548173ffffffffffffffffffffffffffffffffffffffff021916908373ffffffffffffffffffffffffffffffffffffffff16021790555050506101ae565b50565b600080fd5b600073ffffffffffffffffffffffffffffffffffffffff82169050919050565b600061013b82610110565b9050919050565b61014b81610130565b811461015657600080fd5b50565b60008151905061016881610142565b92915050565b600080604083850312156101855761018461010b565b5b600061019385828601610159565b92505060206101a485828601610159565b9150509250929050565b6143d0806101bd6000396000f3fe608060405234801561001057600080fd5b50600436106101005760003560e01c80637e930a5c11610097578063d048db3711610066578063d048db3714610306578063dc35a90014610324578063ef706adf14610340578063f10b16061461035c57610100565b80637e930a5c1461024f5780638a72ea6a1461027f578063bc8859b8146102ba578063cdb6d52d146102ea57610100565b80635f5d0655116100d35780635f5d0655146101b357806371658853146101d157806373868d73146102015780637b1039991461023157610100565b80630f20337d146101055780632bce352a146101355780634579268a146101655780634ec7fb8114610195575b600080fd5b61011f600480360381019061011a9190612ff5565b610378565b60405161012c9190613044565b60405180910390f35b61014f600480360381019061014a91906130bd565b6103a9565b60405161015c91906131a8565b60405180910390f35b61017f600480360381019061017a91906131ca565b61047c565b60405161018c9190613373565b60405180910390f35b61019d61066f565b6040516101aa91906133ee565b60405180910390f35b6101bb610693565b6040516101c89190613044565b60405180910390f35b6101eb60048036038101906101e691906131ca565b610699565b6040516101f89190613044565b60405180910390f35b61021b600480360381019061021691906131ca565b6106b1565b6040516102289190613424565b60405180910390f35b6102396107cb565b6040516102469190613460565b60405180910390f35b6102696004803603810190610264919061347b565b6107f1565b6040516102769190613044565b60405180910390f35b610299600480360381019061029491906131ca565b610822565b6040516102b19c9b9a999897969594939291906134d9565b60405180910390f35b6102d460048036038101906102cf91906131ca565b6108af565b6040516102e191906131a8565b60405180910390f35b61030460048036038101906102ff9190612ff5565b610956565b005b61030e611611565b60405161031b9190613044565b60405180910390f35b61033e60048036038101906103399190613593565b611657565b005b61035a600480360381019061035591906131ca565b6121bf565b005b610376600480360381019061037191906131ca565b6124a1565b005b6004602052816000526040600020818154811061039457600080fd5b90600052602060002001600091509150505481565b60606103bf67237a5841b8fcf9ce60c01b61267a565b6103d367b138972ad4dfa21660c01b61267a565b6103e767988b3643cc6f482260c01b61267a565b600560008373ffffffffffffffffffffffffffffffffffffffff1673ffffffffffffffffffffffffffffffffffffffff16815260200190815260200160002080548060200260200160405190810160405280929190818152602001828054801561047057602002820191906000526020600020905b81548152602001906001019080831161045c575b50505050509050919050565b610484612f31565b61049867b89cc6d9425ea89160c01b61267a565b6104ac67edda526cf613671260c01b61267a565b6104c067f71c04669445b5a560c01b61267a565b6104d467957777ae119c51fa60c01b61267a565b6002548210610518576040517f08c379a000000000000000000000000000000000000000000000000000000000815260040161050f90613643565b60405180910390fd5b61052c6729c5b54ebe9c549260c01b61267a565b6105406748f031cb73711fed60c01b61267a565b610554674a0721138a62e22660c01b61267a565b6003600083815260200190815260200160002060405180610180016040529081600082015481526020016001820154815260200160028201548152602001600382015481526020016004820154815260200160058201548152602001600682015481526020016007820160009054906101000a900473ffffffffffffffffffffffffffffffffffffffff1673ffffffffffffffffffffffffffffffffffffffff1673ffffffffffffffffffffffffffffffffffffffff1681526020016008820154815260200160098201548152602001600a8201548152602001600b820160009054906101000a900460ff16600481111561065257610651613206565b5b600481111561066457610663613206565b5b815250509050919050565b60008054906101000a900473ffffffffffffffffffffffffffffffffffffffff1681565b60025481565b60066020528060005260406000206000915090505481565b60006106c76705c185691a91eb3d60c01b61267a565b6106db6737d1c8fa3fc4f0c360c01b61267a565b6106ef67f07a10b42961279a60c01b61267a565b6000600481111561070357610702613206565b5b60036000848152602001908152602001600020600b0160009054906101000a900460ff16600481111561073957610738613206565b5b1480156107565750610755675f1b58a78c7cdd1460c01b61267d565b5b806107c45750600160048111156107705761076f613206565b5b60036000848152602001908152602001600020600b0160009054906101000a900460ff1660048111156107a6576107a5613206565b5b1480156107c357506107c267494f2cb48e12885160c01b61267d565b5b5b9050919050565b600160009054906101000a900473ffffffffffffffffffffffffffffffffffffffff1681565b6005602052816000526040600020818154811061080d57600080fd5b90600052602060002001600091509150505481565b60036020528060005260406000206000915090508060000154908060010154908060020154908060030154908060040154908060050154908060060154908060070160009054906101000a900473ffffffffffffffffffffffffffffffffffffffff169080600801549080600901549080600a01549080600b0160009054906101000a900460ff1690508c565b60606108c567155be38e2760b69860c01b61267a565b6108d967457804c4a0f2767060c01b61267a565b6108ed671c9d22980082a60760c01b61267a565b6004600083815260200190815260200160002080548060200260200160405190810160405280929190818152602001828054801561094a57602002820191906000526020600020905b815481526020019060010190808311610936575b50505050509050919050565b61096a67d998c0a9281f869960c01b61267a565b8161097f67b269fe741fbaec0f60c01b61267a565b6109936741322cc55db093cd60c01b61267a565b6109a767807976db02039e6a60c01b61267a565b6109bb6729710b2d8b5ed4fd60c01b61267a565b60025481106109ff576040517f08c379a00000000000000000000000000000000000000000000000000000000081526004016109f690613643565b60405180910390fd5b610a136743ed8170f895a5df60c01b61267a565b610a2767bf8686b9400b38eb60c01b61267a565b610a3b6789425690b84b8d6560c01b61267a565b610a4f675af89df8fca5cd4160c01b61267a565b610a636703a72c80c04b23a660c01b61267a565b610a7767413a961d55eed4c560c01b61267a565b610a8b6775040d2a85b2b46c60c01b61267a565b610a94836106b1565b610ad3576040517f08c379a0000000000000000000000000000000000000000000000000000000008152600401610aca906136af565b60405180910390fd5b610ae767bed133fbdca3299c60c01b61267a565b610afb67cf7b454e9007880760c01b61267a565b610b0f67cdd6bf7276cb72c560c01b61267a565b60036000848152602001908152602001600020600a01544210610bd657610b4067a4621493689acfd060c01b61267a565b610b5467951830a3cb6aee0f60c01b61267a565b610b6867094d43ab07ebef4c60c01b61267a565b610b73836004612688565b610b87677446ef47d6dbb5c660c01b61267a565b610b9b679d1163b6831e9d9760c01b61267a565b6040517f08c379a0000000000000000000000000000000000000000000000000000000008152600401610bcd9061371b565b60405180910390fd5b610bea6711babfb5583e2aa760c01b61267a565b610bfe67b55885fb1005259a60c01b61267a565b610c12671428cd3af869fad960c01b61267a565b610c2667cb7cf7aae7b8647f60c01b61267a565b6003600084815260200190815260200160002060070160009054906101000a900473ffffffffffffffffffffffffffffffffffffffff1673ffffffffffffffffffffffffffffffffffffffff163373ffffffffffffffffffffffffffffffffffffffff1603610cca576040517f08c379a0000000000000000000000000000000000000000000000000000000008152600401610cc1906137ad565b60405180910390fd5b610cde67ea7a3a5dbe6b4b3e60c01b61267a565b610cf2676f643bef25d27bfa60c01b61267a565b610d066764c78af261073d4760c01b61267a565b610d1a67e2333bab1e9e61bd60c01b61267a565b60008211610d5d576040517f08c379a0000000000000000000000000000000000000000000000000000000008152600401610d5490613819565b60405180910390fd5b610d7167e73c1cbfe2a4ae6960c01b61267a565b610d8567dda7698396787bbb60c01b61267a565b610d9967fa2a7d7aabcd885060c01b61267a565b610dac664b339663f1be4b60c01b61267a565b8160036000858152602001908152602001600020600301541015610e05576040517f08c379a0000000000000000000000000000000000000000000000000000000008152600401610dfc906138ab565b60405180910390fd5b610e1967fc1340b1cc20e3c060c01b61267a565b610e2d67c884e18c7fdc78d460c01b61267a565b610e4167f551cc57a4f9ec4660c01b61267a565b6000610e636003600086815260200190815260200160002060060154846129f4565b9050610e7967d94b5d4cfb1a3e8960c01b61267a565b610e8d678e5ee2d0728d720e60c01b61267a565b610ea167d6ae36ae0f2511c460c01b61267a565b8060008054906101000a900473ffffffffffffffffffffffffffffffffffffffff1673ffffffffffffffffffffffffffffffffffffffff166370a08231336040518263ffffffff1660e01b8152600401610efb91906138cb565b602060405180830381865afa158015610f18573d6000803e3d6000fd5b505050506040513d601f19601f82011682018060405250810190610f3c91906138fb565b1015610f7d576040517f08c379a0000000000000000000000000000000000000000000000000000000008152600401610f7490613974565b60405180910390fd5b610f916719dd15dbc329896a60c01b61267a565b610fa567ea025d4613a8dc4460c01b61267a565b610fb967878b8db82b6625cf60c01b61267a565b610fcd67389420f9b6bc242760c01b61267a565b8060008054906101000a900473ffffffffffffffffffffffffffffffffffffffff1673ffffffffffffffffffffffffffffffffffffffff1663dd62ed3e33306040518363ffffffff1660e01b8152600401611029929190613994565b602060405180830381865afa158015611046573d6000803e3d6000fd5b505050506040513d601f19601f8201168201806040525081019061106a91906138fb565b10156110ab576040517f08c379a00000000000000000000000000000000000000000000000000000000081526004016110a290613a2f565b60405180910390fd5b6110bf675dd829a710c3eb1f60c01b61267a565b6110d36777ae245b2c28b3d860c01b61267a565b6110e767e29c623506bff16b60c01b61267a565b6110fb67777c51b83ac102b260c01b61267a565b60008054906101000a900473ffffffffffffffffffffffffffffffffffffffff1673ffffffffffffffffffffffffffffffffffffffff166323b872dd336003600088815260200190815260200160002060070160009054906101000a900473ffffffffffffffffffffffffffffffffffffffff16846040518463ffffffff1660e01b815260040161118e93929190613a4f565b6020604051808303816000875af11580156111ad573d6000803e3d6000fd5b505050506040513d601f19601f820116820180604052508101906111d19190613ab2565b611210576040517f08c379a000000000000000000000000000000000000000000000000000000000815260040161120790613b2b565b60405180910390fd5b611224671391eb833854918e60c01b61267a565b611238679d2dd918afeb5bed60c01b61267a565b8260036000868152602001908152602001600020600301600082825461125e9190613b7a565b9250508190555061127967eea15dcade1d66fc60c01b61267a565b8260036000868152602001908152602001600020600401600082825461129f9190613bae565b925050819055506112ba675a4365837c9267e060c01b61267a565b6112ce67bfe26ae6af1e6fc360c01b61267a565b600160009054906101000a900473ffffffffffffffffffffffffffffffffffffffff1673ffffffffffffffffffffffffffffffffffffffff166361f2d09f6003600087815260200190815260200160002060010154856040518363ffffffff1660e01b8152600401611341929190613be2565b600060405180830381600087803b15801561135b57600080fd5b505af115801561136f573d6000803e3d6000fd5b50505050611387679ee5346618c8061460c01b61267a565b4260036000868152602001908152602001600020600901819055506113b667273f7ea4c4424c0260c01b61267a565b6113ca678da6615f2514184e60c01b61267a565b60006003600086815260200190815260200160002060030154036114a7576113fc670b99fc33d5e8b2d160c01b61267a565b6114106773ea0bf0d863075960c01b61267a565b6006600060036000878152602001908152602001600020600101548152602001908152602001600020600081548092919061144a90613c0b565b919050555061146367bb61b8f25532559260c01b61267a565b600260036000868152602001908152602001600020600b0160006101000a81548160ff0219169083600481111561149d5761149c613206565b5b021790555061150f565b6114bb675d621e90a6b731e460c01b61267a565b6114cf67d251944cd1413c1c60c01b61267a565b600160036000868152602001908152602001600020600b0160006101000a81548160ff0219169083600481111561150957611508613206565b5b02179055505b611523675ded486ce5c4462a60c01b61267a565b61153767b421197ca277054d60c01b61267a565b837f2e74881a6c74723c41779bc20d0aa57148f87d6cd03977e71379655e32e2711660036000878152602001908152602001600020600b0160009054906101000a900460ff1660405161158a9190613c34565b60405180910390a26115a667647238746403323960c01b61267a565b6115ba6798fe73a0ec21f35560c01b61267a565b3373ffffffffffffffffffffffffffffffffffffffff16847f76e4b739eb0c5c67926a4c7392010f3efe3bcf51d1c06b947264bb78b785630f8584604051611603929190613be2565b60405180910390a350505050565b600061162767730da868475af79d60c01b61267a565b61163b670382242a894dc31f60c01b61267a565b61164f674cd60c7e690070cd60c01b61267a565b600254905090565b61166b679b79af462e9378ec60c01b61267a565b61167f673b9b3e3028b7c88660c01b61267a565b61169367869edd4f7933d8e460c01b61267a565b6116a7677dd60b50651d84f260c01b61267a565b600082116116ea576040517f08c379a00000000000000000000000000000000000000000000000000000000081526004016116e190613cc1565b60405180910390fd5b6116fe67ba7bfdef7777848b60c01b61267a565b61171267706b05460c3dcc1360c01b61267a565b611726674f8ffced21f86a5d60c01b61267a565b61173a6781d3162c59e3225160c01b61267a565b6000811161177d576040517f08c379a000000000000000000000000000000000000000000000000000000000815260040161177490613d53565b60405180910390fd5b611791671c657e9c1529471a60c01b61267a565b6117a567739d41a13419280e60c01b61267a565b6117b96756ddd2c459e53f9960c01b61267a565b6117cd67b8dfec048a3dc02c60c01b61267a565b3373ffffffffffffffffffffffffffffffffffffffff16600160009054906101000a900473ffffffffffffffffffffffffffffffffffffffff1673ffffffffffffffffffffffffffffffffffffffff1663c41a360a856040518263ffffffff1660e01b815260040161183f9190613044565b602060405180830381865afa15801561185c573d6000803e3d6000fd5b505050506040513d601f19601f820116820180604052508101906118809190613d88565b73ffffffffffffffffffffffffffffffffffffffff16146118d6576040517f08c379a00000000000000000000000000000000000000000000000000000000081526004016118cd90613e01565b60405180910390fd5b6118ea678c7b861a2773175060c01b61267a565b6118fe678d429286b351ce2b60c01b61267a565b61191267056f4c7caaf571f560c01b61267a565b61192667ca11c4f8494e7eec60c01b61267a565b600160009054906101000a900473ffffffffffffffffffffffffffffffffffffffff1673ffffffffffffffffffffffffffffffffffffffff16631c334a7e846040518263ffffffff1660e01b81526004016119819190613044565b602060405180830381865afa15801561199e573d6000803e3d6000fd5b505050506040513d601f19601f820116820180604052508101906119c29190613ab2565b611a01576040517f08c379a00000000000000000000000000000000000000000000000000000000081526004016119f890613e6d565b60405180910390fd5b611a15679a5a3cd819ff91d260c01b61267a565b611a296765d0a4dc2a4be24d60c01b61267a565b611a3d67381fc89cbdcfc1ec60c01b61267a565b611a5167aa1b58280433f5b260c01b61267a565b81600160009054906101000a900473ffffffffffffffffffffffffffffffffffffffff1673ffffffffffffffffffffffffffffffffffffffff166347846fd9856040518263ffffffff1660e01b8152600401611aad9190613044565b602060405180830381865afa158015611aca573d6000803e3d6000fd5b505050506040513d601f19601f82011682018060405250810190611aee91906138fb565b1015611b2f576040517f08c379a0000000000000000000000000000000000000000000000000000000008152600401611b2690613eff565b60405180910390fd5b611b4367f140259cfd6fd27660c01b61267a565b611b5767ae3ac2bfa1ba68af60c01b61267a565b611b6b67ab831fe51ccb934f60c01b61267a565b600060026000815480929190611b8090613f1f565b919050559050611b9a6715712cb429dc6d8760c01b61267a565b611bae671ae588bff79076dc60c01b61267a565b6000806000806000600160009054906101000a900473ffffffffffffffffffffffffffffffffffffffff1673ffffffffffffffffffffffffffffffffffffffff16634fa4c02d8a6040518263ffffffff1660e01b8152600401611c119190613044565b60a060405180830381865afa158015611c2e573d6000803e3d6000fd5b505050506040513d601f19601f82011682018060405250810190611c529190613f67565b94509450945094509450611c7067322ab45fd5ccb9a660c01b61267a565b611c8467450c73e5f74f7d6e60c01b61267a565b6000611c938686868686612ad9565b9050611ca96721268975b5e199e160c01b61267a565b611cbd67d075920a16dd5a0c60c01b61267a565b60006064605083611cce9190613fe2565b611cd89190614053565b9050611cee67c0b7ff08ee9548dd60c01b61267a565b611d02673228e484006db2d860c01b61267a565b60006064607884611d139190613fe2565b611d1d9190614053565b9050611d336782b06dd331ae5b0b60c01b61267a565b611d4767136eed40c6c922b660c01b61267a565b611d5b67e6a946e21f1c626860c01b61267a565b818a10158015611d6b5750808a11155b611daa576040517f08c379a0000000000000000000000000000000000000000000000000000000008152600401611da1906140d0565b60405180910390fd5b611dbe677393920ffcf402de60c01b61267a565b611dd267040814c2f572d49460c01b61267a565b611de6670dfe22f0d4a672af60c01b61267a565b600160009054906101000a900473ffffffffffffffffffffffffffffffffffffffff1673ffffffffffffffffffffffffffffffffffffffff1663d3e0bada8d8d6040518363ffffffff1660e01b8152600401611e43929190613be2565b600060405180830381600087803b158015611e5d57600080fd5b505af1158015611e71573d6000803e3d6000fd5b50505050611e89675971d819843f103760c01b61267a565b6040518061018001604052808a81526020018d81526020018c81526020018c8152602001600081526020018481526020018b81526020013373ffffffffffffffffffffffffffffffffffffffff1681526020014281526020014281526020016201518042611ef79190613bae565b815260200160006004811115611f1057611f0f613206565b5b815250600360008b8152602001908152602001600020600082015181600001556020820151816001015560408201518160020155606082015181600301556080820151816004015560a0820151816005015560c0820151816006015560e08201518160070160006101000a81548173ffffffffffffffffffffffffffffffffffffffff021916908373ffffffffffffffffffffffffffffffffffffffff1602179055506101008201518160080155610120820151816009015561014082015181600a015561016082015181600b0160006101000a81548160ff0219169083600481111561200057611fff613206565b5b021790555090505061201c67c8b42d1b51224af560c01b61267a565b61203067f606cc2c75ed219a60c01b61267a565b600460008d815260200190815260200160002089908060018154018082558091505060019003906000526020600020016000909190919091505561207e67de4fe4c40c17229a60c01b61267a565b6120926768aeb3c095c7f35e60c01b61267a565b600560003373ffffffffffffffffffffffffffffffffffffffff1673ffffffffffffffffffffffffffffffffffffffff16815260200190815260200160002089908060018154018082558091505060019003906000526020600020016000909190919091505561210c672f236ea09587a4c360c01b61267a565b600660008d8152602001908152602001600020600081548092919061213090613f1f565b91905055506121496706bc9c6aeed4fbd560c01b61267a565b61215d67a4caceb9d00ffd0760c01b61267a565b3373ffffffffffffffffffffffffffffffffffffffff168c8a7f55b8d19e468503ecc8f7d6a2611f03f249440d3d2401ff1ff15a474ee7cbee748e878f6040516121a9939291906140f0565b60405180910390a4505050505050505050505050565b6121d367bfbebf73147f563a60c01b61267a565b806121e867b269fe741fbaec0f60c01b61267a565b6121fc6741322cc55db093cd60c01b61267a565b61221067807976db02039e6a60c01b61267a565b6122246729710b2d8b5ed4fd60c01b61267a565b6002548110612268576040517f08c379a000000000000000000000000000000000000000000000000000000000815260040161225f90613643565b60405180910390fd5b61227c6743ed8170f895a5df60c01b61267a565b61229067bf8686b9400b38eb60c01b61267a565b6122a467316b79868a0a746060c01b61267a565b6122b8677ccf5c4b7455696160c01b61267a565b816122cd67f4436a0dc4972cb060c01b61267a565b6122e167d15a8d3db55d704e60c01b61267a565b6122f567a3829d52693644d360c01b61267a565b61230967328d385303edc07960c01b61267a565b3373ffffffffffffffffffffffffffffffffffffffff166003600083815260200190815260200160002060070160009054906101000a900473ffffffffffffffffffffffffffffffffffffffff1673ffffffffffffffffffffffffffffffffffffffff16146123ad576040517f08c379a00000000000000000000000000000000000000000000000000000000081526004016123a490614173565b60405180910390fd5b6123c167a4776f79adf6704260c01b61267a565b6123d567a8a673c2e08ffc0760c01b61267a565b6123e96703b6202fb8ed8d4d60c01b61267a565b6123fd6771384e73dfb65c9560c01b61267a565b61241167f28b9243fabf099260c01b61267a565b6124256780662f9fcea0442f60c01b61267a565b612430836003612688565b6124446764732ed4a59ad89060c01b61267a565b61245867b43caf31ea54f71060c01b61267a565b3373ffffffffffffffffffffffffffffffffffffffff16837f1f51377b3e685a0e2419f9bb4ba7c07ec54936353ba3d0fb3c6538dab676622260405160405180910390a3505050565b6124b56750221e1d3d894e7460c01b61267a565b806124ca67b269fe741fbaec0f60c01b61267a565b6124de6741322cc55db093cd60c01b61267a565b6124f267807976db02039e6a60c01b61267a565b6125066729710b2d8b5ed4fd60c01b61267a565b600254811061254a576040517f08c379a000000000000000000000000000000000000000000000000000000000815260040161254190613643565b60405180910390fd5b61255e6743ed8170f895a5df60c01b61267a565b61257267bf8686b9400b38eb60c01b61267a565b61258667efcadacfa6acbbe960c01b61267a565b61259a67c864755e870501c260c01b61267a565b6125ae67cc3fc017276d4d2260c01b61267a565b6125c26740053e930d2cd21260c01b61267a565b6125d667207dfe63b408692560c01b61267a565b4260036000848152602001908152602001600020600a0154111561262f576040517f08c379a0000000000000000000000000000000000000000000000000000000008152600401612626906141df565b60405180910390fd5b6126436721dd26c1f12c972b60c01b61267a565b6126576783135b0e5fd4b2b960c01b61267a565b61266b67514217a4df7bf24b60c01b61267a565b612676826004612688565b5050565b50565b600060019050919050565b61269c67604b2c1cfae547e860c01b61267a565b6126b0675d4639b698aa356660c01b61267a565b6126c467c42505019d1cafd960c01b61267a565b6126d867b8dfb617b505f04860c01b61267a565b6126e1826106b1565b612720576040517f08c379a00000000000000000000000000000000000000000000000000000000081526004016127179061424b565b60405180910390fd5b612734678ccfd734d25e421860c01b61267a565b61274867aaf47553fc0664cd60c01b61267a565b61275c674e3cdbdac12bfad760c01b61267a565b6000600360008481526020019081526020016000206003015411156128775761278f67d090c389317d7ee260c01b61267a565b6127a36707d899e4d787004260c01b61267a565b6127b76732c770a4fd49257b60c01b61267a565b600160009054906101000a900473ffffffffffffffffffffffffffffffffffffffff1673ffffffffffffffffffffffffffffffffffffffff166361f2d09f600360008581526020019081526020016000206001015460036000868152602001908152602001600020600301546040518363ffffffff1660e01b8152600401612840929190613be2565b600060405180830381600087803b15801561285a57600080fd5b505af115801561286e573d6000803e3d6000fd5b5050505061288c565b61288b67eb5899eae539ef0b60c01b61267a565b5b6128a067e79c51a41e466f9d60c01b61267a565b600060036000848152602001908152602001600020600301819055506128d0677ea16401fef1cbca60c01b61267a565b8060036000848152602001908152602001600020600b0160006101000a81548160ff0219169083600481111561290957612908613206565b5b021790555061292267708e8493661cbb1c60c01b61267a565b4260036000848152602001908152602001600020600901819055506129516701f656a4e98e9cea60c01b61267a565b6006600060036000858152602001908152602001600020600101548152602001908152602001600020600081548092919061298b90613c0b565b91905055506129a46713b19bd016988b7160c01b61267a565b6129b867ce68d647694a955560c01b61267a565b817f2e74881a6c74723c41779bc20d0aa57148f87d6cd03977e71379655e32e27116826040516129e89190613c34565b60405180910390a25050565b6000612a0a6789b58ed4a8201f3e60c01b612f2e565b612a1e67a409d1592cb9e8b660c01b612f2e565b612a3267b7a5e097c422c28560c01b612f2e565b612a4667e1050fd692e780a560c01b612f2e565b60008211612a89576040517f08c379a0000000000000000000000000000000000000000000000000000000008152600401612a8090613819565b60405180910390fd5b612a9d67e92a29f9318a9fef60c01b612f2e565b612ab1677b0960d25ca8953260c01b612f2e565b612ac5671fb24eba7086370260c01b612f2e565b8282612ad19190613fe2565b905092915050565b6000612aef671a8e137af710537560c01b612f2e565b612b036716e21e7a64aebf1860c01b612f2e565b612b1767ff89679af3e2f73b60c01b612f2e565b6000600a9050612b3167953d4d027fc57cf660c01b612f2e565b612b456765c62f399c00e44c60c01b612f2e565b6000838789612b549190614275565b612b5e9190614275565b9050612b74678e2527f730566d0960c01b612f2e565b612b8867123251b3b619a77e60c01b612f2e565b600085606483612b9891906142b8565b612ba29190614330565b9050612bb8674df949cb4c85b82c60c01b612f2e565b612bcc674675c6310b8b7f6760c01b612f2e565b60468112612bfc57612be8670b858ade4983b6df60c01b612f2e565b600283612bf59190613b7a565b9250612d1c565b612c1067a848f584906f531960c01b612f2e565b612c2467e1b6597706bd7b7660c01b612f2e565b60288112612c5457612c4067cfc6ef913ea5a08960c01b612f2e565b600183612c4d9190613b7a565b9250612d1b565b612c6867cd17eb43ced185e060c01b612f2e565b612c7c67d9687e626f0d51eb60c01b612f2e565b60148112612c9d57612c9867e59e2c24b4122ea660c01b612f2e565b612d1a565b612cb167552507d86d11d6f460c01b612f2e565b612cc567279d5edce02d8f9660c01b612f2e565b60008112612cf557612ce16742333b8d06f3359a60c01b612f2e565b600283612cee9190613bae565b9250612d19565b612d09671529075b9e3902c760c01b612f2e565b600483612d169190613bae565b92505b5b5b5b612d306796d12ff52e8668e660c01b612f2e565b612d4467795d5357bd5d35b760c01b612f2e565b60508710612d7457612d6067f535f76c476c0ce860c01b612f2e565b600283612d6d9190613b7a565b9250612e94565b612d8867ccaa71e57007eec260c01b612f2e565b612d9c6793850a2aae92b54d60c01b612f2e565b603c8710612dcc57612db8678a313710a197347a60c01b612f2e565b600183612dc59190613b7a565b9250612e93565b612de067186b9ea3f93e06db60c01b612f2e565b612df467290dadfe08a7366760c01b612f2e565b60288710612e1557612e10673d45e1ae604e45d960c01b612f2e565b612e92565b612e2967f83617716c1214ab60c01b612f2e565b612e3d672bc5e0315f8cea6360c01b612f2e565b60148710612e6d57612e59672a26f29228ac594d60c01b612f2e565b600283612e669190613bae565b9250612e91565b612e81673a793d3aeab6987360c01b612f2e565b600483612e8e9190613bae565b92505b5b5b5b612ea867bf95e14ccb94ecf360c01b612f2e565b612ebc67bee89ec3da9e19ea60c01b612f2e565b6001831015612ee257612ed967b917fc5d7530947760c01b612f2e565b60019250612ef7565b612ef667bb9b3434d27d43b760c01b612f2e565b5b612f0b6760d7bbb0c4742de760c01b612f2e565b612f1f67406bd57269fe0c3360c01b612f2e565b82935050505095945050505050565b50565b60405180610180016040528060008152602001600081526020016000815260200160008152602001600081526020016000815260200160008152602001600073ffffffffffffffffffffffffffffffffffffffff16815260200160008152602001600081526020016000815260200160006004811115612fb457612fb3613206565b5b81525090565b600080fd5b6000819050919050565b612fd281612fbf565b8114612fdd57600080fd5b50565b600081359050612fef81612fc9565b92915050565b6000806040838503121561300c5761300b612fba565b5b600061301a85828601612fe0565b925050602061302b85828601612fe0565b9150509250929050565b61303e81612fbf565b82525050565b60006020820190506130596000830184613035565b92915050565b600073ffffffffffffffffffffffffffffffffffffffff82169050919050565b600061308a8261305f565b9050919050565b61309a8161307f565b81146130a557600080fd5b50565b6000813590506130b781613091565b92915050565b6000602082840312156130d3576130d2612fba565b5b60006130e1848285016130a8565b91505092915050565b600081519050919050565b600082825260208201905092915050565b6000819050602082019050919050565b61311f81612fbf565b82525050565b60006131318383613116565b60208301905092915050565b6000602082019050919050565b6000613155826130ea565b61315f81856130f5565b935061316a83613106565b8060005b8381101561319b5781516131828882613125565b975061318d8361313d565b92505060018101905061316e565b5085935050505092915050565b600060208201905081810360008301526131c2818461314a565b905092915050565b6000602082840312156131e0576131df612fba565b5b60006131ee84828501612fe0565b91505092915050565b6132008161307f565b82525050565b7f4e487b7100000000000000000000000000000000000000000000000000000000600052602160045260246000fd5b6005811061324657613245613206565b5b50565b600081905061325782613235565b919050565b600061326782613249565b9050919050565b6132778161325c565b82525050565b610180820160008201516132946000850182613116565b5060208201516132a76020850182613116565b5060408201516132ba6040850182613116565b5060608201516132cd6060850182613116565b5060808201516132e06080850182613116565b5060a08201516132f360a0850182613116565b5060c082015161330660c0850182613116565b5060e082015161331960e08501826131f7565b5061010082015161332e610100850182613116565b50610120820151613343610120850182613116565b50610140820151613358610140850182613116565b5061016082015161336d61016085018261326e565b50505050565b600061018082019050613389600083018461327d565b92915050565b6000819050919050565b60006133b46133af6133aa8461305f565b61338f565b61305f565b9050919050565b60006133c682613399565b9050919050565b60006133d8826133bb565b9050919050565b6133e8816133cd565b82525050565b600060208201905061340360008301846133df565b92915050565b60008115159050919050565b61341e81613409565b82525050565b60006020820190506134396000830184613415565b92915050565b600061344a826133bb565b9050919050565b61345a8161343f565b82525050565b60006020820190506134756000830184613451565b92915050565b6000806040838503121561349257613491612fba565b5b60006134a0858286016130a8565b92505060206134b185828601612fe0565b9150509250929050565b6134c48161307f565b82525050565b6134d38161325c565b82525050565b6000610180820190506134ef600083018f613035565b6134fc602083018e613035565b613509604083018d613035565b613516606083018c613035565b613523608083018b613035565b61353060a083018a613035565b61353d60c0830189613035565b61354a60e08301886134bb565b613558610100830187613035565b613566610120830186613035565b613574610140830185613035565b6135826101608301846134ca565b9d9c50505050505050505050505050565b6000806000606084860312156135ac576135ab612fba565b5b60006135ba86828701612fe0565b93505060206135cb86828701612fe0565b92505060406135dc86828701612fe0565b9150509250925092565b600082825260208201905092915050565b7f4f6666657220646f6573206e6f74206578697374000000000000000000000000600082015250565b600061362d6014836135e6565b9150613638826135f7565b602082019050919050565b6000602082019050818103600083015261365c81613620565b9050919050565b7f4f666665722069736e2774206f70656e00000000000000000000000000000000600082015250565b60006136996010836135e6565b91506136a482613663565b602082019050919050565b600060208201905081810360008301526136c88161368c565b9050919050565b7f4f66666572206861732065787069726564000000000000000000000000000000600082015250565b60006137056011836135e6565b9150613710826136cf565b602082019050919050565b60006020820190508181036000830152613734816136f8565b9050919050565b7f53656c6c65722063616e6e6f7420627579207468656972206f776e20656e657260008201527f6779000000000000000000000000000000000000000000000000000000000000602082015250565b60006137976022836135e6565b91506137a28261373b565b604082019050919050565b600060208201905081810360008301526137c68161378a565b9050919050565b7f416d6f756e74206d7573742062652067726561746572207468616e2030000000600082015250565b6000613803601d836135e6565b915061380e826137cd565b602082019050919050565b60006020820190508181036000830152613832816137f6565b9050919050565b7f4e6f7420656e6f75676820656e6572677920617661696c61626c6520696e207460008201527f6865206f66666572000000000000000000000000000000000000000000000000602082015250565b60006138956028836135e6565b91506138a082613839565b604082019050919050565b600060208201905081810360008301526138c481613888565b9050919050565b60006020820190506138e060008301846134bb565b92915050565b6000815190506138f581612fc9565b92915050565b60006020828403121561391157613910612fba565b5b600061391f848285016138e6565b91505092915050565b7f496e73756666696369656e742045544b2062616c616e63650000000000000000600082015250565b600061395e6018836135e6565b915061396982613928565b602082019050919050565b6000602082019050818103600083015261398d81613951565b9050919050565b60006040820190506139a960008301856134bb565b6139b660208301846134bb565b9392505050565b7f417070726f7665204d61726b6574706c61636520746f207370656e6420796f7560008201527f722045544b206669727374000000000000000000000000000000000000000000602082015250565b6000613a19602b836135e6565b9150613a24826139bd565b604082019050919050565b60006020820190508181036000830152613a4881613a0c565b9050919050565b6000606082019050613a6460008301866134bb565b613a7160208301856134bb565b613a7e6040830184613035565b949350505050565b613a8f81613409565b8114613a9a57600080fd5b50565b600081519050613aac81613a86565b92915050565b600060208284031215613ac857613ac7612fba565b5b6000613ad684828501613a9d565b91505092915050565b7f5472616e73666572206661696c65640000000000000000000000000000000000600082015250565b6000613b15600f836135e6565b9150613b2082613adf565b602082019050919050565b60006020820190508181036000830152613b4481613b08565b9050919050565b7f4e487b7100000000000000000000000000000000000000000000000000000000600052601160045260246000fd5b6000613b8582612fbf565b9150613b9083612fbf565b9250828203905081811115613ba857613ba7613b4b565b5b92915050565b6000613bb982612fbf565b9150613bc483612fbf565b9250828201905080821115613bdc57613bdb613b4b565b5b92915050565b6000604082019050613bf76000830185613035565b613c046020830184613035565b9392505050565b6000613c1682612fbf565b915060008203613c2957613c28613b4b565b5b600182039050919050565b6000602082019050613c4960008301846134ca565b92915050565b7f456e6572677920616d6f756e74206d757374206265206772656174657220746860008201527f616e203000000000000000000000000000000000000000000000000000000000602082015250565b6000613cab6024836135e6565b9150613cb682613c4f565b604082019050919050565b60006020820190508181036000830152613cda81613c9e565b9050919050565b7f50726963652070657220756e6974206d7573742062652067726561746572207460008201527f68616e2030000000000000000000000000000000000000000000000000000000602082015250565b6000613d3d6025836135e6565b9150613d4882613ce1565b604082019050919050565b60006020820190508181036000830152613d6c81613d30565b9050919050565b600081519050613d8281613091565b92915050565b600060208284031215613d9e57613d9d612fba565b5b6000613dac84828501613d73565b91505092915050565b7f4e6f7420746865206f776e6572206f662074686973206d6963726f6772696400600082015250565b6000613deb601f836135e6565b9150613df682613db5565b602082019050919050565b60006020820190508181036000830152613e1a81613dde565b9050919050565b7f4d6963726f67726964206973206e6f7420616374697665000000000000000000600082015250565b6000613e576017836135e6565b9150613e6282613e21565b602082019050919050565b60006020820190508181036000830152613e8681613e4a565b9050919050565b7f4e6f7420656e6f75676820617661696c61626c6520656e6572677920696e207460008201527f6865206d6963726f677269640000000000000000000000000000000000000000602082015250565b6000613ee9602c836135e6565b9150613ef482613e8d565b604082019050919050565b60006020820190508181036000830152613f1881613edc565b9050919050565b6000613f2a82612fbf565b91507fffffffffffffffffffffffffffffffffffffffffffffffffffffffffffffffff8203613f5c57613f5b613b4b565b5b600182019050919050565b600080600080600060a08688031215613f8357613f82612fba565b5b6000613f91888289016138e6565b9550506020613fa2888289016138e6565b9450506040613fb3888289016138e6565b9350506060613fc4888289016138e6565b9250506080613fd5888289016138e6565b9150509295509295909350565b6000613fed82612fbf565b9150613ff883612fbf565b925082820261400681612fbf565b9150828204841483151761401d5761401c613b4b565b5b5092915050565b7f4e487b7100000000000000000000000000000000000000000000000000000000600052601260045260246000fd5b600061405e82612fbf565b915061406983612fbf565b92508261407957614078614024565b5b828204905092915050565b7f5072696365206973206f7574206f66206d61726b65742072616e676500000000600082015250565b60006140ba601c836135e6565b91506140c582614084565b602082019050919050565b600060208201905081810360008301526140e9816140ad565b9050919050565b60006060820190506141056000830186613035565b6141126020830185613035565b61411f6040830184613035565b949350505050565b7f4e6f74207468652073656c6c6572206f662074686973206f6666657200000000600082015250565b600061415d601c836135e6565b915061416882614127565b602082019050919050565b6000602082019050818103600083015261418c81614150565b9050919050565b7f4f6666657220686173206e6f7420657870697265642079657400000000000000600082015250565b60006141c96019836135e6565b91506141d482614193565b602082019050919050565b600060208201905081810360008301526141f8816141bc565b9050919050565b7f4f6666657220616c726561647920636c6f736564000000000000000000000000600082015250565b60006142356014836135e6565b9150614240826141ff565b602082019050919050565b6000602082019050818103600083015261426481614228565b9050919050565b6000819050919050565b60006142808261426b565b915061428b8361426b565b92508282039050818112600084121682821360008512151617156142b2576142b1613b4b565b5b92915050565b60006142c38261426b565b91506142ce8361426b565b92508282026142dc8161426b565b91507f8000000000000000000000000000000000000000000000000000000000000000841460008412161561431457614313613b4b565b5b828205841483151761432957614328613b4b565b5b5092915050565b600061433b8261426b565b91506143468361426b565b92508261435657614355614024565b5b600160000383147f80000000000000000000000000000000000000000000000000000000000000008314161561438f5761438e613b4b565b5b82820590509291505056fea26469706673582212203eba514dd73739a3e185800a6d7f36ea3ffd1614851b52e1f0e902e571726fd264736f6c634300081c0033",
  "linkReferences": {},
  "deployedLinkReferences": {}
}