{
  "_format": "hh-sol-artifact-1",
  "contractName": "MicrogridRegistry",
  "sourceName": "contracts/MicrogridRegistry.sol",
  "abi": [
    {
      "inputs": [
        {
          "internalType": "address",
          "name": "_owner",
          "type": "address"
        }
      ],
      "stateMutability": "nonpayable",
      "type": "constructor"
    },
    {
      "inputs": [
        {
          "internalType": "address",
          "name": "owner",
          "type": "address"
        }
      ],
      "name": "OwnableInvalidOwner",
      "type": "error"
    },
    {
      "inputs": [
        {
          "internalType": "address",
          "name": "account",
          "type": "address"
        }
      ],
      "name": "OwnableUnauthorizedAccount",
      "type": "error"
    },
    {
      "anonymous": false,
      "inputs": [
        {
          "indexed": true,
          "internalType": "uint256",
          "name": "id",
          "type": "uint256"
        },
        {
          "indexed": true,
          "internalType": "address",
          "name": "owner",
          "type": "address"
        },
        {
          "indexed": false,
          "internalType": "string",
          "name": "name",
          "type": "string"
        },
        {
          "indexed": false,
          "internalType": "uint256",
          "name": "latitude",
          "type": "uint256"
        },
        {
          "indexed": false,
          "internalType": "uint256",
          "name": "longitude",
          "type": "uint256"
        }
      ],
      "name": "MicrogridRegistered",
      "type": "event"
    },
    {
      "anonymous": false,
      "inputs": [
        {
          "indexed": true,
          "internalType": "address",
          "name": "previousOwner",
          "type": "address"
        },
        {
          "indexed": true,
          "internalType": "address",
          "name": "newOwner",
          "type": "address"
        }
      ],
      "name": "OwnershipTransferred",
      "type": "event"
    },
    {
      "anonymous": false,
      "inputs": [
        {
          "indexed": true,
          "internalType": "uint256",
          "name": "id",
          "type": "uint256"
        },
        {
          "indexed": false,
          "internalType": "uint256",
          "name": "reservedEnergy",
          "type": "uint256"
        }
      ],
      "name": "ReservedEnergyUpdated",
      "type": "event"
    },
    {
      "anonymous": false,
      "inputs": [
        {
          "indexed": true,
          "internalType": "uint256",
          "name": "id",
          "type": "uint256"
        },
        {
          "indexed": false,
          "internalType": "uint256",
          "name": "energyGenerated",
          "type": "uint256"
        },
        {
          "indexed": false,
          "internalType": "uint256",
          "name": "energyDemand",
          "type": "uint256"
        },
        {
          "indexed": false,
          "internalType": "uint256",
          "name": "batteryLevel",
          "type": "uint256"
        },
        {
          "indexed": false,
          "internalType": "uint256",
          "name": "lastUpdated",
          "type": "uint256"
        }
      ],
      "name": "StatusUpdated",
      "type": "event"
    },
    {
      "inputs": [
        {
          "internalType": "uint256",
          "name": "_id",
          "type": "uint256"
        },
        {
          "internalType": "uint256",
          "name": "_amount",
          "type": "uint256"
        }
      ],
      "name": "decreaseReservedEnergy",
      "outputs": [],
      "stateMutability": "nonpayable",
      "type": "function"
    },
    {
      "inputs": [
        {
          "internalType": "uint256",
          "name": "_id",
          "type": "uint256"
        }
      ],
      "name": "getAvailableEnergy",
      "outputs": [
        {
          "internalType": "uint256",
          "name": "",
          "type": "uint256"
        }
      ],
      "stateMutability": "view",
      "type": "function"
    },
    {
      "inputs": [
        {
          "internalType": "uint256",
          "name": "_id",
          "type": "uint256"
        }
      ],
      "name": "getMicrogrid",
      "outputs": [
        {
          "components": [
            {
              "internalType": "uint256",
              "name": "id",
              "type": "uint256"
            },
            {
              "internalType": "string",
              "name": "name",
              "type": "string"
            },
            {
              "internalType": "address",
              "name": "owner",
              "type": "address"
            },
            {
              "internalType": "uint256",
              "name": "latitude",
              "type": "uint256"
            },
            {
              "internalType": "uint256",
              "name": "longitude",
              "type": "uint256"
            },
            {
              "internalType": "uint256",
              "name": "energyGenerated",
              "type": "uint256"
            },
            {
              "internalType": "uint256",
              "name": "energyDemand",
              "type": "uint256"
            },
            {
              "internalType": "uint256",
              "name": "batteryLevel",
              "type": "uint256"
            },
            {
              "internalType": "uint256",
              "name": "maxCapacity",
              "type": "uint256"
            },
            {
              "internalType": "uint256",
              "name": "reservedEnergy",
              "type": "uint256"
            },
            {
              "internalType": "bool",
              "name": "isActive",
              "type": "bool"
            },
            {
              "internalType": "uint256",
              "name": "lastUpdated",
              "type": "uint256"
            }
          ],
          "internalType": "struct MicrogridRegistry.Microgrid",
          "name": "",
          "type": "tuple"
        }
      ],
      "stateMutability": "view",
      "type": "function"
    },
    {
      "inputs": [],
      "name": "getMyMicrogrid",
      "outputs": [
        {
          "components": [
            {
              "internalType": "uint256",
              "name": "id",
              "type": "uint256"
            },
            {
              "internalType": "string",
              "name": "name",
              "type": "string"
            },
            {
              "internalType": "address",
              "name": "owner",
              "type": "address"
            },
            {
              "internalType": "uint256",
              "name": "latitude",
              "type": "uint256"
            },
            {
              "internalType": "uint256",
              "name": "longitude",
              "type": "uint256"
            },
            {
              "internalType": "uint256",
              "name": "energyGenerated",
              "type": "uint256"
            },
            {
              "internalType": "uint256",
              "name": "energyDemand",
              "type": "uint256"
            },
            {
              "internalType": "uint256",
              "name": "batteryLevel",
              "type": "uint256"
            },
            {
              "internalType": "uint256",
              "name": "maxCapacity",
              "type": "uint256"
            },
            {
              "internalType": "uint256",
              "name": "reservedEnergy",
              "type": "uint256"
            },
            {
              "internalType": "bool",
              "name": "isActive",
              "type": "bool"
            },
            {
              "internalType": "uint256",
              "name": "lastUpdated",
              "type": "uint256"
            }
          ],
          "internalType": "struct MicrogridRegistry.Microgrid",
          "name": "",
          "type": "tuple"
        }
      ],
      "stateMutability": "view",
      "type": "function"
    },
    {
      "inputs": [
        {
          "internalType": "uint256",
          "name": "_id",
          "type": "uint256"
        }
      ],
      "name": "getOwner",
      "outputs": [
        {
          "internalType": "address",
          "name": "",
          "type": "address"
        }
      ],
      "stateMutability": "view",
      "type": "function"
    },
    {
      "inputs": [
        {
          "internalType": "uint256",
          "name": "_id",
          "type": "uint256"
        }
      ],
      "name": "getPricingData",
      "outputs": [
        {
          "internalType": "uint256",
          "name": "generation",
          "type": "uint256"
        },
        {
          "internalType": "uint256",
          "name": "demand",
          "type": "uint256"
        },
        {
          "internalType": "uint256",
          "name": "batteryLevel",
          "type": "uint256"
        },
        {
          "internalType": "uint256",
          "name": "maxCapacity",
          "type": "uint256"
        },
        {
          "internalType": "uint256",
          "name": "reservedEnergy",
          "type": "uint256"
        }
      ],
      "stateMutability": "view",
      "type": "function"
    },
    {
      "inputs": [
        {
          "internalType": "uint256",
          "name": "_id",
          "type": "uint256"
        }
      ],
      "name": "getSurplus",
      "outputs": [
        {
          "internalType": "int256",
          "name": "",
          "type": "int256"
        }
      ],
      "stateMutability": "view",
      "type": "function"
    },
    {
      "inputs": [
        {
          "internalType": "uint256",
          "name": "_id",
          "type": "uint256"
        },
        {
          "internalType": "uint256",
          "name": "_amount",
          "type": "uint256"
        }
      ],
      "name": "increaseReservedEnergy",
      "outputs": [],
      "stateMutability": "nonpayable",
      "type": "function"
    },
    {
      "inputs": [
        {
          "internalType": "uint256",
          "name": "_id",
          "type": "uint256"
        }
      ],
      "name": "isMicrogridActive",
      "outputs": [
        {
          "internalType": "bool",
          "name": "",
          "type": "bool"
        }
      ],
      "stateMutability": "view",
      "type": "function"
    },
    {
      "inputs": [
        {
          "internalType": "address",
          "name": "",
          "type": "address"
        }
      ],
      "name": "isRegistered",
      "outputs": [
        {
          "internalType": "bool",
          "name": "",
          "type": "bool"
        }
      ],
      "stateMutability": "view",
      "type": "function"
    },
    {
      "inputs": [],
      "name": "marketplaceAddress",
      "outputs": [
        {
          "internalType": "address",
          "name": "",
          "type": "address"
        }
      ],
      "stateMutability": "view",
      "type": "function"
    },
    {
      "inputs": [
        {
          "internalType": "uint256",
          "name": "",
          "type": "uint256"
        }
      ],
      "name": "microgrids",
      "outputs": [
        {
          "internalType": "uint256",
          "name": "id",
          "type": "uint256"
        },
        {
          "internalType": "string",
          "name": "name",
          "type": "string"
        },
        {
          "internalType": "address",
          "name": "owner",
          "type": "address"
        },
        {
          "internalType": "uint256",
          "name": "latitude",
          "type": "uint256"
        },
        {
          "internalType": "uint256",
          "name": "longitude",
          "type": "uint256"
        },
        {
          "internalType": "uint256",
          "name": "energyGenerated",
          "type": "uint256"
        },
        {
          "internalType": "uint256",
          "name": "energyDemand",
          "type": "uint256"
        },
        {
          "internalType": "uint256",
          "name": "batteryLevel",
          "type": "uint256"
        },
        {
          "internalType": "uint256",
          "name": "maxCapacity",
          "type": "uint256"
        },
        {
          "internalType": "uint256",
          "name": "reservedEnergy",
          "type": "uint256"
        },
        {
          "internalType": "bool",
          "name": "isActive",
          "type": "bool"
        },
        {
          "internalType": "uint256",
          "name": "lastUpdated",
          "type": "uint256"
        }
      ],
      "stateMutability": "view",
      "type": "function"
    },
    {
      "inputs": [],
      "name": "nextId",
      "outputs": [
        {
          "internalType": "uint256",
          "name": "",
          "type": "uint256"
        }
      ],
      "stateMutability": "view",
      "type": "function"
    },
    {
      "inputs": [],
      "name": "owner",
      "outputs": [
        {
          "internalType": "address",
          "name": "",
          "type": "address"
        }
      ],
      "stateMutability": "view",
      "type": "function"
    },
    {
      "inputs": [
        {
          "internalType": "address",
          "name": "",
          "type": "address"
        }
      ],
      "name": "ownerToMicrogridId",
      "outputs": [
        {
          "internalType": "uint256",
          "name": "",
          "type": "uint256"
        }
      ],
      "stateMutability": "view",
      "type": "function"
    },
    {
      "inputs": [
        {
          "internalType": "string",
          "name": "_name",
          "type": "string"
        },
        {
          "internalType": "uint256",
          "name": "_latitude",
          "type": "uint256"
        },
        {
          "internalType": "uint256",
          "name": "_longitude",
          "type": "uint256"
        },
        {
          "internalType": "uint256",
          "name": "_maxCapacity",
          "type": "uint256"
        }
      ],
      "name": "registerMicrogrid",
      "outputs": [],
      "stateMutability": "nonpayable",
      "type": "function"
    },
    {
      "inputs": [],
      "name": "renounceOwnership",
      "outputs": [],
      "stateMutability": "nonpayable",
      "type": "function"
    },
    {
      "inputs": [
        {
          "internalType": "address",
          "name": "_marketplaceAddress",
          "type": "address"
        }
      ],
      "name": "setMarketplaceAddress",
      "outputs": [],
      "stateMutability": "nonpayable",
      "type": "function"
    },
    {
      "inputs": [
        {
          "internalType": "bool",
          "name": "_status",
          "type": "bool"
        }
      ],
      "name": "setMicrogridStatus",
      "outputs": [],
      "stateMutability": "nonpayable",
      "type": "function"
    },
    {
      "inputs": [
        {
          "internalType": "address",
          "name": "newOwner",
          "type": "address"
        }
      ],
      "name": "transferOwnership",
      "outputs": [],
      "stateMutability": "nonpayable",
      "type": "function"
    },
    {
      "inputs": [
        {
          "internalType": "uint256",
          "name": "_energyGenerated",
          "type": "uint256"
        },
        {
          "internalType": "uint256",
          "name": "_energyDemand",
          "type": "uint256"
        },
        {
          "internalType": "uint256",
          "name": "_batteryLevel",
          "type": "uint256"
        }
      ],
      "name": "updateStatus",
      "outputs": [],
      "stateMutability": "nonpayable",
      "type": "function"
    }
  ],
  "bytecode": "0x608060405234801561001057600080fd5b50604051613d2d380380613d2d833981810160405281019061003291906101ff565b80600073ffffffffffffffffffffffffffffffffffffffff168173ffffffffffffffffffffffffffffffffffffffff16036100a55760006040517f1e4fbdf700000000000000000000000000000000000000000000000000000000815260040161009c919061023b565b60405180910390fd5b6100b4816100d560201b60201c565b506100cf67c38f7e517cb4098860c01b61019960201b60201c565b50610256565b60008060009054906101000a900473ffffffffffffffffffffffffffffffffffffffff169050816000806101000a81548173ffffffffffffffffffffffffffffffffffffffff021916908373ffffffffffffffffffffffffffffffffffffffff1602179055508173ffffffffffffffffffffffffffffffffffffffff168173ffffffffffffffffffffffffffffffffffffffff167f8be0079c531659141344cd1fd0a4f28419497f9722a3daafe3b4186f6b6457e060405160405180910390a35050565b50565b600080fd5b600073ffffffffffffffffffffffffffffffffffffffff82169050919050565b60006101cc826101a1565b9050919050565b6101dc816101c1565b81146101e757600080fd5b50565b6000815190506101f9816101d3565b92915050565b6000602082840312156102155761021461019c565b5b6000610223848285016101ea565b91505092915050565b610235816101c1565b82525050565b6000602082019050610250600083018461022c565b92915050565b613ac8806102656000396000f3fe608060405234801561001057600080fd5b50600436106101375760003560e01c8063955464ef116100b8578063c41a360a1161007c578063c41a360a1461036f578063d05318971461039f578063d3e0bada146103cf578063daa17f49146103eb578063f2fde38b14610409578063fae0c6f61461042557610137565b8063955464ef146102bb578063aa392765146102d7578063ad26a07c14610307578063b47cc55614610323578063c3c5a5471461033f57610137565b806361f2d09f116100ff57806361f2d09f1461021e578063715018a61461023a5780637c198ac1146102445780638da5cb5b1461026257806393e64b481461028057610137565b80631c334a7e1461013c5780634504b83a1461016c57806347846fd91461019c5780634fa4c02d146101cc57806361b8ce8c14610200575b600080fd5b610156600480360381019061015191906128c0565b610441565b6040516101639190612908565b60405180910390f35b610186600480360381019061018191906128c0565b61053e565b6040516101939190612b16565b60405180910390f35b6101b660048036038101906101b191906128c0565b610799565b6040516101c39190612b47565b60405180910390f35b6101e660048036038101906101e191906128c0565b6109f3565b6040516101f7959493929190612b62565b60405180910390f35b610208610b37565b6040516102159190612b47565b60405180910390f35b61023860048036038101906102339190612bb5565b610b3d565b005b610242610e79565b005b61024c610e8d565b6040516102599190612b16565b60405180910390f35b61026a61119b565b6040516102779190612c04565b60405180910390f35b61029a600480360381019061029591906128c0565b6111c4565b6040516102b29c9b9a99989796959493929190612c69565b60405180910390f35b6102d560048036038101906102d09190612e5f565b6112d9565b005b6102f160048036038101906102ec9190612f0e565b61175a565b6040516102fe9190612b47565b60405180910390f35b610321600480360381019061031c9190612f3b565b611772565b005b61033d60048036038101906103389190612f0e565b611d23565b005b61035960048036038101906103549190612f0e565b611ea0565b6040516103669190612908565b60405180910390f35b610389600480360381019061038491906128c0565b611ec0565b6040516103969190612c04565b60405180910390f35b6103b960048036038101906103b491906128c0565b611fd0565b6040516103c69190612fa7565b60405180910390f35b6103e960048036038101906103e49190612bb5565b6121b4565b005b6103f3612447565b6040516104009190612c04565b60405180910390f35b610423600480360381019061041e9190612f0e565b61246d565b005b61043f600480360381019061043a9190612fee565b6124f3565b005b60006104576717bd4a9b088876e160c01b612695565b61046b67d642e18a857a8ef260c01b612695565b61047f6786c22fa2488e768460c01b612695565b610493670269a2df1273f38b60c01b612695565b60015482106104d7576040517f08c379a00000000000000000000000000000000000000000000000000000000081526004016104ce90613067565b60405180910390fd5b6104eb67b690236b58e6000560c01b612695565b6104ff67ce0bbcd4b8aa03a960c01b612695565b6105136756b573d7891c888e60c01b612695565b60026000838152602001908152602001600020600a0160009054906101000a900460ff169050919050565b6105466127fd565b61055a67295343197ebf6e0460c01b612695565b61056e671324422a7873a3da60c01b612695565b6105826715560b90cd50b01e60c01b612695565b610596670305cd9cd539ac6e60c01b612695565b60015482106105da576040517f08c379a00000000000000000000000000000000000000000000000000000000081526004016105d190613067565b60405180910390fd5b6105ee677f0568aaeb0c33d460c01b612695565b61060267d6d4090f871de3f260c01b612695565b61061667652b47b1aec8166860c01b612695565b60026000838152602001908152602001600020604051806101800160405290816000820154815260200160018201805461064f906130b6565b80601f016020809104026020016040519081016040528092919081815260200182805461067b906130b6565b80156106c85780601f1061069d576101008083540402835291602001916106c8565b820191906000526020600020905b8154815290600101906020018083116106ab57829003601f168201915b505050505081526020016002820160009054906101000a900473ffffffffffffffffffffffffffffffffffffffff1673ffffffffffffffffffffffffffffffffffffffff1673ffffffffffffffffffffffffffffffffffffffff16815260200160038201548152602001600482015481526020016005820154815260200160068201548152602001600782015481526020016008820154815260200160098201548152602001600a820160009054906101000a900460ff16151515158152602001600b820154815250509050919050565b60006107af67e390373532fa951e60c01b612695565b6107c3679cd94390c7b0b3f760c01b612695565b6107d7679f47add35597033460c01b612695565b6107eb6780ce5745264ac26a60c01b612695565b600154821061082f576040517f08c379a000000000000000000000000000000000000000000000000000000000815260040161082690613067565b60405180910390fd5b61084367f0a14cb56e33a28260c01b612695565b61085767b4dc3df9f2666ee260c01b612695565b61086b67531ef668318c0faf60c01b612695565b61087f672ca6757977889e6060c01b612695565b60026000838152602001908152602001600020600a0160009054906101000a900460ff166108e2576040517f08c379a00000000000000000000000000000000000000000000000000000000081526004016108d990613133565b60405180910390fd5b6108f6677e58e82d96d2bb9b60c01b612695565b61090a67b6f5d2a5a44e05da60c01b612695565b61091e67c30e41633df9431360c01b612695565b600060026000848152602001908152602001600020600901546002600085815260200190815260200160002060060154600260008681526020019081526020016000206005015461096f9190613182565b6109799190613182565b905061098f67a143898764c0abb660c01b612695565b6109a3675c5ddd629d0cef5160c01b612695565b60008113806109c257506109c16734c98df10a0332dc60c01b612698565b5b80156109de57506109dd67929245689b98c3e460c01b61269f565b5b6109e95760006109eb565b805b915050919050565b6000806000806000610a0f67e0ab9ee7266a059760c01b612695565b610a2367ae90b112036f44c960c01b612695565b610a3767a0bb45b23268026760c01b612695565b610a4b676c480798fbfefcf960c01b612695565b6001548610610a8f576040517f08c379a0000000000000000000000000000000000000000000000000000000008152600401610a8690613211565b60405180910390fd5b610aa367ca3a66c4410e85ad60c01b612695565b610ab767ef8cfa6cf4dfe5ce60c01b612695565b610acb671a592f94464ee6b060c01b612695565b6000600260008881526020019081526020016000209050610af667245012603618026760c01b612695565b610b0a675de7c156eb33bd2960c01b612695565b80600501548160060154826007015483600801548460090154955095509550955095505091939590929450565b60015481565b610b51676c08a3fd80a4051660c01b612695565b610b65672bf429f49cf7a5cd60c01b612695565b610b7967dd5c30d94d58b8d760c01b612695565b610b8d675e803ee5d4f7b26760c01b612695565b610ba16737fceeed568bd74b60c01b612695565b600560009054906101000a900473ffffffffffffffffffffffffffffffffffffffff1673ffffffffffffffffffffffffffffffffffffffff163373ffffffffffffffffffffffffffffffffffffffff1614610c31576040517f08c379a0000000000000000000000000000000000000000000000000000000008152600401610c28906132a3565b60405180910390fd5b610c4567a571fcbcf3e663c660c01b612695565b610c596740657c6eb38888d860c01b612695565b610c6d67ebe3ae1b44e34dcc60c01b612695565b610c81672b5e7cfca0079fdc60c01b612695565b610c9567613569ec6cb4348460c01b612695565b610ca967e2c262ce4260545b60c01b612695565b610cbd675d67d88a123e689160c01b612695565b6001548210610d01576040517f08c379a0000000000000000000000000000000000000000000000000000000008152600401610cf890613067565b60405180910390fd5b610d1567b9925b9cd0ba3cb960c01b612695565b610d2967a0d481c6b7849b7d60c01b612695565b610d3d67959a014e8f200f4960c01b612695565b610d51674acfd88884345e6460c01b612695565b8060026000848152602001908152602001600020600901541015610daa576040517f08c379a0000000000000000000000000000000000000000000000000000000008152600401610da19061330f565b60405180910390fd5b610dbe67b6c94fdca21c5f2160c01b612695565b610dd2672a196dff200f2f2460c01b612695565b80600260008481526020019081526020016000206009016000828254610df8919061332f565b92505081905550610e136787ff27b23e47aee560c01b612695565b610e27671a3ade033fc64fa960c01b612695565b817fb289bc0a077dda72409091ecfd7217e89eec2e6c01bbb815eecf3599ccf31fcc6002600085815260200190815260200160002060090154604051610e6d9190612b47565b60405180910390a25050565b610e816126aa565b610e8b6000612731565b565b610e956127fd565b610ea9675a286fdf257760b860c01b612695565b610ebd6765e887ec27f560cd60c01b612695565b610ed1676568fbf0250a9a5760c01b612695565b610ee567996bcc77b4dd022160c01b612695565b600360003373ffffffffffffffffffffffffffffffffffffffff1673ffffffffffffffffffffffffffffffffffffffff16815260200190815260200160002060009054906101000a900460ff16610f71576040517f08c379a0000000000000000000000000000000000000000000000000000000008152600401610f68906133af565b60405180910390fd5b610f8567d361145a6ecd39e260c01b612695565b610f99679291de0b7230fe1e60c01b612695565b610fad67adf31b09c471e45060c01b612695565b6000600460003373ffffffffffffffffffffffffffffffffffffffff1673ffffffffffffffffffffffffffffffffffffffff168152602001908152602001600020549050611005675f39edb0ea14ab4460c01b612695565b6110196785961d1be68ed07160c01b612695565b600260008281526020019081526020016000206040518061018001604052908160008201548152602001600182018054611052906130b6565b80601f016020809104026020016040519081016040528092919081815260200182805461107e906130b6565b80156110cb5780601f106110a0576101008083540402835291602001916110cb565b820191906000526020600020905b8154815290600101906020018083116110ae57829003601f168201915b505050505081526020016002820160009054906101000a900473ffffffffffffffffffffffffffffffffffffffff1673ffffffffffffffffffffffffffffffffffffffff1673ffffffffffffffffffffffffffffffffffffffff16815260200160038201548152602001600482015481526020016005820154815260200160068201548152602001600782015481526020016008820154815260200160098201548152602001600a820160009054906101000a900460ff16151515158152602001600b8201548152505091505090565b60008060009054906101000a900473ffffffffffffffffffffffffffffffffffffffff16905090565b60026020528060005260406000206000915090508060000154908060010180546111ed906130b6565b80601f0160208091040260200160405190810160405280929190818152602001828054611219906130b6565b80156112665780601f1061123b57610100808354040283529160200191611266565b820191906000526020600020905b81548152906001019060200180831161124957829003601f168201915b5050505050908060020160009054906101000a900473ffffffffffffffffffffffffffffffffffffffff169080600301549080600401549080600501549080600601549080600701549080600801549080600901549080600a0160009054906101000a900460ff169080600b015490508c565b6112ed67b49686be80667d3360c01b612695565b6113016752b3c6e66d76e7d660c01b612695565b61131567bc8323eaea9afcb460c01b612695565b611329672a599fec7ed0750360c01b612695565b6000811161136c576040517f08c379a000000000000000000000000000000000000000000000000000000000815260040161136390613441565b60405180910390fd5b61138067f74fbf3aead8a23f60c01b612695565b61139467ca4bb878fb4ec9b860c01b612695565b6113a867e12cb3328be2465d60c01b612695565b6113bc675c34391cd8a117ee60c01b612695565b600360003373ffffffffffffffffffffffffffffffffffffffff1673ffffffffffffffffffffffffffffffffffffffff16815260200190815260200160002060009054906101000a900460ff1615611449576040517f08c379a0000000000000000000000000000000000000000000000000000000008152600401611440906134d3565b60405180910390fd5b61145d67f95f8bbb565b53b560c01b612695565b61147167210f72b6dc17970260c01b612695565b61148567d55c83df174856b960c01b612695565b60006001600081548092919061149a906134f3565b9190505590506114b46744d688c12effcb3260c01b612695565b6040518061018001604052808281526020018681526020013373ffffffffffffffffffffffffffffffffffffffff16815260200185815260200184815260200160008152602001600081526020016064815260200183815260200160008152602001600115158152602001428152506002600083815260200190815260200160002060008201518160000155602082015181600101908161155591906136e7565b5060408201518160020160006101000a81548173ffffffffffffffffffffffffffffffffffffffff021916908373ffffffffffffffffffffffffffffffffffffffff160217905550606082015181600301556080820151816004015560a0820151816005015560c0820151816006015560e082015181600701556101008201518160080155610120820151816009015561014082015181600a0160006101000a81548160ff02191690831515021790555061016082015181600b015590505061162867d762fa7c6c37d50660c01b612695565b80600460003373ffffffffffffffffffffffffffffffffffffffff1673ffffffffffffffffffffffffffffffffffffffff16815260200190815260200160002081905550611680671ea261b3736522d460c01b612695565b6001600360003373ffffffffffffffffffffffffffffffffffffffff1673ffffffffffffffffffffffffffffffffffffffff16815260200190815260200160002060006101000a81548160ff0219169083151502179055506116ec67459868f4d929983660c01b612695565b61170067f8ce72b5d3536b9a60c01b612695565b3373ffffffffffffffffffffffffffffffffffffffff16817f7b2068605e8ed71972e65749aa4b5d44adfa00427b5bde64876aeba6a4411a8687878760405161174b939291906137b9565b60405180910390a35050505050565b60046020528060005260406000206000915090505481565b6117866727e72d98da31b7df60c01b612695565b61179a672e86007e8cce32b860c01b612695565b6117ae6701819a4401d310b160c01b612695565b6000600460003373ffffffffffffffffffffffffffffffffffffffff1673ffffffffffffffffffffffffffffffffffffffff1681526020019081526020016000205490506118066713a957b9f7ec1dc360c01b612695565b61181a67891d80d03ac6a17f60c01b612695565b61182e67ccd2107b25c4bd7c60c01b612695565b600360003373ffffffffffffffffffffffffffffffffffffffff1673ffffffffffffffffffffffffffffffffffffffff16815260200190815260200160002060009054906101000a900460ff166118ba576040517f08c379a00000000000000000000000000000000000000000000000000000000081526004016118b1906133af565b60405180910390fd5b6118ce67799a67e54c3f41b760c01b612695565b6118e267269be0f902554f2560c01b612695565b6118f667d5d45cc58e54426b60c01b612695565b61190a676cdbd2407e27f8df60c01b612695565b600154811061194e576040517f08c379a000000000000000000000000000000000000000000000000000000000815260040161194590613067565b60405180910390fd5b61196267b1f186cca0fb6b3260c01b612695565b61197667ac6288d1048056d360c01b612695565b61198a67b967d2aaf4825e6160c01b612695565b61199e67f5f214a9c628bad260c01b612695565b60026000828152602001908152602001600020600a0160009054906101000a900460ff16611a01576040517f08c379a00000000000000000000000000000000000000000000000000000000081526004016119f890613133565b60405180910390fd5b611a15674cadd743f374d2ab60c01b612695565b611a29676788ec642f957ae760c01b612695565b611a3d67fa7b1fb2d7ff470660c01b612695565b611a516782d24609dd94249d60c01b612695565b6064821115611a95576040517f08c379a0000000000000000000000000000000000000000000000000000000008152600401611a8c90613869565b60405180910390fd5b611aa9672b9089367569a33660c01b612695565b611abd6739c283729373565060c01b612695565b611ad167fe47287d8ecdc20f60c01b612695565b611ae5670b624af8296d7b2760c01b612695565b6002600082815260200190815260200160002060080154841115611b3e576040517f08c379a0000000000000000000000000000000000000000000000000000000008152600401611b35906138fb565b60405180910390fd5b611b52676283f85f9c192eab60c01b612695565b611b6667a41bba8c4159305160c01b612695565b611b7a67ea464fd45ed8930e60c01b612695565b611b8e670f5e7e21303552ba60c01b612695565b6002600082815260200190815260200160002060080154831115611be7576040517f08c379a0000000000000000000000000000000000000000000000000000000008152600401611bde9061398d565b60405180910390fd5b611bfb67b7be9008bfd83c9b60c01b612695565b611c0f67d6daf06b072eaec460c01b612695565b836002600083815260200190815260200160002060050181905550611c3e6701d55785fc782d1960c01b612695565b826002600083815260200190815260200160002060060181905550611c6d670b9707ab0f3ee56760c01b612695565b816002600083815260200190815260200160002060070181905550611c9c675fffe45604df573360c01b612695565b4260026000838152602001908152602001600020600b0181905550611ccb67df19ec54a283de1060c01b612695565b611cdf67d3a9bf9fe28169e760c01b612695565b807f51dffc56f3ebef9bab005c12273259d1c794ecdac4bdb23f96c2d9553ab9410185858542604051611d1594939291906139ad565b60405180910390a250505050565b611d376762db3446c5395c4860c01b612695565b611d3f6126aa565b611d53679b6fa0bdc621f76660c01b612695565b611d6767fbb4472bbca6836360c01b612695565b611d7b67b243c7b2aaf9167860c01b612695565b611d8f67ea85e9279d26dab060c01b612695565b611da367ca8852bd09db22e260c01b612695565b600073ffffffffffffffffffffffffffffffffffffffff16600560009054906101000a900473ffffffffffffffffffffffffffffffffffffffff1673ffffffffffffffffffffffffffffffffffffffff1614611e34576040517f08c379a0000000000000000000000000000000000000000000000000000000008152600401611e2b90613a3e565b60405180910390fd5b611e48677498f59fdf49492360c01b612695565b611e5c67fa4f067ae74eab6560c01b612695565b80600560006101000a81548173ffffffffffffffffffffffffffffffffffffffff021916908373ffffffffffffffffffffffffffffffffffffffff16021790555050565b60036020528060005260406000206000915054906101000a900460ff1681565b6000611ed667afdec20e1d74114c60c01b612695565b611eea67a4ace05e2d1d45cd60c01b612695565b611efe671ac14c798361e87c60c01b612695565b611f126739813d068070cd7a60c01b612695565b6001548210611f56576040517f08c379a0000000000000000000000000000000000000000000000000000000008152600401611f4d90613067565b60405180910390fd5b611f6a67449830fb7314c1ea60c01b612695565b611f7e676a5ad04aae31d1b660c01b612695565b611f9267d502a5ef9f2dfa4f60c01b612695565b6002600083815260200190815260200160002060020160009054906101000a900473ffffffffffffffffffffffffffffffffffffffff169050919050565b6000611fe6673b95be0ba4c515c160c01b612695565b611ffa6708d3e7b160c570aa60c01b612695565b61200e6721f60e690a46da7b60c01b612695565b6120226747daee6437abbdf260c01b612695565b6001548210612066576040517f08c379a000000000000000000000000000000000000000000000000000000000815260040161205d90613067565b60405180910390fd5b61207a67c065a7f1fd7bc0ec60c01b612695565b61208e674c19e989d821af5860c01b612695565b6120a2671cdcb680dd5ee62460c01b612695565b6120b6670e9da262b5b2c54660c01b612695565b60026000838152602001908152602001600020600a0160009054906101000a900460ff16612119576040517f08c379a000000000000000000000000000000000000000000000000000000000815260040161211090613133565b60405180910390fd5b61212d6724e650501ca9cb1560c01b612695565b612140666313cff83a1d7160c01b612695565b61215467fc36b5df670d4aef60c01b612695565b6002600083815260200190815260200160002060090154600260008481526020019081526020016000206006015460026000858152602001908152602001600020600501546121a39190613182565b6121ad9190613182565b9050919050565b6121c867fe606d87b648803560c01b612695565b6121dc672bf429f49cf7a5cd60c01b612695565b6121f067dd5c30d94d58b8d760c01b612695565b612204675e803ee5d4f7b26760c01b612695565b6122186737fceeed568bd74b60c01b612695565b600560009054906101000a900473ffffffffffffffffffffffffffffffffffffffff1673ffffffffffffffffffffffffffffffffffffffff163373ffffffffffffffffffffffffffffffffffffffff16146122a8576040517f08c379a000000000000000000000000000000000000000000000000000000000815260040161229f906132a3565b60405180910390fd5b6122bc67a571fcbcf3e663c660c01b612695565b6122d06740657c6eb38888d860c01b612695565b6122e467a2865472ac5a80ae60c01b612695565b6122f86761ce6221a32f695560c01b612695565b61230c67f6565571302ac30e60c01b612695565b612320672c20243c0f0e0a4f60c01b612695565b6123346759ede53b87dfa0ca60c01b612695565b6001548210612378576040517f08c379a000000000000000000000000000000000000000000000000000000000815260040161236f90613067565b60405180910390fd5b61238c67683101ddc02dc9e860c01b612695565b6123a0678b878fc8e5e6fb2c60c01b612695565b806002600084815260200190815260200160002060090160008282546123c69190613a5e565b925050819055506123e167036e30b431e2b40860c01b612695565b6123f567d665b9b0535dfbfc60c01b612695565b817fb289bc0a077dda72409091ecfd7217e89eec2e6c01bbb815eecf3599ccf31fcc600260008581526020019081526020016000206009015460405161243b9190612b47565b60405180910390a25050565b600560009054906101000a900473ffffffffffffffffffffffffffffffffffffffff1681565b6124756126aa565b600073ffffffffffffffffffffffffffffffffffffffff168173ffffffffffffffffffffffffffffffffffffffff16036124e75760006040517f1e4fbdf70000000000000000000000000000000000000000000000000000000081526004016124de9190612c04565b60405180910390fd5b6124f081612731565b50565b6125076743f8b25febfc9b8260c01b612695565b61251b679d83790bb39c9c7760c01b612695565b61252f670fc64cf6ca78858960c01b612695565b6125436748d9f12032d200e460c01b612695565b600360003373ffffffffffffffffffffffffffffffffffffffff1673ffffffffffffffffffffffffffffffffffffffff16815260200190815260200160002060009054906101000a900460ff166125cf576040517f08c379a00000000000000000000000000000000000000000000000000000000081526004016125c6906133af565b60405180910390fd5b6125e3671702f42fe677d51760c01b612695565b6125f767171ccfe02a3cf0bd60c01b612695565b61260b677deb97982d0696d160c01b612695565b6000600460003373ffffffffffffffffffffffffffffffffffffffff1673ffffffffffffffffffffffffffffffffffffffff16815260200190815260200160002054905061266367defae39df701114360c01b612695565b8160026000838152602001908152602001600020600a0160006101000a81548160ff0219169083151502179055505050565b50565b6000919050565b600060019050919050565b6126b26127f5565b73ffffffffffffffffffffffffffffffffffffffff166126d061119b565b73ffffffffffffffffffffffffffffffffffffffff161461272f576126f36127f5565b6040517f118cdaa70000000000000000000000000000000000000000000000000000000081526004016127269190612c04565b60405180910390fd5b565b60008060009054906101000a900473ffffffffffffffffffffffffffffffffffffffff169050816000806101000a81548173ffffffffffffffffffffffffffffffffffffffff021916908373ffffffffffffffffffffffffffffffffffffffff1602179055508173ffffffffffffffffffffffffffffffffffffffff168173ffffffffffffffffffffffffffffffffffffffff167f8be0079c531659141344cd1fd0a4f28419497f9722a3daafe3b4186f6b6457e060405160405180910390a35050565b600033905090565b6040518061018001604052806000815260200160608152602001600073ffffffffffffffffffffffffffffffffffffffff16815260200160008152602001600081526020016000815260200160008152602001600081526020016000815260200160008152602001600015158152602001600081525090565b6000604051905090565b600080fd5b600080fd5b6000819050919050565b61289d8161288a565b81146128a857600080fd5b50565b6000813590506128ba81612894565b92915050565b6000602082840312156128d6576128d5612880565b5b60006128e4848285016128ab565b91505092915050565b60008115159050919050565b612902816128ed565b82525050565b600060208201905061291d60008301846128f9565b92915050565b61292c8161288a565b82525050565b600081519050919050565b600082825260208201905092915050565b60005b8381101561296c578082015181840152602081019050612951565b60008484015250505050565b6000601f19601f8301169050919050565b600061299482612932565b61299e818561293d565b93506129ae81856020860161294e565b6129b781612978565b840191505092915050565b600073ffffffffffffffffffffffffffffffffffffffff82169050919050565b60006129ed826129c2565b9050919050565b6129fd816129e2565b82525050565b612a0c816128ed565b82525050565b600061018083016000830151612a2b6000860182612923565b5060208301518482036020860152612a438282612989565b9150506040830151612a5860408601826129f4565b506060830151612a6b6060860182612923565b506080830151612a7e6080860182612923565b5060a0830151612a9160a0860182612923565b5060c0830151612aa460c0860182612923565b5060e0830151612ab760e0860182612923565b50610100830151612acc610100860182612923565b50610120830151612ae1610120860182612923565b50610140830151612af6610140860182612a03565b50610160830151612b0b610160860182612923565b508091505092915050565b60006020820190508181036000830152612b308184612a12565b905092915050565b612b418161288a565b82525050565b6000602082019050612b5c6000830184612b38565b92915050565b600060a082019050612b776000830188612b38565b612b846020830187612b38565b612b916040830186612b38565b612b9e6060830185612b38565b612bab6080830184612b38565b9695505050505050565b60008060408385031215612bcc57612bcb612880565b5b6000612bda858286016128ab565b9250506020612beb858286016128ab565b9150509250929050565b612bfe816129e2565b82525050565b6000602082019050612c196000830184612bf5565b92915050565b600082825260208201905092915050565b6000612c3b82612932565b612c458185612c1f565b9350612c5581856020860161294e565b612c5e81612978565b840191505092915050565b600061018082019050612c7f600083018f612b38565b8181036020830152612c91818e612c30565b9050612ca0604083018d612bf5565b612cad606083018c612b38565b612cba608083018b612b38565b612cc760a083018a612b38565b612cd460c0830189612b38565b612ce160e0830188612b38565b612cef610100830187612b38565b612cfd610120830186612b38565b612d0b6101408301856128f9565b612d19610160830184612b38565b9d9c50505050505050505050505050565b600080fd5b600080fd5b7f4e487b7100000000000000000000000000000000000000000000000000000000600052604160045260246000fd5b612d6c82612978565b810181811067ffffffffffffffff82111715612d8b57612d8a612d34565b5b80604052505050565b6000612d9e612876565b9050612daa8282612d63565b919050565b600067ffffffffffffffff821115612dca57612dc9612d34565b5b612dd382612978565b9050602081019050919050565b82818337600083830152505050565b6000612e02612dfd84612daf565b612d94565b905082815260208101848484011115612e1e57612e1d612d2f565b5b612e29848285612de0565b509392505050565b600082601f830112612e4657612e45612d2a565b5b8135612e56848260208601612def565b91505092915050565b60008060008060808587031215612e7957612e78612880565b5b600085013567ffffffffffffffff811115612e9757612e96612885565b5b612ea387828801612e31565b9450506020612eb4878288016128ab565b9350506040612ec5878288016128ab565b9250506060612ed6878288016128ab565b91505092959194509250565b612eeb816129e2565b8114612ef657600080fd5b50565b600081359050612f0881612ee2565b92915050565b600060208284031215612f2457612f23612880565b5b6000612f3284828501612ef9565b91505092915050565b600080600060608486031215612f5457612f53612880565b5b6000612f62868287016128ab565b9350506020612f73868287016128ab565b9250506040612f84868287016128ab565b9150509250925092565b6000819050919050565b612fa181612f8e565b82525050565b6000602082019050612fbc6000830184612f98565b92915050565b612fcb816128ed565b8114612fd657600080fd5b50565b600081359050612fe881612fc2565b92915050565b60006020828403121561300457613003612880565b5b600061301284828501612fd9565b91505092915050565b7f4d6963726f6772696420646f6573206e6f742065786973740000000000000000600082015250565b6000613051601883612c1f565b915061305c8261301b565b602082019050919050565b6000602082019050818103600083015261308081613044565b9050919050565b7f4e487b7100000000000000000000000000000000000000000000000000000000600052602260045260246000fd5b600060028204905060018216806130ce57607f821691505b6020821081036130e1576130e0613087565b5b50919050565b7f4d6963726f67726964206973206e6f7420616374697665000000000000000000600082015250565b600061311d601783612c1f565b9150613128826130e7565b602082019050919050565b6000602082019050818103600083015261314c81613110565b9050919050565b7f4e487b7100000000000000000000000000000000000000000000000000000000600052601160045260246000fd5b600061318d82612f8e565b915061319883612f8e565b92508282039050818112600084121682821360008512151617156131bf576131be613153565b5b92915050565b7f4d6963726f6772696420646f65736e2774206578697374000000000000000000600082015250565b60006131fb601783612c1f565b9150613206826131c5565b602082019050919050565b6000602082019050818103600083015261322a816131ee565b9050919050565b7f4f6e6c7920746865206d61726b6574706c6163652063616e2063616c6c20746860008201527f69732066756e6374696f6e000000000000000000000000000000000000000000602082015250565b600061328d602b83612c1f565b915061329882613231565b604082019050919050565b600060208201905081810360008301526132bc81613280565b9050919050565b7f496e73756666696369656e7420726573657276656420656e6572677900000000600082015250565b60006132f9601c83612c1f565b9150613304826132c3565b602082019050919050565b60006020820190508181036000830152613328816132ec565b9050919050565b600061333a8261288a565b91506133458361288a565b925082820390508181111561335d5761335c613153565b5b92915050565b7f4d6963726f67726964206e6f7420726567697374657265640000000000000000600082015250565b6000613399601883612c1f565b91506133a482613363565b602082019050919050565b600060208201905081810360008301526133c88161338c565b9050919050565b7f4d6178206361706163697479206d75737420626520677265617465722074686160008201527f6e207a65726f0000000000000000000000000000000000000000000000000000602082015250565b600061342b602683612c1f565b9150613436826133cf565b604082019050919050565b6000602082019050818103600083015261345a8161341e565b9050919050565b7f4d6963726f6772696420616c7265616479207265676973746572656420666f7260008201527f2074686973206f776e6572000000000000000000000000000000000000000000602082015250565b60006134bd602b83612c1f565b91506134c882613461565b604082019050919050565b600060208201905081810360008301526134ec816134b0565b9050919050565b60006134fe8261288a565b91507fffffffffffffffffffffffffffffffffffffffffffffffffffffffffffffffff82036135305761352f613153565b5b600182019050919050565b60008190508160005260206000209050919050565b60006020601f8301049050919050565b600082821b905092915050565b60006008830261359d7fffffffffffffffffffffffffffffffffffffffffffffffffffffffffffffffff82613560565b6135a78683613560565b95508019841693508086168417925050509392505050565b6000819050919050565b60006135e46135df6135da8461288a565b6135bf565b61288a565b9050919050565b6000819050919050565b6135fe836135c9565b61361261360a826135eb565b84845461356d565b825550505050565b600090565b61362761361a565b6136328184846135f5565b505050565b5b818110156136565761364b60008261361f565b600181019050613638565b5050565b601f82111561369b5761366c8161353b565b61367584613550565b81016020851015613684578190505b61369861369085613550565b830182613637565b50505b505050565b600082821c905092915050565b60006136be600019846008026136a0565b1980831691505092915050565b60006136d783836136ad565b9150826002028217905092915050565b6136f082612932565b67ffffffffffffffff81111561370957613708612d34565b5b61371382546130b6565b61371e82828561365a565b600060209050601f831160018114613751576000841561373f578287015190505b61374985826136cb565b8655506137b1565b601f19841661375f8661353b565b60005b8281101561378757848901518255600182019150602085019450602081019050613762565b868310156137a457848901516137a0601f8916826136ad565b8355505b6001600288020188555050505b505050505050565b600060608201905081810360008301526137d38186612c30565b90506137e26020830185612b38565b6137ef6040830184612b38565b949350505050565b7f42617474657279206c6576656c206d757374206265206265747765656e20302060008201527f616e642031303000000000000000000000000000000000000000000000000000602082015250565b6000613853602783612c1f565b915061385e826137f7565b604082019050919050565b6000602082019050818103600083015261388281613846565b9050919050565b7f456e657267792067656e6572617465642065786365656473206d61782063617060008201527f6163697479000000000000000000000000000000000000000000000000000000602082015250565b60006138e5602583612c1f565b91506138f082613889565b604082019050919050565b60006020820190508181036000830152613914816138d8565b9050919050565b7f456e657267792064656d616e642065786365656473206d61782063617061636960008201527f7479000000000000000000000000000000000000000000000000000000000000602082015250565b6000613977602283612c1f565b91506139828261391b565b604082019050919050565b600060208201905081810360008301526139a68161396a565b9050919050565b60006080820190506139c26000830187612b38565b6139cf6020830186612b38565b6139dc6040830185612b38565b6139e96060830184612b38565b95945050505050565b7f4d61726b6574706c616365206164647265737320616c72656164792073657400600082015250565b6000613a28601f83612c1f565b9150613a33826139f2565b602082019050919050565b60006020820190508181036000830152613a5781613a1b565b9050919050565b6000613a698261288a565b9150613a748361288a565b9250828201905080821115613a8c57613a8b613153565b5b9291505056fea2646970667358221220d2449c39864ead1851879d519c9d9d53f8758a88e4ee8e4bea3303b75aaffac964736f6c634300081c0033",
  "linkReferences": {},
  "deployedLinkReferences": {}
}